0074373804426584612018-02-16501818SPEI RECIBIDO    0001800      00000000055042.00MXP0000000007-110-3038  PAGO TESOFE  0100 00000002018/02/16            T20   0000
0074373804426584612018-02-16033754DEPOSITO EFECTIVO/CHEQUE      00000000000020.00MXP00000000003375408ANTARAA               00000002018/02/16            C02   0000
0074373804426584612018-02-16033753DEPOSITO EFECTIVO/CHEQUE      00000000000100.00MXP00000000003375398ANTARAA               00000002018/02/16            C02   0000
0074373804426584612018-02-16000000SALDO ULTIMA TRANS            20000000088060.32MXP000000000                              00000002018/02/16                  0000
