0074373804426584612021-05-04003156IVA COM SERVICIOS BNTC        10000000000132.80MXP0000000000315680      SICOCO ABR 2021  00000002021/05/04            W86   0000
0074373804426584612021-05-04003156IVA COM TRANSACCIONE BNTC     10000000000517.96MXP0000000000315680      SICOCO ABR 2021  00000002021/05/04            W84   0000
0074373804426584612021-05-04003156COM SERV BANCOMER NET CAS     10000000000830.00MXP0000000000315680      SICOCO ABR 2021  00000002021/05/04            W85   0000
0074373804426584612021-05-04003156COM TRANSACCIONES BNTC        10000000003237.30MXP0000000000315680      SICOCO ABR 2021  00000002021/05/04            W83   0000
0074373804426584612021-05-04000000SALDO ULTIMA TRANS            20000000011050.94MXP000000000                              00000002021/05/04                  0000
