0074373804426584612021-05-03000000INTERESES MES ANTERIOR        00000000000000.89MXP000000000                              00000002021/05/03            C19   0000
0074373804426584612021-05-03000000I.S.R. DE INTERESES           10000000000000.89MXP000000000                              00000002021/05/03            C20   0000
0074373804426584612021-05-03000000SALDO ULTIMA TRANS            20000000015769.00MXP000000000                              00000002021/05/03                  0000
