0074373804426584612021-05-05688445IVA COMISION                  10000000000057.44MXP000000000005688445                     00000002021/05/05            V10   0000
0074373804426584612021-05-05688445CUOTA POR BAJA FACTURACION TPV10000000000359.00MXP000000000005688445                     00000002021/05/05            V09   0000
0074373804426584612021-05-05000000SALDO ULTIMA TRANS            20000000010634.50MXP000000000                              00000002021/05/05                  0000
