0074180301740583562021-05-03959293SPEI RECIBIDO    1210503      00000000013795.30MXP000000000AUTOTRANSPORTES ORO GRAN TURIS00000002021/05/03            T20   0000
0074180301740583562021-05-03936054SPEI RECIBIDO    1210503      00000000018458.60MXP000000000AUTOTRANSPORTES ORO GRAN TURIS00000002021/05/03            T20   0000
0074180301740583562021-05-03737591SPEI RECIBIDO    1210503      00000000019560.50MXP000000000AUTOTRANSPORTES ORO GRAN TURIS00000002021/05/03            T20   0000
0074180301740583562021-05-03709692SPEI RECIBIDO    0000205      00000000016066.58MXP000000000DIESEL                        00000002021/05/02            T20   0000
0074180301740583562021-05-03498120SPEI RECIBIDO    0000001      00000000023905.43MXP000000000Pago Efectivale G GASOLINAS RE00000002021/05/03            T20   0000
0074180301740583562021-05-03393154SPEI RECIBIDO    1210503      00000000021207.70MXP000000000AUTOTRANSPORTES ORO GRAN TURIS00000002021/05/03            T20   0000
0074180301740583562021-05-03345542VENTAS DEBITO                 00000000082038.54MXP000000000144345542                     00000002021/05/03            V42   0000
0074180301740583562021-05-03345542VENTAS CREDITO                00000000077355.02MXP000000000144345542                     00000002021/05/03            V45   0000
0074180301740583562021-05-03345542VENTAS DEBITO                 00000000053792.79MXP000000000144345542                     00000002021/05/03            V42   0000
0074180301740583562021-05-03345542VENTAS CREDITO                00000000023859.35MXP000000000144345542                     00000002021/05/03            V45   0000
0074180301740583562021-05-03345542VENTAS DEBITO                 00000000020898.48MXP000000000144345542                     00000002021/05/03            V42   0000
0074180301740583562021-05-03345542VENTAS CREDITO                00000000008393.69MXP000000000144345542                     00000002021/05/03            V45   0000
0074180301740583562021-05-03345542IVA COM. VENTAS CREDITO       10000000000016.78MXP000000000174345542                     00000002021/05/03            V47   0000
0074180301740583562021-05-03345542IVA COM. VENTAS DEBITO        10000000000019.38MXP000000000174345542                     00000002021/05/03            V44   0000
0074180301740583562021-05-03345542IVA COM. VENTAS DEBITO        10000000000039.77MXP000000000174345542                     00000002021/05/03            V44   0000
0074180301740583562021-05-03345542IVA COM. VENTAS CREDITO       10000000000047.70MXP000000000174345542                     00000002021/05/03            V47   0000
0074180301740583562021-05-03345542IVA COM. VENTAS DEBITO        10000000000064.76MXP000000000174345542                     00000002021/05/03            V44   0000
0074180301740583562021-05-03345542COMISION VENTAS CREDITO       10000000000104.90MXP000000000174345542                     00000002021/05/03            V46   0000
0074180301740583562021-05-03345542COMISION VENTAS DEBITO        10000000000121.12MXP000000000174345542                     00000002021/05/03            V43   0000
0074180301740583562021-05-03345542IVA COM. VENTAS CREDITO       10000000000154.70MXP000000000174345542                     00000002021/05/03            V47   0000
0074180301740583562021-05-03345542COMISION VENTAS DEBITO        10000000000248.51MXP000000000174345542                     00000002021/05/03            V43   0000
0074180301740583562021-05-03345542COMISION VENTAS CREDITO       10000000000298.14MXP000000000174345542                     00000002021/05/03            V46   0000
0074180301740583562021-05-03345542COMISION VENTAS DEBITO        10000000000404.73MXP000000000174345542                     00000002021/05/03            V43   0000
0074180301740583562021-05-03345542COMISION VENTAS CREDITO       10000000000966.85MXP000000000174345542                     00000002021/05/03            V46   0000
0074180301740583562021-05-033442841119648 DEM. EFECTIVO         00000000079730.50MXP0074180301740583560                    00000002021/05/03            C72   0000
0074180301740583562021-05-033442731119648 DEM. EFECTIVO         00000000059349.00MXP0074180301740583560                    00000002021/05/03            C72   0000
0074180301740583562021-05-033442621119648 DEM. EFECTIVO         00000000045123.50MXP0074180301740583560                    00000002021/05/03            C72   0000
0074180301740583562021-05-033442511119648 DEM. EFECTIVO         00000000014701.50MXP0074180301740583560                    00000002021/05/03            C72   0000
0074180301740583562021-05-033442401119648 DEM. EFECTIVO         00000000088585.00MXP0074180301740583560                    00000002021/05/03            C72   0000
0074180301740583562021-05-033442301119648 DEM. EFECTIVO         00000000013327.00MXP0074180301740583560                    00000002021/05/03            C72   0000
0074180301740583562021-05-033442291119648 DEM. EFECTIVO         00000000008938.00MXP0074180301740583560                    00000002021/05/03            C72   0000
0074180301740583562021-05-033442181119648 DEM. EFECTIVO         00000000060931.00MXP0074180301740583560                    00000002021/05/03            C72   0000
0074180301740583562021-05-03267439SPEI RECIBIDO    9028951      00000000000185.08MXP000000000AF000005577362                00000002021/05/03            T20   0000
0074180301740583562021-05-03267438SPEI RECIBIDO    9028950      00000000022842.95MXP000000000AF000005582234                00000002021/05/03            T20   0000
0074180301740583562021-05-03165422SPEI RECIBIDO    1210503      00000000012236.60MXP000000000AUTOTRANSPORTES ORO GRAN TURIS00000002021/05/03            T20   0000
0074180301740583562021-05-03155135SPEI RECIBIDO    1210503      00000000020384.10MXP000000000AUTOTRANSPORTES ORO GRAN TURIS00000002021/05/03            T20   0000
0074180301740583562021-05-03111964SOBRANTE DE EFECTIVO          00000000000007.00MXP000000000DEM REF:1740583560           500000002021/05/03            C76   0000
0074180301740583562021-05-03031879SPEI RECIBIDO    1210503      00000000023021.40MXP000000000AUTOTRANSPORTES ORO GRAN TURIS00000002021/05/03            T20   0000
0074180301740583562021-05-03000000SALDO ULTIMA TRANS            20000001571496.84MXP000000000                              00000002021/05/03                  0000
