0074180301740583562021-05-05702691SPEI RECIBIDO    0000001      00000000003755.92MXP000000000Pago Efectivale A GASOLINAS RE00000002021/05/05            T20   0000
0074180301740583562021-05-056264771119648 DEM. EFECTIVO         00000000027048.00MXP0074180301740583560                    00000002021/05/05            C72   0000
0074180301740583562021-05-056264661119648 DEM. EFECTIVO         00000000009538.00MXP0074180301740583560                    00000002021/05/05            C72   0000
0074180301740583562021-05-056264551119648 DEM. EFECTIVO         00000000089772.50MXP0074180301740583560                    00000002021/05/05            C72   0000
0074180301740583562021-05-056264441119648 DEM. EFECTIVO         00000000083793.00MXP0074180301740583560                    00000002021/05/05            C72   0000
0074180301740583562021-05-05405959SPEI RECIBIDO    1210505      00000000009333.00MXP000000000AUTOTRANSPORTES ORO GRAN TURIS00000002021/05/05            T20   0000
0074180301740583562021-05-05345542VENTAS DEBITO                 00000000036016.33MXP000000000144345542                     00000002021/05/05            V42   0000
0074180301740583562021-05-05345542VENTAS DEBITO                 00000000000300.00MXP000000000144345542                     00000002021/05/05            V42   0000
0074180301740583562021-05-05345542VENTAS CREDITO                00000000009422.14MXP000000000144345542                     00000002021/05/05            V45   0000
0074180301740583562021-05-05345542IVA COM. VENTAS DEBITO        10000000000000.38MXP000000000174345542                     00000002021/05/05            V44   0000
0074180301740583562021-05-05345542COMISION VENTAS DEBITO        10000000000002.40MXP000000000174345542                     00000002021/05/05            V43   0000
0074180301740583562021-05-05345542IVA COM. VENTAS CREDITO       10000000000018.84MXP000000000174345542                     00000002021/05/05            V47   0000
0074180301740583562021-05-05345542IVA COM. VENTAS DEBITO        10000000000042.56MXP000000000174345542                     00000002021/05/05            V44   0000
0074180301740583562021-05-05345542COMISION VENTAS CREDITO       10000000000117.72MXP000000000174345542                     00000002021/05/05            V46   0000
0074180301740583562021-05-05345542COMISION VENTAS DEBITO        10000000000265.99MXP000000000174345542                     00000002021/05/05            V43   0000
0074180301740583562021-05-05123348SPEI RECIBIDO    1210505      00000000015140.00MXP000000000AUTOTRANSPORTES ORO GRAN TURIS00000002021/05/05            T20   0000
0074180301740583562021-05-05099870SPEI RECIBIDO    0050521      00000000014309.03MXP000000000PAGO INTERBANCARIO            00000002021/05/05            T20   0000
0074180301740583562021-05-05000000PAGO CUENTA DE TERCERO        00000000002100.00MXP000000000BNET    0450795895 PAGO GASOLI00000002021/05/05            N06   0000
0074180301740583562021-05-05000000SALDO ULTIMA TRANS            20000006346064.23MXP000000000                              00000002021/05/05                  0000
