0074180301740583562021-05-06345542VENTAS DEBITO                 00000000001595.40MXP000000000144345542                     00000002021/05/06            V42   0000
0074180301740583562021-05-06345542VENTAS CREDITO                00000000027626.15MXP000000000144345542                     00000002021/05/06            V45   0000
0074180301740583562021-05-06345542VENTAS DEBITO                 00000000031034.82MXP000000000144345542                     00000002021/05/06            V42   0000
0074180301740583562021-05-06345542COMISION VENTAS CREDITO       10000000000345.31MXP000000000174345542                     00000002021/05/06            V46   0000
0074180301740583562021-05-06345542COMISION VENTAS DEBITO        10000000000127.75MXP000000000174345542                     00000002021/05/06            V43   0000
0074180301740583562021-05-06345542IVA COM. VENTAS CREDITO       10000000000055.25MXP000000000174345542                     00000002021/05/06            V47   0000
0074180301740583562021-05-06345542IVA COM. VENTAS DEBITO        10000000000020.44MXP000000000174345542                     00000002021/05/06            V44   0000
0074180301740583562021-05-06345542COMISION VENTAS DEBITO        10000000000012.76MXP000000000174345542                     00000002021/05/06            V43   0000
0074180301740583562021-05-06345542IVA COM. VENTAS DEBITO        10000000000002.04MXP000000000174345542                     00000002021/05/06            V44   0000
0074180301740583562021-05-06221285SPEI ENVIADO                  10000000162960.00MXP0000000000060521F TT4233 4261 4303 425500000002021/05/06            T17   0000
0074180301740583562021-05-06221284SPEI ENVIADO                  10000000570650.19MXP0000000000060521PAGO FAC F42304000     00000002021/05/06            T17   0000
0074180301740583562021-05-06221283SPEI ENVIADO                  10000000571021.49MXP0000000000060521PAGO FAC F42305000     00000002021/05/06            T17   0000
0074180301740583562021-05-06221282SPEI ENVIADO                  10000000569070.61MXP0000000000060521PAGO FAC C41739000     00000002021/05/06            T17   0000
0074180301740583562021-05-06221281SPEI ENVIADO                  10000000568793.36MXP0000000000060521PAGO FAC C41740000     00000002021/05/06            T17   0000
0074180301740583562021-05-06221280SPEI ENVIADO                  10000000573861.78MXP0000000000060521PAGO FAC F40989000     00000002021/05/06            T17   0000
0074180301740583562021-05-06221279SPEI ENVIADO                  10000000573843.13MXP0000000000060521PAGO FAC F40988000     00000002021/05/06            T17   0000
0074180301740583562021-05-06221278SPEI ENVIADO                  10000000580594.04MXP0000000000060521PAGO FAC F40648000     00000002021/05/06            T17   0000
0074180301740583562021-05-06221277SPEI ENVIADO                  10000000471853.19MXP0000000000060521PAGO FAC FGD269853     00000002021/05/06            T17   0000
0074180301740583562021-05-06221276SPEI ENVIADO                  10000000553468.65MXP0000000000060521PAGO FAC FGD269872     00000002021/05/06            T17   0000
0074180301740583562021-05-06221275SPEI ENVIADO                  10000000002088.00MXP0000000000060521PAGO FAC FGD269217     00000002021/05/06            T17   0000
0074180301740583562021-05-061000601119648 DEM. EFECTIVO         00000000113540.00MXP0074180301740583560                    00000002021/05/06            C72   0000
0074180301740583562021-05-061000501119648 DEM. EFECTIVO         00000000019583.00MXP0074180301740583560                    00000002021/05/06            C72   0000
0074180301740583562021-05-061000491119648 DEM. EFECTIVO         00000000047061.50MXP0074180301740583560                    00000002021/05/06            C72   0000
0074180301740583562021-05-061000381119648 DEM. EFECTIVO         00000000010426.00MXP0074180301740583560                    00000002021/05/06            C72   0000
0074180301740583562021-05-06000000ABONO MISMA PLAZA VIA CW      00000000006335.59MXP000000000PAGO FAC 39690 39689 Y 39688  00000002021/05/06            W02   0000
0074180301740583562021-05-06000000PAGO CUENTA DE TERCERO        00000000016408.27MXP000000000BNET    1578685010 PAG DISEL Y00000002021/05/06            N06   0000
0074180301740583562021-05-06000000CARGO TRASPASO MISMA PLAZA CW 10000000014392.99MXP000000000REMISION 5475000              00000002021/05/06            W41   0000
0074180301740583562021-05-06000000CARGO TRASPASO MISMA PLAZA CW 10000000014421.00MXP000000000REMISION 5476000              00000002021/05/06            W41   0000
0074180301740583562021-05-06000000CARGO TRASPASO MISMA PLAZA CW 10000000027943.28MXP000000000REMISION 5098000              00000002021/05/06            W41   0000
0074180301740583562021-05-06000000CARGO TRASPASO MISMA PLAZA CW 10000000027955.08MXP000000000REMISION 5099000              00000002021/05/06            W41   0000
0074180301740583562021-05-06000000CARGO TRASPASO MISMA PLAZA CW 10000000032493.90MXP000000000REMISION 4738000              00000002021/05/06            W41   0000
0074180301740583562021-05-06000000CARGO TRASPASO MISMA PLAZA CW 10000000032498.12MXP000000000REMISION 4737000              00000002021/05/06            W41   0000
0074180301740583562021-05-06000000CARGO TRASPASO MISMA PLAZA CW 10000000033832.18MXP000000000REMISION 233897               00000002021/05/06            W41   0000
0074180301740583562021-05-06000000CARGO TRASPASO MISMA PLAZA CW 10000000034609.09MXP000000000REMISION 2979                 00000002021/05/06            W41   0000
0074180301740583562021-05-06000000CARGO TRASPASO MISMA PLAZA CW 10000000034644.03MXP000000000REMISION 2980                 00000002021/05/06            W41   0000
0074180301740583562021-05-06000000CARGO TRASPASO MISMA PLAZA CW 10000000038764.53MXP000000000REMISION 4064000              00000002021/05/06            W41   0000
0074180301740583562021-05-06000000CARGO TRASPASO MISMA PLAZA CW 10000000038784.68MXP000000000REMISION 4065000              00000002021/05/06            W41   0000
0074180301740583562021-05-06000000CARGO TRASPASO MISMA PLAZA CW 10000000039964.59MXP000000000REMISION 371436               00000002021/05/06            W41   0000
0074180301740583562021-05-06000000CARGO TRASPASO MISMA PLAZA CW 10000000040988.86MXP000000000REMISION 371435               00000002021/05/06            W41   0000
0074180301740583562021-05-06000000CARGO TRASPASO MISMA PLAZA CW 10000000041039.40MXP000000000REMISION 370493               00000002021/05/06            W41   0000
0074180301740583562021-05-06000000CARGO TRASPASO MISMA PLAZA CW 10000000041071.42MXP000000000REMISION 372416               00000002021/05/06            W41   0000
0074180301740583562021-05-06000000CARGO TRASPASO MISMA PLAZA CW 10000000042039.94MXP000000000REMISION 235879               00000002021/05/06            W41   0000
0074180301740583562021-05-06000000CARGO TRASPASO MISMA PLAZA CW 10000000043376.49MXP000000000REMISION 3666000              00000002021/05/06            W41   0000
0074180301740583562021-05-06000000CARGO TRASPASO MISMA PLAZA CW 10000000043418.73MXP000000000REMISION 3667000              00000002021/05/06            W41   0000
0074180301740583562021-05-06000000CARGO TRASPASO MISMA PLAZA CW 10000000043552.21MXP000000000REMISION 371986               00000002021/05/06            W41   0000
0074180301740583562021-05-06000000CARGO TRASPASO MISMA PLAZA CW 10000000043569.20MXP000000000REMISION 371987               00000002021/05/06            W41   0000
0074180301740583562021-05-06000000CARGO TRASPASO MISMA PLAZA CW 10000000043647.68MXP000000000REMISION 367527               00000002021/05/06            W41   0000
0074180301740583562021-05-06000000CARGO TRASPASO MISMA PLAZA CW 10000000043717.69MXP000000000REMISION 232446               00000002021/05/06            W41   0000
0074180301740583562021-05-06000000CARGO TRASPASO MISMA PLAZA CW 10000000047084.11MXP000000000REMISION 370494               00000002021/05/06            W41   0000
0074180301740583562021-05-06000000CARGO TRASPASO MISMA PLAZA CW 10000000055031.28MXP000000000REMISION 370919               00000002021/05/06            W41   0000
0074180301740583562021-05-06000000CARGO TRASPASO MISMA PLAZA CW 10000000055079.47MXP000000000REMISION 370918               00000002021/05/06            W41   0000
0074180301740583562021-05-06000000SALDO ULTIMA TRANS            20000000466987.02MXP000000000                              00000002021/05/06                  0000
