0074180301740583562021-05-04960922SPEI RECIBIDO    1210504      00000000028621.20MXP000000000AUTOTRANSPORTES ORO GRAN TURIS00000002021/05/04            T20   0000
0074180301740583562021-05-04906633SPEI RECIBIDO    0000405      00000000080000.00MXP000000000DIESEL PUEBLA                 00000002021/05/04            T20   0000
0074180301740583562021-05-04812869SPEI RECIBIDO    1210504      00000000016280.90MXP000000000AUTOTRANSPORTES ORO GRAN TURIS00000002021/05/04            T20   0000
0074180301740583562021-05-04734486SPEI RECIBIDO    1210504      00000000012444.00MXP000000000AUTOTRANSPORTES ORO GRAN TURIS00000002021/05/04            T20   0000
0074180301740583562021-05-04689053SPEI RECIBIDO    0040521      00000000150000.00MXP000000000PAGO DE DIESEL                00000002021/05/04            T20   0000
0074180301740583562021-05-04569263SPEI RECIBIDO    1210504      00000000018043.80MXP000000000AUTOTRANSPORTES ORO GRAN TURIS00000002021/05/04            T20   0000
0074180301740583562021-05-04521816SPEI RECIBIDO    1210504      00000000011821.80MXP000000000AUTOTRANSPORTES ORO GRAN TURIS00000002021/05/04            T20   0000
0074180301740583562021-05-04479502SPEI RECIBIDO    1210504      00000000009747.80MXP000000000AUTOTRANSPORTES ORO GRAN TURIS00000002021/05/04            T20   0000
0074180301740583562021-05-04353337SPEI RECIBIDO    1210504      00000000030695.20MXP000000000AUTOTRANSPORTES ORO GRAN TURIS00000002021/05/04            T20   0000
0074180301740583562021-05-04345542VENTAS DEBITO                 00000000058136.94MXP000000000144345542                     00000002021/05/04            V42   0000
0074180301740583562021-05-04345542VENTAS CREDITO                00000000032047.44MXP000000000144345542                     00000002021/05/04            V45   0000
0074180301740583562021-05-04345542VENTAS CREDITO                00000000000956.76MXP000000000144345542                     00000002021/05/04            V45   0000
0074180301740583562021-05-04345542VENTAS DEBITO                 00000000000096.45MXP000000000144345542                     00000002021/05/04            V42   0000
0074180301740583562021-05-04345542IVA COM. VENTAS DEBITO        10000000000000.12MXP000000000174345542                     00000002021/05/04            V44   0000
0074180301740583562021-05-04345542COMISION VENTAS DEBITO        10000000000000.77MXP000000000174345542                     00000002021/05/04            V43   0000
0074180301740583562021-05-04345542IVA COM. VENTAS CREDITO       10000000000001.91MXP000000000174345542                     00000002021/05/04            V47   0000
0074180301740583562021-05-04345542COMISION VENTAS CREDITO       10000000000011.95MXP000000000174345542                     00000002021/05/04            V46   0000
0074180301740583562021-05-04345542IVA COM. VENTAS DEBITO        10000000000054.08MXP000000000174345542                     00000002021/05/04            V44   0000
0074180301740583562021-05-04345542IVA COM. VENTAS CREDITO       10000000000064.08MXP000000000174345542                     00000002021/05/04            V47   0000
0074180301740583562021-05-04345542COMISION VENTAS DEBITO        10000000000338.02MXP000000000174345542                     00000002021/05/04            V43   0000
0074180301740583562021-05-04345542COMISION VENTAS CREDITO       10000000000400.53MXP000000000174345542                     00000002021/05/04            V46   0000
0074180301740583562021-05-04179766SPEI RECIBIDO    2919375      00000000698804.66MXP0000000002349                          00000002021/05/04            T20   0000
0074180301740583562021-05-04173229SPEI RECIBIDO    2914900      00000000970951.02MXP0000000003279                          00000002021/05/04            T20   0000
0074180301740583562021-05-04165649SPEI RECIBIDO    2908616      00000001989655.59MXP00000000014204                         00000002021/05/04            T20   0000
0074180301740583562021-05-04111964FALTANTE DE EFECTIVO          10000000000001.00MXP000000000DEM REF:1740583560           600000002021/05/04            C77   0000
0074180301740583562021-05-04111964FALTANTE DE EFECTIVO          10000000000003.00MXP000000000DEM REF:1740583560           600000002021/05/04            C77   0000
0074180301740583562021-05-040499341119648 DEM. EFECTIVO         00000000066723.00MXP0074180301740583560                    00000002021/05/04            C72   0000
0074180301740583562021-05-040499231119648 DEM. EFECTIVO         00000000018570.00MXP0074180301740583560                    00000002021/05/04            C72   0000
0074180301740583562021-05-040499121119648 DEM. EFECTIVO         00000000012438.50MXP0074180301740583560                    00000002021/05/04            C72   0000
0074180301740583562021-05-040499011119648 DEM. EFECTIVO         00000000047348.00MXP0074180301740583560                    00000002021/05/04            C72   0000
0074180301740583562021-05-040498901119648 DEM. EFECTIVO         00000000081156.50MXP0074180301740583560                    00000002021/05/04            C72   0000
0074180301740583562021-05-040498801119648 DEM. EFECTIVO         00000000071654.50MXP0074180301740583560                    00000002021/05/04            C72   0000
0074180301740583562021-05-040498791119648 DEM. EFECTIVO         00000000015285.00MXP0074180301740583560                    00000002021/05/04            C72   0000
0074180301740583562021-05-040498681119648 DEM. EFECTIVO         00000000009353.50MXP0074180301740583560                    00000002021/05/04            C72   0000
0074180301740583562021-05-04004672DEPOSITO EFECTIVO/CHEQUE      00000000002573.69MXP0000000000046727                       00000002021/05/04            C02   0000
0074180301740583562021-05-04004672DEPOSITO EFECTIVO/CHEQUE      00000000019749.97MXP0000000000046729                       00000002021/05/04            C02   0000
0074180301740583562021-05-04004672DEPOSITO EFECTIVO/CHEQUE      00000000022206.60MXP0000000000046728                       00000002021/05/04            C02   0000
0074180301740583562021-05-04000000SALDO ULTIMA TRANS            20000006045984.20MXP000000000                              00000002021/05/04                  0000
