0074180301740583562021-05-10921562SPEI RECIBIDO    1210510      00000000017629.00MXP000000000AUTOTRANSPORTES ORO GRAN TURIS00000002021/05/10            T20   0000
0074180301740583562021-05-10764452SPEI RECIBIDO    9115970      00000000000010.23MXP000000000AF000005589145                00000002021/05/10            T20   0000
0074180301740583562021-05-10764450SPEI RECIBIDO    9115969      00000000037862.27MXP000000000AF000005593095                00000002021/05/10            T20   0000
0074180301740583562021-05-10651192SPEI RECIBIDO    0852021      00000000100000.00MXP000000000PAGO COMBUSTIBLE CASTANEDA    00000002021/05/08            T20   0000
0074180301740583562021-05-10609635INTERBANCARIO RECIBIDO        00000000009211.91MXP0000000005677645FACTURA 39743          00000002021/05/10            T09   0000
0074180301740583562021-05-10510404SPEI RECIBIDO    1210510      00000000019703.00MXP000000000AUTOTRANSPORTES ORO GRAN TURIS00000002021/05/10            T20   0000
0074180301740583562021-05-10509687SPEI RECIBIDO    1210510      00000000041540.00MXP000000000AUTOTRANSPORTES ORO GRAN TURIS00000002021/05/10            T20   0000
0074180301740583562021-05-10389745SPEI RECIBIDO    1210510      00000000010370.00MXP000000000AUTOTRANSPORTES ORO GRAN TURIS00000002021/05/10            T20   0000
0074180301740583562021-05-10358910SPEI RECIBIDO    0827982      00000000090000.00MXP000000000DIESEL PUEBLA                 00000002021/05/10            T20   0000
0074180301740583562021-05-10345542VENTAS CREDITO                00000000118865.89MXP000000000144345542                     00000002021/05/10            V45   0000
0074180301740583562021-05-10345542VENTAS DEBITO                 00000000079660.13MXP000000000144345542                     00000002021/05/10            V42   0000
0074180301740583562021-05-10345542VENTAS DEBITO                 00000000075798.00MXP000000000144345542                     00000002021/05/10            V42   0000
0074180301740583562021-05-10345542VENTAS DEBITO                 00000000041521.43MXP000000000144345542                     00000002021/05/10            V42   0000
0074180301740583562021-05-10345542VENTAS CREDITO                00000000018878.15MXP000000000144345542                     00000002021/05/10            V45   0000
0074180301740583562021-05-10345542VENTAS CREDITO                00000000008178.75MXP000000000144345542                     00000002021/05/10            V45   0000
0074180301740583562021-05-10345542VENTAS CREDITO                00000000000800.00MXP000000000144345542                     00000002021/05/10            V45   0000
0074180301740583562021-05-10345542COMISION VENTAS CREDITO       10000000000010.00MXP000000000174345542                     00000002021/05/10            V46   0000
0074180301740583562021-05-10345542IVA COM. VENTAS CREDITO       10000000000016.35MXP000000000174345542                     00000002021/05/10            V47   0000
0074180301740583562021-05-10345542IVA COM. VENTAS DEBITO        10000000000029.17MXP000000000174345542                     00000002021/05/10            V44   0000
0074180301740583562021-05-10345542IVA COM. VENTAS CREDITO       10000000000037.74MXP000000000174345542                     00000002021/05/10            V47   0000
0074180301740583562021-05-10345542IVA COM. VENTAS DEBITO        10000000000052.46MXP000000000174345542                     00000002021/05/10            V44   0000
0074180301740583562021-05-10345542IVA COM. VENTAS DEBITO        10000000000067.70MXP000000000174345542                     00000002021/05/10            V44   0000
0074180301740583562021-05-10345542COMISION VENTAS CREDITO       10000000000102.20MXP000000000174345542                     00000002021/05/10            V46   0000
0074180301740583562021-05-10345542COMISION VENTAS DEBITO        10000000000182.34MXP000000000174345542                     00000002021/05/10            V43   0000
0074180301740583562021-05-10345542COMISION VENTAS CREDITO       10000000000235.90MXP000000000174345542                     00000002021/05/10            V46   0000
0074180301740583562021-05-10345542IVA COM. VENTAS CREDITO       10000000000237.72MXP000000000174345542                     00000002021/05/10            V47   0000
0074180301740583562021-05-10345542COMISION VENTAS DEBITO        10000000000327.89MXP000000000174345542                     00000002021/05/10            V43   0000
0074180301740583562021-05-10345542COMISION VENTAS DEBITO        10000000000423.12MXP000000000174345542                     00000002021/05/10            V43   0000
0074180301740583562021-05-10345542COMISION VENTAS CREDITO       10000000001485.76MXP000000000174345542                     00000002021/05/10            V46   0000
0074180301740583562021-05-10345542IVA COM. VENTAS CREDITO       10000000000001.60MXP000000000174345542                     00000002021/05/10            V47   0000
0074180301740583562021-05-102987961119648 DEM. EFECTIVO         00000000079656.00MXP0074180301740583560                    00000002021/05/10            C72   0000
0074180301740583562021-05-102987851119648 DEM. EFECTIVO         00000000003338.00MXP0074180301740583560                    00000002021/05/10            C72   0000
0074180301740583562021-05-102987741119648 DEM. EFECTIVO         00000000009495.50MXP0074180301740583560                    00000002021/05/10            C72   0000
0074180301740583562021-05-102987631119648 DEM. EFECTIVO         00000000058773.50MXP0074180301740583560                    00000002021/05/10            C72   0000
0074180301740583562021-05-102972781119648 DEM. EFECTIVO         00000000013033.50MXP0074180301740583560                    00000002021/05/10            C72   0000
0074180301740583562021-05-102972671119648 DEM. EFECTIVO         00000000019959.00MXP0074180301740583560                    00000002021/05/10            C72   0000
0074180301740583562021-05-102972561119648 DEM. EFECTIVO         00000000079872.00MXP0074180301740583560                    00000002021/05/10            C72   0000
0074180301740583562021-05-102972451119648 DEM. EFECTIVO         00000000063746.50MXP0074180301740583560                    00000002021/05/10            C72   0000
0074180301740583562021-05-10173448SPEI RECIBIDO    1210510      00000000016616.00MXP000000000AUTOTRANSPORTES ORO GRAN TURIS00000002021/05/10            T20   0000
0074180301740583562021-05-10111964FALTANTE DE EFECTIVO          10000000000003.50MXP000000000DEM REF:1740583560           800000002021/05/10            C77   0000
0074180301740583562021-05-10000000PAGO CUENTA DE TERCERO        00000000002000.00MXP000000000BNET    0450795895 PAGO GASOLI00000002021/05/08            N06   0000
0074180301740583562021-05-10000000SI VALE MEXICO SA DE13151     10000000000853.36MXP000000000SI VALE                       00000002021/05/10            P31   0000
0074180301740583562021-05-10000000SALDO ULTIMA TRANS            20000001798374.76MXP000000000                              00000002021/05/10                  0000
