65502328285     09022021021205620081LIQ INV PLAZO                           +000003928000000000039302024600001400                                        
65502328285     09022021021205620083LIQ INTS PLAZO                          +000000000447360000039306498200001400                                        
65502328285     09022021021205620585ISR INV PLAZO                           -000000000104380000039305454400001400                                        
65502328285     09022021083371370000DEP EN EFECTIV                          +00000000308900000003933634440000000030082021CAPSETEXT0                      
65502328285     09022021083371370000DEP EN EFECTIV                          +00000000103200000003934666440000000031082021CAPSETEXT9                      
65502328285     09022021083371370000DEP EN EFECTIV                          +00000003662500000003971291440000000031082021CAPUT7                          
65502328285     09022021083371370000DEP EN EFECTIV                          +00000003650200000004007793440000000030082021CAPUT8                          
65502328285     09022021083371370000DEP EN EFECTIV                          +00000004326400000004051057440000000030082021CAPURT                          
65502328285     09022021084609810681CGO TRANS ELEC                          -000000001341000000040497164403359870FF TTP MEX                              
65502328285     09022021084609810681CGO TRANS ELEC                          -000000009954000000040397624403359872FF TTP PUE                              
65502328285     09022021093271600000DEP EN EFECTIV                          +00000000017700000004039939440000000031082021SMAV                            
65502328285     09022021093271600000DEP EN EFECTIV                          +00000003300000000004072939440000000030082021SMAM                            
65502328285     09022021093271600000DEP EN EFECTIV                          +00000000075900000004073698440000000030082021SATAT                           
65502328285     09022021093271600000DEP EN EFECTIV                          +00000005182300000004125521440000000030082021SMAT                            
65502328285     09022021093271600000DEP EN EFECTIV                          +00000007617000000004201691440000000031082021SMAT                            
65502328285     09022021093271600000DEP EN EFECTIV                          +00000000077700000004202468440000000031082021SATAT                           
65502328285     09022021093271600000DEP EN EFECTIV                          +00000000006600000004202534440000000030082021SMAV                            
65502328285     09022021100271370000DEP EN EFECTIV                          +00000000285800000004205392440000000025082021PSDGT9                          
65502328285     09022021100271370000DEP EN EFECTIV                          +00000000557200000004210964440000000029082021PSDGT5                          
65502328285     09022021100271370000DEP EN EFECTIV                          +00000000235400000004213318440000000028082021PSDGT6                          
65502328285     09022021100271370000DEP EN EFECTIV                          +00000000243000000004215748440000000026082021PSDGT8                          
65502328285     09022021100271370000DEP EN EFECTIV                          +00000000458200000004220330440000000027082021PSDGT7                          
65502328285     09022021100271370000DEP EN EFECTIV                          +00000000347600000004223806440000000030082021PSDGT2                          
65502328285     09022021100271370000DEP EN EFECTIV                          +00000000341000000004227216440000000031082021PSDGT1                          
65502328285     09022021101868780000DEP EN EFECTIV                          +00000004327300000004270489440000000029082021TAPORT                          
65502328285     09022021101868780000DEP EN EFECTIV                          +00000004096900000004311458440000000028082021TAPORT                          
65502328285     09022021101868780000DEP EN EFECTIV                          +00000000011000000004311568440000000029082021DRIVER0                         
65502328285     09022021101868780000DEP EN EFECTIV                          +00000002339000000004334958440000000029082021TAPOT6                          
65502328285     09022021103268780000DEP EN EFECTIV                          +00000001868400000004353642440000000030082021TAPOT0                          
65502328285     09022021103268780000DEP EN EFECTIV                          +00000001586600000004369508440000000031082021TAPOT7                          
65502328285     09022021110774650291AB TRANSF SPEI                          +000000001236000000043707444409526603VENTAS 16 AL 31 AGOSTOTORRES PUEBLA     20921   002180700666034560
65502328285     09022021131674650291AB TRANSF SPEI                          +000000222758350000045935027909770127Transferencias PayU4458882              4458882 012180001908758138
65502328285     09022021131674650291AB TRANSF SPEI                          +000000011993200000046054959909770252Transferencias PayU4459686              4459686 012180001908758138
65502328285     09022021132609810790PAGO TRAN SPEI                          -000000280000000000043254959909794597TRASPASO 8285 A 1857         
65502328285     09022021133809810790PAGO TRAN SPEI                          -0000000000615400000432543445098188163670 FINIQUITO               
65502328285     09022021151025170580CGO AP INV PZO                          -000004324000000000000014344500000000                                        
