65502381527     09142021020405620081LIQ INV PLAZO                           +000015713000000000157146181300002200                                        
65502381527     09142021020405620083LIQ INTS PLAZO                          +000000001789540000157164076700002200                                        
65502381527     09142021020405620585ISR INV PLAZO                           -000000000417570000157159901000002200                                        
65502381527     09142021123268780000DEP EN EFECTIV                          +00000000083752000015716827620000000011092021APOT                            
65502381527     09142021123268780000DEP EN EFECTIV                          +00000000054752000015717375140000000007092021APOT                            
65502381527     09142021123268780000DEP EN EFECTIV                          +00000000094192000015718317060000000006092021APOT                            
65502381527     09142021123268780000DEP EN EFECTIV                          +00000000149947000015719816530000000009092021APOT                            
65502381527     09142021123268780000DEP EN EFECTIV                          +00000000091000000015720726530000000008092021APOT                            
65502381527     09142021141074650291AB TRANSF SPEI                          +000000003800160000157245266906801839AUT MEX PUE ESTRELLA ROJA F PQD 244454  140921  002650426000902538
65502381527     09142021151825170580CGO AP INV PZO                          -000015723000000000000015266900000000                                        
65502381527     09142021204874650291AB TRANSF SPEI                          +000000002333000000000038596907562200244259                                  1409210 012180026171355990
