65502381527     09032021021505620081LIQ INV PLAZO                           +000008427000000000084433877600001500                                        
65502381527     09032021021505620083LIQ INTS PLAZO                          +000000000959740000084443475000001500                                        
65502381527     09032021021505620585ISR INV PLAZO                           -000000000223950000084441235500001500                                        
65502381527     09032021095174650291AB TRANSF SPEI                          +000000020274480000084643980302025537244119 AUTOBUSES                        0030921 012650004437166003
65502381527     09032021103309810180AB TRANS ELECT                          +000000004306500000084687045308950458FACT PQD 241847                         
65502381527     09032021114768780000DEP EN EFECTIV                          +00000020404400000008672748530000000001092021TPOT                            
65502381527     09032021114768780000DEP EN EFECTIV                          +00000000111239000008673860920000000027082021CDNT                            
65502381527     09032021114768780000DEP EN EFECTIV                          +00000000293314000008676794060000000027082021CDST                            
65502381527     09032021114768780000DEP EN EFECTIV                          +00000001281584000008689609900000000030082021TPOT                            
65502381527     09032021114768780000DEP EN EFECTIV                          +00000000381510000008693425000000000026082021CDNT                            
65502381527     09032021114768780000DEP EN EFECTIV                          +00000000180960000008695234600000000026082021CDST                            
65502381527     09032021114768780000DEP EN EFECTIV                          +00000001015138000008705385980000000028082021TPOT                            
65502381527     09032021114768780000DEP EN EFECTIV                          +00000000242092000008707806900000000029082121TPOT                            
65502381527     09032021114768780000DEP EN EFECTIV                          +00000000148480000008709291700000000030082021CDST                            
65502381527     09032021114768780000DEP EN EFECTIV                          +00000000066932000008709961020000000030082021CDNT                            
65502381527     09032021114768780000DEP EN EFECTIV                          +00000000105328000008711014300000000028082021CDST                            
65502381527     09032021114768780000DEP EN EFECTIV                          +00000001713077000008728145070000000031082021TPOT                            
65502381527     09032021123209810180AB TRANS ELECT                          +000000003859900000087320049703941651PQD241840                               
65502381527     09032021130309810681CGO TRANS ELEC                          -000000170000000000085620049700360081TRASPASO 1527 A 3550                    
65502381527     09032021131274650291AB TRANSF SPEI                          +000000000360000000085623649702512220TRANSFERENCIA INTERBANCARIA             30921   002670409800376329
65502381527     09032021135174650291AB TRANSF SPEI                          +000000000550000000085629149702616381GUIA PREPAGADA A TECOMAN COLIMA         30921   002650902512071853
65502381527     09032021151025170580CGO AP INV PZO                          -000008561000000000000019149700000000                                        
65502381527     09032021154874650291AB TRANSF SPEI                          +000000041694750000000436097202921784PAGO DE GUIAS VENCIDAS                  0030921 012180001689673859
65502381527     09032021154974650291AB TRANSF SPEI                          +000000000406000000000440157202925239ESTRELLA ROJA                           0030921 012320001104088598
65502381527     09032021162074650291AB TRANSF SPEI                          +000000008269570000000522852902998116PAGO GUIAS PAQUER DEL 16-31 AGOSTO 2021 244246  002650039367987719
65502381527     09032021162209810180AB TRANS ELECT                          +000000004605200000000568904908652833PGO FACT  20 GUIAS                      
65502381527     09032021183474650291AB TRANSF SPEI                          +000000000613000000000575034903280919243742 244113                           0243742 072180010882136946
