65502328285     09102021020605620081LIQ INV PLAZO                           +000003147000000000031484062300002000                                        
65502328285     09102021020605620083LIQ INTS PLAZO                          +000000000358410000031487646400002000                                        
65502328285     09102021020605620585ISR INV PLAZO                           -000000000083630000031486810100002000                                        
65502328285     09102021083271370000DEP EN EFECTIV                          +00000002583700000003174518010000000008092021CAPUT5                          
65502328285     09102021083271370000DEP EN EFECTIV                          +00000003135900000003205877010000000007092021CAPUT6                          
65502328285     09102021083271370000DEP EN EFECTIV                          +00000000512500000003211002010000000008092021CAPSETEXT                       
65502328285     09102021083271370000DEP EN EFECTIV                          +00000000707600000003218078010000000007092021CAPSETEXT                       
65502328285     09102021083271370000DEP EN EFECTIV                          +00000000000200000003218080010000000008092021CAPSETEXV                       
65502328285     09102021083271370000DEP EN EFECTIV                          +00000003931200000003257392010000000006092021CAPURT                          
65502328285     09102021121968780000DEP EN EFECTIV                          +00000002866300000003286055010000000008092021TAPORT                          
65502328285     09102021121968780000DEP EN EFECTIV                          +00000005235100000003338406010000000006092021TAPORT                          
65502328285     09102021121968780000DEP EN EFECTIV                          +00000003690200000003375308010000000007092021TAPORT                          
65502328285     09102021123674650291AB TRANSF SPEI                          +000000215652520000035909605301679225Transferencias PayU4471564              4471564 012180001908758138
65502328285     09102021131409810790PAGO TRAN SPEI                          -000000030000000000035609605301777094TRASPASO 8285 A 1857         
65502328285     09102021133309810681CGO TRANS ELEC                          -000000002793000000035581675306070307101001000019307981947219217             
65502328285     09102021133809810790PAGO TRAN SPEI                          -00000000348712000003554680410183901868233 FINIQUITO              
65502328285     09102021133809810790PAGO TRAN SPEI                          -00000000408632000003550594090183905068234 FINIQUITO              
65502328285     09102021133809810790PAGO TRAN SPEI                          -0000000100862200000354050787018392703687                         
65502328285     09102021134009810681CGO TRANS ELEC                          -000000048720000000034917878700347300407                                     
65502328285     09102021152025170580CGO AP INV PZO                          -000003490000000000000017878700000000                                        
