65502381527     09072021020405620081LIQ INV PLAZO                           +000008681000000000086843825000001700                                        
65502381527     09072021020405620083LIQ INTS PLAZO                          +000000000988670000086853711700001700                                        
65502381527     09072021020405620585ISR INV PLAZO                           -000000000230700000086851404700001700                                        
65502381527     09072021103874650291AB TRANSF SPEI                          +000000016124000000087012644706495413ESTRELLA ROJA                           0070921 012180001963226032
65502381527     09072021121868780000DEP EN EFECTIV                          +00000000043900000008701703470000000002092021APOT                            
65502381527     09072021121868780000DEP EN EFECTIV                          +00000000108800000008702791470000000003092021APOT                            
65502381527     09072021121868780000DEP EN EFECTIV                          +00000000117856000008703970030000000031092021APOT                            
65502381527     09072021121868780000DEP EN EFECTIV                          +00000000049000000008704460030000000030092021APOT                            
65502381527     09072021123874650291AB TRANSF SPEI                          +000000003289760000087077497906715446241276                                  0070921 012580001113052203
65502381527     09072021141771370000DEP EN EFECTIV                          +00000000040368000008708153470000000001092021TEHT                            
65502381527     09072021141771370000DEP EN EFECTIV                          +00000000039478000008708548250000000001092021PSDT                            
65502381527     09072021141771370000DEP EN EFECTIV                          +00000001194336000008720491610000000002092021CPUT                            
65502381527     09072021141771370000DEP EN EFECTIV                          +00000000426163000008724753240000000002092021PEDT                            
65502381527     09072021141771370000DEP EN EFECTIV                          +00000000066700000008725420240000000002092021CEDT                            
65502381527     09072021141771370000DEP EN EFECTIV                          +00000000070644000008726126680000000031082021PSDT                            
65502381527     09072021141771370000DEP EN EFECTIV                          +00000000034916000008726475840000000002092021TEHT                            
65502381527     09072021141771370142SOBR DEP EFEC                           +00000000000004000008726475880000000002092021TEHT                            
65502381527     09072021141771370142SOBR DEP EFEC                           +00000000000002000008726475900000000002092021TEHT                            
65502381527     09072021141771370142SOBR DEP EFEC                           +00000000000004000008726475940000000002092021TEHT                            
65502381527     09072021141771370000DEP EN EFECTIV                          +00000001308208000008739558020000000003092021CPUT                            
65502381527     09072021141771370000DEP EN EFECTIV                          +00000000125256000008740810580000000003092021PEDT                            
65502381527     09072021141771370000DEP EN EFECTIV                          +00000000098174000008741792320000000003092021CEDT                            
65502381527     09072021141771370000DEP EN EFECTIV                          +00000000168548000008743477800000000002092021PSDT                            
65502381527     09072021141771370000DEP EN EFECTIV                          +00000000050808000008743985880000000001092021PEDT                            
65502381527     09072021141771370000DEP EN EFECTIV                          +00000000091872000008744904600000000001092021CEDT                            
65502381527     09072021141771370000DEP EN EFECTIV                          +00000001765278000008762557380000000001092021CPUT                            
65502381527     09072021141771370000DEP EN EFECTIV                          +00000000088044000008763437820000000001092021TEHT                            
65502381527     09072021141771370643FAL DEP EFEC                            -00000000000004000008763437780000000002092021TEHT                            
65502381527     09072021143974650291AB TRANSF SPEI                          +000000009741570000087731793506915870244107                                  0244107 072650008241280470
65502381527     09072021151525170580CGO AP INV PZO                          -000008762000000000000111793500000000                                        
65502381527     09072021163174650291AB TRANSF SPEI                          +00000000187200000000013051350709318826 Y 31 DE JULIO                        70921   002650416300488830
