65502328285     09032021021505620081LIQ INV PLAZO                           +000004324000000000043254344500001500                                        
65502328285     09032021021505620083LIQ INTS PLAZO                          +000000000492460000043259269100001500                                        
65502328285     09032021021505620585ISR INV PLAZO                           -000000000114910000043258120000001500                                        
65502328285     09032021091577430000DEP EN EFECTIV                          +000000040000000000043658120007431824CIIR917                                 
65502328285     09032021114768780000DEP EN EFECTIV                          +00000001686500000004382677000000000030082021CART9                           
65502328285     09032021114768780000DEP EN EFECTIV                          +00000002062700000004403304000000000031082021CART6                           
65502328285     09032021114768780000DEP EN EFECTIV                          +00000004246400000004445768000000000031082021TAPORT                          
65502328285     09032021114768780000DEP EN EFECTIV                          +000000033765000000044795330000000000                                        
65502328285     09032021130809810790PAGO TRAN SPEI                          -0000000261000000000445343300024995573671                         
65502328285     09032021150925170580CGO AP INV PZO                          -000004452000000000000014330000000000                                        
