65502381527     09012021224174650291AB TRANSF SPEI                          +000000001728400000000048531907424642Pago factura 244252                     123     036650500589533239
65502381527     09012021032505620081LIQ INV PLAZO                           +000008626000000000086308531900001300                                        
65502381527     09012021032505620083LIQ INTS PLAZO                          +000000000982410000086318356000001300                                        
65502381527     09012021032505620585ISR INV PLAZO                           -000000000229230000086316063700001300                                        
65502381527     09012021084871370000DEP EN EFECTIV                          +00000000157644000008633182810000000011082021PEDT                            
65502381527     09012021084871370000DEP EN EFECTIV                          +00000000028072000008633463530000000027082021CEDT                            
65502381527     09012021084871370000DEP EN EFECTIV                          +00000000106024000008634523770000000026082021PSDT                            
65502381527     09012021084871370000DEP EN EFECTIV                          +00000001752264000008652046410000000027082021CPUT                            
65502381527     09012021084871370000DEP EN EFECTIV                          +00000000377813000008655824540000000029082021CPUT                            
65502381527     09012021084871370000DEP EN EFECTIV                          +00000001365734000008669481880000000028082021CPUT                            
65502381527     09012021091909810681CGO TRANS ELEC                          -000000300000000000083694818805010478TRASPASO 1527 A 3550                    
65502381527     09012021133874650291AB TRANSF SPEI                          +000000000120000000083696018808334095GUIA MEXICO TEPITO                      10921   002670409800376329
65502381527     09012021150425170580CGO AP INV PZO                          -000008368000000000000016018800000000                                        
65502381527     09012021170874650291AB TRANSF SPEI                          +000000000437700000000020395808729303R17                                     0109210 012760029106885687
