65503200995     09062021024805620081LIQ INV PLAZO                           +000024565000000000245660529100001600                                        
65503200995     09062021024805620083LIQ INTS PLAZO                          +000000008393040000245744459500001600                                        
65503200995     09062021024805620585ISR INV PLAZO                           -000000001958460000245724874900001600                                        
65503200995     09062021044374650291AB TRANSF SPEI                          +000000002042090000245745295804961366AMEXCO SE 9351820130                    1820130 002180002346330664
65503200995     09062021060316782112DO DEP ELE TC                           +000000001681000000245762105807269614AFIL.-007269614                         
65503200995     09062021060316782112DO DEP ELE TC                           +000000008250000000245844605807269614AFIL.-007269614                         
65503200995     09062021060316782112DO DEP ELE TC                           +000000000357000000245848175807269614AFIL.-007269614                         
65503200995     09062021060316781597DO CO DE PAGTC                          -000000000003790000245848137907269614AFIL.-007269614                         
65503200995     09062021060316781598DOM IVA COMIS                           -000000000000610000245848131807269614AFIL.-007269614                         
65503200995     09062021060316781597DO CO DE PAGTC                          -000000000177430000245846357507269614AFIL.-007269614                         
65503200995     09062021060316781598DOM IVA COMIS                           -000000000028390000245846073607269614AFIL.-007269614                         
65503200995     09062021060316781597DO CO DE PAGTC                          -000000000006500000245846008607269614AFIL.-007269614                         
65503200995     09062021060316781598DOM IVA COMIS                           -000000000001040000245845998207269614AFIL.-007269614                         
65503200995     09062021082171370000DEP EN EFECTIV                          +00000000145800000024586057820000000002092021CAPUT1                          
65503200995     09062021121574650291AB TRANSF SPEI                          +000000003507120000245895649405405033Transferencias PayU4463344              4463344 012180001908758138
65503200995     09062021130309810681CGO TRANS ELEC                          -00000003483160000024554733340496022270000172679128589202                    
65503200995     09062021130609810790PAGO TRAN SPEI                          -0000000052000000002454953334054936882622                         
65503200995     09062021134752342082DEP EFECT ATM                           +000000000400000000245499333400228220                                        
65503200995     09062021134952342082DEP EFECT ATM                           +000000001178000000245511113400234061                                        
65503200995     09062021135252342082DEP EFECT ATM                           +000000002778000000245538893400241771                                        
65503200995     09062021143371370000DEP EN EFECTIV                          +000000001458000000245553473400000000030962021CAPSETEXV                      
65503200995     09062021150725170580CGO AP INV PZO                          -000024552000000000000033473400000000                                        
65503200995     09062021173752342082DEP EFECT ATM                           +000000000080000000000034273400843237                                        
