65502328285     09062021024805620081LIQ INV PLAZO                           +000004452000000000044534330000001600                                        
65502328285     09062021024805620083LIQ INTS PLAZO                          +000000001521100000044549541000001600                                        
65502328285     09062021024805620585ISR INV PLAZO                           -000000000354940000044545991600001600                                        
65502328285     09062021082171370000DEP EN EFECTIV                          +00000002127000000004475869160000000001092021CAPUT1                          
65502328285     09062021082171370000DEP EN EFECTIV                          +00000002791600000004503785160000000002092021CAPUT0                          
65502328285     09062021082171370000DEP EN EFECTIV                          +00000000265500000004506440160000000001092021CAPSETEXT                       
65502328285     09062021082171370000DEP EN EFECTIV                          +00000000360200000004510042160000000002092021CAPSETEXT                       
65502328285     09062021082171370000DEP EN EFECTIV                          +00000000000100000004510043160000000030082021HUEJV7                          
65502328285     09062021082171370000DEP EN EFECTIV                          +00000001525800000004525301160000000002092021HUEJOT0                         
65502328285     09062021082171370000DEP EN EFECTIV                          +00000001711000000004542411160000000031082021HUEJOT1                         
65502328285     09062021082171370000DEP EN EFECTIV                          +00000002408300000004566494160000000030082021HUEJOT3                         
65502328285     09062021082171370000DEP EN EFECTIV                          +00000000500000000004571494160000000031082021HUEJM6                          
65502328285     09062021082171370000DEP EN EFECTIV                          +00000001709200000004588586160000000001092021HUEJOT2                         
65502328285     09062021082171370000DEP EN EFECTIV                          +00000000474000000004593326160000000031082021CHOLT2                          
65502328285     09062021082171370000DEP EN EFECTIV                          +00000000200000000004595326160000000031082021CHOLM8                          
65502328285     09062021082171370000DEP EN EFECTIV                          +00000000500800000004600334160000000030082021CHOLT3                          
65502328285     09062021082171370000DEP EN EFECTIV                          +00000000887500000004609209160000000029082021CHOLT6                          
65502328285     09062021082171370000DEP EN EFECTIV                          +00000000677200000004615981160000000028082021CHOLT7                          
65502328285     09062021082171370000DEP EN EFECTIV                          +00000000782200000004623803160000000027082021CHOLT8                          
65502328285     09062021082171370000DEP EN EFECTIV                          +00000000304600000004626849160000000002092021CHOLT6                          
65502328285     09062021082171370000DEP EN EFECTIV                          +00000000150000000004628349160000000001092021CHOLM3                          
65502328285     09062021082171370000DEP EN EFECTIV                          +00000000442400000004632773160000000001092021CHOLT7                          
65502328285     09062021100271370000DEP EN EFECTIV                          +00000003053700000004663310160000000003092021CAPUT0                          
65502328285     09062021100271370000DEP EN EFECTIV                          +00000003897100000004702281160000000004092021CAPUT9                          
65502328285     09062021100271600000DEP EN EFECTIV                          +00000000221400000004704495160000000001092021SATAT                           
65502328285     09062021100271600000DEP EN EFECTIV                          +00000004465000000004749145160000000001092021SMAT                            
65502328285     09062021100271600000DEP EN EFECTIV                          +00000000650000000004755645160000000001092021SMAM                            
65502328285     09062021100271600000DEP EN EFECTIV                          +00000000108900000004756734160000000002092021SATAT                           
65502328285     09062021100271600000DEP EN EFECTIV                          +00000004077250000004797506660000000002092021SMAT                            
65502328285     09062021100271600000DEP EN EFECTIV                          +00000000009000000004797596660000000001092021SMAV                            
65502328285     09062021100271600000DEP EN EFECTIV                          +00000000004700000004797643660000000002092021SMAV                            
65502328285     09062021121574650291AB TRANSF SPEI                          +000000211143440000050087871005405013Transferencias PayU4463338              4463338 012180001908758138
65502328285     09062021121968780000DEP EN EFECTIV                          +00000005037700000005059164100000000030082021TAPORT                          
65502328285     09062021123268780000DEP EN EFECTIV                          +00000001679000000005075954100000000002092021CART2                           
65502328285     09062021123268780000DEP EN EFECTIV                          +00000001373600000005089690100000000001092021CART5                           
65502328285     09062021123268780000DEP EN EFECTIV                          +00000003743900000005127129100000000002092021TAPORT                          
65502328285     09062021123268780000DEP EN EFECTIV                          +00000003369600000005160825100000000003092021TAPORT                          
65502328285     09062021123422100000DEP EN EFECTIV                          +000000000676000000051615011002102549                                        
65502328285     09062021130309810681CGO TRANS ELEC                          -000000031317000000051301841004960220012581909037692109100000313172          
65502328285     09062021130309810681CGO TRANS ELEC                          -00000005088194000005079302160496022370000078994028581253                    
65502328285     09062021143371370000DEP EN EFECTIV                          +00000000003000000005079332160000000003092021CAPSETEXV8                      
65502328285     09062021143371370000DEP EN EFECTIV                          +00000000699800000005086330160000000003092021CAPSETEXT2                      
65502328285     09062021150625170580CGO AP INV PZO                          -000005078000000000000083301600000000                                        
