65502328285     09082021021605620081LIQ INV PLAZO                           +000005554000000000055551726400001800                                        
65502328285     09082021021605620083LIQ INTS PLAZO                          +000000000632540000055558051800001800                                        
65502328285     09082021021605620585ISR INV PLAZO                           -000000000147590000055556575900001800                                        
65502328285     09082021083271370000DEP EN EFECTIV                          +00000000322000000005558877590000000004092021CAPSETEXT                       
65502328285     09082021083271370000DEP EN EFECTIV                          +00000000002200000005558899590000000006092021CAPSETEXT                       
65502328285     09082021083271370000DEP EN EFECTIV                          +00000000502900000005563928590000000006092021CAPSETEXT                       
65502328285     09082021083271370000DEP EN EFECTIV                          +00000000971300000005573641590000000005092021CAPSETEXT                       
65502328285     09082021091209810681CGO TRANS ELEC                          -000000030000000000055436415909009985MORRALLA TTP MEX                        
65502328285     09082021091209810681CGO TRANS ELEC                          -000000151500000000053921415909009987MORRALLA TTP PUE                        
65502328285     09082021091209810681CGO TRANS ELEC                          -000000014000000000053781415909009988MORRALLA TTP ESTA PD                    
65502328285     09082021101971370000DEP EN EFECTIV                          +00000003714300000005415284590000000006092021CAPUT7                          
65502328285     09082021101971370000DEP EN EFECTIV                          +00000003585100000005451135590000000005092021CAPUT8                          
65502328285     09082021101971370000DEP EN EFECTIV                          +00000003851900000005489654590000000005092021CAPURT                          
65502328285     09082021101971370000DEP EN EFECTIV                          +00000003274400000005522398590000000004092021CAPURT                          
65502328285     09082021120268780000DEP EN EFECTIV                          +00000001807500000005540473590000000002092021TAPOT3                          
65502328285     09082021120268780000DEP EN EFECTIV                          +00000002010400000005560577590000000001092021TAPOT6                          
65502328285     09082021131409810681CGO TRANS ELEC                          -000000041111000000055194665904910456012581909037772109160000411113          
65502328285     09082021131409810790PAGO TRAN SPEI                          -000001500000000000040194665907902684TRASPASO 8285 A 1857         
65502328285     09082021131609810790PAGO TRAN SPEI                          -0000000200002100000399946638079076503684                         
65502328285     09082021131609810790PAGO TRAN SPEI                          -0000009371242000000306234218079076563682                         
65502328285     09082021131709810681CGO TRANS ELEC                          -0000001102000000000295214218092636083680                                    
65502328285     09082021131709810681CGO TRANS ELEC                          -0000001113600000000284078218092636093681                                    
65502328285     09082021131709810681CGO TRANS ELEC                          -000000019066000000028217161809273612405                                     
65502328285     09082021152425170580CGO AP INV PZO                          -000002820000000000000017161800000000                                        
