65502328285     09092021022105620081LIQ INV PLAZO                           +000002820000000000028217161800001900                                        
65502328285     09092021022105620083LIQ INTS PLAZO                          +000000000321170000028220373500001900                                        
65502328285     09092021022105620585ISR INV PLAZO                           -000000000074940000028219624100001900                                        
65502328285     09092021082209810681CGO TRANS ELEC                          -000000001727000000028202354108376648FF TTP MEX                              
65502328285     09092021082209810681CGO TRANS ELEC                          -000000006631000000028136044108376650FF TTP PUE                              
65502328285     09092021083271370000DEP EN EFECTIV                          +00000000298700000002816591410000000001092021PSDGT6                          
65502328285     09092021083271370000DEP EN EFECTIV                          +00000000312200000002819713410000000007092021PSDGT0                          
65502328285     09092021083271370000DEP EN EFECTIV                          +00000000266000000002822373410000000006092021PSDGT1                          
65502328285     09092021083271370000DEP EN EFECTIV                          +00000000394700000002826320410000000005092021PSDGT2                          
65502328285     09092021083271370000DEP EN EFECTIV                          +00000000333800000002829658410000000004092021PSDGT3                          
65502328285     09092021083271370000DEP EN EFECTIV                          +00000000544600000002835104410000000003092021PSDGT4                          
65502328285     09092021083271370000DEP EN EFECTIV                          +00000000303600000002838140410000000002092021PSDGT5                          
65502328285     09092021094871600000DEP EN EFECTIV                          +00000006886000000002907000410000000006092021SMAT                            
65502328285     09092021094871600000DEP EN EFECTIV                          +00000000108200000002908082410000000006092021SATAT                           
65502328285     09092021094871600000DEP EN EFECTIV                          +00000000003300000002908115410000000006092021SMAV                            
65502328285     09092021094871600000DEP EN EFECTIV                          +00000001750000000002925615410000000006092021SMAM                            
65502328285     09092021094871600000DEP EN EFECTIV                          +00000000009500000002925710410000000006092021SMAT                            
65502328285     09092021094871600000DEP EN EFECTIV                          +00000000010000000002925810410000000005092021SMAV                            
65502328285     09092021094871600000DEP EN EFECTIV                          +00000000001400000002925824410000000006092021SMAM                            
65502328285     09092021094871600000DEP EN EFECTIV                          +00000000021400000002926038410000000007092021SATAT                           
65502328285     09092021094871600000DEP EN EFECTIV                          +00000000001200000002926050410000000007092021SMAV                            
65502328285     09092021094871600000DEP EN EFECTIV                          +00000000025000000002926300410000000007092021SMAT                            
65502328285     09092021094871600000DEP EN EFECTIV                          +00000001500000000002941300410000000007092021SMAM                            
65502328285     09092021094871600000DEP EN EFECTIV                          +00000008125400000003022554410000000007092021SMAT                            
65502328285     09092021113268780000DEP EN EFECTIV                          +00000001500100000003037555410000000007092021TAPOT6                          
65502328285     09092021113268780000DEP EN EFECTIV                          +00000002210200000003059657410000000006092021TAPOT0                          
65502328285     09092021113268780000DEP EN EFECTIV                          +00000001250200000003072159410000000007092021CART5                           
65502328285     09092021113268780000DEP EN EFECTIV                          +00000002457100000003096730410000000006092021CART9                           
65502328285     09092021120674650291AB TRANSF SPEI                          +000000217339030000033140694409018499Transferencias PayU4468308              4468308 012180001908758138
65502328285     09092021120674650291AB TRANSF SPEI                          +000000015758320000033298277609018528Transferencias PayU4469266              4469266 012180001908758138
65502328285     09092021140109810790PAGO TRAN SPEI                          -000000150000000000031798277609223234TRASPASO 8285 A 1857         
65502328285     09092021140609810790PAGO TRAN SPEI                          -0000000277355300000315209223092320623685                         
65502328285     09092021140609810790PAGO TRAN SPEI                          -00000000368600000003148406230923210111013 11013 1                
65502328285     09092021151625170580CGO AP INV PZO                          -000003147000000000000014062300000000                                        
