65503200995     09132021024505620081LIQ INV PLAZO                           +000023827000000000238286776700002100                                        
65503200995     09132021024505620083LIQ INTS PLAZO                          +000000008140890000238368185600002100                                        
65503200995     09132021024505620585ISR INV PLAZO                           -000000001899630000238349189300002100                                        
65503200995     09132021050174650291AB TRANSF SPEI                          +000000000067700000238349866304092931AMEXCO SE 9351820130                    1820130 002180002346330664
65503200995     09132021070016782112DO DEP ELE TC                           +000000002963000000238379496307269614AFIL.-007269614                         
65503200995     09132021070016782112DO DEP ELE TC                           +000000002320000000238402696307269614AFIL.-007269614                         
65503200995     09132021070016782112DO DEP ELE TC                           +000000002494000000238427636307269614AFIL.-007269614                         
65503200995     09132021070016781597DO CO DE PAGTC                          -000000000015680000238427479507269614AFIL.-007269614                         
65503200995     09132021070016781598DOM IVA COMIS                           -000000000002510000238427454407269614AFIL.-007269614                         
65503200995     09132021070016781597DO CO DE PAGTC                          -000000000082010000238426634307269614AFIL.-007269614                         
65503200995     09132021070016781598DOM IVA COMIS                           -000000000013120000238426503107269614AFIL.-007269614                         
65503200995     09132021070016781597DO CO DE PAGTC                          -000000000045750000238426045607269614AFIL.-007269614                         
65503200995     09132021070016781598DOM IVA COMIS                           -000000000007320000238425972407269614AFIL.-007269614                         
65503200995     09132021101152342082DEP EFECT ATM                           +000000001600000000238441972400335122                                        
65503200995     09132021101352342082DEP EFECT ATM                           +000000001200000000238453972400338487                                        
65503200995     09132021123174650291AB TRANSF SPEI                          +000000007937570000238533348104597172Transferencias PayU4472984              4472984 012180001908758138
65503200995     09132021132509810681CGO TRANS ELEC                          -000000211218000000236421168104667674012111904061358366                      
65503200995     09132021132509810681CGO TRANS ELEC                          -000000024893000000236172238104667677VTA CRUZADA CTTTP                       
65503200995     09132021132509810180AB TRANS ELECT                          +000000036537000000236537608104667678VTA CRUZADA AMPCT                       
65503200995     09132021153225170580CGO AP INV PZO                          -000023652000000000000017608100000000                                        
65503200995     09132021175352342082DEP EFECT ATM                           +000000000160000000000019208100633314                                        
