65503200995     09152021020405620081LIQ INV PLAZO                           +000023399000000000234002062700002300                                        
65503200995     09152021020405620083LIQ INTS PLAZO                          +000000002664890000234028711600002300                                        
65503200995     09152021020405620585ISR INV PLAZO                           -000000000621830000234022493300002300                                        
65503200995     09152021051674650291AB TRANSF SPEI                          +000000000195230000234024445607842847AMEXCO SE 9351820130                    1820130 002180002346330664
65503200995     09152021090016782112DO DEP ELE TC                           +000000002411000000234048555607269614AFIL.-007269614                         
65503200995     09152021090016781597DO CO DE PAGTC                          -000000000041590000234048139707269614AFIL.-007269614                         
65503200995     09152021090016781598DOM IVA COMIS                           -000000000006650000234048073207269614AFIL.-007269614                         
65503200995     09152021090271370000DEP EN EFECTIV                          +000000004680000000234094873200000000VES0786348                              
65503200995     09152021090271370000DEP EN EFECTIV                          +00000000284500000023412332320000000010092021CAPUT1                          
65503200995     09152021090271370000DEP EN EFECTIV                          +00000000622000000023418552320000000011092021CAPUT6                          
65503200995     09152021090271370000DEP EN EFECTIV                          +00000000145800000023420010320000000009092021CAPUT4                          
65503200995     09152021090309810681CGO TRANS ELEC                          -000000014785000000234052253209010048FF CONTERSA                             
65503200995     09152021130209810790PAGO TRAN SPEI                          -000000220000000000231852253208812670TRASPASO 0995 A 7313         
65503200995     09152021130209810790PAGO TRAN SPEI                          -000000050000000000231352253208812696TRASPASO 0995 A 0291         
65503200995     09152021134474650291AB TRANSF SPEI                          +000000009363100000231445884208970485Transferencias PayU4475853              4475853 012180001908758138
65503200995     09152021151225170580CGO AP INV PZO                          -000023143000000000000015884200000000                                        
65503200995     09152021160474650291AB TRANSF SPEI                          +0000019202708900000192185931094302202900027111                              6978568 021650040191844564
