65502328285     09132021024505620081LIQ INV PLAZO                           +000003490000000000034917878700002100                                        
65502328285     09132021024505620083LIQ INTS PLAZO                          +000000001192420000034929802900002100                                        
65502328285     09132021024505620585ISR INV PLAZO                           -000000000278240000034927020500002100                                        
65502328285     09132021092571370000DEP EN EFECTIV                          +00000000459000000003497292050000000003092021CHOLT5                          
65502328285     09132021092571370000DEP EN EFECTIV                          +00000000509600000003502388050000000007092021CHOLT1                          
65502328285     09132021092571370000DEP EN EFECTIV                          +00000000376200000003506150050000000006092021CHOLT2                          
65502328285     09132021092571370000DEP EN EFECTIV                          +00000000439800000003510548050000000009092021CHOLT9                          
65502328285     09132021092571370000DEP EN EFECTIV                          +00000000531000000003515858050000000008092021CHOLT0                          
65502328285     09132021092571370000DEP EN EFECTIV                          +00000000431000000003520168050000000004092021CHOLT4                          
65502328285     09132021092571370000DEP EN EFECTIV                          +00000000200000000003522168050000000009092021CHOLM5                          
65502328285     09132021092571370000DEP EN EFECTIV                          +00000000729200000003529460050000000005092021CHOLT3                          
65502328285     09132021092571370000DEP EN EFECTIV                          +00000000001000000003529470050000000008092021HUEJV4                          
65502328285     09132021092571370000DEP EN EFECTIV                          +00000000900000000003538470050000000009092021HUEJM3                          
65502328285     09132021092571370000DEP EN EFECTIV                          +00000001288500000003551355050000000009092021HUEJOT5                         
65502328285     09132021092571370000DEP EN EFECTIV                          +00000001340000000003564755050000000008092021HUEJOT7                         
65502328285     09132021092571370000DEP EN EFECTIV                          +00000001609300000003580848050000000007092021HUEJOT9                         
65502328285     09132021092571370000DEP EN EFECTIV                          +00000002129000000003602138050000000006092021HUEJOT1                         
65502328285     09132021092571370000DEP EN EFECTIV                          +00000000001800000003602156050000000007092021HUEJV5                          
65502328285     09132021092571370643FAL DEP EFEC                            -00000000001400000003602142050000000008092021HUEJV4                          
65502328285     09132021100371600000DEP EN EFECTIV                          +00000004321300000003645355050000000008092021SMAT                            
65502328285     09132021100371600000DEP EN EFECTIV                          +00000000154400000003646899050000000008092021SATAT                           
65502328285     09132021100371600000DEP EN EFECTIV                          +00000000003400000003646933050000000008092021SMAT                            
65502328285     09132021100371600000DEP EN EFECTIV                          +00000001250000000003659433050000000008092021SMAM                            
65502328285     09132021100371600000DEP EN EFECTIV                          +00000000013100000003659564050000000008092021SMAT                            
65502328285     09132021100371600000DEP EN EFECTIV                          +00000001200000000003671564050000000009092021SMAM                            
65502328285     09132021100371600000DEP EN EFECTIV                          +00000000004600000003671610050000000009092021SMAV                            
65502328285     09132021100371600000DEP EN EFECTIV                          +00000000077700000003672387050000000009092021SATAT                           
65502328285     09132021100371600000DEP EN EFECTIV                          +00000003982200000003712209050000000009092021SMAT                            
65502328285     09132021120922100000DEP EN EFECTIV                          +000000001522000000037137310502104370                                        
65502328285     09132021123174650291AB TRANSF SPEI                          +000000012160260000037258913104597168Transferencias PayU4473147              4473147 012180001908758138
65502328285     09132021124868780000DEP EN EFECTIV                          +00000001748400000003743375310000000009092021TAPOT0                          
65502328285     09132021124868780000DEP EN EFECTIV                          +00000001701600000003760391310000000008092021TAPOT3                          
65502328285     09132021124868780000DEP EN EFECTIV                          +00000000011000000003760501310000000009092021DRIVER0                         
65502328285     09132021124868780000DEP EN EFECTIV                          +00000001362900000003774130310000000009092021CART9                           
65502328285     09132021124868780000DEP EN EFECTIV                          +00000001797000000003792100310000000008092021CART2                           
65502328285     09132021124868780000DEP EN EFECTIV                          +00000003397900000003826079310000000010092021TAPORT                          
65502328285     09132021124868780000DEP EN EFECTIV                          +00000004072100000003866800310000000009092021TAPOR                           
65502328285     09132021125000300000DEP EN EFECTIV                          +00000001115500000003877955310030408813092021MIYANA                          
65502328285     09132021125500300000DEP EN EFECTIV                          +00000004350000000003921455310030410013092021WTCT                            
65502328285     09132021130268780000DEP EN EFECTIV                          +00000002140900000003942864310000000010090021CART4                           
65502328285     09132021130268780000DEP EN EFECTIV                          +00000003743400000003980298310000000011092021CART1                           
65502328285     09132021130268780000DEP EN EFECTIV                          +00000002483500000004005133310000000010092021TAPOT5                          
65502328285     09132021130268780000DEP EN EFECTIV                          +00000002733500000004032468310000000011092021TAPOT2                          
65502328285     09132021132309810790PAGO TRAN SPEI                          -000000320000000000037124683104700305TRASPASO 8285 A 1857         
65502328285     09132021132509810180AB TRANS ELECT                          +000000024893000000037373613104667677VTA CRUZADA CTTTP                       
65502328285     09132021132509810180AB TRANS ELECT                          +000000420537510000041578988204667679VTA CRUZADA AMPTTP                      
65502328285     09132021153125170580CGO AP INV PZO                          -000004156000000000000018988200000000                                        
