65501753550     09082021043674650291AB TRANSF SPEI                          +000000005149480000015463869507455275AMEXCO SE 9359908044                    9908044 002180002346330664
65501753550     09082021043674650291AB TRANSF SPEI                          +000000000398870000015467858207455303AMEXCO SE 9350021565                    21565   002180002346330664
65501753550     09082021044574650291AB TRANSF SPEI                          +000000000635770000015474215907456136AMEXCO SE 9356623992                    6623992 002180002346330664
65501753550     09082021044574650291AB TRANSF SPEI                          +000000000220070000015476416607456141AMEXCO SE 9356614447                    6614447 002180002346330664
65501753550     09082021044674650291AB TRANSF SPEI                          +000000000265920000015479075807456330AMEXCO SE 9350058864                    58864   002180002346330664
65501753550     09082021044674650291AB TRANSF SPEI                          +000000003758810000015516663907456352AMEXCO SE 9350021532                    21532   002180002346330664
65501753550     09082021044774650291AB TRANSF SPEI                          +000000000088280000015517546707456373AMEXCO SE 9350060670                    60670   002180002346330664
65501753550     09082021060142300038DEP ELE PAG TC                          +000000012657010000015644116805256409AFIL.-005256409                         
65501753550     09082021060142300038DEP ELE PAG TC                          +000000006318000000015707296805688445AFIL.-005688445                         
65501753550     09082021060142300038DEP ELE PAG TC                          +000000011888980000015826186605688452AFIL.-005688452                         
65501753550     09082021060142300038DEP ELE PAG TC                          +000000011254000000015938726607273370AFIL.-007273370                         
65501753550     09082021060142300038DEP ELE PAG TC                          +000000067008500000016608811608139649AFIL.-008139649                         
65501753550     09082021060142300038DEP ELE PAG TC                          +000000007158000000016680391608180414AFIL.-008180414                         
65501753550     09082021060142300038DEP ELE PAG TC                          +000000001136000000016691751608376766AFIL.-008376766                         
65501753550     09082021060142300038DEP ELE PAG TC                          +000000061443500000017306186609180159AFIL.-009180159                         
65501753550     09082021060142300038DEP ELE PAG TC                          +000000050090500000017807091609181868AFIL.-009181868                         
65501753550     09082021060142300038DEP ELE PAG TC                          +000000074468000000018551771609270083AFIL.-009270083                         
65501753550     09082021060142302677DO CO DE PAGTC                          -000000000236990000018549401705256409AFIL.-005256409                         
65501753550     09082021060142302571DOM IVA COMIS                           -000000000037900000018549022705256409AFIL.-005256409                         
65501753550     09082021060142302677DO CO DE PAGTC                          -000000000110360000018547919105688445AFIL.-005688445                         
65501753550     09082021060142302571DOM IVA COMIS                           -000000000017660000018547742505688445AFIL.-005688445                         
65501753550     09082021060142302677DO CO DE PAGTC                          -000000000206980000018545672705688452AFIL.-005688452                         
65501753550     09082021060142302571DOM IVA COMIS                           -000000000033120000018545341505688452AFIL.-005688452                         
65501753550     09082021060142302677DO CO DE PAGTC                          -000000000200090000018543340607273370AFIL.-007273370                         
65501753550     09082021060142302571DOM IVA COMIS                           -000000000032020000018543020407273370AFIL.-007273370                         
65501753550     09082021060142302677DO CO DE PAGTC                          -000000001190640000018531114008139649AFIL.-008139649                         
65501753550     09082021060142302571DOM IVA COMIS                           -000000000190550000018529208508139649AFIL.-008139649                         
65501753550     09082021060142302677DO CO DE PAGTC                          -000000000127340000018527935108180414AFIL.-008180414                         
65501753550     09082021060142302571DOM IVA COMIS                           -000000000020360000018527731508180414AFIL.-008180414                         
65501753550     09082021060142302677DO CO DE PAGTC                          -000000000019610000018527535408376766AFIL.-008376766                         
65501753550     09082021060142302571DOM IVA COMIS                           -000000000003120000018527504208376766AFIL.-008376766                         
65501753550     09082021060142302677DO CO DE PAGTC                          -000000001080210000018516702109180159AFIL.-009180159                         
65501753550     09082021060142302571DOM IVA COMIS                           -000000000172820000018514973909180159AFIL.-009180159                         
65501753550     09082021060142302677DO CO DE PAGTC                          -000000000880600000018506167909181868AFIL.-009181868                         
65501753550     09082021060142302571DOM IVA COMIS                           -000000000140870000018504759209181868AFIL.-009181868                         
65501753550     09082021060142302677DO CO DE PAGTC                          -000000001340230000018491356909270083AFIL.-009270083                         
65501753550     09082021060142302571DOM IVA COMIS                           -000000000214590000018489211009270083AFIL.-009270083                         
65501753550     09082021083271370000DEP EN EFECTIV                          +00000000307200000001851993100000000005092021CAPSETEXT                       
65501753550     09082021083271370000DEP EN EFECTIV                          +00000000094100000001852934100000000006092021CAPSETEXT                       
65501753550     09082021083271370000DEP EN EFECTIV                          +00000000235000000001855284100000000003072021ESTAP7                          
65501753550     09082021083271370000DEP EN EFECTIV                          +00000000002000000001855304100000000003092021ESTAP7                          
65501753550     09082021083271370000DEP EN EFECTIV                          +00000000187000000001857174100000000004092021ESTAP6                          
65501753550     09082021083271370000DEP EN EFECTIV                          +00000000164100000001858815100000000005092021ESTAP5                          
65501753550     09082021083271370000DEP EN EFECTIV                          +00000000191000000001860725100000000007092021CAPUM2                          
65501753550     09082021083271370000DEP EN EFECTIV                          +00000000225000000001862975100000000006092021ESTAP4                          
65501753550     09082021091209810681CGO TRANS ELEC                          -000000305832000000015571431009009984MORRALLA AMP MEX                        
65501753550     09082021091209810681CGO TRANS ELEC                          -000000315000000000012421431009009986MORRALLA AMP PUE                        
65501753550     09082021101971370000DEP EN EFECTIV                          +00000029479800000001536941100000000005092021CAPUT8                          
65501753550     09082021101971370000DEP EN EFECTIV                          +00000003360000000001570541100000000005092021CAPUM4                          
65501753550     09082021101971370000DEP EN EFECTIV                          +00000004050000000001611041100000000006092021CAPUM3                          
65501753550     09082021101971370000DEP EN EFECTIV                          +00000032226600000001933307100000000006092021CAPUT7                          
65501753550     09082021101971370000DEP EN EFECTIV                          +00000000008100000001933388100000000005092021CAPUV4                          
65501753550     09082021120268780000DEP EN EFECTIV                          +00000000004400000001933432100000000002092021TAPOV3                          
65501753550     09082021120268780000DEP EN EFECTIV                          +00000000038400000001933816100000000001092021TAPOV7                          
65501753550     09082021120268780000DEP EN EFECTIV                          +00000014436200000002078178100000000001092021TAPOT6                          
65501753550     09082021120268780000DEP EN EFECTIV                          +00000013683950000002215017600000000002092021TAPOT3                          
65501753550     09082021120268780000DEP EN EFECTIV                          +00000001550000000002230517600000000002092021TAPOM4                          
65501753550     09082021120268780000DEP EN EFECTIV                          +00000000001300000002230530600000000002092021TAPOV4                          
65501753550     09082021120268780000DEP EN EFECTIV                          +00000000048000000002231010600000000002092021TAPOV4                          
65501753550     09082021120268780000DEP EN EFECTIV                          +00000000001600000002231026600000000001092021TAPOV7                          
65501753550     09082021120268780000DEP EN EFECTIV                          +00000002150000000002252526600000000001092021TAPOM7                          
65501753550     09082021120774650291AB TRANSF SPEI                          +000000041900930000022944275307798774Transferencias PayU4467034              4467034 012180001908758138
65501753550     09082021131409810681CGO TRANS ELEC                          -000000004578000000022898495304910451012210411023962109120000045780          
65501753550     09082021131409810681CGO TRANS ELEC                          -000000000697000000022891525304910452012219012708522109120000006976          
65501753550     09082021131409810681CGO TRANS ELEC                          -000000009136000000022800165304910453012561910051502109160000091363          
65501753550     09082021131409810681CGO TRANS ELEC                          -000000055132000000022248845304910454012569304112692109160000551321          
65501753550     09082021131409810681CGO TRANS ELEC                          -000000011129000000022137555304910455019900009037102109170000111290          
65501753550     09082021131609810790PAGO TRAN SPEI                          -00000006496000000002148795530790760116019                        
65501753550     09082021131609810790PAGO TRAN SPEI                          -00000153057777000000618217760790762816022                        
65501753550     09082021131609810790PAGO TRAN SPEI                          -00000001392000000000604297760790769416018                        
65501753550     09082021131709810681CGO TRANS ELEC                          -00000007424000000000530057760926361016020                                   
65501753550     09082021131709810681CGO TRANS ELEC                          -00000023374000000000296317760927361116021                                   
65501753550     09082021164674650291AB TRANSF SPEI                          +000000001953500000002982712608230104REEMBOLSO YOVANIT MANTILLA              0809210 012650015940578342
65501753550     09082021173142302180BO DO CUO AFIL                          +000000000299000000002985702600000000A CUO AFI                               
65501753550     09082021173142302180BO DO CUO AFIL                          +000000000299000000002988692600000000A CUO AFI                               
65501753550     09082021173142302180BO DO CUO AFIL                          +000000000299000000002991682600000000A CUO AFI                               
65501753550     09082021173142302180BO DO CUO AFIL                          +000000000299000000002994672600000000A CUO AFI                               
65501753550     09082021173242302180BO DO CUO AFIL                          +000000000299000000002997662600000000A CUO AFI                               
65501753550     09082021173242302180BO DO CUO AFIL                          +000000000299000000003000652600000000A CUO AFI                               
65501753550     09082021173342302071AN/BO DOIVACO                           +000000000047840000003001131000000000A IVA CUO AFI                           
65501753550     09082021173342302071AN/BO DOIVACO                           +000000000047840000003001609400000000A IVA CUO AFI                           
65501753550     09082021173342302071AN/BO DOIVACO                           +000000000047840000003002087800000000A IVA CUO AFI                           
65501753550     09082021173342302071AN/BO DOIVACO                           +000000000047840000003002566200000000A IVA CUO AFI                           
65501753550     09082021173442302071AN/BO DOIVACO                           +000000000047840000003003044600000000A IVA CUO AFI                           
65501753550     09082021173442302071AN/BO DOIVACO                           +000000000047840000003003523000000000A IVA CUO AFI                           
65501753550     09082021182274650291AB TRANSF SPEI                          +000000000400000000003007523008349036PENSION4PTE MFMP                        0809210 012650015389095606
