65502328285     09072021020405620081LIQ INV PLAZO                           +000005078000000000050863301600001700                                        
65502328285     09072021020405620083LIQ INTS PLAZO                          +000000000578330000050869084900001700                                        
65502328285     09072021020405620585ISR INV PLAZO                           -000000000134940000050867735500001700                                        
65502328285     09072021083371370000DEP EN EFECTIV                          +00000003151700000005118290550000000003092021CAPURT                          
65502328285     09072021083371370000DEP EN EFECTIV                          +00000005161100000005169901550000000031082021CAPURT                          
65502328285     09072021083371370000DEP EN EFECTIV                          +00000002697500000005196876550000000001092021CAPURT                          
65502328285     09072021083371370000DEP EN EFECTIV                          +00000002761200000005224488550000000002092021CAPURT                          
65502328285     09072021094871600000DEP EN EFECTIV                          +00000000141300000005225901550000000003092021SATAT                           
65502328285     09072021094871600000DEP EN EFECTIV                          +00000000000200000005225903550000000003092021SMAV                            
65502328285     09072021094871600000DEP EN EFECTIV                          +00000001500000000005240903550000000003092021SMAM                            
65502328285     09072021094871600000DEP EN EFECTIV                          +00000004431000000005285213550000000003092021SMAT                            
65502328285     09072021094871600000DEP EN EFECTIV                          +00000002200000000005307213550000000004092021SMAV                            
65502328285     09072021094871600000DEP EN EFECTIV                          +00000000000400000005307217550000000004092021SMAV                            
65502328285     09072021094871600000DEP EN EFECTIV                          +00000000258500000005309802550000000004092021SATAT                           
65502328285     09072021094871600000DEP EN EFECTIV                          +00000004299700000005352799550000000004092021SMAT                            
65502328285     09072021094871600000DEP EN EFECTIV                          +00000000013500000005352934550000000005092021SMAV                            
65502328285     09072021094871600000DEP EN EFECTIV                          +00000000009900000005353033550000000005092021SMAT                            
65502328285     09072021094871600000DEP EN EFECTIV                          +00000001650000000005369533550000000005092021SMAM                            
65502328285     09072021094871600000DEP EN EFECTIV                          +00000004871100000005418244550000000005092021SMAT                            
65502328285     09072021094871600000DEP EN EFECTIV                          +00000000144000000005419684550000000005092021SATAT                           
65502328285     09072021094871600000DEP EN EFECTIV                          +00000000006200000005419746550000000005092021SMAV                            
65502328285     09072021104871600142SOBR DEP EFEC                           +00000000998600000005429732550000000005092021SMAT                            
65502328285     09072021113604060000DEP EN EFECTIV                          +000000011119500000054408520504068233                                        
65502328285     09072021113904060000DEP EN EFECTIV                          +00000003444400000005475296050406823607092021WTCT                            
65502328285     09072021121868780000DEP EN EFECTIV                          +00000002749800000005502794050000000003092021CART9                           
65502328285     09072021121868780000DEP EN EFECTIV                          +00000003709100000005539885050000000004092021CART5                           
65502328285     09072021121868780000DEP EN EFECTIV                          +00000002877300000005568658050000000004092021TAPOT6                          
65502328285     09072021121868780000DEP EN EFECTIV                          +00000006021900000005628877050000000004092021TAPORT                          
65502328285     09072021121868780000DEP EN EFECTIV                          +00000004341600000005672293050000000005092021TAPORT                          
65502328285     09072021121868780000DEP EN EFECTIV                          +00000001958500000005691878050000000005092021TAPOT3                          
65502328285     09072021121868780000DEP EN EFECTIV                          +00000002717300000005719051050000000005092021CART2                           
65502328285     09072021121868780643FAL DEP EFEC                            -00000000005600000005718995050000000003092021CARV0                           
65502328285     09072021125274650291AB TRANSF SPEI                          +000000011839920000057308349706737999Transferencias PayU4465622              4465622 012180001908758138
65502328285     09072021135709810790PAGO TRAN SPEI                          -000000007963970000057228710006846753NOM FOND AHORRO              
65502328285     09072021135709810790PAGO TRAN SPEI                          -000000014412220000057084587806846755NOM PREST FOND AHORRO        
65502328285     09072021140409810681CGO TRANS ELEC                          -0000001175516400000559090714011084893678                                    
65502328285     09072021140409810790PAGO TRAN SPEI                          -0000000327700000000555813714068637043675                         
65502328285     09072021140409810790PAGO TRAN SPEI                          -0000000062971000000555184004068637243676                         
65502328285     09072021140409810790PAGO TRAN SPEI                          -0000000013920000000555044804068637393674                         
65502328285     09072021140409810790PAGO TRAN SPEI                          -0000000011588400000554928920068637613673                         
65502328285     09072021140509810681CGO TRANS ELEC                          -0000000459545600000550333464013017223677                                    
65502328285     09072021141771370000DEP EN EFECTIV                          +00000001630400000005519638640000000005092021HUEJOT3                         
65502328285     09072021141771370000DEP EN EFECTIV                          +00000000400000000005523638640000000005092021HUEJM7                          
65502328285     09072021141771370000DEP EN EFECTIV                          +00000000000400000005523642640000000005092021HUEJV7                          
65502328285     09072021141771370000DEP EN EFECTIV                          +00000001644300000005540085640000000004092021HUEJOT6                         
65502328285     09072021141771370000DEP EN EFECTIV                          +00000001508700000005555172640000000003092021HUEJOT8                         
65502328285     09072021151525170580CGO AP INV PZO                          -000005554000000000000011726400000000                                        
