65502381527     09132021024505620081LIQ INV PLAZO                           +000013600000000000136124784800002100                                        
65502381527     09132021024505620083LIQ INTS PLAZO                          +000000004646670000136171251500002100                                        
65502381527     09132021024505620585ISR INV PLAZO                           -000000001084270000136160408800002100                                        
65502381527     09132021030174651183AB TRANSF TEF                           +000000005363520000136214044004079297244151                                  1       00021180040012730515
65502381527     09132021092571370000DEP EN EFECTIV                          +00000000101848000013622422880000000007092021TEHT                            
65502381527     09132021092571370142SOBR DEP EFEC                           +00000000000002000013622422900000000007092021TEHT                            
65502381527     09132021092571370142SOBR DEP EFEC                           +00000000000004000013622422940000000007092021TEHT                            
65502381527     09132021092571370142SOBR DEP EFEC                           +00000000000003000013622422970000000007092021TEHT                            
65502381527     09132021092571370142SOBR DEP EFEC                           +00000000000003000013622423000000000007092021TEHT                            
65502381527     09132021092571370142SOBR DEP EFEC                           +00000000000004000013622423040000000007092021TEHT                            
65502381527     09132021092571370142SOBR DEP EFEC                           +00000000000002000013622423060000000007092021TEHT                            
65502381527     09132021092571370000DEP EN EFECTIV                          +00000000919740000013631620460000000007092021CPUT                            
65502381527     09132021092571370000DEP EN EFECTIV                          +00000000062292000013632243380000000008092021CEDT                            
65502381527     09132021092571370000DEP EN EFECTIV                          +00000000144596000013633689340000000009092021CEDT                            
65502381527     09132021092571370000DEP EN EFECTIV                          +00000000069572000013634385060000000007092021CEDT                            
65502381527     09132021092571370000DEP EN EFECTIV                          +00000001540267000013649787730000000009092021CPUT                            
65502381527     09132021092571370000DEP EN EFECTIV                          +00000000126556000013651053290000000008092021PSDT                            
65502381527     09132021092571370000DEP EN EFECTIV                          +00000000181772000013652871010000000008092021PEDT                            
65502381527     09132021092571370000DEP EN EFECTIV                          +00000000254577000013655416780000000003092021TEHT                            
65502381527     09132021092571370000DEP EN EFECTIV                          +00000000227714000013657693920000000007092021PEDT                            
65502381527     09132021092571370000DEP EN EFECTIV                          +00000000101461000013658708530000000008092021TEHT                            
65502381527     09132021092571370000DEP EN EFECTIV                          +00000000073080000013659439330000000007092021PSDT                            
65502381527     09132021092571370000DEP EN EFECTIV                          +00000001208488000013671524210000000008092021CPUT                            
65502381527     09132021092571370643FAL DEP EFEC                            -00000000000004000013671524170000000007092021TEHT                            
65502381527     09132021092571370643FAL DEP EFEC                            -00000000000001000013671524160000000007092021TEHT                            
65502381527     09132021092571370643FAL DEP EFEC                            -00000000000002000013671524140000000007092021TEHT                            
65502381527     09132021092571370643FAL DEP EFEC                            -00000000000002000013671524120000000007092021TEHT                            
65502381527     09132021092571370643FAL DEP EFEC                            -00000000000002000013671524100000000007092021TEHT                            
65502381527     09132021124868780000DEP EN EFECTIV                          +00000000371780000013675241900000000007092021CDST                            
65502381527     09132021124868780000DEP EN EFECTIV                          +00000001385991000013689101810000000008092021TPOT                            
65502381527     09132021124868780000DEP EN EFECTIV                          +00000001355456000013702656370000000009092021TPOT                            
65502381527     09132021124868780000DEP EN EFECTIV                          +00000000118188000013703838250000000008092021CDST                            
65502381527     09132021124868780000DEP EN EFECTIV                          +00000000233430000013706172550000000007092021CDNT                            
65502381527     09132021124868780643FAL DEP EFEC                            -00000000000001000013706172540000000007092021CDST                            
65502381527     09132021125274650291AB TRANSF SPEI                          +000000003600000000137097725404636165PAGO DE 30 GUIAS TEHUACAN               130921  002670409800376329
65502381527     09132021130268780000DEP EN EFECTIV                          +00000000090016000013710672700000000008092021IZTT                            
65502381527     09132021130268780000DEP EN EFECTIV                          +00000000286319000013713535890000000010092021IZTT                            
65502381527     09132021130268780000DEP EN EFECTIV                          +00000000065424000013714190130000000009092021IZTT                            
65502381527     09132021131274650291AB TRANSF SPEI                          +000000000128000000137143181304670758envios                                  5646676 137650104002623442
65502381527     09132021132309810180AB TRANS ELECT                          +000002000000000000157143181302820570TRASPASO 3550 A 1527                    
65502381527     09132021153125170580CGO AP INV PZO                          -000015713000000000000013181300000000                                        
65502381527     09132021191752342082DEP EFECT ATM                           +000000000300000000000016181300841045                                        
