0074180301740583562021-05-11989806SPEI RECIBIDO    1210511      00000000012670.00MXP000000000AUTOTRANSPORTES ORO GRAN TURIS00000002021/05/11            T20   0000
0074180301740583562021-05-11982855SPEI RECIBIDO    0110521      00000000015418.81MXP000000000PAGO INTERBANCARIO            00000002021/05/11            T20   0000
0074180301740583562021-05-11958820SPEI RECIBIDO    1210511      00000000017446.80MXP000000000AUTOTRANSPORTES ORO GRAN TURIS00000002021/05/11            T20   0000
0074180301740583562021-05-11851256SPEI RECIBIDO    1210511      00000000009762.00MXP000000000AUTOTRANSPORTES ORO GRAN TURIS00000002021/05/11            T20   0000
0074180301740583562021-05-11791503SPEI RECIBIDO    1210511      00000000011008.00MXP000000000AUTOTRANSPORTES ORO GRAN TURIS00000002021/05/11            T20   0000
0074180301740583562021-05-11729359SPEI RECIBIDO    1210511      00000000010801.00MXP000000000AUTOTRANSPORTES ORO GRAN TURIS00000002021/05/11            T20   0000
0074180301740583562021-05-11587406SPEI RECIBIDO    1210511      00000000008308.00MXP000000000AUTOTRANSPORTES ORO GRAN TURIS00000002021/05/11            T20   0000
0074180301740583562021-05-11471950SPEI RECIBIDO    1210511      00000000010385.00MXP000000000AUTOTRANSPORTES ORO GRAN TURIS00000002021/05/11            T20   0000
0074180301740583562021-05-11445686SPEI RECIBIDO    1210511      00000000011423.50MXP000000000AUTOTRANSPORTES ORO GRAN TURIS00000002021/05/11            T20   0000
0074180301740583562021-05-11444091SPEI RECIBIDO    1806345      00000000178581.24MXP0000000003296                          00000002021/05/11            T20   0000
0074180301740583562021-05-11444066SPEI RECIBIDO    1806262      00000000143000.02MXP0000000002362                          00000002021/05/11            T20   0000
0074180301740583562021-05-11440681SPEI RECIBIDO    1803632      00000000324155.84MXP00000000014303                         00000002021/05/11            T20   0000
0074180301740583562021-05-11345542VENTAS DEBITO                 00000000046977.38MXP000000000144345542                     00000002021/05/11            V42   0000
0074180301740583562021-05-11345542VENTAS CREDITO                00000000011054.66MXP000000000144345542                     00000002021/05/11            V45   0000
0074180301740583562021-05-11345542VENTAS DEBITO                 00000000007269.50MXP000000000144345542                     00000002021/05/11            V42   0000
0074180301740583562021-05-11345542IVA COM. VENTAS DEBITO        10000000000035.89MXP000000000174345542                     00000002021/05/11            V44   0000
0074180301740583562021-05-11345542COMISION VENTAS CREDITO       10000000000138.13MXP000000000174345542                     00000002021/05/11            V46   0000
0074180301740583562021-05-11345542COMISION VENTAS DEBITO        10000000000224.33MXP000000000174345542                     00000002021/05/11            V43   0000
0074180301740583562021-05-11345542IVA COM. VENTAS DEBITO        10000000000002.88MXP000000000174345542                     00000002021/05/11            V44   0000
0074180301740583562021-05-11345542COMISION VENTAS DEBITO        10000000000018.00MXP000000000174345542                     00000002021/05/11            V43   0000
0074180301740583562021-05-11345542IVA COM. VENTAS CREDITO       10000000000022.10MXP000000000174345542                     00000002021/05/11            V47   0000
0074180301740583562021-05-11240978SPEI RECIBIDO    1210511      00000000017654.50MXP000000000AUTOTRANSPORTES ORO GRAN TURIS00000002021/05/11            T20   0000
0074180301740583562021-05-11174345COM VTA PUNTOS TDC BANCOM     10000000000000.26MXP000000000174345542                     00000002021/05/11            T92   0000
0074180301740583562021-05-11174345IVA COM VTA PUNTOS BCMER      10000000000000.04MXP000000000174345542                     00000002021/05/11            T93   0000
0074180301740583562021-05-11158017SPEI RECIBIDO    1210511      00000000013085.10MXP000000000AUTOTRANSPORTES ORO GRAN TURIS00000002021/05/11            T20   0000
0074180301740583562021-05-11144345VENTAS PUNTOS TDC BANCOME     00000000000021.00MXP000000000144345542                     00000002021/05/11            T91   0000
0074180301740583562021-05-11044140SPEI RECIBIDO    1210511      00000000011215.80MXP000000000AUTOTRANSPORTES ORO GRAN TURIS00000002021/05/11            T20   0000
0074180301740583562021-05-110201101119648 DEM. EFECTIVO         00000000084734.50MXP0074180301740583560                    00000002021/05/11            C72   0000
0074180301740583562021-05-110201001119648 DEM. EFECTIVO         00000000075447.00MXP0074180301740583560                    00000002021/05/11            C72   0000
0074180301740583562021-05-110200991119648 DEM. EFECTIVO         00000000014945.00MXP0074180301740583560                    00000002021/05/11            C72   0000
0074180301740583562021-05-110200881119648 DEM. EFECTIVO         00000000008781.50MXP0074180301740583560                    00000002021/05/11            C72   0000
0074180301740583562021-05-110199231119648 DEM. EFECTIVO         00000000121085.50MXP0074180301740583560                    00000002021/05/11            C72   0000
0074180301740583562021-05-110199121119648 DEM. EFECTIVO         00000000015884.00MXP0074180301740583560                    00000002021/05/11            C72   0000
0074180301740583562021-05-110199011119648 DEM. EFECTIVO         00000000063232.50MXP0074180301740583560                    00000002021/05/11            C72   0000
0074180301740583562021-05-110198901119648 DEM. EFECTIVO         00000000019641.00MXP0074180301740583560                    00000002021/05/11            C72   0000
0074180301740583562021-05-11004689DEPOSITO EFECTIVO/CHEQUE      00000000020250.00MXP0000000000046892                       00000002021/05/11            C02   0000
0074180301740583562021-05-11000000SODEXO MOTIVATION SO11867     10000000000066.12MXP000000000Sodexo                        00000002021/05/11            P31   0000
0074180301740583562021-05-11000000SALDO ULTIMA TRANS            20000003082106.16MXP000000000                              00000002021/05/11                  0000
