0074180301740583562021-05-075462101119648 DEM. EFECTIVO         00000000070915.00MXP0074180301740583560                    00000002021/05/07            C72   0000
0074180301740583562021-05-075462091119648 DEM. EFECTIVO         00000000041222.00MXP0074180301740583560                    00000002021/05/07            C72   0000
0074180301740583562021-05-075461981119648 DEM. EFECTIVO         00000000009336.00MXP0074180301740583560                    00000002021/05/07            C72   0000
0074180301740583562021-05-075461871119648 DEM. EFECTIVO         00000000007546.50MXP0074180301740583560                    00000002021/05/07            C72   0000
0074180301740583562021-05-07345542VENTAS DEBITO                 00000000007259.00MXP000000000144345542                     00000002021/05/07            V42   0000
0074180301740583562021-05-07345542VENTAS CREDITO                00000000023695.80MXP000000000144345542                     00000002021/05/07            V45   0000
0074180301740583562021-05-07345542VENTAS CREDITO                00000000032766.00MXP000000000144345542                     00000002021/05/07            V45   0000
0074180301740583562021-05-07345542VENTAS DEBITO                 00000000057858.22MXP000000000144345542                     00000002021/05/07            V42   0000
0074180301740583562021-05-07345542IVA COM. VENTAS DEBITO        10000000000002.88MXP000000000174345542                     00000002021/05/07            V44   0000
0074180301740583562021-05-07345542COMISION VENTAS DEBITO        10000000000018.00MXP000000000174345542                     00000002021/05/07            V43   0000
0074180301740583562021-05-07345542IVA COM. VENTAS DEBITO        10000000000037.70MXP000000000174345542                     00000002021/05/07            V44   0000
0074180301740583562021-05-07345542IVA COM. VENTAS CREDITO       10000000000047.39MXP000000000174345542                     00000002021/05/07            V47   0000
0074180301740583562021-05-07345542IVA COM. VENTAS CREDITO       10000000000065.52MXP000000000174345542                     00000002021/05/07            V47   0000
0074180301740583562021-05-07345542COMISION VENTAS DEBITO        10000000000235.65MXP000000000174345542                     00000002021/05/07            V43   0000
0074180301740583562021-05-07345542COMISION VENTAS CREDITO       10000000000296.19MXP000000000174345542                     00000002021/05/07            V46   0000
0074180301740583562021-05-07345542COMISION VENTAS CREDITO       10000000000409.52MXP000000000174345542                     00000002021/05/07            V46   0000
0074180301740583562021-05-07111964FALTANTE DE EFECTIVO          10000000000010.00MXP000000000DEM REF:1740583560           700000002021/05/07            C77   0000
0074180301740583562021-05-07000000ABONO MISMA PLAZA VIA CW      00000000030000.00MXP000000000PENDIENTE                     00000002021/05/07            W02   0000
0074180301740583562021-05-07000000PAGO CUENTA DE TERCERO        00000000039460.12MXP000000000BNET    0445957397 FACT  3986300000002021/05/07            N06   0000
0074180301740583562021-05-07000000SALDO ULTIMA TRANS            20000000785922.81MXP000000000                              00000002021/05/07                  0000
