65501753550     04162021050774650291AB TRANSF SPEI                          +000000000888920000021854516007152632AMEXCO SE 9350021565                    21565   002180002346330664                        BANAMEX                                 014650655017535508  AUTOBUSES MEXICO PUEBLA ESTRELLA ROJA SA002180002346330664  AMERICAN EXPRESS COMPANY MEXICO SA                                      AMP521016875   AEC810901298   178D5874B8E2AF45              
65501753550     04162021050974650291AB TRANSF SPEI                          +000000000139610000021855912107156370AMEXCO SE 9350058864                    58864   002180002346330664                        BANAMEX                                 014650655017535508  AUTOBUSES MEXICO PUEBLA ESTRELLA ROJA SA002180002346330664  AMERICAN EXPRESS COMPANY MEXICO SA                                      AMP521016875   AEC810901298   178D58764BD64832              
65501753550     04162021051074650291AB TRANSF SPEI                          +000000000957740000021865489507157923AMEXCO SE 9359908044                    9908044 002180002346330664                        BANAMEX                                 014650655017535508  AUTOBUSES MEXICO PUEBLA ESTRELLA ROJA SA002180002346330664  AMERICAN EXPRESS COMPANY MEXICO SA                                      AMP521016875   AEC810901298   178D5878DE8761E2              
65501753550     04162021052274650291AB TRANSF SPEI                          +000000000253930000021868028807159176AMEXCO SE 9356614447                    6614447 002180002346330664                        BANAMEX                                 014650655017535508  AUTOBUSES MEXICO PUEBLA ESTRELLA ROJA SA002180002346330664  AMERICAN EXPRESS COMPANY MEXICO SA                                      AMP521016875   AEC810901298   178D59041DCE567F              
65501753550     04162021052374650291AB TRANSF SPEI                          +000000002857150000021896600307159318AMEXCO SE 9350021532                    21532   002180002346330664                        BANAMEX                                 014650655017535508  AUTOBUSES MEXICO PUEBLA ESTRELLA ROJA SA002180002346330664  AMERICAN EXPRESS COMPANY MEXICO SA                                      AMP521016875   AEC810901298   178D590754EE60DF              
65501753550     04162021054571370000DEP EN EFECTIV                          +00000000292600000002192586030000000013042021PSDGT7                                                                                                                                                                                                                                                                                                                                        
65501753550     04162021054571370000DEP EN EFECTIV                          +00000000302600000002195612030000000012042021PSDGT8                                                                                                                                                                                                                                                                                                                                        
65501753550     04162021054571370000DEP EN EFECTIV                          +00000000395000000002199562030000000011042021PSDGT9                                                                                                                                                                                                                                                                                                                                        
65501753550     04162021054571370000DEP EN EFECTIV                          +00000000300000000002202562030000000011042021PSDGM5                                                                                                                                                                                                                                                                                                                                        
65501753550     04162021054571370000DEP EN EFECTIV                          +00000000474550000002207307530000000010042021PSDGT0                                                                                                                                                                                                                                                                                                                                        
65501753550     04162021054571370000DEP EN EFECTIV                          +00000000429100000002211598530000000009042021PSDGT3                                                                                                                                                                                                                                                                                                                                        
65501753550     04162021054571370000DEP EN EFECTIV                          +00000000350000000002215098530000000009042021PSDGM9                                                                                                                                                                                                                                                                                                                                        
65501753550     04162021054571370000DEP EN EFECTIV                          +00000000221500000002217313530000000008042021PSDGT4                                                                                                                                                                                                                                                                                                                                        
65501753550     04162021054571370000DEP EN EFECTIV                          +00000000467700000002221990530000000007042021PSDGT5                                                                                                                                                                                                                                                                                                                                        
65501753550     04162021054571370000DEP EN EFECTIV                          +00000000354700000002225537530000000006042021PSDGT6                                                                                                                                                                                                                                                                                                                                        
65501753550     04162021054571370000DEP EN EFECTIV                          +00000000374600000002229283530000000007042021HUEJOT6                                                                                                                                                                                                                                                                                                                                       
65501753550     04162021054571370000DEP EN EFECTIV                          +00000000375100000002233034530000000006042021HUEJOT2                                                                                                                                                                                                                                                                                                                                       
65501753550     04162021054571370000DEP EN EFECTIV                          +00000000708800000002240122530000000012042021HUEJOT0                                                                                                                                                                                                                                                                                                                                       
65501753550     04162021054571370000DEP EN EFECTIV                          +00000000542100000002245543530000000011042021HUEJOT2                                                                                                                                                                                                                                                                                                                                       
65501753550     04162021054571370000DEP EN EFECTIV                          +00000000430800000002249851530000000010042021HUEJOT4                                                                                                                                                                                                                                                                                                                                       
65501753550     04162021054571370000DEP EN EFECTIV                          +00000000487300000002254724530000000009042021HUEJOT6                                                                                                                                                                                                                                                                                                                                       
65501753550     04162021054571370000DEP EN EFECTIV                          +00000000500200000002259726530000000008042021HUEJOT3                                                                                                                                                                                                                                                                                                                                       
65501753550     04162021050142300038DEP ELE PAG TC                          +000000013808000000022735345305256409AFIL.-005256409                                                                                                                                                                                                                                                                                                                                       
65501753550     04162021050142300038DEP ELE PAG TC                          +000000004262000000022777965305688445AFIL.-005688445                                                                                                                                                                                                                                                                                                                                       
65501753550     04162021050142300038DEP ELE PAG TC                          +000000009261280000022870578105688452AFIL.-005688452                                                                                                                                                                                                                                                                                                                                       
65501753550     04162021050142300038DEP ELE PAG TC                          +000000010053000000022971108107273370AFIL.-007273370                                                                                                                                                                                                                                                                                                                                       
65501753550     04162021050142300038DEP ELE PAG TC                          +000000039519500000023366303108139649AFIL.-008139649                                                                                                                                                                                                                                                                                                                                       
65501753550     04162021050142300038DEP ELE PAG TC                          +000000003200000000023398303108180414AFIL.-008180414                                                                                                                                                                                                                                                                                                                                       
65501753550     04162021050142300038DEP ELE PAG TC                          +000000001606000000023414363108376766AFIL.-008376766                                                                                                                                                                                                                                                                                                                                       
65501753550     04162021050142300038DEP ELE PAG TC                          +000000056689000000023981253109180159AFIL.-009180159                                                                                                                                                                                                                                                                                                                                       
65501753550     04162021050142300038DEP ELE PAG TC                          +000000051989000000024501143109181868AFIL.-009181868                                                                                                                                                                                                                                                                                                                                       
65501753550     04162021050142300038DEP ELE PAG TC                          +000000057190000000025073043109270083AFIL.-009270083                                                                                                                                                                                                                                                                                                                                       
65501753550     04162021050142302677DO CO DE PAGTC                          -000000000251470000025070528405256409AFIL.-005256409                                                                                                                                                                                                                                                                                                                                       
65501753550     04162021050142302571DOM IVA COMIS                           -000000000040230000025070126105256409AFIL.-005256409                                                                                                                                                                                                                                                                                                                                       
65501753550     04162021050142302677DO CO DE PAGTC                          -000000000077340000025069352705688445AFIL.-005688445                                                                                                                                                                                                                                                                                                                                       
65501753550     04162021050142302571DOM IVA COMIS                           -000000000012370000025069229005688445AFIL.-005688445                                                                                                                                                                                                                                                                                                                                       
65501753550     04162021050142302677DO CO DE PAGTC                          -000000000159930000025067629705688452AFIL.-005688452                                                                                                                                                                                                                                                                                                                                       
65501753550     04162021050142302571DOM IVA COMIS                           -000000000025560000025067374105688452AFIL.-005688452                                                                                                                                                                                                                                                                                                                                       
65501753550     04162021050142302677DO CO DE PAGTC                          -000000000175310000025065621007273370AFIL.-007273370                                                                                                                                                                                                                                                                                                                                       
65501753550     04162021050142302571DOM IVA COMIS                           -000000000028060000025065340407273370AFIL.-007273370                                                                                                                                                                                                                                                                                                                                       
65501753550     04162021050142302677DO CO DE PAGTC                          -000000000705440000025058286008139649AFIL.-008139649                                                                                                                                                                                                                                                                                                                                       
65501753550     04162021050142302571DOM IVA COMIS                           -000000000112890000025057157108139649AFIL.-008139649                                                                                                                                                                                                                                                                                                                                       
65501753550     04162021050142302677DO CO DE PAGTC                          -000000000055430000025056602808180414AFIL.-008180414                                                                                                                                                                                                                                                                                                                                       
65501753550     04162021050142302571DOM IVA COMIS                           -000000000008850000025056514308180414AFIL.-008180414                                                                                                                                                                                                                                                                                                                                       
65501753550     04162021050142302677DO CO DE PAGTC                          -000000000028930000025056225008376766AFIL.-008376766                                                                                                                                                                                                                                                                                                                                       
65501753550     04162021050142302571DOM IVA COMIS                           -000000000004620000025056178808376766AFIL.-008376766                                                                                                                                                                                                                                                                                                                                       
65501753550     04162021050142302677DO CO DE PAGTC                          -000000000995240000025046226409180159AFIL.-009180159                                                                                                                                                                                                                                                                                                                                       
65501753550     04162021050142302571DOM IVA COMIS                           -000000000159230000025044634109180159AFIL.-009180159                                                                                                                                                                                                                                                                                                                                       
65501753550     04162021050142302677DO CO DE PAGTC                          -000000000906780000025035566309181868AFIL.-009181868                                                                                                                                                                                                                                                                                                                                       
65501753550     04162021050142302571DOM IVA COMIS                           -000000000145100000025034115309181868AFIL.-009181868                                                                                                                                                                                                                                                                                                                                       
65501753550     04162021050142302677DO CO DE PAGTC                          -000000001022710000025023888209270083AFIL.-009270083                                                                                                                                                                                                                                                                                                                                       
65501753550     04162021050142302571DOM IVA COMIS                           -000000000163740000025022250809270083AFIL.-009270083                                                                                                                                                                                                                                                                                                                                       
65501753550     04162021083271370000DEP EN EFECTIV                          +00000003665000000002538875080000000013042021CAPUM9                                                                                                                                                                                                                                                                                                                                        
65501753550     04162021083271370000DEP EN EFECTIV                          +00000002419000000002563065080000000014042021CAPUM8                                                                                                                                                                                                                                                                                                                                        
65501753550     04162021083271370000DEP EN EFECTIV                          +00000000010600000002563171080000000013042021CAPUV9                                                                                                                                                                                                                                                                                                                                        
65501753550     04162021083271370000DEP EN EFECTIV                          +00000000015200000002563323080000000014042021CAPUV8                                                                                                                                                                                                                                                                                                                                        
65501753550     04162021083271370000DEP EN EFECTIV                          +00000024515000000002808473080000000014042021CAPUT2                                                                                                                                                                                                                                                                                                                                        
65501753550     04162021083271370000DEP EN EFECTIV                          +00000025348900000003061962080000000013042021CAPUT3                                                                                                                                                                                                                                                                                                                                        
65501753550     04162021092952342082DEP EFECT ATM                           +000000000400000000030623620800123780                                                                                                                                                                                                                                                                                                                                                      
65501753550     04162021103109810180AB TRANS ELECT                          +00000010764436000003170006440735X778TOLUCATRIANGU06                                                                                                                                                                                                                                                                                                                                       
65501753550     04162021104309810180AB TRANS ELECT                          +00000000271536000003172721800061X600TOLUCATRIANGU06                                                                                                                                                                                                                                                                                                                                       
65501753550     04162021110268780000DEP EN EFECTIV                          +00000009306050000003265782300000000012042021CART0                                                                                                                                                                                                                                                                                                                                         
65501753550     04162021110268780000DEP EN EFECTIV                          +00000001200000000003277782300000000012042021CARM2                                                                                                                                                                                                                                                                                                                                         
65501753550     04162021110268780000DEP EN EFECTIV                          +00000000000950000003277791800000000012042021CARV2                                                                                                                                                                                                                                                                                                                                         
65501753550     04162021110268780000DEP EN EFECTIV                          +00000006605300000003343844800000000013042021CART7                                                                                                                                                                                                                                                                                                                                         
65501753550     04162021110268780000DEP EN EFECTIV                          +00000001000000000003353844800000000013042021CARM9                                                                                                                                                                                                                                                                                                                                         
65501753550     04162021110268780000DEP EN EFECTIV                          +00000000002300000003353867800000000013042021CARV9                                                                                                                                                                                                                                                                                                                                         
65501753550     04162021110268780000DEP EN EFECTIV                          +00000015000400000003503871800000000013042021TAPOT9                                                                                                                                                                                                                                                                                                                                        
65501753550     04162021110268780000DEP EN EFECTIV                          +00000002300000000003526871800000000014042021TAPOM5                                                                                                                                                                                                                                                                                                                                        
65501753550     04162021110268780000DEP EN EFECTIV                          +00000000000100000003526872800000000014042021TAPOV5                                                                                                                                                                                                                                                                                                                                        
65501753550     04162021110268780000DEP EN EFECTIV                          +00000000048000000003527352800000000014042021TAPOV5                                                                                                                                                                                                                                                                                                                                        
65501753550     04162021110268780000DEP EN EFECTIV                          +00000002000000000003547352800000000012042021TAPOM2                                                                                                                                                                                                                                                                                                                                        
65501753550     04162021110268780000DEP EN EFECTIV                          +00000000033600000003547688800000000012042021TAPOV2                                                                                                                                                                                                                                                                                                                                        
65501753550     04162021110268780000DEP EN EFECTIV                          +00000000006500000003547753800000000012042021TAPOV2                                                                                                                                                                                                                                                                                                                                        
65501753550     04162021110268780000DEP EN EFECTIV                          +00000017732750000003725081300000000012042021TAPOT1                                                                                                                                                                                                                                                                                                                                        
65501753550     04162021110268780000DEP EN EFECTIV                          +00000002050000000003745581300000000013042021TAPOM9                                                                                                                                                                                                                                                                                                                                        
65501753550     04162021110268780000DEP EN EFECTIV                          +00000000002600000003745607300000000013042021TAPOV9                                                                                                                                                                                                                                                                                                                                        
65501753550     04162021110268780000DEP EN EFECTIV                          +00000000028800000003745895300000000013042021TAPOV9                                                                                                                                                                                                                                                                                                                                        
65501753550     04162021110268780000DEP EN EFECTIV                          +00000015392950000003899824800000000014042021TAPOT4                                                                                                                                                                                                                                                                                                                                        
65501753550     04162021110268780000DEP EN EFECTIV                          +00000000600000000003905824800000000001042021AEROM4                                                                                                                                                                                                                                                                                                                                        
65501753550     04162021110268780000DEP EN EFECTIV                          +00000001896200000003924786800000000003042021AEROT7                                                                                                                                                                                                                                                                                                                                        
65501753550     04162021110268780000DEP EN EFECTIV                          +00000002411300000003948899800000000001012021AEROT3                                                                                                                                                                                                                                                                                                                                        
65501753550     04162021110268780000DEP EN EFECTIV                          +00000002957700000003978476800000000031032021AEROT4                                                                                                                                                                                                                                                                                                                                        
65501753550     04162021110268780000DEP EN EFECTIV                          +00000002884200000004007318800000000029032021AEROT3                                                                                                                                                                                                                                                                                                                                        
65501753550     04162021110268780000DEP EN EFECTIV                          +00000000600000000004013318800000000029032021AEROM4                                                                                                                                                                                                                                                                                                                                        
65501753550     04162021110268780000DEP EN EFECTIV                          +00000000000100000004013319800000000029032021AEROV4                                                                                                                                                                                                                                                                                                                                        
65501753550     04162021110268780000DEP EN EFECTIV                          +00000003974900000004053068800000000030032021AEROT7                                                                                                                                                                                                                                                                                                                                        
65501753550     04162021110268780000DEP EN EFECTIV                          +00000002878000000004081848800000000004042021AEROT3                                                                                                                                                                                                                                                                                                                                        
65501753550     04162021110268780000DEP EN EFECTIV                          +00000002305200000004104900800000000002042021AEROT0                                                                                                                                                                                                                                                                                                                                        
65501753550     04162021110268780643FAL DEP EFEC                            -00000000100000000004103900800000000001042021AEROM4                                                                                                                                                                                                                                                                                                                                        
65501753550     04162021125909810681CGO TRANS ELEC                          -00000405000000000000053900800841A197TRASPASO 3550 A 1527                                                                                                                                                                                                                                                                                                                                  
65501753550     04162021130609810790PAGO TRAN SPEI                          -00000000129120000000052609600787551913978                                                                          BANAMEX                                 002767901296961830  OCTAVIO CONTRERAS SOSA                  00140114065501753550AUTOBUSES MEXICO PUEBLA ESTRELLA ROJA SA                                               AMP521016875   2021041640014 BET0000478755190
65501753550     04162021134574650291AB TRANSF SPEI                          +0000000027153600000005532496079821220007236B179573 AUTOBUSES MEXIC          0007236 012180001107939732                        BBVA BANCOMER                           014650655017535508  AUTOBUSES MEXICO PUEBLA ESTRELLA ROJA SA012180001107939732  AUTOBUSES ESTRELLA B LANCA SA DE CV                                     AMP521016875   AEB611030SN7   002601002104160000225071      
65501753550     04162021143271370000DEP EN EFECTIV                          +00000000003000000000055354960000000012042021CAPSETEXT6                                                                                                                                                                                                                                                                                                                                    
65501753550     04162021143271370000DEP EN EFECTIV                          +00000000075900000000056113960000000014042021CAPSETEXT                                                                                                                                                                                                                                                                                                                                     
65501753550     04162021143271370000DEP EN EFECTIV                          +00000000268000000000058793960000000013042021CAPSETEXT5                                                                                                                                                                                                                                                                                                                                    
65501753550     04162021143271370000DEP EN EFECTIV                          +00000000260000000000061393960000000013042021ESTAP0                                                                                                                                                                                                                                                                                                                                        
65501753550     04162021143271370000DEP EN EFECTIV                          +00000000146000000000062853960000000015042021CAPUM7                                                                                                                                                                                                                                                                                                                                        
65501753550     04162021143271370000DEP EN EFECTIV                          +00000000285000000000065703960000000014042021ESTAP9                                                                                                                                                                                                                                                                                                                                        
65501753550     04162021151909810180AB TRANS ELECT                          +000000158227150000002239311102610829ARREND AUTOBUSES PERSONAL DE OBRA                                                                                                                                                                                                                                                                                                                     
65501753550     04162021174274650291AB TRANSF SPEI                          +000000146395860000003703269708561416Transferencias PayU4265583              4265583 012180001908758138                        BBVA BANCOMER                           014650655017535508  AUTOBUSES MEXICO PUEBLA ESTRELLA ROJA SA012180001908758138  ONLINE LATIN AMERICA N PAYMENTS MEXICO S                                AMP521016875   OLA1012082G0   002601002104160000292557      
65501753550     04162021174274650291AB TRANSF SPEI                          +000000057954750000004282817208561443Transferencias PayU4265669              4265669 012180001908758138                        BBVA BANCOMER                           014650655017535508  AUTOBUSES MEXICO PUEBLA ESTRELLA ROJA SA012180001908758138  ONLINE LATIN AMERICA N PAYMENTS MEXICO S                                AMP521016875   OLA1012082G0   002601002104160000292570      
65501753550     04162021181874650291AB TRANSF SPEI                          +000000019659090000004479408108617186F PQD 233860-233424                     160421  002650012305477062                        BANAMEX                                 014650655017535508  AUTOBUSES MEXICO PUEBLA ESTRELLA ROJA SA002650012305477062  HEMOST SA DE CV                                                         AMP521016875   HEM711007I45   085905009574310610            
