65501753550     09132021055774650291AB TRANSF SPEI                          +000000000300000000014906659802795189PENSION AUTO                            1109210 012650014610005272
65501753550     09132021124470080000DEP EN EFECTIV                          +000000000400000000014910659800089371PENSION4PTEJLNV                         
65501753550     09132021230335972421AB TR RAP SANT                          +000000000400000000014914659804384123pension 4pte JML                        
65501753550     09132021044674650291AB TRANSF SPEI                          +000000001644590000014931105704090900AMEXCO SE 9359908044                    9908044 002180002346330664
65501753550     09132021044674650291AB TRANSF SPEI                          +000000001035970000014941465404090940AMEXCO SE 9350060670                    60670   002180002346330664
65501753550     09132021050174650291AB TRANSF SPEI                          +000000000682790000014948293304093150AMEXCO SE 9356614447                    6614447 002180002346330664
65501753550     09132021050374650291AB TRANSF SPEI                          +000000004378690000014992080204093297AMEXCO SE 9350021532                    21532   002180002346330664
65501753550     09132021050374650291AB TRANSF SPEI                          +000000000114060000014993220804093326AMEXCO SE 9350058864                    58864   002180002346330664
65501753550     09132021060142300038DEP ELE PAG TC                          +000000005987000000015053090805256409AFIL.-005256409                         
65501753550     09132021060142300038DEP ELE PAG TC                          +000000003260000000015085690805688445AFIL.-005688445                         
65501753550     09132021060142300038DEP ELE PAG TC                          +000000001698080000015102671605688452AFIL.-005688452                         
65501753550     09132021060142300038DEP ELE PAG TC                          +000000016396000000015266631607273370AFIL.-007273370                         
65501753550     09132021060142300038DEP ELE PAG TC                          +000000061679000000015883421608139649AFIL.-008139649                         
65501753550     09132021060142300038DEP ELE PAG TC                          +000000005551500000015938936608180414AFIL.-008180414                         
65501753550     09132021060142300038DEP ELE PAG TC                          +000000002034000000015959276608376766AFIL.-008376766                         
65501753550     09132021060142300038DEP ELE PAG TC                          +000000080133000000016760606609180159AFIL.-009180159                         
65501753550     09132021060142300038DEP ELE PAG TC                          +000000063770500000017398311609181868AFIL.-009181868                         
65501753550     09132021060142300038DEP ELE PAG TC                          +000000091626000000018314571609270083AFIL.-009270083                         
65501753550     09132021060142300038DEP ELE PAG TC                          +000000000240000000018316971609627191AFIL.-009627191                         
65501753550     09132021060142300038DEP ELE PAG TC                          +000000009899000000018415961605256409AFIL.-005256409                         
65501753550     09132021060142300038DEP ELE PAG TC                          +000000002698000000018442941605688445AFIL.-005688445                         
65501753550     09132021060142300038DEP ELE PAG TC                          +000000006668480000018509626405688452AFIL.-005688452                         
65501753550     09132021060142300038DEP ELE PAG TC                          +000000014173000000018651356407273370AFIL.-007273370                         
65501753550     09132021060142300038DEP ELE PAG TC                          +000000052638000000019177736408139649AFIL.-008139649                         
65501753550     09132021060142300038DEP ELE PAG TC                          +000000007083000000019248566408180414AFIL.-008180414                         
65501753550     09132021060142300038DEP ELE PAG TC                          +000000002781000000019276376408376766AFIL.-008376766                         
65501753550     09132021060142300038DEP ELE PAG TC                          +000000083327000000020109646409180159AFIL.-009180159                         
65501753550     09132021060142300038DEP ELE PAG TC                          +000000120602000000021315666409181868AFIL.-009181868                         
65501753550     09132021060142300038DEP ELE PAG TC                          +000000106900000000022384666409270083AFIL.-009270083                         
65501753550     09132021060142300038DEP ELE PAG TC                          +000000010314000000022487806405256409AFIL.-005256409                         
65501753550     09132021060142300038DEP ELE PAG TC                          +000000008581000000022573616405688445AFIL.-005688445                         
65501753550     09132021060142300038DEP ELE PAG TC                          +000000009262480000022666241205688452AFIL.-005688452                         
65501753550     09132021060142300038DEP ELE PAG TC                          +000000015050000000022816741207273370AFIL.-007273370                         
65501753550     09132021060142300038DEP ELE PAG TC                          +000000064137000000023458111208139649AFIL.-008139649                         
65501753550     09132021060142300038DEP ELE PAG TC                          +000000006791500000023526026208180414AFIL.-008180414                         
65501753550     09132021060142300038DEP ELE PAG TC                          +000000002780000000023553826208376766AFIL.-008376766                         
65501753550     09132021060142300038DEP ELE PAG TC                          +000000079157500000024345401209180159AFIL.-009180159                         
65501753550     09132021060142300038DEP ELE PAG TC                          +000000099375000000025339151209181868AFIL.-009181868                         
65501753550     09132021060142300038DEP ELE PAG TC                          +000000110477000000026443921209270083AFIL.-009270083                         
65501753550     09132021060142300038DEP ELE PAG TC                          +000000002157000000026465491209627191AFIL.-009627191                         
65501753550     09132021060142302677DO CO DE PAGTC                          -000000000106620000026464425005256409AFIL.-005256409                         
65501753550     09132021060142302571DOM IVA COMIS                           -000000000017040000026464254605256409AFIL.-005256409                         
65501753550     09132021060142302677DO CO DE PAGTC                          -000000000059140000026463663205688445AFIL.-005688445                         
65501753550     09132021060142302571DOM IVA COMIS                           -000000000009470000026463568505688445AFIL.-005688445                         
65501753550     09132021060142302677DO CO DE PAGTC                          -000000000030400000026463264505688452AFIL.-005688452                         
65501753550     09132021060142302571DOM IVA COMIS                           -000000000004870000026463215805688452AFIL.-005688452                         
65501753550     09132021060142302677DO CO DE PAGTC                          -000000000287990000026460335907273370AFIL.-007273370                         
65501753550     09132021060142302571DOM IVA COMIS                           -000000000046080000026459875107273370AFIL.-007273370                         
65501753550     09132021060142302677DO CO DE PAGTC                          -000000001096090000026448914208139649AFIL.-008139649                         
65501753550     09132021060142302571DOM IVA COMIS                           -000000000175420000026447160008139649AFIL.-008139649                         
65501753550     09132021060142302677DO CO DE PAGTC                          -000000000095800000026446202008180414AFIL.-008180414                         
65501753550     09132021060142302571DOM IVA COMIS                           -000000000015330000026446048708180414AFIL.-008180414                         
65501753550     09132021060142302677DO CO DE PAGTC                          -000000000034570000026445703008376766AFIL.-008376766                         
65501753550     09132021060142302571DOM IVA COMIS                           -000000000005520000026445647808376766AFIL.-008376766                         
65501753550     09132021060142302677DO CO DE PAGTC                          -000000001407000000026431577809180159AFIL.-009180159                         
65501753550     09132021060142302571DOM IVA COMIS                           -000000000225110000026429326709180159AFIL.-009180159                         
65501753550     09132021060142302677DO CO DE PAGTC                          -000000001118340000026418143309181868AFIL.-009181868                         
65501753550     09132021060142302571DOM IVA COMIS                           -000000000178950000026416353809181868AFIL.-009181868                         
65501753550     09132021060142302677DO CO DE PAGTC                          -000000001646650000026399887309270083AFIL.-009270083                         
65501753550     09132021060142302571DOM IVA COMIS                           -000000000263580000026397251509270083AFIL.-009270083                         
65501753550     09132021060142302677DO CO DE PAGTC                          -000000000004080000026397210709627191AFIL.-009627191                         
65501753550     09132021060142302571DOM IVA COMIS                           -000000000000650000026397204209627191AFIL.-009627191                         
65501753550     09132021060142302677DO CO DE PAGTC                          -000000000181120000026395393005256409AFIL.-005256409                         
65501753550     09132021060142302571DOM IVA COMIS                           -000000000028990000026395103105256409AFIL.-005256409                         
65501753550     09132021060142302677DO CO DE PAGTC                          -000000000049600000026394607105688445AFIL.-005688445                         
65501753550     09132021060142302571DOM IVA COMIS                           -000000000007950000026394527605688445AFIL.-005688445                         
65501753550     09132021060142302677DO CO DE PAGTC                          -000000000115760000026393370005688452AFIL.-005688452                         
65501753550     09132021060142302571DOM IVA COMIS                           -000000000018520000026393184805688452AFIL.-005688452                         
65501753550     09132021060142302677DO CO DE PAGTC                          -000000000250490000026390679907273370AFIL.-007273370                         
65501753550     09132021060142302571DOM IVA COMIS                           -000000000040080000026390279107273370AFIL.-007273370                         
65501753550     09132021060142302677DO CO DE PAGTC                          -000000000948120000026380797908139649AFIL.-008139649                         
65501753550     09132021060142302571DOM IVA COMIS                           -000000000151740000026379280508139649AFIL.-008139649                         
65501753550     09132021060142302677DO CO DE PAGTC                          -000000000123520000026378045308180414AFIL.-008180414                         
65501753550     09132021060142302571DOM IVA COMIS                           -000000000019760000026377847708180414AFIL.-008180414                         
65501753550     09132021060142302677DO CO DE PAGTC                          -000000000049010000026377357608376766AFIL.-008376766                         
65501753550     09132021060142302571DOM IVA COMIS                           -000000000007840000026377279208376766AFIL.-008376766                         
65501753550     09132021060142302677DO CO DE PAGTC                          -000000001461510000026362664109180159AFIL.-009180159                         
65501753550     09132021060142302571DOM IVA COMIS                           -000000000233820000026360325909180159AFIL.-009180159                         
65501753550     09132021060142302677DO CO DE PAGTC                          -000000002111680000026339209109181868AFIL.-009181868                         
65501753550     09132021060142302571DOM IVA COMIS                           -000000000337860000026335830509181868AFIL.-009181868                         
65501753550     09132021060142302677DO CO DE PAGTC                          -000000001957220000026316258309270083AFIL.-009270083                         
65501753550     09132021060142302571DOM IVA COMIS                           -000000000313250000026313125809270083AFIL.-009270083                         
65501753550     09132021060142302677DO CO DE PAGTC                          -000000000188160000026311244205256409AFIL.-005256409                         
65501753550     09132021060142302571DOM IVA COMIS                           -000000000030120000026310943005256409AFIL.-005256409                         
65501753550     09132021060142302677DO CO DE PAGTC                          -000000000150010000026309442905688445AFIL.-005688445                         
65501753550     09132021060142302571DOM IVA COMIS                           -000000000023990000026309203005688445AFIL.-005688445                         
65501753550     09132021060142302677DO CO DE PAGTC                          -000000000163260000026307570405688452AFIL.-005688452                         
65501753550     09132021060142302571DOM IVA COMIS                           -000000000026120000026307309205688452AFIL.-005688452                         
65501753550     09132021060142302677DO CO DE PAGTC                          -000000000264860000026304660607273370AFIL.-007273370                         
65501753550     09132021060142302571DOM IVA COMIS                           -000000000042340000026304237207273370AFIL.-007273370                         
65501753550     09132021060142302677DO CO DE PAGTC                          -000000001162620000026292611008139649AFIL.-008139649                         
65501753550     09132021060142302571DOM IVA COMIS                           -000000000186070000026290750308139649AFIL.-008139649                         
65501753550     09132021060142302677DO CO DE PAGTC                          -000000000119000000026289560308180414AFIL.-008180414                         
65501753550     09132021060142302571DOM IVA COMIS                           -000000000019030000026289370008180414AFIL.-008180414                         
65501753550     09132021060142302677DO CO DE PAGTC                          -000000000049310000026288876908376766AFIL.-008376766                         
65501753550     09132021060142302571DOM IVA COMIS                           -000000000007880000026288798108376766AFIL.-008376766                         
65501753550     09132021060142302677DO CO DE PAGTC                          -000000001387790000026274920209180159AFIL.-009180159                         
65501753550     09132021060142302571DOM IVA COMIS                           -000000000222050000026272699709180159AFIL.-009180159                         
65501753550     09132021060142302677DO CO DE PAGTC                          -000000001731510000026255384609181868AFIL.-009181868                         
65501753550     09132021060142302571DOM IVA COMIS                           -000000000277040000026252614209181868AFIL.-009181868                         
65501753550     09132021060142302677DO CO DE PAGTC                          -000000001989720000026232717009270083AFIL.-009270083                         
65501753550     09132021060142302571DOM IVA COMIS                           -000000000318460000026229532409270083AFIL.-009270083                         
65501753550     09132021060142302677DO CO DE PAGTC                          -000000000039460000026229137809627191AFIL.-009627191                         
65501753550     09132021060142302571DOM IVA COMIS                           -000000000006320000026229074609627191AFIL.-009627191                         
65501753550     09132021092571370000DEP EN EFECTIV                          +00000000005000000002622957460000000007092021CHOLT1                          
65501753550     09132021092571370000DEP EN EFECTIV                          +00000000020000000002623157460000000006092021CHOLT2                          
65501753550     09132021092571370000DEP EN EFECTIV                          +00000000127600000002624433460000000004092021CHOLT4                          
65501753550     09132021092571370000DEP EN EFECTIV                          +00000000208900000002626522460000000005092021CHOLT3                          
65501753550     09132021092571370000DEP EN EFECTIV                          +00000000849700000002635019460000000006092021HUEJOT1                         
65501753550     09132021092571370000DEP EN EFECTIV                          +00000000497800000002639997460000000007092021HUEJOT9                         
65501753550     09132021092571370000DEP EN EFECTIV                          +00000000403900000002644036460000000008092021HUEJOT7                         
65501753550     09132021092571370000DEP EN EFECTIV                          +00000000424200000002648278460000000009092021HUEJOT5                         
65501753550     09132021100371600000DEP EN EFECTIV                          +00000002512900000002673407460000000009092021SMAT                            
65501753550     09132021100371600000DEP EN EFECTIV                          +00000002292150000002696328960000000008092021SMAT                            
65501753550     09132021103954030000DEP EN EFECTIV                          +000000000350000000026966789604034183                                        
65501753550     09132021113974650291AB TRANSF SPEI                          +000000000350000000026970289604468413EMILIO NELSON LUNA PINEDA               1309210 012650011924562572
65501753550     09132021121374650291AB TRANSF SPEI                          +000000000350000000026973789604523310pension4pte ia                          0210913 072650003224221396
65501753550     09132021123174650291AB TRANSF SPEI                          +000000227242290000029246212504597209Transferencias PayU4472969              4472969 012180001908758138
65501753550     09132021123174650291AB TRANSF SPEI                          +000000000908720000029255299704597210Transferencias PayU4473120              4473120 012180001908758138
65501753550     09132021124868780000DEP EN EFECTIV                          +00000013209000000003057619970000000008092021TAPOT3                          
65501753550     09132021124868780000DEP EN EFECTIV                          +00000002350000000003081119970000000009092021TAPOM1                          
65501753550     09132021124868780000DEP EN EFECTIV                          +00000000010200000003081221970000000009092021TAPOV1                          
65501753550     09132021124868780000DEP EN EFECTIV                          +00000002450000000003105721970000000008092021TAPOM4                          
65501753550     09132021124868780000DEP EN EFECTIV                          +00000016369000000003269411970000000009092021TAPOT0                          
65501753550     09132021124868780000DEP EN EFECTIV                          +00000000000600000003269417970000000008092021TAPOV4                          
65501753550     09132021124868780000DEP EN EFECTIV                          +00000008578200000003355199970000000006092021AEROT5                          
65501753550     09132021124868780000DEP EN EFECTIV                          +00000000001000000003355209970000000006092021AEROV6                          
65501753550     09132021124868780000DEP EN EFECTIV                          +00000000800000000003363209970000000009092021AEROM6                          
65501753550     09132021124868780000DEP EN EFECTIV                          +00000010527300000003468482970000000009092021AEROT5                          
65501753550     09132021124868780000DEP EN EFECTIV                          +00000000800000000003476482970000000007092021AEROM2                          
65501753550     09132021124868780000DEP EN EFECTIV                          +00000007751300000003553995970000000008092021AEROT8                          
65501753550     09132021124868780000DEP EN EFECTIV                          +00000000000100000003553996970000000008092021AEROV9                          
65501753550     09132021124868780000DEP EN EFECTIV                          +00000007379700000003627793970000000007092021AEROT1                          
65501753550     09132021124868780000DEP EN EFECTIV                          +00000005582350000003683617470000000008092021CART2                           
65501753550     09132021124868780000DEP EN EFECTIV                          +00000005930950000003742926970000000009092021CART9                           
65501753550     09132021124868780000DEP EN EFECTIV                          +00000000000100000003742927970000000009092021CARV1                           
65501753550     09132021124868780000DEP EN EFECTIV                          +00000000400000000003746927970000000008092021CARM4                           
65501753550     09132021124868780000DEP EN EFECTIV                          +00000000002100000003746948970000000008092021CARV4                           
65501753550     09132021124868780000DEP EN EFECTIV                          +00000000600000000003752948970000000009092021CARM1                           
65501753550     09132021124868780000DEP EN EFECTIV                          +00000004310100000003796049970000000009092021AEROT5                          
65501753550     09132021124868780000DEP EN EFECTIV                          +00000004210900000003838158970000000008092021AEROT8                          
65501753550     09132021124868780000DEP EN EFECTIV                          +00000000900000000003847158970000000008092021AEROM9                          
65501753550     09132021124868780000DEP EN EFECTIV                          +00000003769600000003884854970000000007092021AEROT1                          
65501753550     09132021124868780000DEP EN EFECTIV                          +00000000001000000003884864970000000007092021AEROV2                          
65501753550     09132021124868780000DEP EN EFECTIV                          +00000004086000000003925724970000000006092021AEROT5                          
65501753550     09132021124868780000DEP EN EFECTIV                          +00000000000900000003925733970000000006092021AEROV6                          
65501753550     09132021125174650291AB TRANSF SPEI                          +000000000350000000039260839704633463PENSION4PTEDRME                         1309210 012650027689762601
65501753550     09132021130268780000DEP EN EFECTIV                          +00000000000400000003926087970000000011092021CARV3                           
65501753550     09132021130268780000DEP EN EFECTIV                          +00000000006300000003926150970000000010092021CARV6                           
65501753550     09132021130268780000DEP EN EFECTIV                          +00000001300000000003939150970000000011092021CARM3                           
65501753550     09132021130268780000DEP EN EFECTIV                          +00000008557800000004024728970000000010092021CART4                           
65501753550     09132021130268780000DEP EN EFECTIV                          +00000010444450000004129173470000000011092021CART1                           
65501753550     09132021130268780000DEP EN EFECTIV                          +00000000001100000004129184470000000011092021TAPOV3                          
65501753550     09132021130268780000DEP EN EFECTIV                          +00000000026300000004129447470000000010092021TAPOV6                          
65501753550     09132021130268780000DEP EN EFECTIV                          +00000002500000000004154447470000000010092021TAPOM6                          
65501753550     09132021130268780000DEP EN EFECTIV                          +00000003950000000004193947470000000011092021TAPOM3                          
65501753550     09132021130268780000DEP EN EFECTIV                          +00000024402750000004437974970000000010092021TAPOT5                          
65501753550     09132021130268780000DEP EN EFECTIV                          +00000033377100000004771745970000000011092021TAPOT2                          
65501753550     09132021130268780000DEP EN EFECTIV                          +00000000009600000004771841970000000010092021TAPOV6                          
65501753550     09132021131174650291AB TRANSF SPEI                          +000000000400000000047722419704669003PENSION4PTEOCC                          1309210 012180015364355381
65501753550     09132021132309810681CGO TRANS ELEC                          -000002000000000000027722419702820570TRASPASO 3550 A 1527                    
65501753550     09132021132309810681CGO TRANS ELEC                          -000000007500000000027647419706160439MORRALLA PSD                            
65501753550     09132021132509810681CGO TRANS ELEC                          -000000150000000000026147419704657672013100001660352899                      
65501753550     09132021132509810681CGO TRANS ELEC                          -000000000368470000026143735004657673961                                     
65501753550     09132021132509810681CGO TRANS ELEC                          -000000036537000000025778365004667678VTA CRUZADA AMPCT                       
65501753550     09132021132509810681CGO TRANS ELEC                          -000000420537510000021572989904667679VTA CRUZADA AMPTTP                      
65501753550     09132021132809810790PAGO TRAN SPEI                          -000000009515920000021477830704710626537                          
