65502328285     09012021032505620081LIQ INV PLAZO                           +000003690000000000037204177100001300                                        
65502328285     09012021032505620083LIQ INTS PLAZO                          +000000000420250000037208379600001300                                        
65502328285     09012021032505620585ISR INV PLAZO                           -000000000098060000037207399000001300                                        
65502328285     09012021060242302680DOM CUOTA AFIL                          -000000000299000000037204409007623060AFIL.-007623060                         
65502328285     09012021060242302571DOM IVA COMIS                           -000000000047840000037203930607623060AFIL.-007623060                         
65502328285     09012021060242302680DOM CUOTA AFIL                          -000000000299000000037200940607675021AFIL.-007675021                         
65502328285     09012021060242302571DOM IVA COMIS                           -000000000047840000037200462207675021AFIL.-007675021                         
65502328285     09012021060242302676DOM BA FAC TPV                          -000000000400000000037196462207675021AFIL.-007675021                         
65502328285     09012021060242302571DOM IVA COMIS                           -000000000064000000037195822207675021AFIL.-007675021                         
65502328285     09012021060242302676DOM BA FAC TPV                          -000000000400000000037191822208349239AFIL.-008349239                         
65502328285     09012021060242302571DOM IVA COMIS                           -000000000064000000037191182208349239AFIL.-008349239                         
65502328285     09012021080116782627DOM OTROS CGOS                          -000000000150000000037189682208349239AFIL.-008349239                         
65502328285     09012021080116781598DOM IVA COMIS                           -000000000024000000037189442208349239AFIL.-008349239                         
65502328285     09012021084871370000DEP EN EFECTIV                          +00000001730600000003736250220000000028082021HUEJOT7                         
65502328285     09012021084871370000DEP EN EFECTIV                          +00000000500000000003741250220000000027082021HUEJM2                          
65502328285     09012021084871370000DEP EN EFECTIV                          +00000001639200000003757642220000000027082021HUEJOT9                         
65502328285     09012021084871370000DEP EN EFECTIV                          +00000000500000000003762642220000000029082021HUEJM0                          
65502328285     09012021084871370000DEP EN EFECTIV                          +00000002458500000003787227220000000029082021HUEJOT5                         
65502328285     09012021084871370000DEP EN EFECTIV                          +00000003727300000003824500220000000028082021CAPURT                          
65502328285     09012021084871370000DEP EN EFECTIV                          +00000003496600000003859466220000000029082021CAPURT                          
65502328285     09012021092009810681CGO TRANS ELEC                          -000000133000000000037264662208609347MORRALLA TTP PUE                        
65502328285     09012021092009810681CGO TRANS ELEC                          -000000015000000000037114662208609348MORRALLA TTP ESTA PD                    
65502328285     09012021100271600000DEP EN EFECTIV                          +00000000900000000003720466220000000029082021SMAM                            
65502328285     09012021100271600000DEP EN EFECTIV                          +00000005131500000003771781220000000029082021SMAT                            
65502328285     09012021100271600000DEP EN EFECTIV                          +00000000041400000003772195220000000029082021SATAT                           
65502328285     09012021100271600000DEP EN EFECTIV                          +00000000006100000003772256220000000028082021SMAT                            
65502328285     09012021100271600000DEP EN EFECTIV                          +00000000850000000003780756220000000028082021SMAM                            
65502328285     09012021100271600000DEP EN EFECTIV                          +00000000060300000003781359220000000028082021SATAT                           
65502328285     09012021100271600000DEP EN EFECTIV                          +00000004665500000003828014220000000028082021SMAT                            
65502328285     09012021100271600000DEP EN EFECTIV                          +00000001350000000003841514220000000027082021SMAM                            
65502328285     09012021100271600000DEP EN EFECTIV                          +00000004547400000003886988220000000027082021SMAT                            
65502328285     09012021100271600000DEP EN EFECTIV                          +00000000001300000003887001220000000029082021SMAV                            
65502328285     09012021100271600000DEP EN EFECTIV                          +00000000202400000003889025220000000027082021SATAT                           
65502328285     09012021100271600643FAL DEP EFEC                            -00000000931800000003879707220000000029082021SMAM                            
65502328285     09012021104768780000DEP EN EFECTIV                          +00000002061500000003900322220000000011082021CART5                           
65502328285     09012021104768780000DEP EN EFECTIV                          +00000001606700000003916389220000000012082021CART2                           
65502328285     09012021123174650291AB TRANSF SPEI                          +000000013813240000039302024608193254Transferencias PayU4456730              4456730 012180001908758138
65502328285     09012021150325170580CGO AP INV PZO                          -000003928000000000000022024600000000                                        
