65502381527     09152021020405620081LIQ INV PLAZO                           +000015723000000000157268596900002300                                        
65502381527     09152021020405620083LIQ INTS PLAZO                          +000000001790680000157286503700002300                                        
65502381527     09152021020405620585ISR INV PLAZO                           -000000000417840000157282325300002300                                        
65502381527     09152021090271370000DEP EN EFECTIV                          +00000000075980000015728992330000000009092021TEHT                            
65502381527     09152021090271370142SOBR DEP EFEC                           +00000000000004000015728992370000000009092021TEHT                            
65502381527     09152021090271370000DEP EN EFECTIV                          +00000000165532000015730647690000000009092021PSDT                            
65502381527     09152021090271370000DEP EN EFECTIV                          +00000001218652000015742834210000000010092021CPUT                            
65502381527     09152021090271370000DEP EN EFECTIV                          +00000000145696000015744291170000000010092021PEDT                            
65502381527     09152021090271370000DEP EN EFECTIV                          +00000000107416000015745365330000000010092021CEDT                            
65502381527     09152021130209810790PAGO TRAN SPEI                          -000002500000000000132453653308812676TRASPASO 1527 A 9649         
65502381527     09152021133874650291AB TRANSF SPEI                          +000000001264400000132466297308951706PQD-244244 JOSE LADINO HUELITL          2021091 036650500579077093
65502381527     09152021144974650291AB TRANSF SPEI                          +000000001901240000132485309709180838PQD244633 AUTOBUSES                     0150921 012650004437166003
65502381527     09152021145174650291AB TRANSF SPEI                          +000000003815240000132523462109185309PQD 244790 AUTOBUSES                    0150921 012650004437166003
65502381527     09152021151225170580CGO AP INV PZO                          -000013245000000000000073462100000000                                        
