65502381527     09102021020605620081LIQ INV PLAZO                           +000005627000000000059246721100002000                                        
65502381527     09102021020605620083LIQ INTS PLAZO                          +000000000640850000059253129600002000                                        
65502381527     09102021020605620585ISR INV PLAZO                           -000000000149530000059251634300002000                                        
65502381527     09102021031774650291AB TRANSF SPEI                          +000000005526240000059306896701044452PAGO DE FACTURA                         1210910 021180040182816181
65502381527     09102021071847170098ABO X PGO FACT                          +000000038396000000059690856701140029 RFC AMP521016875 IVA 0.00   
65502381527     09102021102474650291AB TRANSF SPEI                          +000000000139000000059692246701351130PQD244186                               244186  002180701752475896
65502381527     09102021121968780000DEP EN EFECTIV                          +00000001954598000005988770650000000007092021TPOT                            
65502381527     09102021121968780142SOBR DEP EFEC                           +00000000000002000005988770670000000007092021TPOT                            
65502381527     09102021121968780000DEP EN EFECTIV                          +00000000075052000005989521190000000006092021CDST                            
65502381527     09102021121968780000DEP EN EFECTIV                          +00000000321932000005992740510000000006092021CDNT                            
65502381527     09102021121968780000DEP EN EFECTIV                          +00000001314410000006005884610000000006092021TPOT                            
65502381527     09102021121968780142SOBR DEP EFEC                           +00000000000002000006005884630000000006092021TPOT                            
65502381527     09102021121968780142SOBR DEP EFEC                           +00000000000002000006005884650000000006092021TPOT                            
65502381527     09102021121968780000DEP EN EFECTIV                          +00000000035148000006006236130000000007092021TPOT                            
65502381527     09102021121968780000DEP EN EFECTIV                          +00000000226122000006008497350000000002092021CDST                            
65502381527     09102021121968780000DEP EN EFECTIV                          +00000000116696000006009664310000000003092021CDST                            
65502381527     09102021121968780000DEP EN EFECTIV                          +00000000113100000006010795310000000003092021CDNT                            
65502381527     09102021121968780000DEP EN EFECTIV                          +00000000183498000006012630290000000002092021CDNT                            
65502381527     09102021121968780000DEP EN EFECTIV                          +00000001182917000006024459460000000004092021TPOT                            
65502381527     09102021121968780000DEP EN EFECTIV                          +00000000196272000006026422180000000005092021TPOT                            
65502381527     09102021121968780000DEP EN EFECTIV                          +00000000030508000006026727260000000006092021TPOT                            
65502381527     09102021121968780000DEP EN EFECTIV                          +00000001544472000006042171980000000003092021TPOT                            
65502381527     09102021122674650291AB TRANSF SPEI                          +000000009749920000060519219001655160GUIAS DE TEHUACAN                       0100921 012650004493646761
65502381527     09102021131409810180AB TRANS ELECT                          +000007540000000000135919219005880410TRASPASO 3550 A 1527                    
65502381527     09102021132874650291AB TRANSF SPEI                          +000000009704580000136016264801813566PAGO DE GUIAS VENCIDAS                  0100921 012180001689673859
65502381527     09102021152025170580CGO AP INV PZO                          -000013600000000000000016264800000000                                        
65502381527     09102021172374650291AB TRANSF SPEI                          +000000010852000000000124784802383171PAQUER                                  0100921 012650001122749576
