65503200995     09022021021205620081LIQ INV PLAZO                           +000024694000000000246952695800001400                                        
65503200995     09022021021205620083LIQ INTS PLAZO                          +000000002812370000246980819500001400                                        
65503200995     09022021021205620585ISR INV PLAZO                           -000000000656250000246974257000001400                                        
65503200995     09022021060116782112DO DEP ELE TC                           +000000003959000000247013847007269614AFIL.-007269614                         
65503200995     09022021060116781597DO CO DE PAGTC                          -000000000074060000247013106407269614AFIL.-007269614                         
65503200995     09022021060116781598DOM IVA COMIS                           -000000000011850000247012987907269614AFIL.-007269614                         
65503200995     09022021083371370000DEP EN EFECTIV                          +00000000152000000024702818790000000030082021ZOCALO                          
65503200995     09022021083371370000DEP EN EFECTIV                          +00000000769850000024710517290000000030082021MOVILT                          
65503200995     09022021084609810681CGO TRANS ELEC                          -000000015786000000246947312903359873FF CONTERSA                             
65503200995     09022021100271370000DEP EN EFECTIV                          +00000000145800000024696189290000000028082021PSDGT6                          
65503200995     09022021131674650291AB TRANSF SPEI                          +000000005427520000247016168109770202Transferencias PayU4458886              4458886 012180001908758138
65503200995     09022021132609810790PAGO TRAN SPEI                          -000000060000000000246416168109794599TRASPASO 0995 A 0291         
65503200995     09022021133509810681CGO TRANS ELEC                          -000000201160000000244404568108568720012111904061139063                      
65503200995     09022021151125170580CGO AP INV PZO                          -000024439000000000000014568100000000                                        
