65502328285     09152021020405620081LIQ INV PLAZO                           +000004482000000000044838095400002300                                        
65502328285     09152021020405620083LIQ INTS PLAZO                          +000000000510450000044843199900002300                                        
65502328285     09152021020405620585ISR INV PLAZO                           -000000000119110000044842008800002300                                        
65502328285     09152021090271370000DEP EN EFECTIV                          +00000002957500000004513775880000000011092021CAPUT0                          
65502328285     09152021090271370000DEP EN EFECTIV                          +00000002288200000004536657880000000009092021CAPUT4                          
65502328285     09152021090271370000DEP EN EFECTIV                          +00000003198400000004568641880000000010092021CAPUT1                          
65502328285     09152021090309810681CGO TRANS ELEC                          -000000000440000000045682018809000045FF TTP MEX                              
65502328285     09152021090309810681CGO TRANS ELEC                          -000000005966000000045622358809000047FF TTP PUE                              
65502328285     09152021090309810681CGO TRANS ELEC                          -000000014000000000045482358805208970MORRALLA TTP MEX                        
65502328285     09152021090309810681CGO TRANS ELEC                          -000000093000000000044552358805208972MORRALLA TTP PUE                        
65502328285     09152021090309810681CGO TRANS ELEC                          -000000030000000000044252358805208973MORRALLA TTP ESTA PD                    
65502328285     09152021130209810681CGO TRANS ELEC                          -00000000087000000004424365880645014913125184652932383224                    
65502328285     09152021130209810681CGO TRANS ELEC                          -00000000101000000004423355880645015013125184667732388270                    
65502328285     09152021130209810681CGO TRANS ELEC                          -00000000101000000004422345880645015113125184666432388214                    
65502328285     09152021130209810790PAGO TRAN SPEI                          -000000310000000000041123458808812714TRASPASO 8285 A 1857         
65502328285     09152021130409810790PAGO TRAN SPEI                          -0000000053144800000410703140088214883705 FINIQUITO               
65502328285     09152021133874650291AB TRANSF SPEI                          +000000235619430000043426508308949782Transferencias PayU4475847              4475847 012180001908758138
65502328285     09152021141771370000DEP EN EFECTIV                          +00000002835900000004371009830000000012092021CAPUT9                          
65502328285     09152021141771370000DEP EN EFECTIV                          +00000003700900000004408018830000000013092021CAPUT1                          
65502328285     09152021141771370000DEP EN EFECTIV                          +00000000337200000004411390830000000012092021CAPSETEXT                       
65502328285     09152021141771370000DEP EN EFECTIV                          +00000000100000000004412390830000000012092021CAPSETEXM                       
65502328285     09152021141771370000DEP EN EFECTIV                          +00000000100000000004413390830000000013092021CAPSETEXM                       
65502328285     09152021141771370000DEP EN EFECTIV                          +00000000939700000004422787830000000013092021CAPSETEXT                       
65502328285     09152021151125170580CGO AP INV PZO                          -000004421000000000000017878300000000                                        
