65501753550     09092021043874650291AB TRANSF SPEI                          +000000000615080000003013673808592829AMEXCO SE 9356614447                    6614447 002180002346330664
65501753550     09092021044074650291AB TRANSF SPEI                          +000000004739370000003061067508593004AMEXCO SE 9350021532                    21532   002180002346330664
65501753550     09092021044174650291AB TRANSF SPEI                          +000000000303900000003064106508593101AMEXCO SE 9350058864                    58864   002180002346330664
65501753550     09092021044174650291AB TRANSF SPEI                          +000000000158720000003065693708593144AMEXCO SE 9350060670                    60670   002180002346330664
65501753550     09092021045474650291AB TRANSF SPEI                          +000000000444460000003070138308594139AMEXCO SE 9350021565                    21565   002180002346330664
65501753550     09092021045474650291AB TRANSF SPEI                          +000000003775210000003107890408594153AMEXCO SE 9359908044                    9908044 002180002346330664
65501753550     09092021060142300038DEP ELE PAG TC                          +000000012598000000003233870405256409AFIL.-005256409                         
65501753550     09092021060142300038DEP ELE PAG TC                          +000000005277000000003286640405688445AFIL.-005688445                         
65501753550     09092021060142300038DEP ELE PAG TC                          +000000013525940000003421899805688452AFIL.-005688452                         
65501753550     09092021060142300038DEP ELE PAG TC                          +000000012062500000003542524807273370AFIL.-007273370                         
65501753550     09092021060142300038DEP ELE PAG TC                          +000000064012000000004182644808139649AFIL.-008139649                         
65501753550     09092021060142300038DEP ELE PAG TC                          +000000002196000000004204604808180414AFIL.-008180414                         
65501753550     09092021060142300038DEP ELE PAG TC                          +000000001136000000004215964808376766AFIL.-008376766                         
65501753550     09092021060142300038DEP ELE PAG TC                          +000000051858500000004734549809180159AFIL.-009180159                         
65501753550     09092021060142300038DEP ELE PAG TC                          +000000040631500000005140864809181868AFIL.-009181868                         
65501753550     09092021060142300038DEP ELE PAG TC                          +000000075790000000005898764809270083AFIL.-009270083                         
65501753550     09092021060142300038DEP ELE PAG TC                          +000000000160000000005900364809627191AFIL.-009627191                         
65501753550     09092021060142302677DO CO DE PAGTC                          -000000000232900000005898035805256409AFIL.-005256409                         
65501753550     09092021060142302571DOM IVA COMIS                           -000000000037290000005897662905256409AFIL.-005256409                         
65501753550     09092021060142302677DO CO DE PAGTC                          -000000000096490000005896698005688445AFIL.-005688445                         
65501753550     09092021060142302571DOM IVA COMIS                           -000000000015440000005896543605688445AFIL.-005688445                         
65501753550     09092021060142302677DO CO DE PAGTC                          -000000000235770000005894185905688452AFIL.-005688452                         
65501753550     09092021060142302571DOM IVA COMIS                           -000000000037730000005893808605688452AFIL.-005688452                         
65501753550     09092021060142302677DO CO DE PAGTC                          -000000000214990000005891658707273370AFIL.-007273370                         
65501753550     09092021060142302571DOM IVA COMIS                           -000000000034420000005891314507273370AFIL.-007273370                         
65501753550     09092021060142302677DO CO DE PAGTC                          -000000001153590000005879778608139649AFIL.-008139649                         
65501753550     09092021060142302571DOM IVA COMIS                           -000000000184640000005877932208139649AFIL.-008139649                         
65501753550     09092021060142302677DO CO DE PAGTC                          -000000000038180000005877550408180414AFIL.-008180414                         
65501753550     09092021060142302571DOM IVA COMIS                           -000000000006120000005877489208180414AFIL.-008180414                         
65501753550     09092021060142302677DO CO DE PAGTC                          -000000000019620000005877293008376766AFIL.-008376766                         
65501753550     09092021060142302571DOM IVA COMIS                           -000000000003110000005877261908376766AFIL.-008376766                         
65501753550     09092021060142302677DO CO DE PAGTC                          -000000000905990000005868202009180159AFIL.-009180159                         
65501753550     09092021060142302571DOM IVA COMIS                           -000000000144970000005866752309180159AFIL.-009180159                         
65501753550     09092021060142302677DO CO DE PAGTC                          -000000000711180000005859640509181868AFIL.-009181868                         
65501753550     09092021060142302571DOM IVA COMIS                           -000000000113820000005858502309181868AFIL.-009181868                         
65501753550     09092021060142302677DO CO DE PAGTC                          -000000001371940000005844782909270083AFIL.-009270083                         
65501753550     09092021060142302571DOM IVA COMIS                           -000000000219610000005842586809270083AFIL.-009270083                         
65501753550     09092021060142302677DO CO DE PAGTC                          -000000000003040000005842556409627191AFIL.-009627191                         
65501753550     09092021060142302571DOM IVA COMIS                           -000000000000490000005842551509627191AFIL.-009627191                         
65501753550     09092021082209810681CGO TRANS ELEC                          -000000007807000000005764481508366647FF AMP MEX                              
65501753550     09092021082209810681CGO TRANS ELEC                          -000000057845000000005186031508376649FF AMP PUE                              
65501753550     09092021083271370000DEP EN EFECTIV                          +00000000644000000000525043150000000005092021PSDGT2                          
65501753550     09092021083271370000DEP EN EFECTIV                          +00000000342500000000528468150000000007092021PSDGT0                          
65501753550     09092021083271370000DEP EN EFECTIV                          +00000000565000000000534118150000000006092021PSDGT1                          
65501753550     09092021083271370000DEP EN EFECTIV                          +00000000500000000000539118150000000006092021PSDGM7                          
65501753550     09092021083271370000DEP EN EFECTIV                          +00000000741100000000546529150000000004092021PSDGT3                          
65501753550     09092021083271370000DEP EN EFECTIV                          +00000000517100000000551700150000000003092021PSDGT4                          
65501753550     09092021083271370000DEP EN EFECTIV                          +00000000400000000000555700150000000003092021PSDGM0                          
65501753550     09092021083271370000DEP EN EFECTIV                          +00000000001000000000555710150000000003092021PSDGV0                          
65501753550     09092021083271370000DEP EN EFECTIV                          +00000000424500000000559955150000000002092021PSDGT5                          
65501753550     09092021083271370000DEP EN EFECTIV                          +00000000404300000000563998150000000001092021PSDGT6                          
65501753550     09092021094871600000DEP EN EFECTIV                          +00000004109450000000605092650000000006092021SMAT                            
65501753550     09092021094871600000DEP EN EFECTIV                          +00000004027550000000645368150000000007092021SMAT                            
65501753550     09092021102609810180AB TRANS ELECT                          +000000112002250000007573704002390623TOLUCATRIANGU06                         
65501753550     09092021113268780000DEP EN EFECTIV                          +00000001428200000000771652400000000030082021CNNORTET8                       
65501753550     09092021113268780000DEP EN EFECTIV                          +000000000010000000007716624000000000020920321CNORTEV2                       
65501753550     09092021113268780000DEP EN EFECTIV                          +00000001687250000000788534900000000003092021CNORTET8                        
65501753550     09092021113268780000DEP EN EFECTIV                          +00000001641350000000804948400000000004092021CNORTET4                        
65501753550     09092021113268780000DEP EN EFECTIV                          +00000001452850000000819476900000000005092021CNORTET1                        
65501753550     09092021113268780000DEP EN EFECTIV                          +00000001303400000000832510900000000031082021CNORTET5                        
65501753550     09092021113268780000DEP EN EFECTIV                          +00000001475450000000847265400000000001092021CNNORTET4                       
65501753550     09092021113268780000DEP EN EFECTIV                          +00000000000200000000847267400000000001092021CNNORTEV5                       
65501753550     09092021113268780000DEP EN EFECTIV                          +00000001043600000000857703400000000002092021CNORTET1                        
65501753550     09092021113268780000DEP EN EFECTIV                          +00000016807800000001025781400000000006092021TAPOT0                          
65501753550     09092021113268780000DEP EN EFECTIV                          +00000002500000000001050781400000000006092021TAPOM1                          
65501753550     09092021113268780000DEP EN EFECTIV                          +00000000002500000001050806400000000006092021TAPOV1                          
65501753550     09092021113268780000DEP EN EFECTIV                          +00000014224500000001193051400000000007092021TAPOT6                          
65501753550     09092021113268780000DEP EN EFECTIV                          +00000002400000000001217051400000000007092021TAPOM7                          
65501753550     09092021113268780000DEP EN EFECTIV                          +00000000001700000001217068400000000007092021TAPOV7                          
65501753550     09092021113268780000DEP EN EFECTIV                          +00000001000000000001227068400000000006092021CARM1                           
65501753550     09092021113268780000DEP EN EFECTIV                          +00000007012350000001297191900000000007092021CART5                           
65501753550     09092021113268780000DEP EN EFECTIV                          +00000000800000000001305191900000000007092021CARM6                           
65501753550     09092021113268780000DEP EN EFECTIV                          +00000000001250000001305204400000000007092021CARV6                           
65501753550     09092021113268780000DEP EN EFECTIV                          +00000008608450000001391288900000000006092021CART9                           
65501753550     09092021113268780000DEP EN EFECTIV                          +00000000038650000001391675400000000006092021CARV1                           
65501753550     09092021120674650291AB TRANSF SPEI                          +000000182776510000015744519109018394Transferencias PayU4468299              4468299 012180001908758138
65501753550     09092021120674650291AB TRANSF SPEI                          +000000073753240000016482051509018460Transferencias PayU4468449              4468449 012180001908758138
65501753550     09092021120674650291AB TRANSF SPEI                          +000000034492810000016826979609018530Transferencias PayU4469850              4469850 012180001908758138
65501753550     09092021120674650291AB TRANSF SPEI                          +000000179464620000018621625809018551Transferencias PayU4469133              4469133 012180001908758138
65501753550     09092021120674650291AB TRANSF SPEI                          +000000000420800000018625833809018556Transferencias PayU4469252              4469252 012180001908758138
65501753550     09092021124509810180AB TRANS ELECT                          +000000013213000000018757963809510481AMP108147                               
65501753550     09092021135574650291AB TRANSF SPEI                          +0000000128220000000188861838092142062808 A 030921                           395256  002180056675795560
65501753550     09092021140109810790PAGO TRAN SPEI                          -000000470000000000014186183809223227TRASPASO 3550 A 9649         
65501753550     09092021140209810681CGO TRANS ELEC                          -0000000032610000000141535738050502788231736099421B25NKK9                    
65501753550     09092021140209810681CGO TRANS ELEC                          -0000000032610000000141209638065909588228622919421BA5NKRV                    
65501753550     09092021140209810681CGO TRANS ELEC                          -0000000075570000000140453938065909598231736089421B2ADTJH                    
65501753550     09092021140609810681CGO TRANS ELEC                          -000000074142010000013303973702675171PF AMPCT                                
65501753550     09092021140609810790PAGO TRAN SPEI                          -00000013166000000001198737370923207216025                        
65501753550     09092021140609810790PAGO TRAN SPEI                          -00000000112191000001197615460923212016890 16877 1                
65501753550     09092021140609810790PAGO TRAN SPEI                          -00000007835800000001119257460923215716030                        
65501753550     09092021140609810790PAGO TRAN SPEI                          -00000000400000000001115257460923219516031                        
