65501753550     09012021000705600060AB INTERESES                            +000000000000010000001892592400000000                   01-08-2021 AL 31-08-2021
65501753550     09012021000705600570RETENCION ISR                           -000000000000010000001892592300000000                   01-08-2021 AL 31-08-2021
65501753550     09012021045874650291AB TRANSF SPEI                          +000000000317890000001895771207637545AMEXCO SE 9356623992                    6623992 002180002346330664
65501753550     09012021052274650291AB TRANSF SPEI                          +000000000615080000001901922007640943AMEXCO SE 9356614447                    6614447 002180002346330664
65501753550     09012021052474650291AB TRANSF SPEI                          +000000001412990000001916051907641281AMEXCO SE 9359908044                    9908044 002180002346330664
65501753550     09012021052574650291AB TRANSF SPEI                          +000000001797690000001934028807641310AMEXCO SE 9350021532                    21532   002180002346330664
65501753550     09012021052574650291AB TRANSF SPEI                          +000000001493380000001948962607641404AMEXCO SE 9350060670                    60670   002180002346330664
65501753550     09012021060142300038DEP ELE PAG TC                          +000000008312000000002032082605256409AFIL.-005256409                         
65501753550     09012021060142300038DEP ELE PAG TC                          +000000001574000000002047822605688445AFIL.-005688445                         
65501753550     09012021060142300038DEP ELE PAG TC                          +000000012306440000002170887005688452AFIL.-005688452                         
65501753550     09012021060142300038DEP ELE PAG TC                          +000000017399000000002344877007273370AFIL.-007273370                         
65501753550     09012021060142300038DEP ELE PAG TC                          +000000057203500000002916912008139649AFIL.-008139649                         
65501753550     09012021060142300038DEP ELE PAG TC                          +000000006173000000002978642008180414AFIL.-008180414                         
65501753550     09012021060142300038DEP ELE PAG TC                          +000000001162000000002990262008376766AFIL.-008376766                         
65501753550     09012021060142300038DEP ELE PAG TC                          +000000061613000000003606392009180159AFIL.-009180159                         
65501753550     09012021060142300038DEP ELE PAG TC                          +000000046193500000004068327009181868AFIL.-009181868                         
65501753550     09012021060142300038DEP ELE PAG TC                          +000000088774000000004956067009270083AFIL.-009270083                         
65501753550     09012021060142302677DO CO DE PAGTC                          -000000000148750000004954579505256409AFIL.-005256409                         
65501753550     09012021060142302571DOM IVA COMIS                           -000000000023800000004954341505256409AFIL.-005256409                         
65501753550     09012021060142302680DOM CUOTA AFIL                          -000000000299000000004951351505256409AFIL.-005256409                         
65501753550     09012021060142302571DOM IVA COMIS                           -000000000047840000004950873105256409AFIL.-005256409                         
65501753550     09012021060142302677DO CO DE PAGTC                          -000000000027500000004950598105688445AFIL.-005688445                         
65501753550     09012021060142302571DOM IVA COMIS                           -000000000004410000004950554005688445AFIL.-005688445                         
65501753550     09012021060142302680DOM CUOTA AFIL                          -000000000299000000004947564005688445AFIL.-005688445                         
65501753550     09012021060142302571DOM IVA COMIS                           -000000000047840000004947085605688445AFIL.-005688445                         
65501753550     09012021060142302677DO CO DE PAGTC                          -000000000211800000004944967605688452AFIL.-005688452                         
65501753550     09012021060142302571DOM IVA COMIS                           -000000000033890000004944628705688452AFIL.-005688452                         
65501753550     09012021060142302680DOM CUOTA AFIL                          -000000000299000000004941638705688452AFIL.-005688452                         
65501753550     09012021060142302571DOM IVA COMIS                           -000000000047840000004941160305688452AFIL.-005688452                         
65501753550     09012021060142302677DO CO DE PAGTC                          -000000000307990000004938080407273370AFIL.-007273370                         
65501753550     09012021060142302571DOM IVA COMIS                           -000000000049330000004937587107273370AFIL.-007273370                         
65501753550     09012021060142302680DOM CUOTA AFIL                          -000000000299000000004934597107273370AFIL.-007273370                         
65501753550     09012021060142302571DOM IVA COMIS                           -000000000047840000004934118707273370AFIL.-007273370                         
65501753550     09012021060142302677DO CO DE PAGTC                          -000000001023220000004923886508139649AFIL.-008139649                         
65501753550     09012021060142302571DOM IVA COMIS                           -000000000163770000004922248808139649AFIL.-008139649                         
65501753550     09012021060142302677DO CO DE PAGTC                          -000000000110040000004921148408180414AFIL.-008180414                         
65501753550     09012021060142302571DOM IVA COMIS                           -000000000017600000004920972408180414AFIL.-008180414                         
65501753550     09012021060142302677DO CO DE PAGTC                          -000000000020360000004920768808376766AFIL.-008376766                         
65501753550     09012021060142302571DOM IVA COMIS                           -000000000003230000004920736508376766AFIL.-008376766                         
65501753550     09012021060142302677DO CO DE PAGTC                          -000000001083160000004909904909180159AFIL.-009180159                         
65501753550     09012021060142302571DOM IVA COMIS                           -000000000173300000004908171909180159AFIL.-009180159                         
65501753550     09012021060142302680DOM CUOTA AFIL                          -000000000299000000004905181909180159AFIL.-009180159                         
65501753550     09012021060142302571DOM IVA COMIS                           -000000000047840000004904703509180159AFIL.-009180159                         
65501753550     09012021060142302677DO CO DE PAGTC                          -000000000812740000004896576109181868AFIL.-009181868                         
65501753550     09012021060142302571DOM IVA COMIS                           -000000000130020000004895275909181868AFIL.-009181868                         
65501753550     09012021060142302677DO CO DE PAGTC                          -000000001579220000004879483709270083AFIL.-009270083                         
65501753550     09012021060142302571DOM IVA COMIS                           -000000000252800000004876955709270083AFIL.-009270083                         
65501753550     09012021060142302680DOM CUOTA AFIL                          -000000000299000000004873965709270083AFIL.-009270083                         
65501753550     09012021060142302571DOM IVA COMIS                           -000000000047840000004873487309270083AFIL.-009270083                         
65501753550     09012021080116782610DOM CUOTA AFIL                          -000000000299000000004870497305256409AFIL.-005256409                         
65501753550     09012021080116781598DOM IVA COMIS                           -000000000047840000004870018905256409AFIL.-005256409                         
65501753550     09012021080116782610DOM CUOTA AFIL                          -000000000299000000004867028905688445AFIL.-005688445                         
65501753550     09012021080116781598DOM IVA COMIS                           -000000000047840000004866550505688445AFIL.-005688445                         
65501753550     09012021080116782610DOM CUOTA AFIL                          -000000000299000000004863560505688452AFIL.-005688452                         
65501753550     09012021080116781598DOM IVA COMIS                           -000000000047840000004863082105688452AFIL.-005688452                         
65501753550     09012021080116782610DOM CUOTA AFIL                          -000000000299000000004860092107273370AFIL.-007273370                         
65501753550     09012021080116781598DOM IVA COMIS                           -000000000047840000004859613707273370AFIL.-007273370                         
65501753550     09012021080116782610DOM CUOTA AFIL                          -000000000299000000004856623709180159AFIL.-009180159                         
65501753550     09012021080116781598DOM IVA COMIS                           -000000000047840000004856145309180159AFIL.-009180159                         
65501753550     09012021080116782610DOM CUOTA AFIL                          -000000000299000000004853155309270083AFIL.-009270083                         
65501753550     09012021080116781598DOM IVA COMIS                           -000000000047840000004852676909270083AFIL.-009270083                         
65501753550     09012021084871370000DEP EN EFECTIV                          +00000000899600000000494263690000000029082021HUEJOT5                         
65501753550     09012021084871370000DEP EN EFECTIV                          +00000000741400000000501677690000000027082021HUEJOT9                         
65501753550     09012021084871370000DEP EN EFECTIV                          +00000000847700000000510154690000000028082021HUEJOT7                         
65501753550     09012021091909810180AB TRANS ELECT                          +000000300000000000008101546905010478TRASPASO 1527 A 3550                    
65501753550     09012021092009810681CGO TRANS ELEC                          -000000298346000000005118086908609345MORRALLA AMP MEX                        
65501753550     09012021092009810681CGO TRANS ELEC                          -000000330000000000001818086908609346MORRALLA AMP PUE                        
65501753550     09012021100271600000DEP EN EFECTIV                          +00000004559550000000227404190000000029082021SMAT                            
65501753550     09012021100271600000DEP EN EFECTIV                          +00000002242650000000249830690000000028082021SMAT                            
65501753550     09012021100271600000DEP EN EFECTIV                          +00000003261000000000282440690000000027082021SMAT                            
65501753550     09012021102174650291AB TRANSF SPEI                          +000000000400000000002828406907895571PENSION4PTESSM                          0109210 012375015367429715
65501753550     09012021104768780000DEP EN EFECTIV                          +00000000000300000000282843690000000011082021CARV6                           
65501753550     09012021104768780000DEP EN EFECTIV                          +00000000600000000000288843690000000011082021CARM6                           
65501753550     09012021104768780000DEP EN EFECTIV                          +00000006975400000000358597690000000012082021CART2                           
65501753550     09012021104768780000DEP EN EFECTIV                          +00000000600000000000364597690000000012082021CARM4                           
65501753550     09012021104768780000DEP EN EFECTIV                          +00000000004200000000364639690000000012082021CARV4                           
65501753550     09012021104768780000DEP EN EFECTIV                          +00000006974850000000434388190000000011082021CART5                           
65501753550     09012021104768781777FAL BILL P FAL                          -00000000020000000000434188190000000011082021CART5                           
65501753550     09012021111109810681CGO TRANS ELEC                          -00000028933730000000144850890733062900002158699                             
65501753550     09012021123174650291AB TRANSF SPEI                          +000000219374380000003642252708193233Transferencias PayU4456558              4456558 012180001908758138
65501753550     09012021123174650291AB TRANSF SPEI                          +000000000188320000003644135908193256Transferencias PayU4456706              4456706 012180001908758138
65501753550     09012021134509810790PAGO TRAN SPEI                          -00000000067800000000363735590834954767748                        
65501753550     09012021134509810790PAGO TRAN SPEI                          -000000003000000000003607355908349594536                          
65501753550     09012021144552342082DEP EFECT ATM                           +000000000928000000003616635900362632                                        
65501753550     09012021163774650291AB TRANSF SPEI                          +000000140000000000005016635908676728PAGO UNIDAD 3618                        0109210 012180004611076667
65501753550     09012021163974650291AB TRANSF SPEI                          +000000140000000000006416635908679807PAGO UNIDAD 3623                        0109210 012180004611076667
65501753550     09012021202401140713PAG DOM COMEPA                          -0000000333211600000060834243000000005732507     RFC VLE060918B86          0,000,000.16VOLKSWAGEN LEASING
