65502381527     09022021021205620081LIQ INV PLAZO                           +000008368000000000083700395800001400                                        
65502381527     09022021021205620083LIQ INTS PLAZO                          +000000000953020000083709926000001400                                        
65502381527     09022021021205620585ISR INV PLAZO                           -000000000222380000083707702200001400                                        
65502381527     09022021083371370000DEP EN EFECTIV                          +00000000055332000008371323540000000030082021TEHT                            
65502381527     09022021083371370000DEP EN EFECTIV                          +00000000199650000008373320040000000030082021PSDT                            
65502381527     09022021083371370000DEP EN EFECTIV                          +00000001239595000008385715990000000031082021CPUT                            
65502381527     09022021083371370000DEP EN EFECTIV                          +00000000054046000008386256450000000030082021CEDT                            
65502381527     09022021083371370142SOBR DEP EFEC                           +00000000000004000008386256490000000030082021CEDT                            
65502381527     09022021083371370000DEP EN EFECTIV                          +00000000151728000008387773770000000027082021PSDT                            
65502381527     09022021083371370000DEP EN EFECTIV                          +00000000019024000008387964010000000028082021TEHT                            
65502381527     09022021083371370000DEP EN EFECTIV                          +00000000039788000008388361890000000028082021TEHT                            
65502381527     09022021083371370000DEP EN EFECTIV                          +00000001414821000008402510100000000030082021CPUT                            
65502381527     09022021101868780000DEP EN EFECTIV                          +00000001926529000008421775390000000027082021TPOT                            
65502381527     09022021103268780000DEP EN EFECTIV                          +00000000019024000008421965630000000028082021IZTT                            
65502381527     09022021103268780000DEP EN EFECTIV                          +00000000209418000008424059810000000030082021IZTT                            
65502381527     09022021103268780000DEP EN EFECTIV                          +00000000093728000008424997090000000031082021IZTT                            
65502381527     09022021105274650291AB TRANSF SPEI                          +000000003361680000084283587709503236AUT MEX PUE ESTRELLA ROJA F 243760      20921   002650426000902538
65502381527     09022021141174650291AB TRANSF SPEI                          +000000000174000000084285327709896332SERVICIO PAQUETERIA                     244668  002670444700151418
65502381527     09022021141874650291AB TRANSF SPEI                          +000000000437700000084289704701007905R17                                     0209210 012760029106885687
65502381527     09022021151125170580CGO AP INV PZO                          -000008427000000000000019704700000000                                        
65502381527     09022021161101150006DEP S B COBRO                           +000000007840090000000098105601152139001152139                               
65502381527     09022021191974650291AB TRANSF SPEI                          +000000006577200000000163877601499722ULTRALON                                0020921 012650001821581912
