65501753550     09062021044974650291AB TRANSF SPEI                          +000000007868330000000807000104962060AMEXCO SE 9356583915                    6583915 002180002346330664
65501753550     09062021045474650291AB TRANSF SPEI                          +000000002451400000000831514104962597AMEXCO SE 9350021532                    21532   002180002346330664
65501753550     09062021045574650291AB TRANSF SPEI                          +000000001307410000000844588204962647AMEXCO SE 9350060670                    60670   002180002346330664
65501753550     09062021045574650291AB TRANSF SPEI                          +000000004144610000000886034304962706AMEXCO SE 9359908044                    9908044 002180002346330664
65501753550     09062021045574650291AB TRANSF SPEI                          +000000000195010000000887984404962731AMEXCO SE 9350058864                    58864   002180002346330664
65501753550     09062021060242300038DEP ELE PAG TC                          +000000006182000000000949804405256409AFIL.-005256409                         
65501753550     09062021060242300038DEP ELE PAG TC                          +000000004113000000000990934405688445AFIL.-005688445                         
65501753550     09062021060242300038DEP ELE PAG TC                          +000000001044000000001001374405688452AFIL.-005688452                         
65501753550     09062021060242300038DEP ELE PAG TC                          +000000018661000000001187984407273370AFIL.-007273370                         
65501753550     09062021060242300038DEP ELE PAG TC                          +000000073081000000001918794408139649AFIL.-008139649                         
65501753550     09062021060242300038DEP ELE PAG TC                          +000000003451500000001953309408180414AFIL.-008180414                         
65501753550     09062021060242300038DEP ELE PAG TC                          +000000003008000000001983389408376766AFIL.-008376766                         
65501753550     09062021060242300038DEP ELE PAG TC                          +000000096766500000002951054409180159AFIL.-009180159                         
65501753550     09062021060242300038DEP ELE PAG TC                          +000000066447500000003615529409181868AFIL.-009181868                         
65501753550     09062021060242300038DEP ELE PAG TC                          +000000093784000000004553369409270083AFIL.-009270083                         
65501753550     09062021060242300038DEP ELE PAG TC                          +000000000423000000004557599409627191AFIL.-009627191                         
65501753550     09062021060242300038DEP ELE PAG TC                          +000000006065000000004618249405256409AFIL.-005256409                         
65501753550     09062021060242300038DEP ELE PAG TC                          +000000001875000000004636999405688445AFIL.-005688445                         
65501753550     09062021060242300038DEP ELE PAG TC                          +000000007651580000004713515205688452AFIL.-005688452                         
65501753550     09062021060242300038DEP ELE PAG TC                          +000000010828000000004821795207273370AFIL.-007273370                         
65501753550     09062021060242300038DEP ELE PAG TC                          +000000061350000000005435295208139649AFIL.-008139649                         
65501753550     09062021060242300038DEP ELE PAG TC                          +000000004803500000005483330208180414AFIL.-008180414                         
65501753550     09062021060242300038DEP ELE PAG TC                          +000000002935000000005512680208376766AFIL.-008376766                         
65501753550     09062021060242300038DEP ELE PAG TC                          +000000085732500000006370005209180159AFIL.-009180159                         
65501753550     09062021060242300038DEP ELE PAG TC                          +000000126911500000007639120209181868AFIL.-009181868                         
65501753550     09062021060242300038DEP ELE PAG TC                          +000000102863000000008667750209270083AFIL.-009270083                         
65501753550     09062021060242300038DEP ELE PAG TC                          +000000001536000000008683110209627191AFIL.-009627191                         
65501753550     09062021060242300038DEP ELE PAG TC                          +000000009448010000008777590305256409AFIL.-005256409                         
65501753550     09062021060242300038DEP ELE PAG TC                          +000000004166000000008819250305688445AFIL.-005688445                         
65501753550     09062021060242300038DEP ELE PAG TC                          +000000013454170000008953792005688452AFIL.-005688452                         
65501753550     09062021060242300038DEP ELE PAG TC                          +000000013834000000009092132007273370AFIL.-007273370                         
65501753550     09062021060242300038DEP ELE PAG TC                          +000000058218000000009674312008139649AFIL.-008139649                         
65501753550     09062021060242300038DEP ELE PAG TC                          +000000004467000000009718982008180414AFIL.-008180414                         
65501753550     09062021060242300038DEP ELE PAG TC                          +000000003547000000009754452008376766AFIL.-008376766                         
65501753550     09062021060242300038DEP ELE PAG TC                          +000000076286000000010517312009180159AFIL.-009180159                         
65501753550     09062021060242300038DEP ELE PAG TC                          +000000106302000000011580332009181868AFIL.-009181868                         
65501753550     09062021060242300038DEP ELE PAG TC                          +000000107281000000012653142009270083AFIL.-009270083                         
65501753550     09062021060242302677DO CO DE PAGTC                          -000000000111280000012652029205256409AFIL.-005256409                         
65501753550     09062021060242302571DOM IVA COMIS                           -000000000017820000012651851005256409AFIL.-005256409                         
65501753550     09062021060242302677DO CO DE PAGTC                          -000000000074290000012651108105688445AFIL.-005688445                         
65501753550     09062021060242302571DOM IVA COMIS                           -000000000011880000012650989305688445AFIL.-005688445                         
65501753550     09062021060242302677DO CO DE PAGTC                          -000000000017750000012650811805688452AFIL.-005688452                         
65501753550     09062021060242302571DOM IVA COMIS                           -000000000002840000012650783405688452AFIL.-005688452                         
65501753550     09062021060242302677DO CO DE PAGTC                          -000000000326400000012647519407273370AFIL.-007273370                         
65501753550     09062021060242302571DOM IVA COMIS                           -000000000052220000012646997207273370AFIL.-007273370                         
65501753550     09062021060242302677DO CO DE PAGTC                          -000000001322440000012633772808139649AFIL.-008139649                         
65501753550     09062021060242302571DOM IVA COMIS                           -000000000211680000012631656008139649AFIL.-008139649                         
65501753550     09062021060242302677DO CO DE PAGTC                          -000000000059160000012631064408180414AFIL.-008180414                         
65501753550     09062021060242302571DOM IVA COMIS                           -000000000009470000012630969708180414AFIL.-008180414                         
65501753550     09062021060242302677DO CO DE PAGTC                          -000000000053290000012630436808376766AFIL.-008376766                         
65501753550     09062021060242302571DOM IVA COMIS                           -000000000008510000012630351708376766AFIL.-008376766                         
65501753550     09062021060242302677DO CO DE PAGTC                          -000000001705770000012613294009180159AFIL.-009180159                         
65501753550     09062021060242302571DOM IVA COMIS                           -000000000272940000012610564609180159AFIL.-009180159                         
65501753550     09062021060242302677DO CO DE PAGTC                          -000000001166870000012598895909181868AFIL.-009181868                         
65501753550     09062021060242302571DOM IVA COMIS                           -000000000186690000012597029009181868AFIL.-009181868                         
65501753550     09062021060242302677DO CO DE PAGTC                          -000000001685260000012580176409270083AFIL.-009270083                         
65501753550     09062021060242302571DOM IVA COMIS                           -000000000269730000012577479109270083AFIL.-009270083                         
65501753550     09062021060242302677DO CO DE PAGTC                          -000000000007720000012577401909627191AFIL.-009627191                         
65501753550     09062021060242302571DOM IVA COMIS                           -000000000001240000012577389509627191AFIL.-009627191                         
65501753550     09062021060242302677DO CO DE PAGTC                          -000000000106420000012576325305256409AFIL.-005256409                         
65501753550     09062021060242302571DOM IVA COMIS                           -000000000017040000012576154905256409AFIL.-005256409                         
65501753550     09062021060242302677DO CO DE PAGTC                          -000000000033590000012575819005688445AFIL.-005688445                         
65501753550     09062021060242302571DOM IVA COMIS                           -000000000005360000012575765405688445AFIL.-005688445                         
65501753550     09062021060242302677DO CO DE PAGTC                          -000000000133670000012574428705688452AFIL.-005688452                         
65501753550     09062021060242302571DOM IVA COMIS                           -000000000021390000012574214805688452AFIL.-005688452                         
65501753550     09062021060242302677DO CO DE PAGTC                          -000000000189390000012572320907273370AFIL.-007273370                         
65501753550     09062021060242302571DOM IVA COMIS                           -000000000030330000012572017607273370AFIL.-007273370                         
65501753550     09062021060242302677DO CO DE PAGTC                          -000000001097010000012561047508139649AFIL.-008139649                         
65501753550     09062021060242302571DOM IVA COMIS                           -000000000175600000012559291508139649AFIL.-008139649                         
65501753550     09062021060242302677DO CO DE PAGTC                          -000000000084650000012558445008180414AFIL.-008180414                         
65501753550     09062021060242302571DOM IVA COMIS                           -000000000013560000012558309408180414AFIL.-008180414                         
65501753550     09062021060242302677DO CO DE PAGTC                          -000000000050500000012557804408376766AFIL.-008376766                         
65501753550     09062021060242302571DOM IVA COMIS                           -000000000008070000012557723708376766AFIL.-008376766                         
65501753550     09062021060242302677DO CO DE PAGTC                          -000000001505200000012542671709180159AFIL.-009180159                         
65501753550     09062021060242302571DOM IVA COMIS                           -000000000240870000012540263009180159AFIL.-009180159                         
65501753550     09062021060242302677DO CO DE PAGTC                          -000000002211370000012518149309181868AFIL.-009181868                         
65501753550     09062021060242302571DOM IVA COMIS                           -000000000353820000012514611109181868AFIL.-009181868                         
65501753550     09062021060242302677DO CO DE PAGTC                          -000000001851500000012496096109270083AFIL.-009270083                         
65501753550     09062021060242302571DOM IVA COMIS                           -000000000296310000012493133009270083AFIL.-009270083                         
65501753550     09062021060242302677DO CO DE PAGTC                          -000000000026110000012492871909627191AFIL.-009627191                         
65501753550     09062021060242302571DOM IVA COMIS                           -000000000004180000012492830109627191AFIL.-009627191                         
65501753550     09062021060242302677DO CO DE PAGTC                          -000000000167270000012491157405256409AFIL.-005256409                         
65501753550     09062021060242302571DOM IVA COMIS                           -000000000026800000012490889405256409AFIL.-005256409                         
65501753550     09062021060242302677DO CO DE PAGTC                          -000000000075260000012490136805688445AFIL.-005688445                         
65501753550     09062021060242302571DOM IVA COMIS                           -000000000012040000012490016405688445AFIL.-005688445                         
65501753550     09062021060242302677DO CO DE PAGTC                          -000000000237410000012487642305688452AFIL.-005688452                         
65501753550     09062021060242302571DOM IVA COMIS                           -000000000038000000012487262305688452AFIL.-005688452                         
65501753550     09062021060242302677DO CO DE PAGTC                          -000000000245190000012484810407273370AFIL.-007273370                         
65501753550     09062021060242302571DOM IVA COMIS                           -000000000039240000012484418007273370AFIL.-007273370                         
65501753550     09062021060242302677DO CO DE PAGTC                          -000000001026440000012474153608139649AFIL.-008139649                         
65501753550     09062021060242302571DOM IVA COMIS                           -000000000164320000012472510408139649AFIL.-008139649                         
65501753550     09062021060242302677DO CO DE PAGTC                          -000000000078580000012471724608180414AFIL.-008180414                         
65501753550     09062021060242302571DOM IVA COMIS                           -000000000012580000012471598808180414AFIL.-008180414                         
65501753550     09062021060242302677DO CO DE PAGTC                          -000000000060750000012470991308376766AFIL.-008376766                         
65501753550     09062021060242302571DOM IVA COMIS                           -000000000009700000012470894308376766AFIL.-008376766                         
65501753550     09062021060242302677DO CO DE PAGTC                          -000000001324830000012457646009180159AFIL.-009180159                         
65501753550     09062021060242302571DOM IVA COMIS                           -000000000211980000012455526209180159AFIL.-009180159                         
65501753550     09062021060242302677DO CO DE PAGTC                          -000000001866320000012436863009181868AFIL.-009181868                         
65501753550     09062021060242302571DOM IVA COMIS                           -000000000298610000012433876909181868AFIL.-009181868                         
65501753550     09062021060242302677DO CO DE PAGTC                          -000000001940420000012414472709270083AFIL.-009270083                         
65501753550     09062021060242302571DOM IVA COMIS                           -000000000310570000012411367009270083AFIL.-009270083                         
65501753550     09062021071374650291AB TRANSF SPEI                          +000000000350000000012414867005014469SEPTIEMBRE EVS                          0609210 012650014983575442
65501753550     09062021082171370000DEP EN EFECTIV                          +00000002965000000001271136700000000002092021CAPUM7                          
65501753550     09062021082171370000DEP EN EFECTIV                          +00000025136900000001522505700000000001092021CAPUT2                          
65501753550     09062021082171370000DEP EN EFECTIV                          +00000025733700000001779842700000000002092021CAPUT1                          
65501753550     09062021082171370000DEP EN EFECTIV                          +00000000005200000001779894700000000001092021ECAPUV                          
65501753550     09062021082171370000DEP EN EFECTIV                          +00000002940000000001809294700000000001092021CAPUM8                          
65501753550     09062021082171370000DEP EN EFECTIV                          +00000000001500000001809309700000000002092021CAPUV7                          
65501753550     09062021082171370000DEP EN EFECTIV                          +00000000002000000001809329700000000001092021ESTAP9                          
65501753550     09062021082171370000DEP EN EFECTIV                          +00000000339000000001812719700000000002092021ESTAP8                          
65501753550     09062021082171370000DEP EN EFECTIV                          +00000000113000000001813849700000000003092021CAPUM6                          
65501753550     09062021082171370000DEP EN EFECTIV                          +00000000200000000001815849700000000001092021ESTAP9                          
65501753550     09062021082171370000DEP EN EFECTIV                          +00000000246200000001818311700000000002092021HUEJOT0                         
65501753550     09062021082171370000DEP EN EFECTIV                          +00000000968000000001827991700000000030082021HUEJOT3                         
65501753550     09062021082171370000DEP EN EFECTIV                          +00000000330600000001831297700000000031082021HUEJOT1                         
65501753550     09062021082171370000DEP EN EFECTIV                          +00000000424300000001835540700000000001092021HUEJOT2                         
65501753550     09062021082171370000DEP EN EFECTIV                          +00000000016500000001835705700000000031082021CHOLT2                          
65501753550     09062021082171370000DEP EN EFECTIV                          +00000000124400000001836949700000000030082021CHOLT3                          
65501753550     09062021082171370000DEP EN EFECTIV                          +00000000316200000001840111700000000029082021CHOLT6                          
65501753550     09062021082171370000DEP EN EFECTIV                          +00000000208000000001842191700000000028082021CHOLT7                          
65501753550     09062021082171370000DEP EN EFECTIV                          +00000000091500000001843106700000000027082021CHOLT8                          
65501753550     09062021092401160000DEP EN EFECTIV                          +000000000400000000018435067001161362PENSION4PTE                             
65501753550     09062021093774650291AB TRANSF SPEI                          +000000000064000000018435707005126583SEP EVS                                 0609210 012650014983575442
65501753550     09062021095977240000DEP EN EFECTIV                          +000000000350000000018439207007249937PENSION4PTE                             
65501753550     09062021100271370000DEP EN EFECTIV                          +00000032329400000002167214700000000004092021CAPUT9                          
65501753550     09062021100271370000DEP EN EFECTIV                          +00000000002500000002167239700000000003092021CAPUV6                          
65501753550     09062021100271370000DEP EN EFECTIV                          +00000026956300000002436802700000000003092021CAPUT0                          
65501753550     09062021100271370000DEP EN EFECTIV                          +00000001990000000002456702700000000003092021CAPUM6                          
65501753550     09062021100271370000DEP EN EFECTIV                          +00000000044100000002457143700000000004092021CAPUV5                          
65501753550     09062021100271600000DEP EN EFECTIV                          +00000002279650000002479940200000000002092021SMAT                            
65501753550     09062021100271600000DEP EN EFECTIV                          +00000002307550000002503015700000000001092021SMAT                            
65501753550     09062021121574650291AB TRANSF SPEI                          +000000080816060000025838317605404976Transferencias PayU4463581              4463581 012180001908758138
65501753550     09062021121574650291AB TRANSF SPEI                          +000000178155430000027619871905405019Transferencias PayU4463309              4463309 012180001908758138
65501753550     09062021123268780000DEP EN EFECTIV                          +00000009457200000002856559190000000030082021AEROT5                          
65501753550     09062021123268780000DEP EN EFECTIV                          +00000006883300000002925392190000000001092021AEROT1                          
65501753550     09062021123268780000DEP EN EFECTIV                          +00000000002000000002925412190000000001092021AEROV2                          
65501753550     09062021123268780000DEP EN EFECTIV                          +00000008728500000003012697190000000002092021AEROT8                          
65501753550     09062021123268780000DEP EN EFECTIV                          +00000000600000000003018697190000000002092021AEROM9                          
65501753550     09062021123268780000DEP EN EFECTIV                          +00000008894300000003107640190000000031082021AEROT2                          
65501753550     09062021123268780000DEP EN EFECTIV                          +00000000850000000003116140190000000031082021AEROM3                          
65501753550     09062021123268780000DEP EN EFECTIV                          +00000000000300000003116143190000000031082021AEROV3                          
65501753550     09062021123268780000DEP EN EFECTIV                          +00000000000100000003116144190000000001092021AEROV2                          
65501753550     09062021123268780000DEP EN EFECTIV                          +00000004781400000003163958190000000001092021AEROT1                          
65501753550     09062021123268780000DEP EN EFECTIV                          +00000004763700000003211595190000000030082021AEROT5                          
65501753550     09062021123268780000DEP EN EFECTIV                          +00000003359800000003245193190000000002092021AEROT8                          
65501753550     09062021123268780000DEP EN EFECTIV                          +00000004623700000003291430190000000031082021AEROT2                          
65501753550     09062021123268780000DEP EN EFECTIV                          +00000000630000000003297730190000000031082021AEROM3                          
65501753550     09062021123268780000DEP EN EFECTIV                          +00000000600000000003303730190000000002092021AEROM9                          
65501753550     09062021123268780000DEP EN EFECTIV                          +00000000001000000003303740190000000001082021AEROV3                          
65501753550     09062021123268780000DEP EN EFECTIV                          +00000000011150000003303851690000000001092021CARV7                           
65501753550     09062021123268780000DEP EN EFECTIV                          +00000000000100000003303852690000000002092021CARV4                           
65501753550     09062021123268780000DEP EN EFECTIV                          +00000006174400000003365596690000000002092021CART2                           
65501753550     09062021123268780000DEP EN EFECTIV                          +00000005648300000003422079690000000001092021CART5                           
65501753550     09062021123268780000DEP EN EFECTIV                          +00000000800000000003430079690000000001092021CARM7                           
65501753550     09062021130109810681CGO TRANS ELEC                          -000000300000000000031300796902930832PRESTAMO                                
65501753550     09062021130109810790PAGO TRAN SPEI                          -000001550000000000015800796905485699TRASPASO 3550 A 7031         
65501753550     09062021130309810681CGO TRANS ELEC                          -000000024646000000015554336904960217012560411020412109100000246462          
65501753550     09062021130309810681CGO TRANS ELEC                          -000000009000000000015464336901340881MORRALLA PSD                            
65501753550     09062021130309810681CGO TRANS ELEC                          -00000025039784000001296035850496022170020002604228582232                    
65501753550     09062021130609810790PAGO TRAN SPEI                          -00000001659676000001279439090549370215943                        
65501753550     09062021130609810790PAGO TRAN SPEI                          -000000001462680000012779764105493707CCMEX5                       
65501753550     09062021143371370000DEP EN EFECTIV                          +00000000092100000001278897410000000003092021CAPSETEXT2                      
65501753550     09062021184835972421AB TR RAP SANT                          +000000000350000000012792474103381548Pension 4pt MSRJ                        
