65502381527     09092021022105620081LIQ INV PLAZO                           +000005584000000000055931924000001900                                        
65502381527     09092021022105620083LIQ INTS PLAZO                          +000000000635960000055938283600001900                                        
65502381527     09092021022105620585ISR INV PLAZO                           -000000000148390000055936799700001900                                        
65502381527     09092021083271370000DEP EN EFECTIV                          +00000000034916000005594029130000000004092021TEHT                            
65502381527     09092021083271370000DEP EN EFECTIV                          +00000000065308000005594682210000000006092021CEDT                            
65502381527     09092021083271370000DEP EN EFECTIV                          +00000000134792000005596030130000000006092021PSDT                            
65502381527     09092021083271370000DEP EN EFECTIV                          +00000000231652000005598346650000000006092021PEDT                            
65502381527     09092021083271370000DEP EN EFECTIV                          +00000001299420000005611340850000000006092021CPUT                            
65502381527     09092021083271370000DEP EN EFECTIV                          +00000000936468000005620705530000000004092021CPUT                            
65502381527     09092021083271370000DEP EN EFECTIV                          +00000000122263000005621928160000000003092021TEHT                            
65502381527     09092021083271370000DEP EN EFECTIV                          +00000000090557000005622833730000000004092021PEDT                            
65502381527     09092021083271370000DEP EN EFECTIV                          +00000000093380000005623767530000000003092021PSDT                            
65502381527     09092021083271370000DEP EN EFECTIV                          +00000000025404000005624021570000000005082021CPUT                            
65502381527     09092021083271370643FAL DEP EFEC                            -00000000000004000005624021530000000004092021CPUT                            
65502381527     09092021113268780000DEP EN EFECTIV                          +00000000021460000005624236130000000007092021IZTT                            
65502381527     09092021113268780000DEP EN EFECTIV                          +00000000202207000005626258200000000004092021IZTT                            
65502381527     09092021113268780000DEP EN EFECTIV                          +00000000077488000005627033080000000006092021IZTT                            
65502381527     09092021141874650291AB TRANSF SPEI                          +000000001592690000056286257709253764PQD-244208                              0090921 012650001680629277
65502381527     09092021150609810180AB TRANS ELECT                          +000000003045940000056316717104900758AUTOBUSES MEXICO PUEBLA ESTRELLA ROJA   
65502381527     09092021151725170580CGO AP INV PZO                          -000005627000000000000046717100000000                                        
65502381527     09092021164774650291AB TRANSF SPEI                          +000000280304200000002849759109512016ABCD123                                 1111111 021180001170743865
65502381527     09092021171009810180AB TRANS ELECT                          +000000006986100000002919620100480247FAC PQD243751                           
65502381527     09092021173909810180AB TRANS ELECT                          +000000005710100000002976721102590706FAC PQD243748                           
