65501753550     09022021044174650291AB TRANSF SPEI                          +000000000195640000006085380709175122AMEXCO SE 9350021565                    21565   002180002346330664
65501753550     09022021044374650291AB TRANSF SPEI                          +000000023986100000006325241709175307AMEXCO SE 9350060670                    60670   002180002346330664
65501753550     09022021044374650291AB TRANSF SPEI                          +000000001972140000006344963109175352AMEXCO SE 9359908044                    9908044 002180002346330664
65501753550     09022021045174650291AB TRANSF SPEI                          +000000000633890000006351302009175854AMEXCO SE 9356614447                    6614447 002180002346330664
65501753550     09022021045474650291AB TRANSF SPEI                          +000000001307410000006364376109176122AMEXCO SE 9350021532                    21532   002180002346330664
65501753550     09022021060142300038DEP ELE PAG TC                          +000000010496000000006469336105256409AFIL.-005256409                         
65501753550     09022021060142300038DEP ELE PAG TC                          +000000003839000000006507726105688445AFIL.-005688445                         
65501753550     09022021060142300038DEP ELE PAG TC                          +000000009349460000006601220705688452AFIL.-005688452                         
65501753550     09022021060142300038DEP ELE PAG TC                          +000000008820500000006689425707273370AFIL.-007273370                         
65501753550     09022021060142300038DEP ELE PAG TC                          +000000062636000000007315785708139649AFIL.-008139649                         
65501753550     09022021060142300038DEP ELE PAG TC                          +000000005802000000007373805708180414AFIL.-008180414                         
65501753550     09022021060142300038DEP ELE PAG TC                          +000000000651000000007380315708376766AFIL.-008376766                         
65501753550     09022021060142300038DEP ELE PAG TC                          +000000049455000000007874865709180159AFIL.-009180159                         
65501753550     09022021060142300038DEP ELE PAG TC                          +000000050146500000008376330709181868AFIL.-009181868                         
65501753550     09022021060142300038DEP ELE PAG TC                          +000000080177000000009178100709270083AFIL.-009270083                         
65501753550     09022021060142302677DO CO DE PAGTC                          -000000000192540000009176175305256409AFIL.-005256409                         
65501753550     09022021060142302571DOM IVA COMIS                           -000000000030820000009175867105256409AFIL.-005256409                         
65501753550     09022021060142302677DO CO DE PAGTC                          -000000000067520000009175191905688445AFIL.-005688445                         
65501753550     09022021060142302571DOM IVA COMIS                           -000000000010800000009175083905688445AFIL.-005688445                         
65501753550     09022021060142302677DO CO DE PAGTC                          -000000000159560000009173488305688452AFIL.-005688452                         
65501753550     09022021060142302571DOM IVA COMIS                           -000000000025550000009173232805688452AFIL.-005688452                         
65501753550     09022021060142302677DO CO DE PAGTC                          -000000000154730000009171685507273370AFIL.-007273370                         
65501753550     09022021060142302571DOM IVA COMIS                           -000000000024740000009171438107273370AFIL.-007273370                         
65501753550     09022021060142302677DO CO DE PAGTC                          -000000001125930000009160178808139649AFIL.-008139649                         
65501753550     09022021060142302571DOM IVA COMIS                           -000000000180180000009158377008139649AFIL.-008139649                         
65501753550     09022021060142302677DO CO DE PAGTC                          -000000000100280000009157374208180414AFIL.-008180414                         
65501753550     09022021060142302571DOM IVA COMIS                           -000000000016050000009157213708180414AFIL.-008180414                         
65501753550     09022021060142302677DO CO DE PAGTC                          -000000000011060000009157103108376766AFIL.-008376766                         
65501753550     09022021060142302571DOM IVA COMIS                           -000000000001760000009157085508376766AFIL.-008376766                         
65501753550     09022021060142302677DO CO DE PAGTC                          -000000000860590000009148479609180159AFIL.-009180159                         
65501753550     09022021060142302571DOM IVA COMIS                           -000000000137710000009147102509180159AFIL.-009180159                         
65501753550     09022021060142302677DO CO DE PAGTC                          -000000000871820000009138384309181868AFIL.-009181868                         
65501753550     09022021060142302571DOM IVA COMIS                           -000000000139520000009136989109181868AFIL.-009181868                         
65501753550     09022021060142302677DO CO DE PAGTC                          -000000001431240000009122676709270083AFIL.-009270083                         
65501753550     09022021060142302571DOM IVA COMIS                           -000000000229110000009120385609270083AFIL.-009270083                         
65501753550     09022021083371370000DEP EN EFECTIV                          +00000000041200000000912450560000000030082021CAPSETEXT0                      
65501753550     09022021083371370000DEP EN EFECTIV                          +00000034786100000001260311560000000030082021CAPUT8                          
65501753550     09022021083371370000DEP EN EFECTIV                          +00000000001800000001260329560000000031082021CAPUV3                          
65501753550     09022021083371370000DEP EN EFECTIV                          +00000003770000000001298029560000000030082021CAPUM4                          
65501753550     09022021083371370000DEP EN EFECTIV                          +00000000006900000001298098560000000030082021CAPUV4                          
65501753550     09022021083371370000DEP EN EFECTIV                          +00000025668100000001554779560000000031082021CAPUT7                          
65501753550     09022021083371370000DEP EN EFECTIV                          +00000003350000000001588279560000000031082021CAPUM3                          
65501753550     09022021083371370000DEP EN EFECTIV                          +00000000292200000001591201560000000030082021ESTAP5                          
65501753550     09022021083371370000DEP EN EFECTIV                          +00000000080000000001592001560000000001092021CAPUM8                          
65501753550     09022021083371370000DEP EN EFECTIV                          +00000000002000000001592021560000000031082021ESTAP4                          
65501753550     09022021083371370000DEP EN EFECTIV                          +00000000179000000001593811560000000031082021ESTAP4                          
65501753550     09022021084609810681CGO TRANS ELEC                          -000000030395000000015634165603349869FF AMP MEX                              
65501753550     09022021084609810681CGO TRANS ELEC                          -000000049904000000015135125603359871FF AMP PUE                              
65501753550     09022021093271600000DEP EN EFECTIV                          +00000004385550000001557368060000000030082021SMAT                            
65501753550     09022021093271600000DEP EN EFECTIV                          +00000000931800000001566686060000000030082021SMAT                            
65501753550     09022021093271600000DEP EN EFECTIV                          +00000004305150000001609737560000000031082021SMAT                            
65501753550     09022021100271370000DEP EN EFECTIV                          +00000000546700000001615204560000000029082021PSDGT5                          
65501753550     09022021100271370000DEP EN EFECTIV                          +00000000787000000001623074560000000028082021PSDGT6                          
65501753550     09022021100271370000DEP EN EFECTIV                          +00000000389000000001626964560000000025082021PSDGT9                          
65501753550     09022021100271370000DEP EN EFECTIV                          +00000000498600000001631950560000000026082021PSDGT8                          
65501753550     09022021100271370000DEP EN EFECTIV                          +00000000300000000001634950560000000027082021PSDGM3                          
65501753550     09022021100271370000DEP EN EFECTIV                          +00000000661550000001641566060000000027082021PSDGT7                          
65501753550     09022021100271370000DEP EN EFECTIV                          +00000000624900000001647815060000000030082021PSDGT2                          
65501753550     09022021100271370000DEP EN EFECTIV                          +00000000350000000001651315060000000030082021PSDGM8                          
65501753550     09022021100271370000DEP EN EFECTIV                          +00000000412300000001655438060000000031082021PSDGT1                          
65501753550     09022021101868780000DEP EN EFECTIV                          +00000009809600000001753534060000000028082021AEROT4                          
65501753550     09022021101868780000DEP EN EFECTIV                          +00000000240000000001755934060000000029082021AEROM2                          
65501753550     09022021101868780000DEP EN EFECTIV                          +00000000004000000001755974060000000029082021AEROV2                          
65501753550     09022021101868780000DEP EN EFECTIV                          +00000000005100000001756025060000000027082021AEROV8                          
65501753550     09022021101868780000DEP EN EFECTIV                          +00000008572000000001841745060000000029082021AEROT1                          
65501753550     09022021101868780000DEP EN EFECTIV                          +00000009516100000001936906060000000027082021AEROT7                          
65501753550     09022021101868780000DEP EN EFECTIV                          +00000000002200000001936928060000000028082021AEROV5                          
65501753550     09022021101868780000DEP EN EFECTIV                          +00000000760000000001944528060000000028082021AEROM5                          
65501753550     09022021101868780000DEP EN EFECTIV                          +00000019366800000002138196060000000029082021TAPOT6                          
65501753550     09022021101868780000DEP EN EFECTIV                          +00000000026850000002138464560000000029082021TAPOV7                          
65501753550     09022021101868780000DEP EN EFECTIV                          +00000002300000000002161464560000000029082021TAPOM7                          
65501753550     09022021101868780000DEP EN EFECTIV                          +00000000000100000002161465560000000027082021AEROV8                          
65501753550     09022021101868780000DEP EN EFECTIV                          +00000004372500000002205190560000000028082021AEROT4                          
65501753550     09022021101868780000DEP EN EFECTIV                          +00000004969400000002254884560000000029082021AEROT1                          
65501753550     09022021101868780000DEP EN EFECTIV                          +00000005003400000002304918560000000027082021AEROT7                          
65501753550     09022021101868780000DEP EN EFECTIV                          +00000000530000000002310218560000000029082021AEROM2                          
65501753550     09022021101868780000DEP EN EFECTIV                          +00000000650000000002316718560000000028082021AEROM5                          
65501753550     09022021103268780000DEP EN EFECTIV                          +00000000000200000002316720560000000023082021CNORTEV5                        
65501753550     09022021103268780000DEP EN EFECTIV                          +00000001015550000002326876060000000024082021CNORTET0                        
65501753550     09022021103268780000DEP EN EFECTIV                          +00000000990750000002336783560000000023082021CNORTET4                        
65501753550     09022021103268780000DEP EN EFECTIV                          +00000000562000000002342403560000000028082021CNORTET4                        
65501753550     09022021103268780000DEP EN EFECTIV                          +00000001122600000002353629560000000025082021CNORTET7                        
65501753550     09022021103268780000DEP EN EFECTIV                          +00000001755650000002371186060000000027082021CNORTET0                        
65501753550     09022021103268780000DEP EN EFECTIV                          +00000000005100000002371237060000000028082021CNORTEV8                        
65501753550     09022021103268780000DEP EN EFECTIV                          +00000002819500000002399432060000000028082021CNORTET7                        
65501753550     09022021103268780000DEP EN EFECTIV                          +00000001799450000002417426560000000029082021CNORTET4                        
65501753550     09022021103268780000DEP EN EFECTIV                          +00000014236500000002559791560000000031082021TAPOT7                          
65501753550     09022021103268780000DEP EN EFECTIV                          +00000000028800000002560079560000000030082021TAPOV1                          
65501753550     09022021103268780000DEP EN EFECTIV                          +00000000001700000002560096560000000030082021TAPOV1                          
65501753550     09022021103268780000DEP EN EFECTIV                          +00000003250000000002592596560000000030082021TAPOM1                          
65501753550     09022021103268780000DEP EN EFECTIV                          +00000017339300000002765989560000000030082021TAPOT0                          
65501753550     09022021103268780000DEP EN EFECTIV                          +00000000038400000002766373560000000031082021TAPOV8                          
65501753550     09022021103268780000DEP EN EFECTIV                          +00000000006000000002766433560000000031082021TAPOV8                          
65501753550     09022021103268780000DEP EN EFECTIV                          +00000002100000000002787433560000000031082021TAPOM8                          
65501753550     09022021110574650291AB TRANSF SPEI                          +000000024492000000028119255609522813VENTAS 16 AL 31 AGOSTOESTRELLA ROJA     20921   002180700666034560
65501753550     09022021112474650291AB TRANSF SPEI                          +000000000350000000028122755609559684PENSION AUTO                            0209210 012650015026783543
65501753550     09022021113977011156ABONO TRANSFER                          +000000162023000000029742985606074376TRANSFERENCIA ELECTRONICA                0000001 TRANSFERENCIA E
65501753550     09022021131674650291AB TRANSF SPEI                          +000000035340380000030096389409769914Transferencias PayU4458031              4458031 012180001908758138
65501753550     09022021131674650291AB TRANSF SPEI                          +000000182151190000031917901309770126Transferencias PayU4459566              4459566 012180001908758138
65501753550     09022021131674650291AB TRANSF SPEI                          +000000152725490000033445156209770141Transferencias PayU4458872              4458872 012180001908758138
65501753550     09022021131674650291AB TRANSF SPEI                          +000000000556640000033450722609770165Transferencias PayU4459665              4459665 012180001908758138
65501753550     09022021131674650291AB TRANSF SPEI                          +000000071999660000034170719209770208Transferencias PayU4458984              4458984 012180001908758138
65501753550     09022021132609810790PAGO TRAN SPEI                          -000002430000000000009870719209794595TRASPASO 3550 A 9649         
65501753550     09022021133509810681CGO TRANS ELEC                          -000000019651500000009674204208568718958                                     
65501753550     09022021133509810681CGO TRANS ELEC                          -000000080464000000008869564208568719042300769061139084                      
65501753550     09022021133809810790PAGO TRAN SPEI                          -00000003190000000000855056420981873917313T03019375               
65501753550     09022021133809810790PAGO TRAN SPEI                          -00000000301795000000852038470981875715935                        
65501753550     09022021133809810790PAGO TRAN SPEI                          -00000001397090000000838067570981875815934                        
65501753550     09022021133809810790PAGO TRAN SPEI                          -00000000210000000000835967570981878215932                        
65501753550     09022021133809810790PAGO TRAN SPEI                          -00000007149750000000764470070981881015931                        
65501753550     09022021140974650291AB TRANSF SPEI                          +000000000400000000007648700709892836PENSION4PTEAAL                          0000009 021650063131578217
65501753550     09022021145874650291AB TRANSF SPEI                          +00000001113600000000776006070107933921 A 270821                             512526  002180056675795560
