65503200995     09032021021505620081LIQ INV PLAZO                           +000024439000000000244404568100001500                                        
65503200995     09032021021505620083LIQ INTS PLAZO                          +000000002783330000244432401400001500                                        
65503200995     09032021021505620585ISR INV PLAZO                           -000000000649470000244425906700001500                                        
65503200995     09032021060116782112DO DEP ELE TC                           +000000003659000000244462496707269614AFIL.-007269614                         
65503200995     09032021060116781597DO CO DE PAGTC                          -000000000067110000244461825607269614AFIL.-007269614                         
65503200995     09032021060116781598DOM IVA COMIS                           -000000000010740000244461718207269614AFIL.-007269614                         
65503200995     09032021100277280000DEP EN EFECTIV                          +000000297190000000247433618207283029PB605                                   
65503200995     09032021130809810790PAGO TRAN SPEI                          -0000000060000000002473736182024995872621                         
65503200995     09032021130809810790PAGO TRAN SPEI                          -0000001713089100002456605291024997962620                         
65503200995     09032021151025170580CGO AP INV PZO                          -000024565000000000000010529100000000                                        
