65503200995     09012021032505620081LIQ INV PLAZO                           +000024665000000000246662401400001300                                        
65503200995     09012021032505620083LIQ INTS PLAZO                          +000000002809070000246690492100001300                                        
65503200995     09012021032505620585ISR INV PLAZO                           -000000000655480000246683937300001300                                        
65503200995     09012021060242302680DOM CUOTA AFIL                          -000000000299000000246680947307269614AFIL.-007269614                         
65503200995     09012021060242302571DOM IVA COMIS                           -000000000047840000246680468907269614AFIL.-007269614                         
65503200995     09012021060242302679DOM CO USO TPV                          -000000000750000000246672968907269614AFIL.-007269614                         
65503200995     09012021060242302571DOM IVA COMIS                           -000000000120000000246671768907269614AFIL.-007269614                         
65503200995     09012021060242302676DOM BA FAC TPV                          -000000000400000000246667768907269614AFIL.-007269614                         
65503200995     09012021060242302571DOM IVA COMIS                           -000000000064000000246667128907269614AFIL.-007269614                         
65503200995     09012021060242302680DOM CUOTA AFIL                          -000000000299000000246664138907623061AFIL.-007623061                         
65503200995     09012021060242302571DOM IVA COMIS                           -000000000047840000246663660507623061AFIL.-007623061                         
65503200995     09012021060242302680DOM CUOTA AFIL                          -000000000299000000246660670508048220AFIL.-008048220                         
65503200995     09012021060242302571DOM IVA COMIS                           -000000000047840000246660192108048220AFIL.-008048220                         
65503200995     09012021080116782112DO DEP ELE TC                           +000000001375000000246673942107269614AFIL.-007269614                         
65503200995     09012021080116782610DOM CUOTA AFIL                          -000000000299000000246670952107269614AFIL.-007269614                         
65503200995     09012021080116781598DOM IVA COMIS                           -000000000047840000246670473707269614AFIL.-007269614                         
65503200995     09012021080116781597DO CO DE PAGTC                          -000000000024550000246670228207269614AFIL.-007269614                         
65503200995     09012021080116781598DOM IVA COMIS                           -000000000003930000246670188907269614AFIL.-007269614                         
65503200995     09012021080116782610DOM CUOTA AFIL                          -000000000299000000246667198907623061AFIL.-007623061                         
65503200995     09012021080116781598DOM IVA COMIS                           -000000000047840000246666720507623061AFIL.-007623061                         
65503200995     09012021080116782610DOM CUOTA AFIL                          -000000000299000000246663730508048220AFIL.-008048220                         
65503200995     09012021080116781598DOM IVA COMIS                           -000000000047840000246663252108048220AFIL.-008048220                         
65503200995     09012021080116782627DOM OTROS CGOS                          -000000000300000000246660252107269614AFIL.-007269614                         
65503200995     09012021080116781598DOM IVA COMIS                           -000000000048000000246659772107269614AFIL.-007269614                         
65503200995     09012021084871370000DEP EN EFECTIV                          +00000001017250000024676149710000000028082021MOVILT                          
65503200995     09012021123174650291AB TRANSF SPEI                          +000000019119870000246952695808193258Transferencias PayU4456572              4456572 012180001908758138
65503200995     09012021150425170580CGO AP INV PZO                          -000024694000000000000012695800000000                                        
