65503200995     09102021020605620081LIQ INV PLAZO                           +000023843000000000238443803200002000                                        
65503200995     09102021020605620083LIQ INTS PLAZO                          +000000002715450000238470957700002000                                        
65503200995     09102021020605620585ISR INV PLAZO                           -000000000633630000238464621400002000                                        
65503200995     09102021043974650291AB TRANSF SPEI                          +000000000299610000238467617501052861AMEXCO SE 9351820130                    1820130 002180002346330664
65503200995     09102021070016782112DO DEP ELE TC                           +000000000401000000238471627507269614AFIL.-007269614                         
65503200995     09102021070016781597DO CO DE PAGTC                          -000000000007010000238471557407269614AFIL.-007269614                         
65503200995     09102021070016781598DOM IVA COMIS                           -000000000001120000238471546207269614AFIL.-007269614                         
65503200995     09102021083271370000DEP EN EFECTIV                          +00000000218700000023849341620000000008092021CAPUT5                          
65503200995     09102021083271370000DEP EN EFECTIV                          +00000000696000000023856301620000000006092021ZOCALO                          
65503200995     09102021083271370000DEP EN EFECTIV                          +00000000858400000023864885620000000006092021MOVILT                          
65503200995     09102021123674650291AB TRANSF SPEI                          +000000002825460000238677110801679185Transferencias PayU4471567              4471567 012180001908758138
65503200995     09102021131409810790PAGO TRAN SPEI                          -000000030000000000238377110801777088TRASPASO 0995 A 7313         
65503200995     09102021133809810790PAGO TRAN SPEI                          -0000000094334100002382827767018389802634 FINIQUITO               
65503200995     09102021152225170580CGO AP INV PZO                          -000023827000000000000012776700000000                                        
65503200995     09102021174652342082DEP EFECT ATM                           +000000000400000000000016776700959104                                        
