65501753550     09152021051574650291AB TRANSF SPEI                          +000000000387490000011774698307842808AMEXCO SE 9356614447                    6614447 002180002346330664
65501753550     09152021051774650291AB TRANSF SPEI                          +000000004771290000011822411207843010AMEXCO SE 9350021532                    21532   002180002346330664
65501753550     09152021051874650291AB TRANSF SPEI                          +000000001469660000011837107807843135AMEXCO SE 9359908044                    9908044 002180002346330664
65501753550     09152021051874650291AB TRANSF SPEI                          +000000000075980000011837867607843187AMEXCO SE 9350058864                    58864   002180002346330664
65501753550     09152021053274650291AB TRANSF SPEI                          +000000000381840000011841686007845099AMEXCO SE 9356623992                    6623992 002180002346330664
65501753550     09152021060142300038DEP ELE PAG TC                          +000000010246000000011944146005256409AFIL.-005256409                         
65501753550     09152021060142300038DEP ELE PAG TC                          +000000004160000000011985746005688445AFIL.-005688445                         
65501753550     09152021060142300038DEP ELE PAG TC                          +000000011251840000012098264405688452AFIL.-005688452                         
65501753550     09152021060142300038DEP ELE PAG TC                          +000000014961000000012247874407273370AFIL.-007273370                         
65501753550     09152021060142300038DEP ELE PAG TC                          +000000058110000000012828974408139649AFIL.-008139649                         
65501753550     09152021060142300038DEP ELE PAG TC                          +000000005871000000012887684408180414AFIL.-008180414                         
65501753550     09152021060142300038DEP ELE PAG TC                          +000000001670000000012904384408376766AFIL.-008376766                         
65501753550     09152021060142300038DEP ELE PAG TC                          +000000064412500000013548509409180159AFIL.-009180159                         
65501753550     09152021060142300038DEP ELE PAG TC                          +000000082551500000014374024409181868AFIL.-009181868                         
65501753550     09152021060142300038DEP ELE PAG TC                          +000000093257000000015306594409270083AFIL.-009270083                         
65501753550     09152021060142302677DO CO DE PAGTC                          -000000000186760000015304726805256409AFIL.-005256409                         
65501753550     09152021060142302571DOM IVA COMIS                           -000000000029900000015304427805256409AFIL.-005256409                         
65501753550     09152021060142302677DO CO DE PAGTC                          -000000000076080000015303667005688445AFIL.-005688445                         
65501753550     09152021060142302571DOM IVA COMIS                           -000000000012150000015303545505688445AFIL.-005688445                         
65501753550     09152021060142302677DO CO DE PAGTC                          -000000000194630000015301599205688452AFIL.-005688452                         
65501753550     09152021060142302571DOM IVA COMIS                           -000000000031160000015301287605688452AFIL.-005688452                         
65501753550     09152021060142302677DO CO DE PAGTC                          -000000000261430000015298673307273370AFIL.-007273370                         
65501753550     09152021060142302571DOM IVA COMIS                           -000000000041840000015298254907273370AFIL.-007273370                         
65501753550     09152021060142302677DO CO DE PAGTC                          -000000001042360000015287831308139649AFIL.-008139649                         
65501753550     09152021060142302571DOM IVA COMIS                           -000000000166840000015286162908139649AFIL.-008139649                         
65501753550     09152021060142302677DO CO DE PAGTC                          -000000000101480000015285148108180414AFIL.-008180414                         
65501753550     09152021060142302571DOM IVA COMIS                           -000000000016250000015284985608180414AFIL.-008180414                         
65501753550     09152021060142302677DO CO DE PAGTC                          -000000000029200000015284693608376766AFIL.-008376766                         
65501753550     09152021060142302571DOM IVA COMIS                           -000000000004640000015284647208376766AFIL.-008376766                         
65501753550     09152021060142302677DO CO DE PAGTC                          -000000001131530000015273331909180159AFIL.-009180159                         
65501753550     09152021060142302571DOM IVA COMIS                           -000000000181040000015271521509180159AFIL.-009180159                         
65501753550     09152021060142302677DO CO DE PAGTC                          -000000001447510000015257046409181868AFIL.-009181868                         
65501753550     09152021060142302571DOM IVA COMIS                           -000000000231650000015254729909181868AFIL.-009181868                         
65501753550     09152021060142302677DO CO DE PAGTC                          -000000001669680000015238033109270083AFIL.-009270083                         
65501753550     09152021060142302571DOM IVA COMIS                           -000000000267250000015235360609270083AFIL.-009270083                         
65501753550     09152021090271370000DEP EN EFECTIV                          +00000026474000000001788276060000000009092021CAPUT4                          
65501753550     09152021090271370000DEP EN EFECTIV                          +00000029756300000002085839060000000011092021CAPUT0                          
65501753550     09152021090271370000DEP EN EFECTIV                          +00000003760000000002123439060000000011092021CAPUM6                          
65501753550     09152021090271370000DEP EN EFECTIV                          +00000000029700000002123736060000000011092021CAPUV6                          
65501753550     09152021090271370000DEP EN EFECTIV                          +00000000008300000002123819060000000010092021CAPUV7                          
65501753550     09152021090271370000DEP EN EFECTIV                          +00000003310000000002156919060000000009092021CAPUM0                          
65501753550     09152021090271370000DEP EN EFECTIV                          +00000000003500000002156954060000000009092021CAPUV0                          
65501753550     09152021090271370000DEP EN EFECTIV                          +00000030720800000002464162060000000010092021CAPUT1                          
65501753550     09152021090271370000DEP EN EFECTIV                          +00000003689000000002501052060000000010092021CAPUM7                          
65501753550     09152021090309810681CGO TRANS ELEC                          -000000011109000000024899430609000044FF AMP MEX                              
65501753550     09152021090309810681CGO TRANS ELEC                          -000000026845000000024630980609000046FF AMP PUE                              
65501753550     09152021090309810681CGO TRANS ELEC                          -000000293078000000021700200605198969MORRALLA AMP MEX                        
65501753550     09152021090309810681CGO TRANS ELEC                          -000000388000000000017820200605208971MORRALLA AMP PUE                        
65501753550     09152021104174650291AB TRANSF SPEI                          +000000000400000000017824200608310003PENSION4PTEHACE                         1509210 012180015735302594
65501753550     09152021113268780000DEP EN EFECTIV                          +00000000000100000001782421060000000007092021CNORTEV5                        
65501753550     09152021113268780000DEP EN EFECTIV                          +00000000000400000001782425060000000012092021CNORTEV8                        
65501753550     09152021113268780000DEP EN EFECTIV                          +00000001908500000001801510060000000011092021CNORTET0                        
65501753550     09152021113268780000DEP EN EFECTIV                          +00000001761600000001819126060000000010092021CNORTET3                        
65501753550     09152021113268780000DEP EN EFECTIV                          +00000001398050000001833106560000000009092021CNORTET8                        
65501753550     09152021113268780000DEP EN EFECTIV                          +00000001003800000001843144560000000008092021CNRTET1                         
65501753550     09152021113268780000DEP EN EFECTIV                          +00000001404000000001857184560000000007092021CNRTET4                         
65501753550     09152021113268780000DEP EN EFECTIV                          +00000001161050000001868795060000000006092021CNRTET8                         
65501753550     09152021113268780000DEP EN EFECTIV                          +00000000000300000001868798060000000009092021CNRTEV9                         
65501753550     09152021113268780000DEP EN EFECTIV                          +00000000000100000001868799060000000008092021CNORTEV2                        
65501753550     09152021113268780000DEP EN EFECTIV                          +00000002039000000001889189060000000012092021CNORTET7                        
65501753550     09152021113268780000DEP EN EFECTIV                          +00000000000300000001889192060000000011092021CNORTEV1                        
65501753550     09152021113268780000DEP EN EFECTIV                          +00000000000100000001889193060000000010092021CNORTEV4                        
65501753550     09152021113268780000DEP EN EFECTIV                          +00000000000100000001889194060000000010092021SURV4                           
65501753550     09152021113268780000DEP EN EFECTIV                          +00000001026300000001899457060000000008092021SURT1                           
65501753550     09152021113268780000DEP EN EFECTIV                          +00000001523450000001914691560000000012092021SURT7                           
65501753550     09152021113268780000DEP EN EFECTIV                          +00000001781150000001932503060000000006092021SURT8                           
65501753550     09152021113268780000DEP EN EFECTIV                          +00000002363550000001956138560000000010092021SURT3                           
65501753550     09152021113268780000DEP EN EFECTIV                          +00000003090500000001987043560000000011092021SURT0                           
65501753550     09152021113268780000DEP EN EFECTIV                          +00000001013000000001997173560000000009092021SURT8                           
65501753550     09152021113268780000DEP EN EFECTIV                          +00000000001100000001997184560000000006092021SURV9                           
65501753550     09152021113268780000DEP EN EFECTIV                          +00000000000100000001997185560000000008092021SURV2                           
65501753550     09152021113268780000DEP EN EFECTIV                          +00000001545800000002012643560000000007092021SURT4                           
65501753550     09152021122777011156ABONO TRANSFER                          +000000002393830000020150373909798689TRANSFERENCIA ELECTRONICA                0000001 TRANSFERENCIA E
65501753550     09152021122777011156ABONO TRANSFER                          +000000001996340000020170337309798829TRANSFERENCIA ELECTRONICA                0000001 TRANSFERENCIA E
65501753550     09152021130209810681CGO TRANS ELEC                          -000000012177000000020048567306450143011470603056262109250000121772          
65501753550     09152021130209810681CGO TRANS ELEC                          -000000014529000000019903277306450144011470603056342109250000145292          
65501753550     09152021130209810681CGO TRANS ELEC                          -000000018309000000019720187306450145012470012038812109300000183095          
65501753550     09152021130209810681CGO TRANS ELEC                          -000000000464000000019715547306450146019830803003212109200000004640          
65501753550     09152021130209810681CGO TRANS ELEC                          -00000000087000000001970684730645014713125184649632383285                    
65501753550     09152021130209810681CGO TRANS ELEC                          -00000000101000000001969674730645014813125184664432388277                    
65501753550     09152021130209810681CGO TRANS ELEC                          -00000000195000000001967724730645015213125184663132383253                    
65501753550     09152021130209810790PAGO TRAN SPEI                          -00000000150000000001966224730881270716115                        
65501753550     09152021130409810790PAGO TRAN SPEI                          -00000000039346000001965831270882125316110 FINIQUITO              
65501753550     09152021130409810790PAGO TRAN SPEI                          -00000000140000000001964431270882127516116                        
65501753550     09152021130409810790PAGO TRAN SPEI                          -00000000019159000001964239680882130516118                        
65501753550     09152021130409810790PAGO TRAN SPEI                          -000000000678000000019635616808821382538                          
65501753550     09152021130409810790PAGO TRAN SPEI                          -00000160624168000000357320000882142216108                        
65501753550     09152021130409810790PAGO TRAN SPEI                          -00000000393864000000353381360882145016113 FINIQUITO              
65501753550     09152021130409810790PAGO TRAN SPEI                          -00000000432000000000349061360882155116109                        
65501753550     09152021133874650291AB TRANSF SPEI                          +000000076900700000004259620608949750Transferencias PayU4475985              4475985 012180001908758138
65501753550     09152021133874650291AB TRANSF SPEI                          +000000186969260000006129313208949861Transferencias PayU4475838              4475838 012180001908758138
65501753550     09152021141771370000DEP EN EFECTIV                          +00000002535000000000638281320000000013092021CAPUM6                          
65501753550     09152021141771370000DEP EN EFECTIV                          +00000034759200000000985873320000000013092021CAPUT1                          
65501753550     09152021141771370000DEP EN EFECTIV                          +00000004350000000001029373320000000012092021CAPUM5                          
65501753550     09152021141771370000DEP EN EFECTIV                          +00000000028400000001029657320000000012092021CAPUV5                          
65501753550     09152021141771370000DEP EN EFECTIV                          +00000000007500000001029732320000000013092021CAPUV7                          
65501753550     09152021141771370000DEP EN EFECTIV                          +00000029966700000001329399320000000012092021CAPUT9                          
65501753550     09152021141771370000DEP EN EFECTIV                          +00000000311800000001332517320000000012092021CAPSETEXT                       
65501753550     09152021142474650291AB TRANSF SPEI                          +00000002001000000001352527320910510304 A 100921                             736030  002180056675795560
