65501753550     01102022043574650291AB TRANSF SPEI                          +000000000329150000000962493809097144AMEXCO SE 9359908044                    9908044 002180002346330664
65501753550     01102022043574650291AB TRANSF SPEI                          +000000001959530000000982089109097227AMEXCO SE 9350021532                    21532   002180002346330664
65501753550     01102022044674650291AB TRANSF SPEI                          +000000000698220000000989071309099446AMEXCO SE 9350021565                    21565   002180002346330664
65501753550     01102022044674650291AB TRANSF SPEI                          +000000000667260000000995743909099515AMEXCO SE 9350060670                    60670   002180002346330664
65501753550     01102022044774650291AB TRANSF SPEI                          +000000000068490000000996428809099535AMEXCO SE 9350058864                    58864   002180002346330664
65501753550     01102022044874650291AB TRANSF SPEI                          +000000000201120000000998440009099692AMEXCO SE 9356614447                    6614447 002180002346330664
65501753550     01102022060042300038DEP ELE PAG TC                          +000000017057000000001169010005256409AFIL.-005256409                         
65501753550     01102022060042300038DEP ELE PAG TC                          +000000012625000000001295260005688445AFIL.-005688445                         
65501753550     01102022060042300038DEP ELE PAG TC                          +000000022180500000001517065007273370AFIL.-007273370                         
65501753550     01102022060042300038DEP ELE PAG TC                          +000000072427000000002241335008139649AFIL.-008139649                         
65501753550     01102022060042300038DEP ELE PAG TC                          +000000003824000000002279575008180414AFIL.-008180414                         
65501753550     01102022060042300038DEP ELE PAG TC                          +000000002104000000002300615008376766AFIL.-008376766                         
65501753550     01102022060042300038DEP ELE PAG TC                          +000000109398000000003394595009180159AFIL.-009180159                         
65501753550     01102022060042300038DEP ELE PAG TC                          +000000075401500000004148610009181868AFIL.-009181868                         
65501753550     01102022060042300038DEP ELE PAG TC                          +000000113708000000005285690009270083AFIL.-009270083                         
65501753550     01102022060042300038DEP ELE PAG TC                          +000000000599000000005291680009627191AFIL.-009627191                         
65501753550     01102022060042300038DEP ELE PAG TC                          +000000010414000000005395820005256409AFIL.-005256409                         
65501753550     01102022060042300038DEP ELE PAG TC                          +000000003925000000005435070005688445AFIL.-005688445                         
65501753550     01102022060042300038DEP ELE PAG TC                          +000000002188850000005456958505688452AFIL.-005688452                         
65501753550     01102022060042300038DEP ELE PAG TC                          +000000012502000000005581978507273370AFIL.-007273370                         
65501753550     01102022060042300038DEP ELE PAG TC                          +000000070773000000006289708508139649AFIL.-008139649                         
65501753550     01102022060042300038DEP ELE PAG TC                          +000000013769000000006427398508180414AFIL.-008180414                         
65501753550     01102022060042300038DEP ELE PAG TC                          +000000004294000000006470338508376766AFIL.-008376766                         
65501753550     01102022060042300038DEP ELE PAG TC                          +000000094058000000007410918509180159AFIL.-009180159                         
65501753550     01102022060042300038DEP ELE PAG TC                          +000000114812500000008559043509181868AFIL.-009181868                         
65501753550     01102022060042300038DEP ELE PAG TC                          +000000100328000000009562323509270083AFIL.-009270083                         
65501753550     01102022060042300038DEP ELE PAG TC                          +000000017518000000009737503505256409AFIL.-005256409                         
65501753550     01102022060042300038DEP ELE PAG TC                          +000000010852000000009846023505688445AFIL.-005688445                         
65501753550     01102022060042300038DEP ELE PAG TC                          +000000008522440000009931247905688452AFIL.-005688452                         
65501753550     01102022060042300038DEP ELE PAG TC                          +000000017785000000010109097907273370AFIL.-007273370                         
65501753550     01102022060042300038DEP ELE PAG TC                          +000000072757500000010836672908139649AFIL.-008139649                         
65501753550     01102022060042300038DEP ELE PAG TC                          +000000008058000000010917252908180414AFIL.-008180414                         
65501753550     01102022060042300038DEP ELE PAG TC                          +000000003033000000010947582908376766AFIL.-008376766                         
65501753550     01102022060042300038DEP ELE PAG TC                          +000000078623000000011733812909180159AFIL.-009180159                         
65501753550     01102022060042300038DEP ELE PAG TC                          +000000106277400000012796586909181868AFIL.-009181868                         
65501753550     01102022060042300038DEP ELE PAG TC                          +000000112221000000013918796909270083AFIL.-009270083                         
65501753550     01102022060042300038DEP ELE PAG TC                          +000000001326000000013932056909627191AFIL.-009627191                         
65501753550     01102022060042302677DO CO DE PAGTC                          -000000000315410000013928902805256409AFIL.-005256409                         
65501753550     01102022060042302571DOM IVA COMIS                           -000000000050470000013928398105256409AFIL.-005256409                         
65501753550     01102022060042302677DO CO DE PAGTC                          -000000000229430000013926103805688445AFIL.-005688445                         
65501753550     01102022060042302571DOM IVA COMIS                           -000000000036720000013925736605688445AFIL.-005688445                         
65501753550     01102022060042302677DO CO DE PAGTC                          -000000000389870000013921837907273370AFIL.-007273370                         
65501753550     01102022060042302571DOM IVA COMIS                           -000000000062390000013921214007273370AFIL.-007273370                         
65501753550     01102022060042302677DO CO DE PAGTC                          -000000001271860000013908495408139649AFIL.-008139649                         
65501753550     01102022060042302571DOM IVA COMIS                           -000000000203540000013906460008139649AFIL.-008139649                         
65501753550     01102022060042302677DO CO DE PAGTC                          -000000000068870000013905771308180414AFIL.-008180414                         
65501753550     01102022060042302571DOM IVA COMIS                           -000000000011040000013905660908180414AFIL.-008180414                         
65501753550     01102022060042302677DO CO DE PAGTC                          -000000000036100000013905299908376766AFIL.-008376766                         
65501753550     01102022060042302571DOM IVA COMIS                           -000000000005780000013905242108376766AFIL.-008376766                         
65501753550     01102022060042302677DO CO DE PAGTC                          -000000001915900000013886083109180159AFIL.-009180159                         
65501753550     01102022060042302571DOM IVA COMIS                           -000000000306540000013883017709180159AFIL.-009180159                         
65501753550     01102022060042302677DO CO DE PAGTC                          -000000001314380000013869873909181868AFIL.-009181868                         
65501753550     01102022060042302571DOM IVA COMIS                           -000000000210310000013867770809181868AFIL.-009181868                         
65501753550     01102022060042302677DO CO DE PAGTC                          -000000002010540000013847665409270083AFIL.-009270083                         
65501753550     01102022060042302571DOM IVA COMIS                           -000000000321740000013844448009270083AFIL.-009270083                         
65501753550     01102022060042302677DO CO DE PAGTC                          -000000000011060000013844337409627191AFIL.-009627191                         
65501753550     01102022060042302571DOM IVA COMIS                           -000000000001770000013844319709627191AFIL.-009627191                         
65501753550     01102022060042302677DO CO DE PAGTC                          -000000000190430000013842415405256409AFIL.-005256409                         
65501753550     01102022060042302571DOM IVA COMIS                           -000000000030490000013842110505256409AFIL.-005256409                         
65501753550     01102022060042302677DO CO DE PAGTC                          -000000000071670000013841393805688445AFIL.-005688445                         
65501753550     01102022060042302571DOM IVA COMIS                           -000000000011450000013841279305688445AFIL.-005688445                         
65501753550     01102022060042302677DO CO DE PAGTC                          -000000000037620000013840903105688452AFIL.-005688452                         
65501753550     01102022060042302571DOM IVA COMIS                           -000000000006020000013840842905688452AFIL.-005688452                         
65501753550     01102022060042302677DO CO DE PAGTC                          -000000000216950000013838673407273370AFIL.-007273370                         
65501753550     01102022060042302571DOM IVA COMIS                           -000000000034720000013838326207273370AFIL.-007273370                         
65501753550     01102022060042302677DO CO DE PAGTC                          -000000001235600000013825970208139649AFIL.-008139649                         
65501753550     01102022060042302571DOM IVA COMIS                           -000000000197750000013823992708139649AFIL.-008139649                         
65501753550     01102022060042302677DO CO DE PAGTC                          -000000000236390000013821628808180414AFIL.-008180414                         
65501753550     01102022060042302571DOM IVA COMIS                           -000000000037830000013821250508180414AFIL.-008180414                         
65501753550     01102022060042302677DO CO DE PAGTC                          -000000000076150000013820489008376766AFIL.-008376766                         
65501753550     01102022060042302571DOM IVA COMIS                           -000000000012170000013820367308376766AFIL.-008376766                         
65501753550     01102022060042302677DO CO DE PAGTC                          -000000001647830000013803889009180159AFIL.-009180159                         
65501753550     01102022060042302571DOM IVA COMIS                           -000000000263640000013801252609180159AFIL.-009180159                         
65501753550     01102022060042302677DO CO DE PAGTC                          -000000002006900000013781183609181868AFIL.-009181868                         
65501753550     01102022060042302571DOM IVA COMIS                           -000000000321090000013777972709181868AFIL.-009181868                         
65501753550     01102022060042302677DO CO DE PAGTC                          -000000001787000000013760102709270083AFIL.-009270083                         
65501753550     01102022060042302571DOM IVA COMIS                           -000000000285910000013757243609270083AFIL.-009270083                         
65501753550     01102022060042302677DO CO DE PAGTC                          -000000000321030000013754033305256409AFIL.-005256409                         
65501753550     01102022060042302571DOM IVA COMIS                           -000000000051380000013753519505256409AFIL.-005256409                         
65501753550     01102022060042302677DO CO DE PAGTC                          -000000000194990000013751569605688445AFIL.-005688445                         
65501753550     01102022060042302571DOM IVA COMIS                           -000000000031160000013751258005688445AFIL.-005688445                         
65501753550     01102022060042302677DO CO DE PAGTC                          -000000000149090000013749767105688452AFIL.-005688452                         
65501753550     01102022060042302571DOM IVA COMIS                           -000000000023860000013749528505688452AFIL.-005688452                         
65501753550     01102022060042302677DO CO DE PAGTC                          -000000000312290000013746405607273370AFIL.-007273370                         
65501753550     01102022060042302571DOM IVA COMIS                           -000000000049980000013745905807273370AFIL.-007273370                         
65501753550     01102022060042302677DO CO DE PAGTC                          -000000001287030000013733035508139649AFIL.-008139649                         
65501753550     01102022060042302571DOM IVA COMIS                           -000000000205970000013730975808139649AFIL.-008139649                         
65501753550     01102022060042302677DO CO DE PAGTC                          -000000000139400000013729581808180414AFIL.-008180414                         
65501753550     01102022060042302571DOM IVA COMIS                           -000000000022310000013729358708180414AFIL.-008180414                         
65501753550     01102022060042302677DO CO DE PAGTC                          -000000000052410000013728834608376766AFIL.-008376766                         
65501753550     01102022060042302571DOM IVA COMIS                           -000000000008380000013728750808376766AFIL.-008376766                         
65501753550     01102022060042302677DO CO DE PAGTC                          -000000001371230000013715038509180159AFIL.-009180159                         
65501753550     01102022060042302571DOM IVA COMIS                           -000000000219420000013712844309180159AFIL.-009180159                         
65501753550     01102022060042302677DO CO DE PAGTC                          -000000001865400000013694190309181868AFIL.-009181868                         
65501753550     01102022060042302571DOM IVA COMIS                           -000000000298450000013691205809181868AFIL.-009181868                         
65501753550     01102022060042302677DO CO DE PAGTC                          -000000001974230000013671463509270083AFIL.-009270083                         
65501753550     01102022060042302571DOM IVA COMIS                           -000000000315900000013668304509270083AFIL.-009270083                         
65501753550     01102022060042302677DO CO DE PAGTC                          -000000000024300000013668061509627191AFIL.-009627191                         
65501753550     01102022060042302571DOM IVA COMIS                           -000000000003890000013668022609627191AFIL.-009627191                         
65501753550     01102022073635972421AB TR RAP SANT                          +000000000350000000013671522609976853PENSION4PTEFRFM                         
65501753550     01102022094571370000DEP EN EFECTIV                          +00000044959900000001816751260000000004012022CAPUT6                          
65501753550     01102022094571370000DEP EN EFECTIV                          +00000000220100000001818952260000000006012022ESTAP1                          
65501753550     01102022094571370000DEP EN EFECTIV                          +00000000549400000001824446260000000005012022ESTAP2                          
65501753550     01102022094571370000DEP EN EFECTIV                          +00000000001000000001824456260000000006012022CAPUV0                          
65501753550     01102022094571370000DEP EN EFECTIV                          +00000002690000000001851356260000000006012022CAPUM0                          
65501753550     01102022094571370000DEP EN EFECTIV                          +00000026129100000002112647260000000006012022CAPUT4                          
65501753550     01102022094571370000DEP EN EFECTIV                          +00000000015500000002112802260000000005012022CAPUV1                          
65501753550     01102022094571370000DEP EN EFECTIV                          +00000004470000000002157502260000000004012022CAPUM2                          
65501753550     01102022094571370000DEP EN EFECTIV                          +00000000000900000002157511260000000004012022CAPUV2                          
65501753550     01102022094571370000DEP EN EFECTIV                          +00000032875900000002486270260000000015012022CAPUT5                          
65501753550     01102022094571370000DEP EN EFECTIV                          +00000003796000000002524230260000000005012022CAPUM1                          
65501753550     01102022095574650291AB TRANSF SPEI                          +000000000400000000025246302609287453PENSION4PTE RRSR                        0100122 012650027774672732
65501753550     01102022101871600000DEP EN EFECTIV                          +00000002282500000002547455260000000006012022SMAT                            
65501753550     01102022101871600000DEP EN EFECTIV                          +00000003062800000002578083260000000005012022SMAT                            
65501753550     01102022105574650291AB TRANSF SPEI                          +000000282432090000028605153509382908Transferencias PayU4630474              4630474 012180001908758138
65501753550     01102022105574650291AB TRANSF SPEI                          +000000240517530000031010328809382946Transferencias PayU4630609              4630609 012180001908758138
65501753550     01102022111835972421AB TR RAP SANT                          +000000000350000000031013828805504907MSRJPENSION4PTE                         
65501753550     01102022120411110000DEP EN EFECTIV                          +00000000003500000003101417880111430600000000000009012022                    
65501753550     01102022124768780000DEP EN EFECTIV                          +00000000002100000003101438880000000007012022CARV9                           
65501753550     01102022124768780000DEP EN EFECTIV                          +00000013520100000003236639880000000008012022CART4                           
65501753550     01102022124768780000DEP EN EFECTIV                          +00000010499700000003341636880000000007012022CART7                           
65501753550     01102022124768780000DEP EN EFECTIV                          +00000001500000000003356636880000000008012022CARM4                           
65501753550     01102022124768780000DEP EN EFECTIV                          +00000000003600000003356672880000000008012022CARV4                           
65501753550     01102022124768780000DEP EN EFECTIV                          +00000000003100000003356703880000000008012022TAPOV8                          
65501753550     01102022124768780000DEP EN EFECTIV                          +00000023381700000003590520880000000007012022TAPOT8                          
65501753550     01102022124768780000DEP EN EFECTIV                          +00000029231100000003882831880000000008012022TAPOT5                          
65501753550     01102022124768780000DEP EN EFECTIV                          +00000001700000000003899831880000000007012022TAPOM9                          
65501753550     01102022124768780000DEP EN EFECTIV                          +00000003650000000003936331880000000008012022TAPOM6                          
65501753550     01102022124768780000DEP EN EFECTIV                          +00000000063700000003936968880000000007012022TAPOV9                          
65501753550     01102022124768780000DEP EN EFECTIV                          +00000000009200000003937060880000000007012022TAPOV9                          
65501753550     01102022132074650291AB TRANSF SPEI                          +000000000400000000039374608809710293Pension4pteAAL                          0000001 021650063131578217
65501753550     01102022133709810681CGO TRANS ELEC                          -000000000109000000039373518805850075012161802013712201210000001091          
65501753550     01102022133709810681CGO TRANS ELEC                          -000000005069000000039322828805850076012210411023962201140000050697          
65501753550     01102022133709810681CGO TRANS ELEC                          -000000000777000000039315058805850077012219012708522201140000007775          
65501753550     01102022133709810681CGO TRANS ELEC                          -000000024319000000039071868805850078012560812022192201140000243197          
65501753550     01102022133709810681CGO TRANS ELEC                          -000000008973000000038982138805850079012561910051502201140000089736          
65501753550     01102022133709810681CGO TRANS ELEC                          -000000072288000000038259258805850080012569304112692201140000722880          
65501753550     01102022133709810681CGO TRANS ELEC                          -000000010510000000038154158805850081019900009037102201160000105109          
65501753550     01102022133709810681CGO TRANS ELEC                          -000000010500000000038049158806860818MORRALLA PSD                            
65501753550     01102022133709810790PAGO TRAN SPEI                          -000000300000000000035049158809748905TRASPASO 3550 A 9649         
65501753550     01102022134009810790PAGO TRAN SPEI                          -00000027407450000003230841380975351617568                        
65501753550     01102022134009810790PAGO TRAN SPEI                          -00000011600000000003114841380975354217569                        
65501753550     01102022141074650291AB TRANSF SPEI                          +000000000350000000031151913809810113PAGO                                    1001220 012650014610005272
65501753550     01102022144674650291AB TRANSF SPEI                          +000000000800000000031159913809889886PENSION                                 1001220 012650015030049561
65501753550     01102022155874650291AB TRANSF SPEI                          +000000000350000000031163413801116973pago mes estacionamiento                100122  002650901692137113
