65501753550     01182022024005620081LIQ INV PLAZO                           +000019364000000000193663439400010900                                        
65501753550     01182022024005620083LIQ INTS PLAZO                          +000000002205340000193685492800010900                                        
65501753550     01182022024005620585ISR INV PLAZO                           -000000000042440000193685068400010900                                        
65501753550     01182022062947170098ABO X PGO FACT                          +000000069800020000194383068603443771 RFC CTE060224DA3 IVA 0.00   
65501753550     01182022083371370000DEP EN EFECTIV                          +00000000183800000019440144860000000014012022CAPSETEXT                       
65501753550     01182022083371370000DEP EN EFECTIV                          +00000000219500000019442339860000000014012022CAPUT4                          
65501753550     01182022083371370000DEP EN EFECTIV                          +00000035993000000019443646860000000015012022CAPUT3                          
65501753550     01182022083371370000DEP EN EFECTIV                          +00000000344000000019447086860000000012012022ZOCALO                          
65501753550     01182022083371370000DEP EN EFECTIV                          +00000000604000000019453126860000000013012022ZOCALO                          
65501753550     01182022133877240000DEP EN EFECTIV                          +000000008000000000194611268607241565                                        
65501753550     01182022152125170580CGO AP INV PZO                          -000019459000000000000021268600000000                                        
