65508400939     05072021162152310305BON COM MAN CT                          +0000000002000000000009927200000000003                                                                                                                                                                                                                                                                                                                                                     
65508400939     05072021162152310071AN/BON IVA COM                          +0000000000320000000009930400000000004                                                                                                                                                                                                                                                                                                                                                     
65508400939     05072021162152310305BON COM MAN CT                          +0000000002000000000009950400000000005                                                                                                                                                                                                                                                                                                                                                     
65508400939     05072021162152310071AN/BON IVA COM                          +0000000000320000000009953600000000006                                                                                                                                                                                                                                                                                                                                                     
65508400939     05072021162152310305BON COM MAN CT                          +0000000002000000000009973600000000007                                                                                                                                                                                                                                                                                                                                                     
65508400939     05072021162152310071AN/BON IVA COM                          +0000000000320000000009976800000000008                                                                                                                                                                                                                                                                                                                                                     
65508400939     05072021162152310305BON COM MAN CT                          +0000000002000000000009996800000000009                                                                                                                                                                                                                                                                                                                                                     
65508400939     05072021162152310071AN/BON IVA COM                          +00000000003200000000100000000000000010                                                                                                                                                                                                                                                                                                                                                    
F|000770                                                                                                                                                                                                                                                                                                                                                                                                                                                               
