65502381527     05062021060201140247LIQ A CH IN CR                          +000011215402900000112282046900000705                                        
65502381527     05062021081771370000DEP EN EFECTIV                          +00000001611638000011244321070000000029042021CPUT5                           
65502381527     05062021081771370000DEP EN EFECTIV                          +00000000032480000011244645870000000030042021PSDT0                           
65502381527     05062021081771370000DEP EN EFECTIV                          +00000000327700000011247922870000000002052021CPUT6                           
65502381527     05062021081771370000DEP EN EFECTIV                          +00000001411308000011262035950000000030042021CPUT6                           
65502381527     05062021081771370000DEP EN EFECTIV                          +00000000337444000011265410390000000030042021PEDT0                           
65502381527     05062021081771370000DEP EN EFECTIV                          +00000000076128000011266171670000000028042021TEHT28                          
65502381527     05062021081771370000DEP EN EFECTIV                          +00000000191516000011268086830000000028042021PSDT8                           
65502381527     05062021081771370000DEP EN EFECTIV                          +00000000191516000011270001990000000001052021CPUT8                           
65502381527     05062021081771370000DEP EN EFECTIV                          +00000000310886000011273110850000000029042021PEDT9                           
65502381527     05062021081771370000DEP EN EFECTIV                          +00000000133284000011274443690000000029042021PSDT9                           
65502381527     05062021081771370000DEP EN EFECTIV                          +00000000300220000011277445890000000030042021TEHT30                          
65502381527     05062021111768780000DEP EN EFECTIV                          +00000000049880000011277944690000000004052021IZTT2                           
65502381527     05062021111768780000DEP EN EFECTIV                          +00000000152772000011279472410000000003052021IZTT1                           
65502381527     05062021124409810180AB TRANS ELECT                          +000000005454900000112849273103330574FAC PQD236223                           
65502381527     05062021153009810180AB TRANS ELECT                          +000000003764200000112886915102570014FAC PQD236222                           
65502381527     05062021154374650291AB TRANSF SPEI                          +000000020508800000113092003105622051ABCD123                                 1111111 021180001170743865
65502381527     05062021174325170742CGO AP INV CRE                          -000011305000000000000042003102517607066502381527                            
65502381527     05062021181074650291AB TRANSF SPEI                          +000000006115000000000103153105849117PQD 236916                              0060521 012670001553291408
