65501753550     05052021044074650291AB TRANSF SPEI                          +000000002042030000003640928603592053AMEXCO SE 9359908044                    9908044 002180002346330664
65501753550     05052021044174650291AB TRANSF SPEI                          +000000003423480000003675163403592145AMEXCO SE 9350060670                    60670   002180002346330664
65501753550     05052021044374650291AB TRANSF SPEI                          +000000000253930000003677702703592357AMEXCO SE 9356623992                    6623992 002180002346330664
65501753550     05052021045274650291AB TRANSF SPEI                          +000000002222230000003699925003593214AMEXCO SE 9350021532                    21532   002180002346330664
65501753550     05052021060142300038DEP ELE PAG TC                          +000000011755000000003817475005256409AFIL.-005256409                         
65501753550     05052021060142300038DEP ELE PAG TC                          +000000004659000000003864065005688445AFIL.-005688445                         
65501753550     05052021060142300038DEP ELE PAG TC                          +000000013430600000003998371005688452AFIL.-005688452                         
65501753550     05052021060142300038DEP ELE PAG TC                          +000000009862000000004096991007273370AFIL.-007273370                         
65501753550     05052021060142300038DEP ELE PAG TC                          +000000042281500000004519806008139649AFIL.-008139649                         
65501753550     05052021060142300038DEP ELE PAG TC                          +000000003964000000004559446008180414AFIL.-008180414                         
65501753550     05052021060142300038DEP ELE PAG TC                          +000000000957000000004569016008376766AFIL.-008376766                         
65501753550     05052021060142300038DEP ELE PAG TC                          +000000057647400000005145490009180159AFIL.-009180159                         
65501753550     05052021060142300038DEP ELE PAG TC                          +000000041602000000005561510009181868AFIL.-009181868                         
65501753550     05052021060142300038DEP ELE PAG TC                          +000000061786000000006179370009270083AFIL.-009270083                         
65501753550     05052021060142300038DEP ELE PAG TC                          +000000000240000000006181770009627191AFIL.-009627191                         
65501753550     05052021060142302677DO CO DE PAGTC                          -000000000214300000006179627005256409AFIL.-005256409                         
65501753550     05052021060142302571DOM IVA COMIS                           -000000000034290000006179284105256409AFIL.-005256409                         
65501753550     05052021060142302677DO CO DE PAGTC                          -000000000085510000006178429005688445AFIL.-005688445                         
65501753550     05052021060142302571DOM IVA COMIS                           -000000000013680000006178292205688445AFIL.-005688445                         
65501753550     05052021060142302677DO CO DE PAGTC                          -000000000231850000006175973705688452AFIL.-005688452                         
65501753550     05052021060142302571DOM IVA COMIS                           -000000000037080000006175602905688452AFIL.-005688452                         
65501753550     05052021060142302677DO CO DE PAGTC                          -000000000175500000006173847907273370AFIL.-007273370                         
65501753550     05052021060142302571DOM IVA COMIS                           -000000000028090000006173567007273370AFIL.-007273370                         
65501753550     05052021060142302677DO CO DE PAGTC                          -000000000760300000006165964008139649AFIL.-008139649                         
65501753550     05052021060142302571DOM IVA COMIS                           -000000000121700000006164747008139649AFIL.-008139649                         
65501753550     05052021060142302677DO CO DE PAGTC                          -000000000068950000006164057508180414AFIL.-008180414                         
65501753550     05052021060142302571DOM IVA COMIS                           -000000000011020000006163947308180414AFIL.-008180414                         
65501753550     05052021060142302677DO CO DE PAGTC                          -000000000016580000006163781508376766AFIL.-008376766                         
65501753550     05052021060142302571DOM IVA COMIS                           -000000000002640000006163755108376766AFIL.-008376766                         
65501753550     05052021060142302677DO CO DE PAGTC                          -000000001007990000006153675209180159AFIL.-009180159                         
65501753550     05052021060142302571DOM IVA COMIS                           -000000000161300000006152062209180159AFIL.-009180159                         
65501753550     05052021060142302677DO CO DE PAGTC                          -000000000732690000006144735309181868AFIL.-009181868                         
65501753550     05052021060142302571DOM IVA COMIS                           -000000000117230000006143563009181868AFIL.-009181868                         
65501753550     05052021060142302677DO CO DE PAGTC                          -000000001104730000006132515709270083AFIL.-009270083                         
65501753550     05052021060142302571DOM IVA COMIS                           -000000000176880000006130746909270083AFIL.-009270083                         
65501753550     05052021060142302677DO CO DE PAGTC                          -000000000004080000006130706109627191AFIL.-009627191                         
65501753550     05052021060142302571DOM IVA COMIS                           -000000000000650000006130699609627191AFIL.-009627191                         
65501753550     05052021084409810681CGO TRANS ELEC                          -000000252634000000003604359608567039MORRALLA AMP MEX                        
65501753550     05052021084409810681CGO TRANS ELEC                          -000000350500000000000099359608567080MORRALLA AMP PUE                        
65501753550     05052021094771600000DEP EN EFECTIV                          +00000002542400000000035359960000000001052021SMAT                            
65501753550     05052021094771600000DEP EN EFECTIV                          +00000004297900000000078338960000000003052021SMAT                            
65501753550     05052021094771600000DEP EN EFECTIV                          +00000004110550000000119444460000000002052021SMAT                            
65501753550     05052021094771600000DEP EN EFECTIV                          +00000003966650000000159110960000000030042021SMAT                            
65501753550     05052021112074650291AB TRANSF SPEI                          +000000048074630000002071855903893784MULTICARGA SA DE CV                58594209650  002580701400263691
65501753550     05052021113268780000DEP EN EFECTIV                          +00000000005200000000207237590000000001052021TAPOV4                          
65501753550     05052021113268780000DEP EN EFECTIV                          +00000002150000000000228737590000000002052021TAPOM1                          
65501753550     05052021113268780000DEP EN EFECTIV                          +00000004800000000000276737590000000001052021TAPOM4                          
65501753550     05052021113268780000DEP EN EFECTIV                          +00000000308300000000279820590000000030042021TAPOT8                          
65501753550     05052021113268780000DEP EN EFECTIV                          +00000031547800000000595298590000000001052021TAPOT3                          
65501753550     05052021113268780000DEP EN EFECTIV                          +00000000051100000000595809590000000002052021TAPOV1                          
65501753550     05052021113268780000DEP EN EFECTIV                          +00000020468100000000800490590000000002052021TAPOT0                          
65501753550     05052021113268780000DEP EN EFECTIV                          +00000000000100000000800491590000000002052021CARV1                           
65501753550     05052021113268780000DEP EN EFECTIV                          +00000001200000000000812491590000000001052021CARM4                           
65501753550     05052021113268780000DEP EN EFECTIV                          +00000000600000000000818491590000000002052021CARM1                           
65501753550     05052021113268780000DEP EN EFECTIV                          +00000009139600000000909887590000000002052021CART9                           
65501753550     05052021113268780000DEP EN EFECTIV                          +00000013595300000001045840590000000001052021CART2                           
65501753550     05052021113268780000DEP EN EFECTIV                          +00000000000200000001045842590000000002052021CNORTEV9                        
65501753550     05052021113268780000DEP EN EFECTIV                          +00000000854400000001054386590000000028042021CNORTET5                        
65501753550     05052021113268780000DEP EN EFECTIV                          +00000001216900000001066555590000000027042021CNORTET8                        
65501753550     05052021113268780000DEP EN EFECTIV                          +00000000839800000001074953590000000029042021CNORTET2                        
65501753550     05052021113268780000DEP EN EFECTIV                          +00000000000400000001074957590000000028042021CNORTEV6                        
65501753550     05052021113268780000DEP EN EFECTIV                          +00000001429900000001089256590000000002052021CNORTET8                        
65501753550     05052021113268780000DEP EN EFECTIV                          +00000002402100000001113277590000000030042021CNORTET6                        
65501753550     05052021113268780000DEP EN EFECTIV                          +00000001895700000001132234590000000026042021CNORTET2                        
65501753550     05052021113268780000DEP EN EFECTIV                          +00000002966600000001161900590000000001052021CNORTET1                        
65501753550     05052021113268780000DEP EN EFECTIV                          +00000000700000000001168900590000000026042021AEROMO                          
65501753550     05052021113268780000DEP EN EFECTIV                          +00000004174000000001210640590000000001052021AEROT8                          
65501753550     05052021113268780000DEP EN EFECTIV                          +00000000000100000001210641590000000001052021AEROV9                          
65501753550     05052021113268780000DEP EN EFECTIV                          +00000003533200000001245973590000000002052021AEROT5                          
65501753550     05052021113268780000DEP EN EFECTIV                          +00000003780700000001283780590000000026042021AEROT9                          
65501753550     05052021113268780000DEP EN EFECTIV                          +00000003500300000001318783590000000027042021AEROT5                          
65501753550     05052021113268780000DEP EN EFECTIV                          +00000004056100000001359344590000000030042021AEROT3                          
65501753550     05052021113268780000DEP EN EFECTIV                          +00000000600000000001365344590000000030042021AEROM4                          
65501753550     05052021113268780000DEP EN EFECTIV                          +00000000009000000001365434590000000030042021AEROV4                          
65501753550     05052021113268780000DEP EN EFECTIV                          +00000003601200000001401446590000000029042021AEROT9                          
65501753550     05052021113268780000DEP EN EFECTIV                          +00000002291600000001424362590000000028042021AEROT2                          
65501753550     05052021131509810180AB TRANS ELECT                          +000000500000000000019243625908430542TRASPASO 1527 A 3550                    
65501753550     05052021132709810790PAGO TRAN SPEI                          -00000000129120000001923071390408937214237                        
65501753550     05052021132709810790PAGO TRAN SPEI                          -000001297970410000006251009804089431100001965017                 
65501753550     05052021132709810790PAGO TRAN SPEI                          -000000005298420000006198025604089490PENSION ABR 21               
65501753550     05052021132709810790PAGO TRAN SPEI                          -000000003527860000006162747004089522PENSION ABR 21               
65501753550     05052021132709810790PAGO TRAN SPEI                          -000000002401310000006138733904089523PENSION ABR 21               
65501753550     05052021132709810790PAGO TRAN SPEI                          -000000002826360000006110470304089552PENSION ABR 21               
65501753550     05052021132709810790PAGO TRAN SPEI                          -000000001815800000006092312304089558PENSION ABR 21               
65501753550     05052021132709810790PAGO TRAN SPEI                          -00000002045814000000588773090408955914236                        
65501753550     05052021132709810790PAGO TRAN SPEI                          -000000001919920000005868531704089580PENSION ABR 21               
65501753550     05052021132709810790PAGO TRAN SPEI                          -000000001815800000005850373704089586PENSION ABR 21               
65501753550     05052021132709810790PAGO TRAN SPEI                          -00000002552000000000559517370408958717313T03019375               
65501753550     05052021132709810790PAGO TRAN SPEI                          -000000004751240000005547661304089611PENSION ABR 21               
65501753550     05052021132709810790PAGO TRAN SPEI                          -000000002051840000005527142904089627PENSION ABR 21               
65501753550     05052021143271370000DEP EN EFECTIV                          +00000000236300000000555077290000000003052021CAPSETEXT6                      
65501753550     05052021143271370000DEP EN EFECTIV                          +00000000372300000000558800290000000002052021CAPSETEXT7                      
65501753550     05052021143271370000DEP EN EFECTIV                          +00000000249000000000561290290000000029042021ESTAP2                          
65501753550     05052021143271370000DEP EN EFECTIV                          +00000000102000000000562310290000000004052021CAPUM9                          
65501753550     05052021143271370000DEP EN EFECTIV                          +00000000207000000000564380290000000003052021ESTAP1                          
65501753550     05052021143271370000DEP EN EFECTIV                          +00000000278000000000567160290000000002052021ESTAP2                          
65501753550     05052021143271370000DEP EN EFECTIV                          +00000000172000000000568880290000000001052021ESTAP9                          
65501753550     05052021143271370000DEP EN EFECTIV                          +00000000271100000000571591290000000030042021ESTAP9                          
65501753550     05052021143271370000DEP EN EFECTIV                          +00000000583000000000577421290000000001052021HUEJOT0                         
65501753550     05052021143271370000DEP EN EFECTIV                          +00000000532400000000582745290000000002052021HUEJOT8                         
65501753550     05052021143271370000DEP EN EFECTIV                          +00000000514700000000587892290000000003052021HUEJOT6                         
65501753550     05052021143271370000DEP EN EFECTIV                          +00000000563400000000593526290000000030042021HUEJOT2                         
65501753550     05052021155709810681CGO TRANS ELEC                          -000000100000000000004935262902460094PRESTAMO                                
65501753550     05052021171874650291AB TRANSF SPEI                          +000000000363440000004938897304467157Transferencias PayU4292100              4292100 012180001908758138
