65501981186     05072021050001140247LIQ A CH IN CR                          +000020105722270000201837553800000029                                                                                                                                                                                                                                                                                                                                                      
65501981186     05072021131609810790PAGO TRAN SPEI                          -0000001331255000002005062988068558631257822                                                                                   STP                                     646180138010038836  TOKA INVESTMENT SAPI SOFOM              00140114065501981186VIAJES ESTRELLA ROJA SA DE CV                                                          VER870629GN3   2021050740014 BET0000468558630
65501981186     05072021131609810790PAGO TRAN SPEI                          -000000200000000000198506298806855865TRASPASO 1186 A 7840                                                           BANAMEX                                 002650700087178409  VIAJES ER BANAMEX                       00140114065501981186VIAJES ESTRELLA ROJA SA DE CV                                                          VER870629GN3   2021050740014 BET0000468558650
65501981186     05072021131909810790PAGO TRAN SPEI                          -0000000265265000001982410338068653558572                                                                           VE POR MAS                              113180000002314815  SERVICIOS ADMINISTRATIVOS LATISA SA DE C00140114065501981186VIAJES ESTRELLA ROJA SA DE CV                                                          VER870629GN3   2021050740014 BET0000468653550
65501981186     05072021131909810790PAGO TRAN SPEI                          -0000000357280000001978837538068653758556                                                                           BANORTE                                 072730010301955207  MULTISERVICIOS FATO SA DE CV            00140114065501981186VIAJES ESTRELLA ROJA SA DE CV                                                          VER870629GN3   2021050740014 BET0000468653750
65501981186     05072021131909810790PAGO TRAN SPEI                          -0000005481301400001924024524068653778583                                                                           SCOTIABANK                              044320010094532375  GRUPO COMERCIAL DE MEXICO SA DE CV      00140114065501981186VIAJES ESTRELLA ROJA SA DE CV                                                          VER870629GN3   2021050740014 BET0000468653770
65501981186     05072021131909810790PAGO TRAN SPEI                          -0000001388453300001910139991068653798509                                                                           BANAMEX                                 002650039366758156  AUT Y CAMIONES RIVERA                   00140114065501981186VIAJES ESTRELLA ROJA SA DE CV                                                          VER870629GN3   2021050740014 BET0000468653790
65501981186     05072021131909810790PAGO TRAN SPEI                          -0000000351967200001906620319068653968527                                                                           BANAMEX                                 002180014176653978  LLANTERA ATLAS SA DE CV                 00140114065501981186VIAJES ESTRELLA ROJA SA DE CV                                                          VER870629GN3   2021050740014 BET0000468653960
65501981186     05072021131909810790PAGO TRAN SPEI                          -0000001111976000001895500559068653938560                                                                           SCOTIABANK                              044180001060713555  MARIO ALBERTO RAMON CRUZ GUZMAN         00140114065501981186VIAJES ESTRELLA ROJA SA DE CV                                                          VER870629GN3   2021050740014 BET0000468653930
65501981186     05072021131909810790PAGO TRAN SPEI                          -0000004141130200001854089257068653978584                                                                           BANAMEX                                 002680054749461950  GRUPO COMERCIAL DE MEXICO SA DE CV      00140114065501981186VIAJES ESTRELLA ROJA SA DE CV                                                          VER870629GN3   2021050740014 BET0000468653970
65501981186     05072021131909810790PAGO TRAN SPEI                          -0000000249034100001851598916068653988517                                                                           BANAMEX                                 002180010077323563  OFFICE DEPOT SA DE CV                   00140114065501981186VIAJES ESTRELLA ROJA SA DE CV                                                          VER870629GN3   2021050740014 BET0000468653980
65501981186     05072021131909810790PAGO TRAN SPEI                          -0000000621127900001845387637068654158541                                                                           BANAMEX                                 002320038920835241  COMERCIALIZADORA E IMPORTADORA DE REFACC00140114065501981186VIAJES ESTRELLA ROJA SA DE CV                                                          VER870629GN3   2021050740014 BET0000468654150
65501981186     05072021131909810790PAGO TRAN SPEI                          -0000000334520800001842042429068654128577                                                                           HSBC                                    021320040558897112  SALVADOR CAMACHO SEDANO                 00140114065501981186VIAJES ESTRELLA ROJA SA DE CV                                                          VER870629GN3   2021050740014 BET0000468654120
65501981186     05072021131909810790PAGO TRAN SPEI                          -0000010729572300001734746706068654138585                                                                           SCOTIABANK                              044580145048042791  GRUPO COMERCIAL DE MEXICO SA DE CV      00140114065501981186VIAJES ESTRELLA ROJA SA DE CV                                                          VER870629GN3   2021050740014 BET0000468654130
65501981186     05072021131909810790PAGO TRAN SPEI                          -0000000227360000001732473106068654188576                                                                           BBVA BANCOMER                           012180004686635486  JUAN CARLOS RAUL GARCIA ALEMAN          00140114065501981186VIAJES ESTRELLA ROJA SA DE CV                                                          VER870629GN3   2021050740014 BET0000468654180
65501981186     05072021131909810790PAGO TRAN SPEI                          -0000000600158800001726471518068654418580                                                                           BBVA BANCOMER                           012180001138032954  INGENIERIA Y CONSTRUCCION PARA LA INDUST00140114065501981186VIAJES ESTRELLA ROJA SA DE CV                                                          VER870629GN3   2021050740014 BET0000468654410
65501981186     05072021131909810790PAGO TRAN SPEI                          -0000000280720000001723664318068654428513                                                                           BANAMEX                                 002730700562577542  EDGAR VALENZUELA CARDENAS               00140114065501981186VIAJES ESTRELLA ROJA SA DE CV                                                          VER870629GN3   2021050740014 BET0000468654420
65501981186     05072021131909810790PAGO TRAN SPEI                          -0000000219222600001721472092068654488532                                                                           SCOTIABANK                              044180001018504376  EVA TAPIA EMILIO                        00140114065501981186VIAJES ESTRELLA ROJA SA DE CV                                                          VER870629GN3   2021050740014 BET0000468654480
65501981186     05072021131909810790PAGO TRAN SPEI                          -0000000055630800001720915784068654548586                                                                           SCOTIABANK                              044580145096072852  GRUPO COMERCIAL DE MEXICO SA DE CV      00140114065501981186VIAJES ESTRELLA ROJA SA DE CV                                                          VER870629GN3   2021050740014 BET0000468654540
65501981186     05072021131909810790PAGO TRAN SPEI                          -0000000042398000001720491804068654618519                                                                           BAJIO                                   030730752100802013  EDGAR ARTURO FERNANDEZ CHACON           00140114065501981186VIAJES ESTRELLA ROJA SA DE CV                                                          VER870629GN3   2021050740014 BET0000468654610
65501981186     05072021131909810790PAGO TRAN SPEI                          -0000000199473600001718497068068654798544                                                                           BANAMEX                                 002180701346433804  CARLOS SANCHEZ LUNA                     00140114065501981186VIAJES ESTRELLA ROJA SA DE CV                                                          VER870629GN3   2021050740014 BET0000468654790
65501981186     05072021131909810790PAGO TRAN SPEI                          -0000000269700000001715800068068654818574                                                                           HSBC                                    021150040653463488  FELIPE BECERRA OROZCO                   00140114065501981186VIAJES ESTRELLA ROJA SA DE CV                                                          VER870629GN3   2021050740014 BET0000468654810
65501981186     05072021131909810790PAGO TRAN SPEI                          -0000000555431200001710245756068654788516                                                                           BBVA BANCOMER                           012650001980318275  ENRO DISTRIBUIDORA DE LUBRICA           00140114065501981186VIAJES ESTRELLA ROJA SA DE CV                                                          VER870629GN3   2021050740014 BET0000468654780
65501981186     05072021131909810790PAGO TRAN SPEI                          -0000000152902800001708716728068654878567                                                                           BANAMEX                                 002150035275793405  CADISA SA DE CV                         00140114065501981186VIAJES ESTRELLA ROJA SA DE CV                                                          VER870629GN3   2021050740014 BET0000468654870
65501981186     05072021131909810790PAGO TRAN SPEI                          -0000009354465000001615172078068654868587                                                                           BANAMEX                                 002680054749461950  GRUPO COMERCIAL DE MEXICO SA DE CV      00140114065501981186VIAJES ESTRELLA ROJA SA DE CV                                                          VER870629GN3   2021050740014 BET0000468654860
65501981186     05072021131909810790PAGO TRAN SPEI                          -0000000037800000001614794078068654908521                                                                           BANAMEX                                 002020038576322136  CAMIONES Y AUTOBUSES DEL NOROESTE SA DE 00140114065501981186VIAJES ESTRELLA ROJA SA DE CV                                                          VER870629GN3   2021050740014 BET0000468654900
65501981186     05072021131909810790PAGO TRAN SPEI                          -0000000056202000001614232058068655098526                                                                           HSBC                                    021730040453184581  SUPERA DE MEXICO D DE RL DE CV          00140114065501981186VIAJES ESTRELLA ROJA SA DE CV                                                          VER870629GN3   2021050740014 BET0000468655090
65501981186     05072021131909810790PAGO TRAN SPEI                          -0000002761507200001586616986068655188588                                                                           SCOTIABANK                              044580145048042791  GRUPO COMERCIAL DE MEXICO SA DE CV      00140114065501981186VIAJES ESTRELLA ROJA SA DE CV                                                          VER870629GN3   2021050740014 BET0000468655180
65501981186     05072021131909810790PAGO TRAN SPEI                          -000000015022000000158511478606865520811564031                                                                      BANAMEX                                 002580700784742363  PROVEEDOR MAYORISTA AL REFACCIONARIO DE 00140114065501981186VIAJES ESTRELLA ROJA SA DE CV                                                          VER870629GN3   2021050740014 BET0000468655200
65501981186     05072021131909810790PAGO TRAN SPEI                          -0000000024232400001584872462068655278540                                                                           BANAMEX                                 002180700560487132  BARON GABRIEL MUNOZ RODRIGUEZ           00140114065501981186VIAJES ESTRELLA ROJA SA DE CV                                                          VER870629GN3   2021050740014 BET0000468655270
65501981186     05072021131909810790PAGO TRAN SPEI                          -0000000117160000001583700862068655378559                                                                           BBVA BANCOMER                           012730027735488050  JAZMIN ARAUJO BAEZ                      00140114065501981186VIAJES ESTRELLA ROJA SA DE CV                                                          VER870629GN3   2021050740014 BET0000468655370
65501981186     05072021131909810790PAGO TRAN SPEI                          -0000000011600000001583584862068655488535                                                                           BANORTE                                 072180001874663232  ALBERTO CHIN MIS                        00140114065501981186VIAJES ESTRELLA ROJA SA DE CV                                                          VER870629GN3   2021050740014 BET0000468655480
65501981186     05072021131909810790PAGO TRAN SPEI                          -0000000048720000001583097662068655568566                                                                           BBVA BANCOMER                           012150001477680877  CAMIONERA DE CHIHUAHUA SA DE CV         00140114065501981186VIAJES ESTRELLA ROJA SA DE CV                                                          VER870629GN3   2021050740014 BET0000468655560
65501981186     05072021131909810790PAGO TRAN SPEI                          -0000000145000000001581647662068655658551                                                                           INBURSA                                 036730500213325361  ADRIANA DEL CARMEN ALDANA CHAIREZ       00140114065501981186VIAJES ESTRELLA ROJA SA DE CV                                                          VER870629GN3   2021050740014 BET0000468655650
65501981186     05072021131909810790PAGO TRAN SPEI                          -0000000021750000001581430162068655648554                                                                           BBVA BANCOMER                           012180001087936703  SMART TRACKER Y TELEMETRIA SA DE CV     00140114065501981186VIAJES ESTRELLA ROJA SA DE CV                                                          VER870629GN3   2021050740014 BET0000468655640
65501981186     05072021131909810790PAGO TRAN SPEI                          -0000001684264300001564587519068655668529                                                                           SCOTIABANK                              044180001030633445  VAZQUEZ PENA CONSULTORES SC             00140114065501981186VIAJES ESTRELLA ROJA SA DE CV                                                          VER870629GN3   2021050740014 BET0000468655660
65501981186     05072021131909810790PAGO TRAN SPEI                          -0000000022829600001564359223068655738523                                                                           BANORTE                                 072180006817865474  ANA LUISA ESCOBAR SILVA                 00140114065501981186VIAJES ESTRELLA ROJA SA DE CV                                                          VER870629GN3   2021050740014 BET0000468655730
65501981186     05072021131909810790PAGO TRAN SPEI                          -0000000111360000001563245623068655878530                                                                           HSBC                                    021650040485292000  CNS COMPUNET S DE RL DE CV              00140114065501981186VIAJES ESTRELLA ROJA SA DE CV                                                          VER870629GN3   2021050740014 BET0000468655870
65501981186     05072021131909810790PAGO TRAN SPEI                          -0000000174580000001561499823068655968539                                                                           BANORTE                                 072420004026803099  ALBERTO RAFAEL SANCHEZ VELASCO          00140114065501981186VIAJES ESTRELLA ROJA SA DE CV                                                          VER870629GN3   2021050740014 BET0000468655960
65501981186     05072021131909810790PAGO TRAN SPEI                          -0000000548086900001556018954068655818520                                                                           BANAMEX                                 002730044117031212  CAMIONERA DEL PACIFICO SA DE C          00140114065501981186VIAJES ESTRELLA ROJA SA DE CV                                                          VER870629GN3   2021050740014 BET0000468655810
65501981186     05072021131909810790PAGO TRAN SPEI                          -0000000141346000001554605494068655998518                                                                           BANAMEX                                 002180094863602058  SANIRENT DE MEXICO SA DE CV             00140114065501981186VIAJES ESTRELLA ROJA SA DE CV                                                          VER870629GN3   2021050740014 BET0000468655990
65501981186     05072021131909810790PAGO TRAN SPEI                          -0000000009828000001554507214068656028531                                                                           BANAMEX                                 002020700027505280  MEXICALI AMBIENTAL SAPI DE CV           00140114065501981186VIAJES ESTRELLA ROJA SA DE CV                                                          VER870629GN3   2021050740014 BET0000468656020
65501981186     05072021131909810790PAGO TRAN SPEI                          -0000000044636800001554060846068656068552                                                                           BBVA BANCOMER                           012700004456522785  SUMINISTROS BASICOS INDUSTRIALES SA DE C00140114065501981186VIAJES ESTRELLA ROJA SA DE CV                                                          VER870629GN3   2021050740014 BET0000468656060
65501981186     05072021131909810790PAGO TRAN SPEI                          -0000000019531800001553865528068656108514                                                                           BBVA BANCOMER                           012580001106138273  MERCANTIL DE EQUIPOS CONTRA INCENDIO S  00140114065501981186VIAJES ESTRELLA ROJA SA DE CV                                                          VER870629GN3   2021050740014 BET0000468656100
65501981186     05072021131909810790PAGO TRAN SPEI                          -0000000022620000001553639328068656148543                                                                           BBVA BANCOMER                           012180001012704942  COMERCIALIZADORA DE RINES LA CENTRAL SA 00140114065501981186VIAJES ESTRELLA ROJA SA DE CV                                                          VER870629GN3   2021050740014 BET0000468656140
65501981186     05072021131909810790PAGO TRAN SPEI                          -00000000826600000015528127280686562108000002002251089                                                              AZTECA                                  127180001090611094  TOTAL PLAY TELECOMUNICACIONES           00140114065501981186VIAJES ESTRELLA ROJA SA DE CV                                                          VER870629GN3   2021050740014 BET0000468656210
65501981186     05072021131909810790PAGO TRAN SPEI                          -0000001558416400001537228564068656228563                                                                           BBVA BANCOMER                           012180001579035536  IDEAS PARA CALZAR SA DE CV              00140114065501981186VIAJES ESTRELLA ROJA SA DE CV                                                          VER870629GN3   2021050740014 BET0000468656220
65501981186     05072021131909810790PAGO TRAN SPEI                          -0000017109119000001366137374068656308582                                                                           SCOTIABANK                              044020132010772957  GRUPO COMERCIAL DE MEXICO SA DE CV      00140114065501981186VIAJES ESTRELLA ROJA SA DE CV                                                          VER870629GN3   2021050740014 BET0000468656300
65501981186     05072021131909810790PAGO TRAN SPEI                          -0000000099761500001365139759068656298534                                                                           BBVA BANCOMER                           012180004426600752  AUTOMOTRIZ CUAUTITLAN SA DE CV          00140114065501981186VIAJES ESTRELLA ROJA SA DE CV                                                          VER870629GN3   2021050740014 BET0000468656290
65501981186     05072021131909810790PAGO TRAN SPEI                          -0000000009512000001365044639068656458561                                                                           BBVA BANCOMER                           012180001100970633  FERRELOGAR SA DE CV                     00140114065501981186VIAJES ESTRELLA ROJA SA DE CV                                                          VER870629GN3   2021050740014 BET0000468656450
65501981186     05072021131909810790PAGO TRAN SPEI                          -0000000167441900001363370220068656468515                                                                           BANAMEX                                 002180050773507669  MULTIMOVIL SA DE CV                     00140114065501981186VIAJES ESTRELLA ROJA SA DE CV                                                          VER870629GN3   2021050740014 BET0000468656460
65501981186     05072021131909810790PAGO TRAN SPEI                          -0000000126435100001362105869068656508512                                                                           BANAMEX                                 002180032930669481  REFRISERVICIO Y AIREACONDICION          00140114065501981186VIAJES ESTRELLA ROJA SA DE CV                                                          VER870629GN3   2021050740014 BET0000468656500
65501981186     05072021131909810790PAGO TRAN SPEI                          -0000000518641800001356919451068656478542                                                                           BANAMEX                                 002225449600495404  CONVERTO Y QUINHER SA DE CV             00140114065501981186VIAJES ESTRELLA ROJA SA DE CV                                                          VER870629GN3   2021050740014 BET0000468656470
65501981186     05072021131909810790PAGO TRAN SPEI                          -0000000043092000001356488531068656488578                                                                           BANAMEX                                 002020701018752944  SERVICIO DE RECUBIERTO DEL NORTE S DE RL00140114065501981186VIAJES ESTRELLA ROJA SA DE CV                                                          VER870629GN3   2021050740014 BET0000468656480
65501981186     05072021131909810790PAGO TRAN SPEI                          -0000000018641200001356302119068656650001187483                                                                     BBVA BANCOMER                           012914002016557797  GEN INDUSTRIAL SA DE CV                 00140114065501981186VIAJES ESTRELLA ROJA SA DE CV                                                          VER870629GN3   2021050740014 BET0000468656650
65501981186     05072021131909810790PAGO TRAN SPEI                          -0000000077720000001355524919068656668537                                                                           BBVA BANCOMER                           012311001474643203  ROBERTO ZAMUDIO BARRERA                 00140114065501981186VIAJES ESTRELLA ROJA SA DE CV                                                          VER870629GN3   2021050740014 BET0000468656660
65501981186     05072021131909810790PAGO TRAN SPEI                          -0000001552913400001339995785068656708522                                                                           BANAMEX                                 002730092305995028  HEAVY TRUCKS REFACCIONES SA DE CV       00140114065501981186VIAJES ESTRELLA ROJA SA DE CV                                                          VER870629GN3   2021050740014 BET0000468656700
65501981186     05072021131909810790PAGO TRAN SPEI                          -0000000092800000001339067785068656718553                                                                           BBVA BANCOMER                           012730004481936730  CAMIONES VENCE SA DE CV                 00140114065501981186VIAJES ESTRELLA ROJA SA DE CV                                                          VER870629GN3   2021050740014 BET0000468656710
65501981186     05072021131909810790PAGO TRAN SPEI                          -0000000006960000001338998185068656898547                                                                           BBVA BANCOMER                           012180001124878025  MASTER CHEMICAL MEXICO SA DE CV         00140114065501981186VIAJES ESTRELLA ROJA SA DE CV                                                          VER870629GN3   2021050740014 BET0000468656890
65501981186     05072021131909810790PAGO TRAN SPEI                          -0000000413040500001334867780068656938510                                                                           BBVA BANCOMER                           012320001078073927  REFRIGERACION ESPECIALIZADA PARA EL TRAN00140114065501981186VIAJES ESTRELLA ROJA SA DE CV                                                          VER870629GN3   2021050740014 BET0000468656930
65501981186     05072021131909810790PAGO TRAN SPEI                          -0000000167040000001333197380068656988545                                                                           BANAMEX                                 002650701544546573  ADRIANA MENDEZ MARTINEZ                 00140114065501981186VIAJES ESTRELLA ROJA SA DE CV                                                          VER870629GN3   2021050740014 BET0000468656980
65501981186     05072021131909810790PAGO TRAN SPEI                          -0000000042601700001332771363068657018568                                                                           BANAMEX                                 002150010802131976  CASA MYERS S A                          00140114065501981186VIAJES ESTRELLA ROJA SA DE CV                                                          VER870629GN3   2021050740014 BET0000468657010
65501981186     05072021131909810790PAGO TRAN SPEI                          -0000000018560000001332585763068657068548                                                                           BANAMEX                                 002730089473745841  SIRLAM SA DE CV                         00140114065501981186VIAJES ESTRELLA ROJA SA DE CV                                                          VER870629GN3   2021050740014 BET0000468657060
65501981186     05072021131909810790PAGO TRAN SPEI                          -0000000069600000001331889763068657128546                                                                           BANORTE                                 072180000169923183  TARCICIO LEOBARDO RAMIREZ ARZOLA        00140114065501981186VIAJES ESTRELLA ROJA SA DE CV                                                          VER870629GN3   2021050740014 BET0000468657120
65501981186     05072021131909810790PAGO TRAN SPEI                          -0000001393461300001317955150068657118524                                                                           BBVA BANCOMER                           012730004481936730  CAMIONES VENCE SA DE CV                 00140114065501981186VIAJES ESTRELLA ROJA SA DE CV                                                          VER870629GN3   2021050740014 BET0000468657110
65501981186     05072021131909810790PAGO TRAN SPEI                          -0000000086048800001317094662068657168558                                                                           BANORTE                                 072580003624229576  SIERRA NORTE TRUCK CENTER SA DE CV      00140114065501981186VIAJES ESTRELLA ROJA SA DE CV                                                          VER870629GN3   2021050740014 BET0000468657160
65501981186     05072021131909810790PAGO TRAN SPEI                          -0000000412076100001312973901068657298538                                                                           BANORTE                                 072180006786362778  JUAN CARLOS HERNANDEZ TORRES            00140114065501981186VIAJES ESTRELLA ROJA SA DE CV                                                          VER870629GN3   2021050740014 BET0000468657290
65501981186     05072021131909810790PAGO TRAN SPEI                          -0000000156205600001311411845068657348533                                                                           BBVA BANCOMER                           012180001910975048  AMERICAN SMARTRUCKS SA DE CV            00140114065501981186VIAJES ESTRELLA ROJA SA DE CV                                                          VER870629GN3   2021050740014 BET0000468657340
65501981186     05072021131909810790PAGO TRAN SPEI                          -0000000015950000001311252345068657388565                                                                           BANREGIO                                058150600287600114  MAYRA ALEJANDRA ALANIS CHARUR           00140114065501981186VIAJES ESTRELLA ROJA SA DE CV                                                          VER870629GN3   2021050740014 BET0000468657380
65501981186     05072021131909810790PAGO TRAN SPEI                          -0000000063800000001310614345068657498581                                                                           BBVA BANCOMER                           012180015240637783  IVAN ORTEGA SANCHEZ                     00140114065501981186VIAJES ESTRELLA ROJA SA DE CV                                                          VER870629GN3   2021050740014 BET0000468657490
65501981186     05072021131909810790PAGO TRAN SPEI                          -0000000382420000001306790145068657538555                                                                           BBVA BANCOMER                           012020001687733356  INTERNATIONAL DE BAJA CALIFORNIA SA DE C00140114065501981186VIAJES ESTRELLA ROJA SA DE CV                                                          VER870629GN3   2021050740014 BET0000468657530
65501981186     05072021131909810790PAGO TRAN SPEI                          -0000000156153400001305228611068657568579                                                                           BBVA BANCOMER                           012650001160892676  SERVICIOS Y SUMINISTROS ASDATI S DE RL D00140114065501981186VIAJES ESTRELLA ROJA SA DE CV                                                          VER870629GN3   2021050740014 BET0000468657560
65501981186     05072021131909810790PAGO TRAN SPEI                          -0000000061140000001304617211068657708511                                                                           BBVA BANCOMER                           012180004533566983  DISTRIBUIDORA CUAUTITLAN                00140114065501981186VIAJES ESTRELLA ROJA SA DE CV                                                          VER870629GN3   2021050740014 BET0000468657700
65501981186     05072021131909810681CGO TRANS ELEC                          -0000000859921600001296017995040886768575                                                                                                                                                                                                                                                                                                                                                  
65501981186     05072021131909810681CGO TRANS ELEC                          -000000033301280000129268786704088677S7ZYCAD7                                                                                                                                                                                                                                                                                                                                              
65501981186     05072021131909810681CGO TRANS ELEC                          -0000000318076000001289507107040886788564                                                                                                                                                                                                                                                                                                                                                  
65501981186     05072021131909810681CGO TRANS ELEC                          -0000000214600000001287361107040886798571                                                                                                                                                                                                                                                                                                                                                  
65501981186     05072021131909810681CGO TRANS ELEC                          -0000000163890600001285722201040887208536                                                                                                                                                                                                                                                                                                                                                  
65501981186     05072021131909810681CGO TRANS ELEC                          -0000000130863300001284413568040987218562                                                                                                                                                                                                                                                                                                                                                  
65501981186     05072021131909810681CGO TRANS ELEC                          -0000000127600000001283137568040987228573                                                                                                                                                                                                                                                                                                                                                  
65501981186     05072021131909810681CGO TRANS ELEC                          -0000000094105000001282196518040987238550                                                                                                                                                                                                                                                                                                                                                  
65501981186     05072021131909810681CGO TRANS ELEC                          -000000004640000000128173251804098724CUL18478576                                                                                                                                                                                                                                                                                                                                           
65501981186     05072021131909810681CGO TRANS ELEC                          -0000000007540000001281657118040987258549                                                                                                                                                                                                                                                                                                                                                  
65501981186     05072021132109810790PAGO TRAN SPEI                          -0000000349987900001278157239068710528593                                                                           BBVA BANCOMER                           012778001938264143  JAVIER REBEIL FELIX                     00140114065501981186VIAJES ESTRELLA ROJA SA DE CV                                                          VER870629GN3   2021050740014 BET0000468710520
65501981186     05072021132109810790PAGO TRAN SPEI                          -0000000187780800001276279431068711298589                                                                           BBVA BANCOMER                           012180015385035787  SHARON ALEJANDRA ACEVEDO MADERA         00140114065501981186VIAJES ESTRELLA ROJA SA DE CV                                                          VER870629GN3   2021050740014 BET0000468711290
65501981186     05072021132109810790PAGO TRAN SPEI                          -0000000013989200001276139539068711368591  FINIQUITO                                                                BANAMEX                                 002730904174694936  RAFAEL ANDRES AYALA LOPEZ               00140114065501981186VIAJES ESTRELLA ROJA SA DE CV                                                          VER870629GN3   2021050740014 BET0000468711360
65501981186     05072021132109810790PAGO TRAN SPEI                          -000000002101800000127592935906871159CEMXL9                                                                         BBVA BANCOMER                           012914002015542046  SERVICIOS CENTRALES DE COBRANZA HOTELERA00140114065501981186VIAJES ESTRELLA ROJA SA DE CV                                                          VER870629GN3   2021050740014 BET0000468711590
65501981186     05072021132109810790PAGO TRAN SPEI                          -0000000230000000001273629359068711808590 FINIQUITO                                                                 BANAMEX                                 002730904265718378  CARLOS ALONSO OLETA FERNANDEZ           00140114065501981186VIAJES ESTRELLA ROJA SA DE CV                                                          VER870629GN3   2021050740014 BET0000468711800
65501981186     05072021173125170742CGO AP INV CRE                          -000012660000000000000762935902517807066501981186                                                                                                                                                                                                                                                                                                                                          
