65501753550     05102021061109810681CGO TRANS ELEC                          -000000004347790000004284948104571743PENSION ABR 21                                                                                                                                                                                                                                                                                                                                        
65501753550     05102021061109810681CGO TRANS ELEC                          -000000002399910000004260949004571744PENSION ABR 21                                                                                                                                                                                                                                                                                                                                        
65501753550     05102021044074650291AB TRANSF SPEI                          +000000000317890000004264127909046138AMEXCO SE 9356623992                    6623992 002180002346330664                        BANAMEX                                 014650655017535508  AUTOBUSES MEXICO PUEBLA ESTRELLA ROJA SA002180002346330664  AMERICAN EXPRESS COMPANY MEXICO SA                                      AMP521016875   AEC810901298   17946D2E8BF260A6              
65501753550     05102021044074650291AB TRANSF SPEI                          +000000000195950000004266087409046171AMEXCO SE 9350021565                    21565   002180002346330664                        BANAMEX                                 014650655017535508  AUTOBUSES MEXICO PUEBLA ESTRELLA ROJA SA002180002346330664  AMERICAN EXPRESS COMPANY MEXICO SA                                      AMP521016875   AEC810901298   17946D2EE281ED8C              
65501753550     05102021044174650291AB TRANSF SPEI                          +000000004459470000004310682109046314AMEXCO SE 9350060670                    60670   002180002346330664                        BANAMEX                                 014650655017535508  AUTOBUSES MEXICO PUEBLA ESTRELLA ROJA SA002180002346330664  AMERICAN EXPRESS COMPANY MEXICO SA                                      AMP521016875   AEC810901298   17946D30F9EA67FE              
65501753550     05102021045274650291AB TRANSF SPEI                          +000000000799220000004318674309047416AMEXCO SE 9359908044                    9908044 002180002346330664                        BANAMEX                                 014650655017535508  AUTOBUSES MEXICO PUEBLA ESTRELLA ROJA SA002180002346330664  AMERICAN EXPRESS COMPANY MEXICO SA                                      AMP521016875   AEC810901298   17946DBFC8EEEF8C              
65501753550     05102021045474650291AB TRANSF SPEI                          +000000003492050000004353594809047667AMEXCO SE 9350021532                    21532   002180002346330664                        BANAMEX                                 014650655017535508  AUTOBUSES MEXICO PUEBLA ESTRELLA ROJA SA002180002346330664  AMERICAN EXPRESS COMPANY MEXICO SA                                      AMP521016875   AEC810901298   17946DC30F3EFCCF              
65501753550     05102021045674650291AB TRANSF SPEI                          +000000001352680000004367121609047808AMEXCO SE 9350058864                    58864   002180002346330664                        BANAMEX                                 014650655017535508  AUTOBUSES MEXICO PUEBLA ESTRELLA ROJA SA002180002346330664  AMERICAN EXPRESS COMPANY MEXICO SA                                      AMP521016875   AEC810901298   17946DC4B6BEFEC4              
65501753550     05102021050142300038DEP ELE PAG TC                          +000000004151000000004408631605256409AFIL.-005256409                                                                                                                                                                                                                                                                                                                                       
65501753550     05102021050142300038DEP ELE PAG TC                          +000000004946000000004458091605688445AFIL.-005688445                                                                                                                                                                                                                                                                                                                                       
65501753550     05102021050142300038DEP ELE PAG TC                          +000000001008040000004468172005688452AFIL.-005688452                                                                                                                                                                                                                                                                                                                                       
65501753550     05102021050142300038DEP ELE PAG TC                          +000000018151500000004649687007273370AFIL.-007273370                                                                                                                                                                                                                                                                                                                                       
65501753550     05102021050142300038DEP ELE PAG TC                          +000000039930000000005048987008139649AFIL.-008139649                                                                                                                                                                                                                                                                                                                                       
65501753550     05102021050142300038DEP ELE PAG TC                          +000000003124000000005080227008180414AFIL.-008180414                                                                                                                                                                                                                                                                                                                                       
65501753550     05102021050142300038DEP ELE PAG TC                          +000000002601000000005106237008376766AFIL.-008376766                                                                                                                                                                                                                                                                                                                                       
65501753550     05102021050142300038DEP ELE PAG TC                          +000000085216000000005958397009180159AFIL.-009180159                                                                                                                                                                                                                                                                                                                                       
65501753550     05102021050142300038DEP ELE PAG TC                          +000000082105000000006779447009181868AFIL.-009181868                                                                                                                                                                                                                                                                                                                                       
65501753550     05102021050142300038DEP ELE PAG TC                          +000000060535000000007384797009270083AFIL.-009270083                                                                                                                                                                                                                                                                                                                                       
65501753550     05102021050142300038DEP ELE PAG TC                          +000000001995000000007404747005256409AFIL.-005256409                                                                                                                                                                                                                                                                                                                                       
65501753550     05102021050142300038DEP ELE PAG TC                          +000000005687000000007461617005688445AFIL.-005688445                                                                                                                                                                                                                                                                                                                                       
65501753550     05102021050142300038DEP ELE PAG TC                          +000000008835490000007549971905688452AFIL.-005688452                                                                                                                                                                                                                                                                                                                                       
65501753550     05102021050142300038DEP ELE PAG TC                          +000000013207000000007682041907273370AFIL.-007273370                                                                                                                                                                                                                                                                                                                                       
65501753550     05102021050142300038DEP ELE PAG TC                          +000000052030000000008202341908139649AFIL.-008139649                                                                                                                                                                                                                                                                                                                                       
65501753550     05102021050142300038DEP ELE PAG TC                          +000000010694000000008309281908180414AFIL.-008180414                                                                                                                                                                                                                                                                                                                                       
65501753550     05102021050142300038DEP ELE PAG TC                          +000000003064000000008339921908376766AFIL.-008376766                                                                                                                                                                                                                                                                                                                                       
65501753550     05102021050142300038DEP ELE PAG TC                          +000000088244000000009222361909180159AFIL.-009180159                                                                                                                                                                                                                                                                                                                                       
65501753550     05102021050142300038DEP ELE PAG TC                          +000000140741000000010629771909181868AFIL.-009181868                                                                                                                                                                                                                                                                                                                                       
65501753550     05102021050142300038DEP ELE PAG TC                          +000000071759000000011347361909270083AFIL.-009270083                                                                                                                                                                                                                                                                                                                                       
65501753550     05102021050142300038DEP ELE PAG TC                          +000000013605010000011483412005256409AFIL.-005256409                                                                                                                                                                                                                                                                                                                                       
65501753550     05102021050142300038DEP ELE PAG TC                          +000000002650000000011509912005688445AFIL.-005688445                                                                                                                                                                                                                                                                                                                                       
65501753550     05102021050142300038DEP ELE PAG TC                          +000000007408920000011584001205688452AFIL.-005688452                                                                                                                                                                                                                                                                                                                                       
65501753550     05102021050142300038DEP ELE PAG TC                          +000000009746000000011681461207273370AFIL.-007273370                                                                                                                                                                                                                                                                                                                                       
65501753550     05102021050142300038DEP ELE PAG TC                          +000000048417000000012165631208139649AFIL.-008139649                                                                                                                                                                                                                                                                                                                                       
65501753550     05102021050142300038DEP ELE PAG TC                          +000000008359000000012249221208180414AFIL.-008180414                                                                                                                                                                                                                                                                                                                                       
65501753550     05102021050142300038DEP ELE PAG TC                          +000000001637000000012265591208376766AFIL.-008376766                                                                                                                                                                                                                                                                                                                                       
65501753550     05102021050142300038DEP ELE PAG TC                          +000000079102000000013056611209180159AFIL.-009180159                                                                                                                                                                                                                                                                                                                                       
65501753550     05102021050142300038DEP ELE PAG TC                          +000000105880000000014115411209181868AFIL.-009181868                                                                                                                                                                                                                                                                                                                                       
65501753550     05102021050142300038DEP ELE PAG TC                          +000000081136500000014926776209270083AFIL.-009270083                                                                                                                                                                                                                                                                                                                                       
65501753550     05102021050142302677DO CO DE PAGTC                          -000000000075960000014926016605256409AFIL.-005256409                                                                                                                                                                                                                                                                                                                                       
65501753550     05102021050142302571DOM IVA COMIS                           -000000000012150000014925895105256409AFIL.-005256409                                                                                                                                                                                                                                                                                                                                       
65501753550     05102021050142302677DO CO DE PAGTC                          -000000000091000000014924985105688445AFIL.-005688445                                                                                                                                                                                                                                                                                                                                       
65501753550     05102021050142302571DOM IVA COMIS                           -000000000014560000014924839505688445AFIL.-005688445                                                                                                                                                                                                                                                                                                                                       
65501753550     05102021050142302677DO CO DE PAGTC                          -000000000017140000014924668105688452AFIL.-005688452                                                                                                                                                                                                                                                                                                                                       
65501753550     05102021050142302571DOM IVA COMIS                           -000000000002730000014924640805688452AFIL.-005688452                                                                                                                                                                                                                                                                                                                                       
65501753550     05102021050142302677DO CO DE PAGTC                          -000000000319240000014921448407273370AFIL.-007273370                                                                                                                                                                                                                                                                                                                                       
65501753550     05102021050142302571DOM IVA COMIS                           -000000000051080000014920937607273370AFIL.-007273370                                                                                                                                                                                                                                                                                                                                       
65501753550     05102021050142302677DO CO DE PAGTC                          -000000000709950000014913838108139649AFIL.-008139649                                                                                                                                                                                                                                                                                                                                       
65501753550     05102021050142302571DOM IVA COMIS                           -000000000113630000014912701808139649AFIL.-008139649                                                                                                                                                                                                                                                                                                                                       
65501753550     05102021050142302677DO CO DE PAGTC                          -000000000054140000014912160408180414AFIL.-008180414                                                                                                                                                                                                                                                                                                                                       
65501753550     05102021050142302571DOM IVA COMIS                           -000000000008650000014912073908180414AFIL.-008180414                                                                                                                                                                                                                                                                                                                                       
65501753550     05102021050142302677DO CO DE PAGTC                          -000000000045450000014911619408376766AFIL.-008376766                                                                                                                                                                                                                                                                                                                                       
65501753550     05102021050142302571DOM IVA COMIS                           -000000000007230000014911547108376766AFIL.-008376766                                                                                                                                                                                                                                                                                                                                       
65501753550     05102021050142302677DO CO DE PAGTC                          -000000001496390000014896583209180159AFIL.-009180159                                                                                                                                                                                                                                                                                                                                       
65501753550     05102021050142302571DOM IVA COMIS                           -000000000239420000014894189009180159AFIL.-009180159                                                                                                                                                                                                                                                                                                                                       
65501753550     05102021050142302677DO CO DE PAGTC                          -000000001432680000014879862209181868AFIL.-009181868                                                                                                                                                                                                                                                                                                                                       
65501753550     05102021050142302571DOM IVA COMIS                           -000000000229230000014877569909181868AFIL.-009181868                                                                                                                                                                                                                                                                                                                                       
65501753550     05102021050142302677DO CO DE PAGTC                          -000000001077390000014866796009270083AFIL.-009270083                                                                                                                                                                                                                                                                                                                                       
65501753550     05102021050142302571DOM IVA COMIS                           -000000000172550000014865070509270083AFIL.-009270083                                                                                                                                                                                                                                                                                                                                       
65501753550     05102021050142302677DO CO DE PAGTC                          -000000000035800000014864712505256409AFIL.-005256409                                                                                                                                                                                                                                                                                                                                       
65501753550     05102021050142302571DOM IVA COMIS                           -000000000005730000014864655205256409AFIL.-005256409                                                                                                                                                                                                                                                                                                                                       
65501753550     05102021050142302677DO CO DE PAGTC                          -000000000098330000014863671905688445AFIL.-005688445                                                                                                                                                                                                                                                                                                                                       
65501753550     05102021050142302571DOM IVA COMIS                           -000000000015730000014863514605688445AFIL.-005688445                                                                                                                                                                                                                                                                                                                                       
65501753550     05102021050142302677DO CO DE PAGTC                          -000000000152080000014861993805688452AFIL.-005688452                                                                                                                                                                                                                                                                                                                                       
65501753550     05102021050142302571DOM IVA COMIS                           -000000000024320000014861750605688452AFIL.-005688452                                                                                                                                                                                                                                                                                                                                       
65501753550     05102021050142302677DO CO DE PAGTC                          -000000000226240000014859488207273370AFIL.-007273370                                                                                                                                                                                                                                                                                                                                       
65501753550     05102021050142302571DOM IVA COMIS                           -000000000036210000014859126107273370AFIL.-007273370                                                                                                                                                                                                                                                                                                                                       
65501753550     05102021050142302677DO CO DE PAGTC                          -000000000922990000014849896208139649AFIL.-008139649                                                                                                                                                                                                                                                                                                                                       
65501753550     05102021050142302571DOM IVA COMIS                           -000000000147740000014848418808139649AFIL.-008139649                                                                                                                                                                                                                                                                                                                                       
65501753550     05102021050142302677DO CO DE PAGTC                          -000000000184120000014846577608180414AFIL.-008180414                                                                                                                                                                                                                                                                                                                                       
65501753550     05102021050142302571DOM IVA COMIS                           -000000000029440000014846283208180414AFIL.-008180414                                                                                                                                                                                                                                                                                                                                       
65501753550     05102021050142302677DO CO DE PAGTC                          -000000000053800000014845745208376766AFIL.-008376766                                                                                                                                                                                                                                                                                                                                       
65501753550     05102021050142302571DOM IVA COMIS                           -000000000008590000014845659308376766AFIL.-008376766                                                                                                                                                                                                                                                                                                                                       
65501753550     05102021050142302677DO CO DE PAGTC                          -000000001540900000014830250309180159AFIL.-009180159                                                                                                                                                                                                                                                                                                                                       
65501753550     05102021050142302571DOM IVA COMIS                           -000000000246550000014827784809180159AFIL.-009180159                                                                                                                                                                                                                                                                                                                                       
65501753550     05102021050142302677DO CO DE PAGTC                          -000000002461650000014803168309181868AFIL.-009181868                                                                                                                                                                                                                                                                                                                                       
65501753550     05102021050142302571DOM IVA COMIS                           -000000000393890000014799229409181868AFIL.-009181868                                                                                                                                                                                                                                                                                                                                       
65501753550     05102021050142302677DO CO DE PAGTC                          -000000001297110000014786258309270083AFIL.-009270083                                                                                                                                                                                                                                                                                                                                       
65501753550     05102021050142302571DOM IVA COMIS                           -000000000207700000014784181309270083AFIL.-009270083                                                                                                                                                                                                                                                                                                                                       
65501753550     05102021050142302677DO CO DE PAGTC                          -000000000247800000014781703305256409AFIL.-005256409                                                                                                                                                                                                                                                                                                                                       
65501753550     05102021050142302571DOM IVA COMIS                           -000000000039650000014781306805256409AFIL.-005256409                                                                                                                                                                                                                                                                                                                                       
65501753550     05102021050142302677DO CO DE PAGTC                          -000000000047550000014780831305688445AFIL.-005688445                                                                                                                                                                                                                                                                                                                                       
65501753550     05102021050142302571DOM IVA COMIS                           -000000000007590000014780755405688445AFIL.-005688445                                                                                                                                                                                                                                                                                                                                       
65501753550     05102021050142302677DO CO DE PAGTC                          -000000000128750000014779467905688452AFIL.-005688452                                                                                                                                                                                                                                                                                                                                       
65501753550     05102021050142302571DOM IVA COMIS                           -000000000020610000014779261805688452AFIL.-005688452                                                                                                                                                                                                                                                                                                                                       
65501753550     05102021050142302677DO CO DE PAGTC                          -000000000171950000014777542307273370AFIL.-007273370                                                                                                                                                                                                                                                                                                                                       
65501753550     05102021050142302571DOM IVA COMIS                           -000000000027500000014777267307273370AFIL.-007273370                                                                                                                                                                                                                                                                                                                                       
65501753550     05102021050142302677DO CO DE PAGTC                          -000000000855470000014768712608139649AFIL.-008139649                                                                                                                                                                                                                                                                                                                                       
65501753550     05102021050142302571DOM IVA COMIS                           -000000000136920000014767343408139649AFIL.-008139649                                                                                                                                                                                                                                                                                                                                       
65501753550     05102021050142302677DO CO DE PAGTC                          -000000000147730000014765866108180414AFIL.-008180414                                                                                                                                                                                                                                                                                                                                       
65501753550     05102021050142302571DOM IVA COMIS                           -000000000023630000014765629808180414AFIL.-008180414                                                                                                                                                                                                                                                                                                                                       
65501753550     05102021050142302677DO CO DE PAGTC                          -000000000028100000014765348808376766AFIL.-008376766                                                                                                                                                                                                                                                                                                                                       
65501753550     05102021050142302571DOM IVA COMIS                           -000000000004480000014765304008376766AFIL.-008376766                                                                                                                                                                                                                                                                                                                                       
65501753550     05102021050142302677DO CO DE PAGTC                          -000000001381300000014751491009180159AFIL.-009180159                                                                                                                                                                                                                                                                                                                                       
65501753550     05102021050142302571DOM IVA COMIS                           -000000000221010000014749280909180159AFIL.-009180159                                                                                                                                                                                                                                                                                                                                       
65501753550     05102021050142302677DO CO DE PAGTC                          -000000001857230000014730708609181868AFIL.-009181868                                                                                                                                                                                                                                                                                                                                       
65501753550     05102021050142302571DOM IVA COMIS                           -000000000297170000014727736909181868AFIL.-009181868                                                                                                                                                                                                                                                                                                                                       
65501753550     05102021050142302677DO CO DE PAGTC                          -000000001451390000014713223009270083AFIL.-009270083                                                                                                                                                                                                                                                                                                                                       
65501753550     05102021050142302571DOM IVA COMIS                           -000000000232390000014710899109270083AFIL.-009270083                                                                                                                                                                                                                                                                                                                                       
65501753550     05102021081571370000DEP EN EFECTIV                          +00000027440200000001745491910000000005052021CAPUT2                                                                                                                                                                                                                                                                                                                                        
65501753550     05102021081571370000DEP EN EFECTIV                          +00000000016400000001745655910000000005052021CAPUV8                                                                                                                                                                                                                                                                                                                                        
65501753550     05102021081571370000DEP EN EFECTIV                          +00000020130000000001946955910000000004052021CAPUT3                                                                                                                                                                                                                                                                                                                                        
65501753550     05102021081571370000DEP EN EFECTIV                          +00000000000600000001946961910000000004052021CAPUV9                                                                                                                                                                                                                                                                                                                                        
65501753550     05102021081571370000DEP EN EFECTIV                          +00000003087000000001977831910000000005052021CAPUM8                                                                                                                                                                                                                                                                                                                                        
65501753550     05102021081571370000DEP EN EFECTIV                          +00000002830000000002006131910000000004052021CAPUM8                                                                                                                                                                                                                                                                                                                                        
65501753550     05102021081571370000DEP EN EFECTIV                          +00000000548300000002011614910000000004052021HUEJOT4                                                                                                                                                                                                                                                                                                                                       
65501753550     05102021081571370000DEP EN EFECTIV                          +00000000363100000002015245910000000006052021HUEJOT4                                                                                                                                                                                                                                                                                                                                       
65501753550     05102021081571370000DEP EN EFECTIV                          +00000000517400000002020419910000000005052021HUEJOT1                                                                                                                                                                                                                                                                                                                                       
65501753550     05102021081571370000DEP EN EFECTIV                          +00000000038800000002020807910000000030042021CHOLT7                                                                                                                                                                                                                                                                                                                                        
65501753550     05102021081571370000DEP EN EFECTIV                          +00000000035300000002021160910000000006052021CHOLT6                                                                                                                                                                                                                                                                                                                                        
65501753550     05102021081571370000DEP EN EFECTIV                          +00000000005000000002021210910000000001052021CHOLT1                                                                                                                                                                                                                                                                                                                                        
65501753550     05102021081571370000DEP EN EFECTIV                          +00000000097200000002022182910000000002052021CHOLT0                                                                                                                                                                                                                                                                                                                                        
65501753550     05102021081571370000DEP EN EFECTIV                          +00000000035800000002022540910000000003052021CHOLT9                                                                                                                                                                                                                                                                                                                                        
65501753550     05102021081571370000DEP EN EFECTIV                          +00000000067600000002023216910000000004052021CHOLT8                                                                                                                                                                                                                                                                                                                                        
65501753550     05102021110268780000DEP EN EFECTIV                          +00000000033600000002023552910000000006052021TAPOV8                                                                                                                                                                                                                                                                                                                                        
65501753550     05102021110268780000DEP EN EFECTIV                          +00000000007600000002023628910000000006052021TAPOV8                                                                                                                                                                                                                                                                                                                                        
65501753550     05102021110268780000DEP EN EFECTIV                          +00000001300000000002036628910000000006052021TAPOM8                                                                                                                                                                                                                                                                                                                                        
65501753550     05102021110268780000DEP EN EFECTIV                          +00000015050900000002187137910000000006052021TAPOT7                                                                                                                                                                                                                                                                                                                                        
65501753550     05102021110268780000DEP EN EFECTIV                          +00000000002000000002187157910000000007052021TAPOV4                                                                                                                                                                                                                                                                                                                                        
65501753550     05102021110268780000DEP EN EFECTIV                          +00000000019200000002187349910000000007052021TAPOV4                                                                                                                                                                                                                                                                                                                                        
65501753550     05102021110268780000DEP EN EFECTIV                          +00000028721600000002474565910000000007052021TAPOT3                                                                                                                                                                                                                                                                                                                                        
65501753550     05102021110268780000DEP EN EFECTIV                          +00000002000000000002494565910000000007052021TAPOM4                                                                                                                                                                                                                                                                                                                                        
65501753550     05102021110268780000DEP EN EFECTIV                          +00000006719150000002561757410000000005052021CART9                                                                                                                                                                                                                                                                                                                                         
65501753550     05102021110268780000DEP EN EFECTIV                          +00000000500000000002566757410000000006052021CARM8                                                                                                                                                                                                                                                                                                                                         
65501753550     05102021110268780000DEP EN EFECTIV                          +00000000800000000002574757410000000005052021CARM1                                                                                                                                                                                                                                                                                                                                         
65501753550     05102021110268780000DEP EN EFECTIV                          +00000000000500000002574762410000000005052021CARV1                                                                                                                                                                                                                                                                                                                                         
65501753550     05102021110268780000DEP EN EFECTIV                          +00000000011900000002574881410000000005052021CARV3                                                                                                                                                                                                                                                                                                                                         
65501753550     05102021110268780000DEP EN EFECTIV                          +00000001400000000002588881410000000001052021CARM3                                                                                                                                                                                                                                                                                                                                         
65501753550     05102021110268780000DEP EN EFECTIV                          +00000006352650000002652407910000000006052021CART6                                                                                                                                                                                                                                                                                                                                         
65501753550     05102021110268780000DEP EN EFECTIV                          +00000000000300000002652410910000000006052021CARV8                                                                                                                                                                                                                                                                                                                                         
65501753550     05102021110268780000DEP EN EFECTIV                          +00000010449300000002756903910000000007052021CART2                                                                                                                                                                                                                                                                                                                                         
65501753550     05102021122477280000DEP EN EFECTIV                          +000000000400000000027573039107285372PENSION4PTEJLNB                                                                                                                                                                                                                                                                                                                                       
65501753550     05102021130309810681CGO TRANS ELEC                          -00000230000000000000457303910007L554TRASPASO 3550 A 1527                                                                                                                                                                                                                                                                                                                                  
65501753550     05102021130309810681CGO TRANS ELEC                          -00000000750000000000449803910404G990MORRALLA PSD                                                                                                                                                                                                                                                                                                                                          
65501753550     05102021130709810790PAGO TRAN SPEI                          -00000020880000000000241003910957171914250                                                                          BAJIO                                   030650900015954548  OPERADORA MOSRO SC                      00140114065501753550AUTOBUSES MEXICO PUEBLA ESTRELLA ROJA SA                                               AMP521016875   2021051040014 BET0000495717190
65501753550     05102021141871370000DEP EN EFECTIV                          +00000000069600000000241699910000000006052021CAPSETEXT                                                                                                                                                                                                                                                                                                                                     
65501753550     05102021175574650291AB TRANSF SPEI                          +000000185038040000004267379501125435Transferencias PayU4300121              4300121 012180001908758138                        BBVA BANCOMER                           014650655017535508  AUTOBUSES MEXICO PUEBLA ESTRELLA ROJA SA012180001908758138  ONLINE LATIN AMERICA N PAYMENTS MEXICO S                                AMP521016875   OLA1012082G0   002601002105100000597086      
