65502328285     05042021054671370000DEP EN EFECTIV                          +00000001227000000000171339440000000029042021HUEJOT4                         
65502328285     05042021054671370000DEP EN EFECTIV                          +00000001759500000000188934440000000028042021HUEJOT6                         
65502328285     05042021054671370000DEP EN EFECTIV                          +00000001254100000000201475440000000027042021HUEJOT8                         
65502328285     05042021054671370000DEP EN EFECTIV                          +00000000001400000000201489440000000029042021HUEJOV4                         
65502328285     05042021054671370000DEP EN EFECTIV                          +00000000500000000000206489440000000027042021HUEJM6                          
65502328285     05042021054671370000DEP EN EFECTIV                          +00000000730700000000213796440000000028042021CHOLT1                          
65502328285     05042021054671370000DEP EN EFECTIV                          +00000000324800000000217044440000000029042021CHOLT60                         
65502328285     05042021054671370000DEP EN EFECTIV                          +00000000559500000000222639440000000023042021CHOLT6                          
65502328285     05042021054671370000DEP EN EFECTIV                          +00000000822800000000230867440000000024042021CHOLT5                          
65502328285     05042021054671370000DEP EN EFECTIV                          +00000000745300000000238320440000000025042021CHOLT4                          
65502328285     05042021054671370000DEP EN EFECTIV                          +00000000200000000000240320440000000025042021CHOLM0                          
65502328285     05042021054671370000DEP EN EFECTIV                          +00000000800500000000248325440000000026042021CHOLT3                          
65502328285     05042021054671370000DEP EN EFECTIV                          +00000000000200000000248327440000000026042021CHOLV9                          
65502328285     05042021054671370000DEP EN EFECTIV                          +00000000310500000000251432440000000027042021CHOLT2                          
65502328285     05042021054671370000DEP EN EFECTIV                          +00000000000700000000251439440000000027042021CHOLV7                          
65502328285     05042021054671370000DEP EN EFECTIV                          +00000003084400000000282283440000000029042021CAPURT                          
65502328285     05042021054671370000DEP EN EFECTIV                          +00000004404900000000326332440000000030042021CAPURT                          
65502328285     05042021054671370000DEP EN EFECTIV                          +00000002986700000000356199440000000028042021CAPURT                          
65502328285     05042021060201140247LIQ A CH IN CR                          +000001355048700000017112481400000755                                        
65502328285     05042021101868780000DEP EN EFECTIV                          +00000002505300000001736301140000000030042021TAPOT8                          
65502328285     05042021101868780000DEP EN EFECTIV                          +00000001489200000001751193140000000029042021TAPOT4                          
65502328285     05042021133509810681CGO TRANS ELEC                          -000000029345000000017218481408810477012581909037692105100000293452          
65502328285     05042021133509810790PAGO TRAN SPEI                          -000000011864660000017099834802901735NOM PREST FOND AHORRO        
65502328285     05042021133509810790PAGO TRAN SPEI                          -000000009594000000017003894802901734NOM FOND AHORRO              
65502328285     05042021134409810790PAGO TRAN SPEI                          -0000009709510200000072943846029149003279                         
65502328285     05042021134409810790PAGO TRAN SPEI                          -0000000279697000000070146876029149083287                         
65502328285     05042021134409810790PAGO TRAN SPEI                          -00000000921967000000692249090291491408000002003281432            
65502328285     05042021134409810790PAGO TRAN SPEI                          -0000000086033100000068364578029149193281                         
65502328285     05042021134409810790PAGO TRAN SPEI                          -0000000051828800000067846290029149223288                         
65502328285     05042021134409810790PAGO TRAN SPEI                          -0000000021776300000067628527029149253286                         
65502328285     05042021134409810790PAGO TRAN SPEI                          -0000000020532000000067423207029149323283                         
65502328285     05042021134409810790PAGO TRAN SPEI                          -0000000003364000000067389567029149363280                         
65502328285     05042021134609810681CGO TRANS ELEC                          -000000119161960000005547337107145370354                                     
65502328285     05042021134609810180AB TRANS ELECT                          +000000190735000000007454687107155373VTA CRUZADA ERTTP                       
65502328285     05042021134609810180AB TRANS ELECT                          +000000008947000000007544157107155374VTA CRUZADA CTTTP                       
65502328285     05042021134809810681CGO TRANS ELEC                          -0000000798218000000067459391086134273284                                    
65502328285     05042021134809810681CGO TRANS ELEC                          -00000000173980000000672854110861342806210000007010054363                    
65502328285     05042021144771370000DEP EN EFECTIV                          +00000003595200000000708806110000000027042021CAPURT                          
65502328285     05042021172225170742CGO AP INV CRE                          -000000705000000000000038061102517213066502328285                            
