65501753550     05072021045974650291AB TRANSF SPEI                          +000000000340450000016231140706147590AMEXCO SE 9356614447                    6614447 002180002346330664                        BANAMEX                                 014650655017535508  AUTOBUSES MEXICO PUEBLA ESTRELLA ROJA SA002180002346330664  AMERICAN EXPRESS COMPANY MEXICO SA                                      AMP521016875   AEC810901298   17941AC3935BD4ED              
65501753550     05072021045974650291AB TRANSF SPEI                          +000000000313400000016234274706147663AMEXCO SE 9350021565                    21565   002180002346330664                        BANAMEX                                 014650655017535508  AUTOBUSES MEXICO PUEBLA ESTRELLA ROJA SA002180002346330664  AMERICAN EXPRESS COMPANY MEXICO SA                                      AMP521016875   AEC810901298   17941AC58B3B09F6              
65501753550     05072021050174650291AB TRANSF SPEI                          +000000003202780000016266302506147978AMEXCO SE 9350060670                    60670   002180002346330664                        BANAMEX                                 014650655017535508  AUTOBUSES MEXICO PUEBLA ESTRELLA ROJA SA002180002346330664  AMERICAN EXPRESS COMPANY MEXICO SA                                      AMP521016875   AEC810901298   17941AC7FFFB7182              
65501753550     05072021051474650291AB TRANSF SPEI                          +000000002222230000016288524806159723AMEXCO SE 9350021532                    21532   002180002346330664                        BANAMEX                                 014650655017535508  AUTOBUSES MEXICO PUEBLA ESTRELLA ROJA SA002180002346330664  AMERICAN EXPRESS COMPANY MEXICO SA                                      AMP521016875   AEC810901298   17941B56AE9D3435              
65501753550     05072021051974650291AB TRANSF SPEI                          +000000000638480000016294909606160452AMEXCO SE 9359908044                    9908044 002180002346330664                        BANAMEX                                 014650655017535508  AUTOBUSES MEXICO PUEBLA ESTRELLA ROJA SA002180002346330664  AMERICAN EXPRESS COMPANY MEXICO SA                                      AMP521016875   AEC810901298   17941B5F0F4CDE4A              
65501753550     05072021050142300038DEP ELE PAG TC                          +000000009871000000016393619605256409AFIL.-005256409                                                                                                                                                                                                                                                                                                                                       
65501753550     05072021050142300038DEP ELE PAG TC                          +000000003246000000016426079605688445AFIL.-005688445                                                                                                                                                                                                                                                                                                                                       
65501753550     05072021050142300038DEP ELE PAG TC                          +000000010536620000016531445805688452AFIL.-005688452                                                                                                                                                                                                                                                                                                                                       
65501753550     05072021050142300038DEP ELE PAG TC                          +000000011710000000016648545807273370AFIL.-007273370                                                                                                                                                                                                                                                                                                                                       
65501753550     05072021050142300038DEP ELE PAG TC                          +000000035846000000017007005808139649AFIL.-008139649                                                                                                                                                                                                                                                                                                                                       
65501753550     05072021050142300038DEP ELE PAG TC                          +000000005232000000017059325808180414AFIL.-008180414                                                                                                                                                                                                                                                                                                                                       
65501753550     05072021050142300038DEP ELE PAG TC                          +000000001844000000017077765808376766AFIL.-008376766                                                                                                                                                                                                                                                                                                                                       
65501753550     05072021050142300038DEP ELE PAG TC                          +000000055977000000017637535809180159AFIL.-009180159                                                                                                                                                                                                                                                                                                                                       
65501753550     05072021050142300038DEP ELE PAG TC                          +000000050147000000018139005809181868AFIL.-009181868                                                                                                                                                                                                                                                                                                                                       
65501753550     05072021050142300038DEP ELE PAG TC                          +000000063661000000018775615809270083AFIL.-009270083                                                                                                                                                                                                                                                                                                                                       
65501753550     05072021050142300038DEP ELE PAG TC                          +000000000360000000018779215809627191AFIL.-009627191                                                                                                                                                                                                                                                                                                                                       
65501753550     05072021050142302677DO CO DE PAGTC                          -000000000177470000018777441105256409AFIL.-005256409                                                                                                                                                                                                                                                                                                                                       
65501753550     05072021050142302571DOM IVA COMIS                           -000000000028390000018777157205256409AFIL.-005256409                                                                                                                                                                                                                                                                                                                                       
65501753550     05072021050142302677DO CO DE PAGTC                          -000000000057210000018776585105688445AFIL.-005688445                                                                                                                                                                                                                                                                                                                                       
65501753550     05072021050142302571DOM IVA COMIS                           -000000000009170000018776493405688445AFIL.-005688445                                                                                                                                                                                                                                                                                                                                       
65501753550     05072021050142302677DO CO DE PAGTC                          -000000000183560000018774657805688452AFIL.-005688452                                                                                                                                                                                                                                                                                                                                       
65501753550     05072021050142302571DOM IVA COMIS                           -000000000029390000018774363905688452AFIL.-005688452                                                                                                                                                                                                                                                                                                                                       
65501753550     05072021050142302677DO CO DE PAGTC                          -000000000206430000018772299607273370AFIL.-007273370                                                                                                                                                                                                                                                                                                                                       
65501753550     05072021050142302571DOM IVA COMIS                           -000000000033020000018771969407273370AFIL.-007273370                                                                                                                                                                                                                                                                                                                                       
65501753550     05072021050142302677DO CO DE PAGTC                          -000000000639270000018765576708139649AFIL.-008139649                                                                                                                                                                                                                                                                                                                                       
65501753550     05072021050142302571DOM IVA COMIS                           -000000000102310000018764553608139649AFIL.-008139649                                                                                                                                                                                                                                                                                                                                       
65501753550     05072021050142302677DO CO DE PAGTC                          -000000000091250000018763641108180414AFIL.-008180414                                                                                                                                                                                                                                                                                                                                       
65501753550     05072021050142302571DOM IVA COMIS                           -000000000014580000018763495308180414AFIL.-008180414                                                                                                                                                                                                                                                                                                                                       
65501753550     05072021050142302677DO CO DE PAGTC                          -000000000031510000018763180208376766AFIL.-008376766                                                                                                                                                                                                                                                                                                                                       
65501753550     05072021050142302571DOM IVA COMIS                           -000000000005020000018763130008376766AFIL.-008376766                                                                                                                                                                                                                                                                                                                                       
65501753550     05072021050142302677DO CO DE PAGTC                          -000000000976920000018753360809180159AFIL.-009180159                                                                                                                                                                                                                                                                                                                                       
65501753550     05072021050142302571DOM IVA COMIS                           -000000000156300000018751797809180159AFIL.-009180159                                                                                                                                                                                                                                                                                                                                       
65501753550     05072021050142302677DO CO DE PAGTC                          -000000000877260000018743025209181868AFIL.-009181868                                                                                                                                                                                                                                                                                                                                       
65501753550     05072021050142302571DOM IVA COMIS                           -000000000140370000018741621509181868AFIL.-009181868                                                                                                                                                                                                                                                                                                                                       
65501753550     05072021050142302677DO CO DE PAGTC                          -000000001141320000018730208309270083AFIL.-009270083                                                                                                                                                                                                                                                                                                                                       
65501753550     05072021050142302571DOM IVA COMIS                           -000000000182730000018728381009270083AFIL.-009270083                                                                                                                                                                                                                                                                                                                                       
65501753550     05072021050142302677DO CO DE PAGTC                          -000000000006120000018728319809627191AFIL.-009627191                                                                                                                                                                                                                                                                                                                                       
65501753550     05072021050142302571DOM IVA COMIS                           -000000000000980000018728310009627191AFIL.-009627191                                                                                                                                                                                                                                                                                                                                       
65501753550     05072021111668780000DEP EN EFECTIV                          +00000008022700000001953058000000000030042021AEROT3                                                                                                                                                                                                                                                                                                                                        
65501753550     05072021111668780000DEP EN EFECTIV                          +00000000600000000001959058000000000029042021AEROM0                                                                                                                                                                                                                                                                                                                                        
65501753550     05072021111668780000DEP EN EFECTIV                          +00000000020100000001959259000000000029042021AEROV0                                                                                                                                                                                                                                                                                                                                        
65501753550     05072021111668780000DEP EN EFECTIV                          +00000007162500000002030884000000000029042021AEROT9                                                                                                                                                                                                                                                                                                                                        
65501753550     05072021111668780000DEP EN EFECTIV                          +00000007691400000002107798000000000001052021AEROT8                                                                                                                                                                                                                                                                                                                                        
65501753550     05072021111668780000DEP EN EFECTIV                          +00000000016900000002107967000000000001052021AEROM9                                                                                                                                                                                                                                                                                                                                        
65501753550     05072021111668780000DEP EN EFECTIV                          +00000005886600000002166833000000000002052021AEROT5                                                                                                                                                                                                                                                                                                                                        
65501753550     05072021111668780000DEP EN EFECTIV                          +00000006347100000002230304000000000028042021AEROT2                                                                                                                                                                                                                                                                                                                                        
65501753550     05072021111668780000DEP EN EFECTIV                          +00000005523000000002285534000000000027042021AEROT5                                                                                                                                                                                                                                                                                                                                        
65501753550     05072021111668780000DEP EN EFECTIV                          +00000006249600000002348030000000000026042021AEROT9                                                                                                                                                                                                                                                                                                                                        
65501753550     05072021111668780000DEP EN EFECTIV                          +00000000800000000002356030000000000026042021AEROM0                                                                                                                                                                                                                                                                                                                                        
65501753550     05072021111668780000DEP EN EFECTIV                          +00000000000200000002356032000000000003052021TAPOV8                                                                                                                                                                                                                                                                                                                                        
65501753550     05072021111668780000DEP EN EFECTIV                          +00000002500000000002381032000000000003052021TAPOM8                                                                                                                                                                                                                                                                                                                                        
65501753550     05072021111668780000DEP EN EFECTIV                          +00000001850000000002399532000000000005052021TAPOM1                                                                                                                                                                                                                                                                                                                                        
65501753550     05072021111668780000DEP EN EFECTIV                          +00000000052800000002400060000000000004052021TAPOV4                                                                                                                                                                                                                                                                                                                                        
65501753550     05072021111668780000DEP EN EFECTIV                          +00000000014400000002400204000000000003052021TAPOV8                                                                                                                                                                                                                                                                                                                                        
65501753550     05072021111668780000DEP EN EFECTIV                          +00000000005400000002400258000000000004052021TAPOV4                                                                                                                                                                                                                                                                                                                                        
65501753550     05072021111668780000DEP EN EFECTIV                          +00000000003700000002400295000000000005052021TAPOV1                                                                                                                                                                                                                                                                                                                                        
65501753550     05072021111668780000DEP EN EFECTIV                          +00000018109900000002581394000000000003052021TAPOT7                                                                                                                                                                                                                                                                                                                                        
65501753550     05072021111668780000DEP EN EFECTIV                          +00000015962050000002741014500000000004052021TAPOT3                                                                                                                                                                                                                                                                                                                                        
65501753550     05072021111668780000DEP EN EFECTIV                          +00000013786150000002878876000000000005052021TAPOT0                                                                                                                                                                                                                                                                                                                                        
65501753550     05072021111668780000DEP EN EFECTIV                          +00000002550000000002904376000000000004052021TAPOM4                                                                                                                                                                                                                                                                                                                                        
65501753550     05072021122974650291AB TRANSF SPEI                          +000000027803000000029321790006742437VENTAS 16 AL 30 ABRILESTRELLA ROJA      70521   002180700666034560                        BANAMEX                                 014650655017535508  AUTOBUSES MEXICO PUEBLA ESTRELLA ROJA SA002180700666034560  RESERBUS S DE RL DE CV                                                  AMP521016875   RES130904JH8   085903678430312711            
65501753550     05072021131609810790PAGO TRAN SPEI                          -000002900000000000000321790006855858TRASPASO 3550 A 9649 REF 0000000                                                          BANAMEX                                 002650700705396495  AMPERSA BANAMEX                         00140114065501753550AUTOBUSES MEXICO PUEBLA ESTRELLA ROJA SA                                               AMP521016875   2021050740014 BET0000468558580
65501753550     05072021132109810790PAGO TRAN SPEI                          -00000000100000000000031179000687115214249 FINIQUITO REF 0000000                                                               HSBC                                    021650065134926327  JONATHAN SANCHEZ LOPEZ                  00140114065501753550AUTOBUSES MEXICO PUEBLA ESTRELLA ROJA SA                                               AMP521016875   2021050740014 BET0000468711520
65501753550     05072021134871370000DEP EN EFECTIV                          +00000000317300000000034352000000000004052021CAPSETEXT5                                                                                                                                                                                                                                                                                                                                    
65501753550     05072021134871370000DEP EN EFECTIV                          +00000000144200000000035794000000000005052021CAPSETEXT                                                                                                                                                                                                                                                                                                                                     
65501753550     05072021134871370000DEP EN EFECTIV                          +00000000188000000000037674000000000004052021ESTAP0                                                                                                                                                                                                                                                                                                                                        
65501753550     05072021134871370000DEP EN EFECTIV                          +00000000326000000000040934000000000005052021ESTAP9                                                                                                                                                                                                                                                                                                                                        
65501753550     05072021134871370000DEP EN EFECTIV                          +00000000166000000000042594000000000006052021CAPUM7                                                                                                                                                                                                                                                                                                                                        
65501753550     05072021140509810180AB TRANS ELECT                          +000000079113570000001217075709025461RENTA DE AUTOBUSES 1 AL 31 MAR 21                                                                                                                                                                                                                                                                                                                     
65501753550     05072021140509810180AB TRANS ELECT                          +000000079113570000002008211409025462RENTA DE AUTOBUSES 1 AL 30 ABR 21                                                                                                                                                                                                                                                                                                                     
65501753550     05072021151801140000DEP EN EFECTIV                          +000000001503000000002023241401148515RECIBOSCAJACTE3                                                                                                                                                                                                                                                                                                                                       
65501753550     05072021155174650291AB TRANSF SPEI                          +000000160364550000003626886907240292Transferencias PayU4298120              4298120 012180001908758138                        BBVA BANCOMER                           014650655017535508  AUTOBUSES MEXICO PUEBLA ESTRELLA ROJA SA012180001908758138  ONLINE LATIN AMERICA N PAYMENTS MEXICO S                                AMP521016875   OLA1012082G0   002601002105070000441184      
65501753550     05072021155174650291AB TRANSF SPEI                          +000000070153910000004328426007240293Transferencias PayU4298198              4298198 012180001908758138                        BBVA BANCOMER                           014650655017535508  AUTOBUSES MEXICO PUEBLA ESTRELLA ROJA SA012180001908758138  ONLINE LATIN AMERICA N PAYMENTS MEXICO S                                AMP521016875   OLA1012082G0   002601002105070000441192      
