65502381527     05102021114874650291AB TRANSF SPEI                          +000000013836480000000197241308005506PAGO PAQUETERIA                         0236350 012650001915240033                        BBVA BANCOMER                           014650655023815270  AUTOBUSES MEXICO PUEBLA ESTRELLA ROJA SA012650001915240033  TIEMPO Y ESTILO SA D E CV                                               AMP521016875   TES120615LQ8   BNET01002105100025995297      
65502381527     05102021050001140247LIQ A CH IN CR                          +000011516241030000115359651600000771                                                                                                                                                                                                                                                                                                                                                      
65502381527     05102021081571370000DEP EN EFECTIV                          +00000000079126000011536756420000000030042021TEHT30                                                                                                                                                                                                                                                                                                                                        
65502381527     05102021081571370000DEP EN EFECTIV                          +00000000328164000011540038060000000003052021PEDT3                                                                                                                                                                                                                                                                                                                                         
65502381527     05102021081571370000DEP EN EFECTIV                          +00000001272836000011552766420000000003052021CPUT0                                                                                                                                                                                                                                                                                                                                         
65502381527     05102021081571370000DEP EN EFECTIV                          +00000000122304000011553989460000000003052021PSDT3                                                                                                                                                                                                                                                                                                                                         
65502381527     05102021081571370000DEP EN EFECTIV                          +00000001062676000011564616220000000004052021CPUT3                                                                                                                                                                                                                                                                                                                                         
65502381527     05102021081571370000DEP EN EFECTIV                          +00000000200332000011566619540000000004052021PEDT4                                                                                                                                                                                                                                                                                                                                         
65502381527     05102021081571370000DEP EN EFECTIV                          +00000000232384000011568943380000000003052021TETH3                                                                                                                                                                                                                                                                                                                                         
65502381527     05102021081571370000DEP EN EFECTIV                          +00000000147668000011570420060000000005052021PEDT5                                                                                                                                                                                                                                                                                                                                         
65502381527     05102021081571370000DEP EN EFECTIV                          +00000000895021000011579370270000000005052021CPUT4                                                                                                                                                                                                                                                                                                                                         
65502381527     05102021081571370000DEP EN EFECTIV                          +00000000077758000011580147850000000004052021PSDT4                                                                                                                                                                                                                                                                                                                                         
65502381527     05102021081571370000DEP EN EFECTIV                          +00000000032480000011580472650000000004052021TEHT4                                                                                                                                                                                                                                                                                                                                         
65502381527     05102021081571370000DEP EN EFECTIV                          +00000002106060000011601533250000000006052021CPUT5                                                                                                                                                                                                                                                                                                                                         
65502381527     05102021081571370000DEP EN EFECTIV                          +00000000089798000011602431230000000006052021TEHT6                                                                                                                                                                                                                                                                                                                                         
65502381527     05102021081571370000DEP EN EFECTIV                          +00000000088856000011603319790000000006052021PEDT6                                                                                                                                                                                                                                                                                                                                         
65502381527     05102021104074650291AB TRANSF SPEI                          +000000001147760000116044675509289944100521 AUTOBUSES MEXICO                 100521  002650039366937087                        BANAMEX                                 014650655023815270  AUTOBUSES MEXICO PUEBLA ESTRELLA ROJA SA002650039366937087  BUREAU VERITAS CONSUMER PRODUCTS S                                      AMP521016875   BVC9802269D2   085904767684313017            
65502381527     05102021110268780000DEP EN EFECTIV                          +00000000240482000011606872370000000007052021IZTT5                                                                                                                                                                                                                                                                                                                                         
65502381527     05102021110268780000DEP EN EFECTIV                          +00000000160180000011608474170000000006052021IZTT4                                                                                                                                                                                                                                                                                                                                         
65502381527     05102021110268780000DEP EN EFECTIV                          +00000000152076000011609994930000000005052021IZTT3                                                                                                                                                                                                                                                                                                                                         
65502381527     05102021110268780000DEP EN EFECTIV                          +00000000077140000011610766330000000029042021CDNT                                                                                                                                                                                                                                                                                                                                          
65502381527     05102021110268780000DEP EN EFECTIV                          +00000001609599000011626862320000000005052021TPOT                                                                                                                                                                                                                                                                                                                                          
65502381527     05102021110268780000DEP EN EFECTIV                          +00000000167968000011628542000000000004052021CDST9                                                                                                                                                                                                                                                                                                                                         
65502381527     05102021110268780000DEP EN EFECTIV                          +00000000249748000011631039480000000004052021CDNT                                                                                                                                                                                                                                                                                                                                          
65502381527     05102021110268780000DEP EN EFECTIV                          +00000000118900000011632228480000000005052021CDST6                                                                                                                                                                                                                                                                                                                                         
65502381527     05102021110268780000DEP EN EFECTIV                          +00000002010949000011652337970000000005052021TPOT                                                                                                                                                                                                                                                                                                                                          
65502381527     05102021110268780000DEP EN EFECTIV                          +00000000086536000011653203330000000005052021CDNT                                                                                                                                                                                                                                                                                                                                          
65502381527     05102021110268780000DEP EN EFECTIV                          +00000010410200000011757305330000000006052021TPOT                                                                                                                                                                                                                                                                                                                                          
65502381527     05102021130309810180AB TRANS ELECT                          +00000230000000000014057305330007L554TRASPASO 3550 A 1527                                                                                                                                                                                                                                                                                                                                  
65502381527     05102021140174650291AB TRANSF SPEI                          +000000000318000000140576233309684373PAQUETERIA                              1005210 012180015329563464                        BBVA BANCOMER                           014650655023815270  AUTOBUSES MEXICO PUEBLA ESTRELLA ROJA SA012180015329563464  BRENDA PEREZ GARCIA                                                     AMP521016875   PEGB940410MP   MBAN01002105100068550318      
65502381527     05102021175225170742CGO AP INV CRE                          -000014050000000000000076233302517068066502381527                                                                                                                                                                                                                                                                                                                                          
