65502381527     05032021042305600805COM MANEJO CT                           -000000000200000000000182887800000000                   ABR 2021             
65502381527     05032021042305600571IVA COMISION                            -000000000032000000000182567800000000                   ABR 2021             
65502381527     05032021060701140247LIQ A CH IN CR                          +000015576678590000155949353700000722                                        
65502381527     05032021120268780000DEP EN EFECTIV                          +00000000146740000015596402770000000030042021IZTT5                           
65502381527     05032021120268780000DEP EN EFECTIV                          +00000000180612000015598208890000000029042021IZTT4                           
65502381527     05032021120268780000DEP EN EFECTIV                          +00000000127368000015599482570000000028042021IZTT3                           
65502381527     05032021120268780000DEP EN EFECTIV                          +00000000034568000015599828250000000023042021CDNT                            
65502381527     05032021120268780000DEP EN EFECTIV                          +00000001066953000015610497780000000027042021TPOT                            
65502381527     05032021120268780000DEP EN EFECTIV                          +00000001922171000015629719490000000028042021TPOT                            
65502381527     05032021120268780000DEP EN EFECTIV                          +00000000210076000015631820250000000027042021CDNT                            
65502381527     05032021120268780000DEP EN EFECTIV                          +00000000191864000015633738890000000026042021CDST5                           
65502381527     05032021120268780000DEP EN EFECTIV                          +00000000095816000015634697050000000026042021CDNT                            
65502381527     05032021120268780000DEP EN EFECTIV                          +00000000354960000015638246650000000027042021CDST3                           
65502381527     05032021120268780000DEP EN EFECTIV                          +00000000223068000015640477330000000028042021CDST1                           
65502381527     05032021120268780000DEP EN EFECTIV                          +00000000390664000015644383970000000028042021CDNT                            
65502381527     05032021120268780000DEP EN EFECTIV                          +00000001692123000015661305200000000029042021TPOT                            
65502381527     05032021122474650291AB TRANSF SPEI                          +000000010112750000156714179501427851ESTRELLA ROJA                           0030521 012180001963226032
65502381527     05032021175925170742CGO AP INV CRE                          -000015670000000000000014179502517006066502381527                            
