65502328285     05032021060442302680DOM CUOTA AFIL                          -000000000299000000000111789707623060AFIL.-007623060                         
65502328285     05032021060442302571DOM IVA COMIS                           -000000000047840000000111311307623060AFIL.-007623060                         
65502328285     05032021060442302680DOM CUOTA AFIL                          -000000000299000000000108321307675021AFIL.-007675021                         
65502328285     05032021060442302571DOM IVA COMIS                           -000000000047840000000107842907675021AFIL.-007675021                         
65502328285     05032021060442302676DOM BA FAC TPV                          -000000000400000000000103842907675021AFIL.-007675021                         
65502328285     05032021060442302571DOM IVA COMIS                           -000000000064000000000103202907675021AFIL.-007675021                         
65502328285     05032021060442302676DOM BA FAC TPV                          -000000000400000000000099202908349239AFIL.-008349239                         
65502328285     05032021060442302571DOM IVA COMIS                           -000000000064000000000098562908349239AFIL.-008349239                         
65502328285     05032021060701140247LIQ A CH IN CR                          +000000865093230000008749495200000721                                        
65502328285     05032021081571370000DEP EN EFECTIV                          +00000002163200000000896581520000000029042021CAPUT5                          
65502328285     05032021081571370000DEP EN EFECTIV                          +00000000052600000000897107520000000030042021INFRAC1                         
65502328285     05032021081571370000DEP EN EFECTIV                          +00000003604000000000933147520000000030042021CAPUT2                          
65502328285     05032021081571370000DEP EN EFECTIV                          +00000004106900000000974216520000000001052021CAPUT6                          
65502328285     05032021081571370000DEP EN EFECTIV                          +00000000337200000000977588520000000030042021CAPSETEXT4                      
65502328285     05032021081571370000DEP EN EFECTIV                          +00000000100000000000978588520000000028042021CAPSETEXM3                      
65502328285     05032021081571370000DEP EN EFECTIV                          +00000000376500000000982353520000000028042021CAPSETEXT7                      
65502328285     05032021081571370000DEP EN EFECTIV                          +00000000001300000000982366520000000001052021CAPSETEXV                       
65502328285     05032021081571370000DEP EN EFECTIV                          +00000000732900000000989695520000000001052021CAPSETEXT                       
65502328285     05032021101871600000DEP EN EFECTIV                          +00000001400000000001003695520000000028042021SMAM                            
65502328285     05032021101871600000DEP EN EFECTIV                          +00000003657300000001040268520000000029042021SMAT                            
65502328285     05032021101871600000DEP EN EFECTIV                          +00000008245700000001122725520000000027042021SMAT                            
65502328285     05032021101871600000DEP EN EFECTIV                          +00000000091300000001123638520000000027042021SARAT                           
65502328285     05032021101871600000DEP EN EFECTIV                          +00000001000000000001133638520000000027042021SMAM                            
65502328285     05032021101871600000DEP EN EFECTIV                          +00000000900000000001142638520000000029042021SMAM                            
65502328285     05032021101871600000DEP EN EFECTIV                          +00000004417600000001186814520000000028042021SMAT                            
65502328285     05032021101871600000DEP EN EFECTIV                          +00000000202200000001188836520000000028042021SATAT                           
65502328285     05032021101871600000DEP EN EFECTIV                          +0000000002850000000118912152000000002904021SATAT                            
65502328285     05032021114200300000DEP EN EFECTIV                          +00000000919600000001198317520030375517052019WTCT                            
65502328285     05032021114700300000DEP EN EFECTIV                          +00000003490900000001233226520030375617052019WTCT                            
65502328285     05032021120268780000DEP EN EFECTIV                          +00000001286300000001246089520000000029042021CART3                           
65502328285     05032021120268780000DEP EN EFECTIV                          +00000002347000000001269559520000000030042021CART7                           
65502328285     05032021120268780000DEP EN EFECTIV                          +00000001877400000001288333520000000028042021CART6                           
65502328285     05032021120268780000DEP EN EFECTIV                          +00000003110700000001319440520000000029042021TAPORT                          
65502328285     05032021120268780000DEP EN EFECTIV                          +00000004712300000001366563520000000030042021TAPORT                          
65502328285     05032021130809810790PAGO TRAN SPEI                          -0000000008106700000136575285015128673278 FINIQUITO               
65502328285     05032021130809810790PAGO TRAN SPEI                          -0000000103891900000135536366015130023277                         
65502328285     05032021174074650291AB TRANSF SPEI                          +000000158705780000015140694402024631Transferencias PayU4288353              4288353 012180001908758138
65502328285     05032021175925170742CGO AP INV CRE                          -000001355000000000001590694402517003066502328285                            
