65503200995     05072021050142300038DEP ELE PAG TC                          +000000000315000000000160467807269614AFIL.-007269614                                                                                                                                                                                                                                                                                                                                       
65503200995     05072021050142302677DO CO DE PAGTC                          -000000000005990000000160407907269614AFIL.-007269614                                                                                                                                                                                                                                                                                                                                       
65503200995     05072021050142302571DOM IVA COMIS                           -000000000000960000000160398307269614AFIL.-007269614                                                                                                                                                                                                                                                                                                                                       
65503200995     05072021050001140247LIQ A CH IN CR                          +000017805639640000178216794700000761                                                                                                                                                                                                                                                                                                                                                      
65503200995     05072021073174650291AB TRANSF SPEI                          +0000003842054800001820588495062542302900002571                              0976258 021650040194688002                        HSBC                                    014650655032009954  CONTACTOS TERRESTRES SA DE CV           021650040194688002  SERVICIOS CORPO PERSO ESPECIAL                                          CTE060224DA3   SCP950313327   HSBC077662                    
65503200995     05072021131609810790PAGO TRAN SPEI                          -000000040000000000181658849506855862TRASPASO 0995 A 7313 REF 0000000                                                          BANAMEX                                 002650700632273131  CONTERSA BANAMEX                        00142517065503200995CONTACTOS TERRESTRES SA DE CV                                                          CTE060224DA3   2021050740014 BET0000468558620
65503200995     05072021155174650291AB TRANSF SPEI                          +000000009784810000181756697607240273Transferencias PayU4298131              4298131 012180001908758138                        BBVA BANCOMER                           014650655032009954  CONTACTOS TERRESTRES SA DE CV           012180001908758138  ONLINE LATIN AMERICA N PAYMENTS MEXICO S                                CTE060224DA3   OLA1012082G0   002601002105070000441188      
65503200995     05072021173225170742CGO AP INV CRE                          -000018170000000000000056697602517816066503200995                                                                                                                                                                                                                                                                                                                                          
65503200995     05072021174252342082DEP EFECT ATM                           +000000003798000000000094677600202714                                                                                                                                                                                                                                                                                                                                                      
