65506096978     05032021042305600805COM MANEJO CT                           -000000000200000000000043865500000000                   ABR 2021             
65506096978     05032021042305600571IVA COMISION                            -000000000032000000000043545500000000                   ABR 2021             
65506096978     05032021060701140247LIQ A CH IN CR                          +000000500053900000005044084500000728                                        
65506096978     05032021180125170742CGO AP INV CRE                          -000000500000000000000044084502517015066506096978                            
