65502381527     05072021050001140247LIQ A CH IN CR                          +000011305406130000113157214400000759                                                                                                                                                                                                                                                                                                                                                      
65502381527     05072021092874650291AB TRANSF SPEI                          +000000003683000000113194044406350666FLETE MANGUERAS                         236914  002650430300215429                        BANAMEX                                 014650655023815270  AUTOBUSES MEXICO PUEBLA ESTRELLA ROJA SA002650430300215429  MANGUERAS SKS SA DE CV                                                  AMP521016875   MSK041109CQ6   085901658850312717            
65502381527     05072021094874650291AB TRANSF SPEI                          +000000000546360000113199508006378047R17                                     0705210 012760029106885687                        BBVA BANCOMER                           014650655023815270  AUTOBUSES MEXICO PUEBLA ESTRELLA ROJA SA012760029106885687  DANIELLA ZAMBRANO LOUSTAUNAU                                            AMP521016875   ZALD8704283X   MBAN01002105070064984179      
65502381527     05072021104174650291AB TRANSF SPEI                          +000000013165360000113331161606500209ESTRELLA ROJA                           0070521 012180001963226032                        BBVA BANCOMER                           014650655023815270  AUTOBUSES MEXICO PUEBLA ESTRELLA ROJA SA012180001963226032  R&R PHARMA S DE RL D E CV                                               AMP521016875   RPH140430QC5   BNET01002105070025734462      
65502381527     05072021111668780000DEP EN EFECTIV                          +00000000094888000011334065040000000003042021CDNT                                                                                                                                                                                                                                                                                                                                          
65502381527     05072021111668780000DEP EN EFECTIV                          +00000000602156000011340086600000000003052021CDST1                                                                                                                                                                                                                                                                                                                                         
65502381527     05072021111668780000DEP EN EFECTIV                          +00000001451472000011354601320000000004052021TPOT                                                                                                                                                                                                                                                                                                                                          
65502381527     05072021111668780000DEP EN EFECTIV                          +00000010000000000011454601320000000004052021TPOT                                                                                                                                                                                                                                                                                                                                          
65502381527     05072021111668780000DEP EN EFECTIV                          +00000000224096000011456842280000000030042021CDNT                                                                                                                                                                                                                                                                                                                                          
65502381527     05072021111668780000DEP EN EFECTIV                          +00000000195228000011458794560000000030042021CDST7                                                                                                                                                                                                                                                                                                                                         
65502381527     05072021111668780000DEP EN EFECTIV                          +00000001622356000011475018120000000003052021TPOT                                                                                                                                                                                                                                                                                                                                          
65502381527     05072021111668780000DEP EN EFECTIV                          +00000000782438000011482842500000000002052021TPOT                                                                                                                                                                                                                                                                                                                                          
65502381527     05072021111668780000DEP EN EFECTIV                          +00000000147088000011484313380000000029042021CDST9                                                                                                                                                                                                                                                                                                                                         
65502381527     05072021111668780000DEP EN EFECTIV                          +00000002345792000011507771300000000030042021TPOT                                                                                                                                                                                                                                                                                                                                          
65502381527     05072021131609810790PAGO TRAN SPEI                          -000000110000000000113977713006855859TRASPASO 1527 A 9649 REF 0000000                                                          BANAMEX                                 002650700705396495  AMPERSA BANAMEX                         00142517065502381527AUTOBUSES MEXICO PUEBLA ESTRELLA ROJA SA                                               AMP521016875   2021050740014 BET0000468558590
65502381527     05072021132274650291AB TRANSF SPEI                          +000000113879060000115116503606875397PAGO DE GUIAS VENCIDAS                  0070521 012180001689673859                        BBVA BANCOMER                           014650655023815270  AUTOBUSES MEXICO PUEBLA ESTRELLA ROJA SA012180001689673859  RODAJAS Y CARRETILLA S ROA SA DE CV                                     AMP521016875   RCR900329FK4   BNET01002105070025810595      
65502381527     05072021163474650291AB TRANSF SPEI                          +000000005501750000115171521107333387PQD236601                               0236601 072650008241280470                        BANORTE                                 014650655023815270  AUTOBUSES MEXICO PUEBLA ESTRELLA ROJA SA072650008241280470  VICTOR HUGO AGUIRRE VALLEJOS                                            AMP521016875   AUVV7909097S   7875APR2202105071285798972    
65502381527     05072021171374650291AB TRANSF SPEI                          +000000001554400000115187065107422940pago factura 236810                     0006262 072650006250870064                        BANORTE                                 014650655023815270  AUTOBUSES MEXICO PUEBLA ESTRELLA ROJA SA072650006250870064  TECNOLOGIA FARMACEUTICA Y ANALITICA ANEL                                AMP521016875   TFA0510255U5   8846APR2202105071285877082    
65502381527     05072021173225170742CGO AP INV CRE                          -000011515000000000000037065102517813066502381527                                                                                                                                                                                                                                                                                                                                          
