65501981186     05052021060201140247LIQ A CH IN CR                          +000024200869380000242806705300000029                                        
65501981186     05052021132509810790PAGO TRAN SPEI                          -0000000038751600002427679537040853441256220                                 
65501981186     05052021132509810790PAGO TRAN SPEI                          -0000001684186000002410837677040853451256227                                 
65501981186     05052021132709810790PAGO TRAN SPEI                          -000000002118200000241062585704089381CECUL4                       
65501981186     05052021132709810790PAGO TRAN SPEI                          -000000001199880000241050586904089396CETII7                       
65501981186     05052021132709810790PAGO TRAN SPEI                          -000000003152700000241019059904089411CEMXL9                       
65501981186     05052021132709810790PAGO TRAN SPEI                          -0000000476650000002405424099040894128492                         
65501981186     05052021132709810790PAGO TRAN SPEI                          -0000000677453100002398649568040894358493                         
65501981186     05052021132709810790PAGO TRAN SPEI                          -000000009554280000239769414004089436PENSION ABR 21               
65501981186     05052021132709810790PAGO TRAN SPEI                          -0000000104605000002396648090040894588474 FINIQUITO               
65501981186     05052021132709810790PAGO TRAN SPEI                          -000000004572040000239619088604089462PENSION ABR 21               
65501981186     05052021132709810790PAGO TRAN SPEI                          -0000000695975900002389231127040894638494                         
65501981186     05052021132709810790PAGO TRAN SPEI                          -0000000467760500002384553522040894978495                         
65501981186     05052021132709810790PAGO TRAN SPEI                          -0000000156600000002382987522040895268496                         
65501981186     05052021132709810790PAGO TRAN SPEI                          -0000000002754400002382959978040895318472 FINIQUITO               
65501981186     05052021132709810790PAGO TRAN SPEI                          -0000000204002100002380919957040895638473  FINIQUITO              
65501981186     05052021132709810790PAGO TRAN SPEI                          -0000000040191800002380518039040895928476  FINIQUITO              
65501981186     05052021132709810790PAGO TRAN SPEI                          -0000000018061800002380337421040896138497 FINIQUITO               
65501981186     05052021132709810790PAGO TRAN SPEI                          -0000000009067400002380246747040896188477  FINIQUITO              
65501981186     05052021132709810790PAGO TRAN SPEI                          -000000002196390000238002710804089619PENSION ABR 21               
65501981186     05052021132709810790PAGO TRAN SPEI                          -0000000450000000002375527108040896298498 FINIQUITO               
65501981186     05052021132709810790PAGO TRAN SPEI                          -0000000037274700002375154361040896328478  FINIQUITO              
65501981186     05052021132709810790PAGO TRAN SPEI                          -000000009910320000237416332904089634PENSION ABR 21               
65501981186     05052021132709810790PAGO TRAN SPEI                          -0000000015106300002374012266040896438479  FINIQUITO              
65501981186     05052021132807820287DEVOL SPEI                              +000000000275440000237403981004089949DEVOLUCION  06   Cuenta no pertenece al Participante Receptor
65501981186     05052021150474650291AB TRANSF SPEI                          +000000001243000000237416411004250171TRANSFERENCIA INTERBANCARIA             50521   002180903871120561
65501981186     05052021171725170742CGO AP INV CRE                          -000023665000000000000766411002517395066501981186                            
