65501900878     05102021215705600856COM SERV COBR                           -000000000017000000001128773200000000TOTAL DE MOVS. 000001                                                                                                                                                                                                                                                                                                                                 
65501900878     05102021215705600571IVA COMISION                            -000000000002720000001128746000000000TOTAL DE MOVS. 000001                                                                                                                                                                                                                                                                                                                                 
65501900878     05102021151552342082DEP EFECT ATM                           +000000002399000000001152736000350442VES0776505                                                                                                                                                                                                                                                                                                                                            
65501900878     05102021152389650000DEP EN EFECTIV                          +000000004399000000001196726009658624VS0776513                                                                                                                                                                                                                                                                                                                                             
