65502328285     05102021050001140247LIQ A CH IN CR                          +000000230024810000002344119900000770                                                                                                                                                                                                                                                                                                                                                      
65502328285     05102021081571370000DEP EN EFECTIV                          +00000003170500000000266116990000000003052021CAPURT                                                                                                                                                                                                                                                                                                                                        
65502328285     05102021081571370000DEP EN EFECTIV                          +00000003562100000000301737990000000002052021CAPURT                                                                                                                                                                                                                                                                                                                                        
65502328285     05102021081571370000DEP EN EFECTIV                          +00000003789300000000339630990000000004052021CAPUT3                                                                                                                                                                                                                                                                                                                                        
65502328285     05102021081571370000DEP EN EFECTIV                          +00000002558400000000365214990000000005052021CAPUT2                                                                                                                                                                                                                                                                                                                                        
65502328285     05102021081571370000DEP EN EFECTIV                          +00000003511000000000400324990000000006052021CAPURT                                                                                                                                                                                                                                                                                                                                        
65502328285     05102021081571370000DEP EN EFECTIV                          +00000003650100000000436825990000000005052021CAPURT                                                                                                                                                                                                                                                                                                                                        
65502328285     05102021081571370000DEP EN EFECTIV                          +00000003787700000000474702990000000004052021CAPURT                                                                                                                                                                                                                                                                                                                                        
65502328285     05102021081571370000DEP EN EFECTIV                          +00000001189400000000486596990000000006052021HUEJOT4                                                                                                                                                                                                                                                                                                                                       
65502328285     05102021081571370000DEP EN EFECTIV                          +00000001743800000000504034990000000004052021HUEJOT4                                                                                                                                                                                                                                                                                                                                       
65502328285     05102021081571370000DEP EN EFECTIV                          +00000000000100000000504035990000000005052021HUEJV1                                                                                                                                                                                                                                                                                                                                        
65502328285     05102021081571370000DEP EN EFECTIV                          +00000001553900000000519574990000000005052021HUEJOT1                                                                                                                                                                                                                                                                                                                                       
65502328285     05102021081571370000DEP EN EFECTIV                          +00000000000900000000519583990000000002052021CHOLV6                                                                                                                                                                                                                                                                                                                                        
65502328285     05102021081571370000DEP EN EFECTIV                          +00000000401200000000523595990000000001052021CHOLT1                                                                                                                                                                                                                                                                                                                                        
65502328285     05102021081571370000DEP EN EFECTIV                          +00000000200000000000525595990000000030042021CHOLM3                                                                                                                                                                                                                                                                                                                                        
65502328285     05102021081571370000DEP EN EFECTIV                          +00000000364600000000529241990000000030042021CHOLT7                                                                                                                                                                                                                                                                                                                                        
65502328285     05102021081571370000DEP EN EFECTIV                          +00000000486600000000534107990000000006052021CHOLT6                                                                                                                                                                                                                                                                                                                                        
65502328285     05102021081571370000DEP EN EFECTIV                          +00000000874200000000542849990000000002052021CHOLT0                                                                                                                                                                                                                                                                                                                                        
65502328285     05102021081571370000DEP EN EFECTIV                          +00000000510600000000547955990000000004052021CHOLT8                                                                                                                                                                                                                                                                                                                                        
65502328285     05102021081571370000DEP EN EFECTIV                          +00000000427000000000552225990000000003052021CHOLT9                                                                                                                                                                                                                                                                                                                                        
65502328285     05102021081571370000DEP EN EFECTIV                          +00000000521200000000557437990000000005052021CHOLT7                                                                                                                                                                                                                                                                                                                                        
65502328285     05102021081571370000DEP EN EFECTIV                          +00000000000100000000557438990000000005052021CHOLV3                                                                                                                                                                                                                                                                                                                                        
65502328285     05102021103322100000DEP EN EFECTIV                          +000000000517000000005579559902107756                                                                                                                                                                                                                                                                                                                                                      
65502328285     05102021110268780000DEP EN EFECTIV                          +00000002881300000000586768990000000007052021TAPORT                                                                                                                                                                                                                                                                                                                                        
65502328285     05102021110268780000DEP EN EFECTIV                          +00000003290200000000619670990000000006052021TAPORT                                                                                                                                                                                                                                                                                                                                        
65502328285     05102021110268780000DEP EN EFECTIV                          +00000002439800000000644068990000000007052021TAPOT3                                                                                                                                                                                                                                                                                                                                        
65502328285     05102021110268780000DEP EN EFECTIV                          +00000002038800000000664456990000000006052021TAPOT7                                                                                                                                                                                                                                                                                                                                        
65502328285     05102021110268780000DEP EN EFECTIV                          +00000001628500000000680741990000000006052021CART6                                                                                                                                                                                                                                                                                                                                         
65502328285     05102021110268780000DEP EN EFECTIV                          +00000001826300000000699004990000000002052021CART9                                                                                                                                                                                                                                                                                                                                         
65502328285     05102021110268780000DEP EN EFECTIV                          +00000002198500000000720989990000000001052021CART2                                                                                                                                                                                                                                                                                                                                         
65502328285     05102021130309810681CGO TRANS ELEC                          -00000000258700000000718402990380F212101001000018825658245970261                                                                                                                                                                                                                                                                                                                           
65502328285     05102021130709810790PAGO TRAN SPEI                          -0000000040669900000071433600095717403295                                                                           BBVA BANCOMER                           012180001108753849  P PARK ADMINISTRACION SA DE CV          00142517065502328285TERMINAL LAS TORRES PUEBLA SA DE CV                                                    TTP050504P51   2021051040014 BET0000495717400
65502328285     05102021130709810681CGO TRANS ELEC                          -0000000487200000000066561600029807943294                                                                                                                                                                                                                                                                                                                                                  
65502328285     05102021131800300000DEP EN EFECTIV                          +00000000730100000000672917000030542917052019WTCT                                                                                                                                                                                                                                                                                                                                          
65502328285     05102021132100300000DEP EN EFECTIV                          +00000003094100000000703858000030543017052019WTCT                                                                                                                                                                                                                                                                                                                                          
65502328285     05102021141871370000DEP EN EFECTIV                          +00000000289800000000706756000000000007052021CAPSETEXT                                                                                                                                                                                                                                                                                                                                     
65502328285     05102021141871370000DEP EN EFECTIV                          +00000000450200000000711258000000000006052021CAPSETEXT                                                                                                                                                                                                                                                                                                                                     
65502328285     05102021175225170742CGO AP INV CRE                          -000000710000000000000012580002517065066502328285                                                                                                                                                                                                                                                                                                                                          
