65503200995     05032021060442300038DEP ELE PAG TC                          +000000001979000000000121103307269614AFIL.-007269614                         
65503200995     05032021060442300038DEP ELE PAG TC                          +000000004030000000000161403307269614AFIL.-007269614                         
65503200995     05032021060442300038DEP ELE PAG TC                          +000000005184000000000213243307269614AFIL.-007269614                         
65503200995     05032021060442302677DO CO DE PAGTC                          -000000000035280000000212890507269614AFIL.-007269614                         
65503200995     05032021060442302571DOM IVA COMIS                           -000000000005630000000212834207269614AFIL.-007269614                         
65503200995     05032021060442302677DO CO DE PAGTC                          -000000000074450000000212089707269614AFIL.-007269614                         
65503200995     05032021060442302571DOM IVA COMIS                           -000000000011910000000211970607269614AFIL.-007269614                         
65503200995     05032021060442302677DO CO DE PAGTC                          -000000000093790000000211032707269614AFIL.-007269614                         
65503200995     05032021060442302571DOM IVA COMIS                           -000000000015000000000210882707269614AFIL.-007269614                         
65503200995     05032021060442302680DOM CUOTA AFIL                          -000000000299000000000207892707269614AFIL.-007269614                         
65503200995     05032021060442302571DOM IVA COMIS                           -000000000047840000000207414307269614AFIL.-007269614                         
65503200995     05032021060442302679DOM CO USO TPV                          -000000000750000000000199914307269614AFIL.-007269614                         
65503200995     05032021060442302571DOM IVA COMIS                           -000000000120000000000198714307269614AFIL.-007269614                         
65503200995     05032021060442302680DOM CUOTA AFIL                          -000000000299000000000195724307623061AFIL.-007623061                         
65503200995     05032021060442302571DOM IVA COMIS                           -000000000047840000000195245907623061AFIL.-007623061                         
65503200995     05032021060442302680DOM CUOTA AFIL                          -000000000299000000000192255908048220AFIL.-008048220                         
65503200995     05032021060442302571DOM IVA COMIS                           -000000000047840000000191777508048220AFIL.-008048220                         
65503200995     05032021060701140247LIQ A CH IN CR                          +000018852031560000188712093100000724                                        
65503200995     05032021081571370000DEP EN EFECTIV                          +00000001082000000018882029310000000030042021CAPUT2                          
65503200995     05032021081571370000DEP EN EFECTIV                          +00000000301400000018885043310000000029042021CAPUT5                          
65503200995     05032021081571370000DEP EN EFECTIV                          +00000000744600000018892489310000000001052021CAPUT6                          
65503200995     05032021131852342082DEP EFECT ATM                           +000000005125000000188976143100246114                                        
65503200995     05032021132052342082DEP EFECT ATM                           +000000005055000000189026693100255159                                        
65503200995     05032021132452342082DEP EFECT ATM                           +000000005880000000189085493100266053                                        
65503200995     05032021132652342082DEP EFECT ATM                           +000000009040000000189175893100274799                                        
65503200995     05032021150774650291AB TRANSF SPEI                          +000000137635710000190552250201749972RENTA 3 UNIDADES DEL 16 AL 31 DE MARZ   1507520 012180004461541232
65503200995     05032021174074650291AB TRANSF SPEI                          +000000013445940000190686709602024682Transferencias PayU4288356              4288356 012180001908758138
65503200995     05032021180025170742CGO AP INV CRE                          -000019050000000000000186709602517009066503200995                            
