65501981186     05102021050001140247LIQ A CH IN CR                          +000012661364430000127376580200000030                                                                                                                                                                                                                                                                                                                                                      
65501981186     05102021095474650291AB TRANSF SPEI                          +000013054217920000257918759409224625ABONO PAGO WALMART                 005807629234 002180087005556089                        BANAMEX                                 014650655019811864  VIAJES ESTRELLA ROJA SA DE CV           002180087005556089  NUEVA WAL MART DE MEXICO S DE RL D                                      VER870629GN3   NWM9709244W4   17956C5D71024FDD              
65501981186     05102021124274650291AB TRANSF SPEI                          +000001168502430000269603783709527389COMERCIAL CITY FRESKO  S  DE R L  D     120357  002180002345330377                        BANAMEX                                 014650655019811864  VIAJES ESTRELLA ROJA SA DE CV           002180002345330377  COMERCIAL CITY FRESKO S DE RL DE C                                      VER870629GN3   CCF121101KQ4   179575EED6BC03D0              
65501981186     05102021130174650291AB TRANSF SPEI                          +000000000084000000269604623709561732MANIOBRAS10052021                       1       653180003810009442                        KUSPIT                                  014650655019811864  VIAJES ESTRELLA ROJA SA DE CV           653180003810009442  FULL CAJA MANIOBRISTA SA DE CV                                          VER870629GN3   FCM1703021U8   UNALANAPAY0014222059          
65501981186     05102021130309810790PAGO TRAN SPEI                          -0000000063265700002695413580095651161258715                                                                                   STP                                     646180138010038836  TOKA INVESTMENT SAPI SOFOM              00140114065501981186VIAJES ESTRELLA ROJA SA DE CV                                                          VER870629GN3   2021051040014 BET0000495651160
65501981186     05102021130309810790PAGO TRAN SPEI                          -0000000009078300002695322797095651171258713                                                                                   STP                                     646180138010038836  TOKA INVESTMENT SAPI SOFOM              00140114065501981186VIAJES ESTRELLA ROJA SA DE CV                                                          VER870629GN3   2021051040014 BET0000495651170
65501981186     05102021130309810790PAGO TRAN SPEI                          -0000003642415700002658898640095651181258724                                                                                   STP                                     646180138010038836  TOKA INVESTMENT SAPI SOFOM              00140114065501981186VIAJES ESTRELLA ROJA SA DE CV                                                          VER870629GN3   2021051040014 BET0000495651180
65501981186     05102021130309810790PAGO TRAN SPEI                          -000008400000000000181889864009565119TRASPASO 1186 A 7840                                                           BANAMEX                                 002650700087178409  VIAJES ER BANAMEX                       00140114065501981186VIAJES ESTRELLA ROJA SA DE CV                                                          VER870629GN3   2021051040014 BET0000495651190
65501981186     05102021130709810790PAGO TRAN SPEI                          -0000000100704300001817891597095717668596 FINIQUITO                                                                 BANAMEX                                 002320904544170885  LEONARDO DANIEL HERNANDEZ HERNANDEZ     00140114065501981186VIAJES ESTRELLA ROJA SA DE CV                                                          VER870629GN3   2021051040014 BET0000495717660
65501981186     05102021130709810790PAGO TRAN SPEI                          -000000001007720000181779082509571803CECEN7                                                                         BBVA BANCOMER                           012914002015539842  SERVICIOS CENTRALES DE COBRANZA HOTELERA00140114065501981186VIAJES ESTRELLA ROJA SA DE CV                                                          VER870629GN3   2021051040014 BET0000495718030
65501981186     05102021134577011156ABONO TRANSFER                          +0000012612281500001943913640044549291500088132212001 PAGO Tiendas Soria 5262 0000001 1500088132                                                                                                                                                                                                                                                                                           
65501981186     05102021175125170742CGO AP INV CRE                          -000019400000000000000391364002517062066501981186                                                                                                                                                                                                                                                                                                                                          
