65501981186     05042021060201140247LIQ A CH IN CR                          +000025145903320000252225442700000031                                        
65501981186     05042021133509810681CGO TRANS ELEC                          -000000023692000000251988522708810476015191702013832105090000236920          
65501981186     05042021133509810790PAGO TRAN SPEI                          -000000042100000000251567522702901736NOM FOND AHORRO              
65501981186     05042021133509810790PAGO TRAN SPEI                          -000000039009500000251177427702901737NOM PREST FOND AHORRO        
65501981186     05042021133509810790PAGO TRAN SPEI                          -0000000140346900002510370808029017381255538                                 
65501981186     05042021133509810790PAGO TRAN SPEI                          -0000000630487900002504065929029017401255542                                 
65501981186     05042021133509810790PAGO TRAN SPEI                          -000000400000000000246406592902901741TRASPASO 1186 A 2858         
65501981186     05042021134209810790PAGO TRAN SPEI                          -000000001199880000246394594102912878CETII7                       
65501981186     05042021134209810790PAGO TRAN SPEI                          -000000001199880000246382595302912881CETII7                       
65501981186     05042021134209810790PAGO TRAN SPEI                          -000000001199880000246370596502912887CETII7                       
65501981186     05042021134209810790PAGO TRAN SPEI                          -000000001199880000246358597702912890CETII7                       
65501981186     05042021134209810790PAGO TRAN SPEI                          -000000006305400000246295543702912904CEMXL9                       
65501981186     05042021134209810790PAGO TRAN SPEI                          -000000003152700000246264016702912908CEMXL9                       
65501981186     05042021134209810790PAGO TRAN SPEI                          -000000003152700000246232489702912907CEMXL9                       
65501981186     05042021134209810790PAGO TRAN SPEI                          -000000003152700000246200962702912923CEMXL9                       
65501981186     05042021134209810790PAGO TRAN SPEI                          -000000002118200000246179780702912936CECUL4                       
65501981186     05042021134209810790PAGO TRAN SPEI                          -000000003152700000246148253702912939CEMXL9                       
65501981186     05042021134209810790PAGO TRAN SPEI                          -00000033173900000024283086370291294902017475122127432287         
65501981186     05042021134209810790PAGO TRAN SPEI                          -000000001167020000242819193502912954CEHMO5                       
65501981186     05042021134209810790PAGO TRAN SPEI                          -000000002118200000242798011502912966CECUL4                       
65501981186     05042021172125170742CGO AP INV CRE                          -000024200000000000000798011502517210066501981186                            
