65505301457     05112021060201140247LIQ A CH IN CR                          +000000895032160000008971701500000751                                        
65505301457     05112021120109810180AB TRANS ELECT                          +000000142872050000010400422008610381RENTAUPAEP12349                         
65505301457     05112021175425170742CGO AP INV CRE                          -000001035000000000000050422002517321066505301457                            
