65501900878     05112021022705600856COM SERV COBR                           -000000000034000000001196386000000000TOTAL DE MOVS. 000002                   
65501900878     05112021022705600571IVA COMISION                            -000000000005440000001196331600000000TOTAL DE MOVS. 000002                   
65501900878     05112021095922320000DEP EN EFECTIV                          +000000011750000000001313831602324576VES0776489                              
65501900878     05112021124453910000DEP EN EFECTIV                          +000000003410000000001347931603917382VES0775689                              
65501900878     05112021124553910000DEP EN EFECTIV                          +000000003410000000001382031603917384VES0775697                              
