65505301457     05052021060201140247LIQ A CH IN CR                          +000000905032510000009077940100000746                                        
65505301457     05052021132509810681CGO TRANS ELEC                          -000000005853000000009019410107260256012561707079362105100000058539          
65505301457     05052021171925170742CGO AP INV CRE                          -000000900000000000000019410102517407066505301457                            
