65502328285     05062021060201140247LIQ A CH IN CR                          +000001045037540000010611694600000704                                        
65502328285     05062021081771370000DEP EN EFECTIV                          +00000004049500000001101664460000000003052021CAPUT5                          
65502328285     05062021081771370000DEP EN EFECTIV                          +00000003905700000001140721460000000005052021CAPUT6                          
65502328285     05062021081771370000DEP EN EFECTIV                          +00000002842400000001169145460000000001052021CAPURT                          
65502328285     05062021084909810790PAGO TRAN SPEI                          -000000003861000000011652844604920437FF TTP PUE                   
65502328285     05062021084909810681CGO TRANS ELEC                          -000000001000000000011642844607356154FF TTP MEX                              
65502328285     05062021111768780000DEP EN EFECTIV                          +00000002181400000001186098460000000004052021CART2                           
65502328285     05062021111768780000DEP EN EFECTIV                          +00000002251700000001208615460000000003052021CART6                           
65502328285     05062021140271370000DEP EN EFECTIV                          +00000000403600000001212651460000000027042021PSDGT1                          
65502328285     05062021140271370000DEP EN EFECTIV                          +00000000396400000001216615460000000028042021PSDGT0                          
65502328285     05062021140271370000DEP EN EFECTIV                          +00000000282200000001219437460000000029042021PSDGT9                          
65502328285     05062021140271370000DEP EN EFECTIV                          +00000000584200000001225279460000000030042021PSDGT6                          
65502328285     05062021140271370000DEP EN EFECTIV                          +00000000449200000001229771460000000001052021PSDGT0                          
65502328285     05062021140271370000DEP EN EFECTIV                          +00000000522200000001234993460000000002052021PSDGT9                          
65502328285     05062021140271370000DEP EN EFECTIV                          +00000000299200000001237985460000000003052021PSDGT8                          
65502328285     05062021142009810790PAGO TRAN SPEI                          -000000110000000000011279854605457582TRASPASO 8285 A 1857         
65502328285     05062021142009810681CGO TRANS ELEC                          -000000034008000000010939774604380352012581909037772105140000340083          
65502328285     05062021142009810681CGO TRANS ELEC                          -00000004777830000001046199160438035670000078994027342234                    
65502328285     05062021142209810681CGO TRANS ELEC                          -000000019066000000010271331604807236355                                     
65502328285     05062021142209810790PAGO TRAN SPEI                          -0000000261000000000100103316054619563290                         
65502328285     05062021172674650291AB TRANSF SPEI                          +000000015165120000010161982805795137Transferencias PayU4295978              4295978 012180001908758138
65502328285     05062021172674650291AB TRANSF SPEI                          +000000192372610000012085708905795441Transferencias PayU4293835              4293835 012180001908758138
65502328285     05062021174225170742CGO AP INV CRE                          -000001000000000000002085708902517604066502328285                            
