65505301457     05062021060201140247LIQ A CH IN CR                          +000000900032340000009019733500000710                                        
65505301457     05062021084909810681CGO TRANS ELEC                          -000000004508000000008974653507356156VERSA                                   
65505301457     05062021142009810681CGO TRANS ELEC                          -000000000456000000008970093504380353012210806010902105140000004560          
65505301457     05062021174425170742CGO AP INV CRE                          -000000895000000000000020093502517613066505301457                            
