65505301457     05032021042305600805COM MANEJO CT                           -000000000200000000000026634500000000                   ABR 2021             
65505301457     05032021042305600571IVA COMISION                            -000000000032000000000026314500000000                   ABR 2021             
65505301457     05032021060701140247LIQ A CH IN CR                          +000000905097530000009077289800000727                                        
65505301457     05032021180025170742CGO AP INV CRE                          -000000905000000000000027289802517012066505301457                            
