65502328285     05052021060201140247LIQ A CH IN CR                          +000000705025330000007088314400000740                                        
65502328285     05052021084409810681CGO TRANS ELEC                          -000000124500000000005843314408567081MORRALLA TTP PUE                        
65502328285     05052021084409810681CGO TRANS ELEC                          -000000015000000000005693314408567082MORRALLA ESTA PASEO                     
65502328285     05052021084409810681CGO TRANS ELEC                          -000000023000000000005463314408567083MORRALLA TTP MEX                        
65502328285     05052021094771600000DEP EN EFECTIV                          +00000004193300000000588264440000000001052021SMAT                            
65502328285     05052021094771600000DEP EN EFECTIV                          +00000000175900000000590023440000000003052021SATAT                           
65502328285     05052021094771600000DEP EN EFECTIV                          +00000000132300000000591346440000000002052021SATAT                           
65502328285     05052021094771600000DEP EN EFECTIV                          +00000000087800000000592224440000000030042021SATAT                           
65502328285     05052021094771600000DEP EN EFECTIV                          +00000000207200000000594296440000000001052021SATAT                           
65502328285     05052021094771600000DEP EN EFECTIV                          +00000000005200000000594348440000000001052021SMAV                            
65502328285     05052021094771600000DEP EN EFECTIV                          +00000000700000000000601348440000000001052021SMAM                            
65502328285     05052021094771600000DEP EN EFECTIV                          +00000000007900000000601427440000000003052021SMAV                            
65502328285     05052021094771600000DEP EN EFECTIV                          +00000001700000000000618427440000000003052021SMAM                            
65502328285     05052021094771600000DEP EN EFECTIV                          +00000000001000000000618437440000000002052021SMAV                            
65502328285     05052021094771600000DEP EN EFECTIV                          +00000000600000000000624437440000000002052021SMAM                            
65502328285     05052021094771600000DEP EN EFECTIV                          +00000000009500000000624532440000000030042021SMAV                            
65502328285     05052021094771600000DEP EN EFECTIV                          +00000001200000000000636532440000000030042021SMAM                            
65502328285     05052021094771600000DEP EN EFECTIV                          +00000005559200000000692124440000000002052021SMAT                            
65502328285     05052021094771600000DEP EN EFECTIV                          +00000005733800000000749462440000000003052021SMAT                            
65502328285     05052021094771600000DEP EN EFECTIV                          +00000004710000000000796562440000000030042021SMAT                            
65502328285     05052021113268780000DEP EN EFECTIV                          +00000002062750000000817189940000000002052021TAPOT0                          
65502328285     05052021113268780000DEP EN EFECTIV                          +00000003312200000000850311940000000001052021TAPOT3                          
65502328285     05052021113268780000DEP EN EFECTIV                          +00000005257400000000902885940000000001052021TAPORT                          
65502328285     05052021113268780000DEP EN EFECTIV                          +00000005434800000000957233940000000002052021TAPORT                          
65502328285     05052021113268780000DEP EN EFECTIV                          +00000003129780000000988531740000000001052021CART2                           
65502328285     05052021113268780000DEP EN EFECTIV                          +00000002623100000001014762740000000002052021CART9                           
65502328285     05052021122009810681CGO TRANS ELEC                          -000000080000000000009347627403740977APORTACION                              
65502328285     05052021132709810790PAGO TRAN SPEI                          -000000000387550000009343751904089596PENSION ABR 21               
65502328285     05052021143271370000DEP EN EFECTIV                          +00000001132500000000945700190000000002052021CAPSETEXT7                      
65502328285     05052021143271370000DEP EN EFECTIV                          +00000000000900000000945709190000000003052021CAPSETEXV2                      
65502328285     05052021143271370000DEP EN EFECTIV                          +00000000860800000000954317190000000003052021CAPSETEXT6                      
65502328285     05052021143271370000DEP EN EFECTIV                          +00000000000500000000954322190000000003052021HUEJV3                          
65502328285     05052021143271370000DEP EN EFECTIV                          +00000002367700000000977999190000000003052021HUEJOT6                         
65502328285     05052021143271370000DEP EN EFECTIV                          +00000002137100000000999370190000000002052021HUEJOT8                         
65502328285     05052021143271370000DEP EN EFECTIV                          +00000001763900000001017009190000000001052021HUEJOT0                         
65502328285     05052021143271370000DEP EN EFECTIV                          +00000000500000000001022009190000000030042021HUEJM1                          
65502328285     05052021143271370000DEP EN EFECTIV                          +00000001523500000001037244190000000030042021HUEJOT2                         
65502328285     05052021143271370000DEP EN EFECTIV                          +00000000500000000001042244190000000002052021HUEJM4                          
65502328285     05052021143271370000DEP EN EFECTIV                          +00000000400000000001046244190000000003052021HUEJM3                          
65502328285     05052021171725170742CGO AP INV CRE                          -000001045000000000000012441902517398066502328285                            
65502328285     05052021171874650291AB TRANSF SPEI                          +000000000986370000000022305604467147Transferencias PayU4291824              4291824 012180001908758138
65502328285     05052021171874650291AB TRANSF SPEI                          +000000013901360000000161319204467193Transferencias PayU4292114              4292114 012180001908758138
