65503200995     05102021150952342082DEP EFECT ATM                           +000000002450000000000119177600693752                                                                                                                                                                                                                                                                                                                                                      
65503200995     05102021050142300038DEP ELE PAG TC                          +000000000760000000000126777607269614AFIL.-007269614                                                                                                                                                                                                                                                                                                                                       
65503200995     05102021050142300038DEP ELE PAG TC                          +000000003186000000000158637607269614AFIL.-007269614                                                                                                                                                                                                                                                                                                                                       
65503200995     05102021050142300038DEP ELE PAG TC                          +000000014548000000000304117607269614AFIL.-007269614                                                                                                                                                                                                                                                                                                                                       
65503200995     05102021050142302677DO CO DE PAGTC                          -000000000013240000000303985207269614AFIL.-007269614                                                                                                                                                                                                                                                                                                                                       
65503200995     05102021050142302571DOM IVA COMIS                           -000000000002130000000303963907269614AFIL.-007269614                                                                                                                                                                                                                                                                                                                                       
65503200995     05102021050142302677DO CO DE PAGTC                          -000000000055930000000303404607269614AFIL.-007269614                                                                                                                                                                                                                                                                                                                                       
65503200995     05102021050142302571DOM IVA COMIS                           -000000000008930000000303315307269614AFIL.-007269614                                                                                                                                                                                                                                                                                                                                       
65503200995     05102021050142302677DO CO DE PAGTC                          -000000000276030000000300555007269614AFIL.-007269614                                                                                                                                                                                                                                                                                                                                       
65503200995     05102021050142302571DOM IVA COMIS                           -000000000044160000000300113407269614AFIL.-007269614                                                                                                                                                                                                                                                                                                                                       
65503200995     05102021050001140247LIQ A CH IN CR                          +000018171958280000182019696200000773                                                                                                                                                                                                                                                                                                                                                      
65503200995     05102021081571370000DEP EN EFECTIV                          +00000000321350000018205183120000000003052021MOVILT                                                                                                                                                                                                                                                                                                                                        
65503200995     05102021081571370000DEP EN EFECTIV                          +00000000996400000018215147120000000005052021CAPUT2                                                                                                                                                                                                                                                                                                                                        
65503200995     05102021081571370000DEP EN EFECTIV                          +00000001132400000018226471120000000004052021CAPUT3                                                                                                                                                                                                                                                                                                                                        
65503200995     05102021081571370000DEP EN EFECTIV                          +00000000884900000018235320120000000006052021MOVILT                                                                                                                                                                                                                                                                                                                                        
65503200995     05102021081571370000DEP EN EFECTIV                          +00000000927300000018244593120000000005052021MOVILT                                                                                                                                                                                                                                                                                                                                        
65503200995     05102021081571370000DEP EN EFECTIV                          +00000000993850000018254531620000000004052021MOVILT                                                                                                                                                                                                                                                                                                                                        
65503200995     05102021121052342082DEP EFECT ATM                           +000000005840000000182603716200713901                                                                                                                                                                                                                                                                                                                                                      
65503200995     05102021143152342082DEP EFECT ATM                           +000000005920000000182662916200221537                                                                                                                                                                                                                                                                                                                                                      
65503200995     05102021173352342082DEP EFECT ATM                           +000000001540000000182678316200680568                                                                                                                                                                                                                                                                                                                                                      
65503200995     05102021175325170742CGO AP INV CRE                          -000018265000000000000028316202517071066503200995                                                                                                                                                                                                                                                                                                                                          
