65501753550     05062021044074650291AB TRANSF SPEI                          +000000000547020000004944367504797962AMEXCO SE 9350021565                    21565   002180002346330664
65501753550     05062021044174650291AB TRANSF SPEI                          +000000000081670000004945184204798130AMEXCO SE 9350058864                    58864   002180002346330664
65501753550     05062021044274650291AB TRANSF SPEI                          +000000000317460000004948358804798262AMEXCO SE 9350060670                    60670   002180002346330664
65501753550     05062021044374650291AB TRANSF SPEI                          +000000001276990000004961128704798311AMEXCO SE 9359908044                    9908044 002180002346330664
65501753550     05062021045074650291AB TRANSF SPEI                          +000000000440140000004965530104798903AMEXCO SE 9356614447                    6614447 002180002346330664
65501753550     05062021045074650291AB TRANSF SPEI                          +000000002857150000004994101604798906AMEXCO SE 9350021532                    21532   002180002346330664
65501753550     05062021060142300038DEP ELE PAG TC                          +000000015533000000005149431605256409AFIL.-005256409                         
65501753550     05062021060142300038DEP ELE PAG TC                          +000000007469000000005224121605688445AFIL.-005688445                         
65501753550     05062021060142300038DEP ELE PAG TC                          +000000009171950000005315841105688452AFIL.-005688452                         
65501753550     05062021060142300038DEP ELE PAG TC                          +000000008207000000005397911107273370AFIL.-007273370                         
65501753550     05062021060142300038DEP ELE PAG TC                          +000000043125000000005829161108139649AFIL.-008139649                         
65501753550     05062021060142300038DEP ELE PAG TC                          +000000003480000000005863961108180414AFIL.-008180414                         
65501753550     05062021060142300038DEP ELE PAG TC                          +000000002332000000005887281108376766AFIL.-008376766                         
65501753550     05062021060142300038DEP ELE PAG TC                          +000000053840500000006425686109180159AFIL.-009180159                         
65501753550     05062021060142300038DEP ELE PAG TC                          +000000039527000000006820956109181868AFIL.-009181868                         
65501753550     05062021060142300038DEP ELE PAG TC                          +000000073887000000007559826109270083AFIL.-009270083                         
65501753550     05062021060142302677DO CO DE PAGTC                          -000000000274870000007557077405256409AFIL.-005256409                         
65501753550     05062021060142302571DOM IVA COMIS                           -000000000043990000007556637505256409AFIL.-005256409                         
65501753550     05062021060142302677DO CO DE PAGTC                          -000000000137450000007555263005688445AFIL.-005688445                         
65501753550     05062021060142302571DOM IVA COMIS                           -000000000021980000007555043205688445AFIL.-005688445                         
65501753550     05062021060142302677DO CO DE PAGTC                          -000000000156880000007553474405688452AFIL.-005688452                         
65501753550     05062021060142302571DOM IVA COMIS                           -000000000025110000007553223305688452AFIL.-005688452                         
65501753550     05062021060142302677DO CO DE PAGTC                          -000000000143040000007551792907273370AFIL.-007273370                         
65501753550     05062021060142302571DOM IVA COMIS                           -000000000022870000007551564207273370AFIL.-007273370                         
65501753550     05062021060142302677DO CO DE PAGTC                          -000000000765720000007543907008139649AFIL.-008139649                         
65501753550     05062021060142302571DOM IVA COMIS                           -000000000122550000007542681508139649AFIL.-008139649                         
65501753550     05062021060142302677DO CO DE PAGTC                          -000000000060710000007542074408180414AFIL.-008180414                         
65501753550     05062021060142302571DOM IVA COMIS                           -000000000009700000007541977408180414AFIL.-008180414                         
65501753550     05062021060142302677DO CO DE PAGTC                          -000000000040260000007541574808376766AFIL.-008376766                         
65501753550     05062021060142302571DOM IVA COMIS                           -000000000006430000007541510508376766AFIL.-008376766                         
65501753550     05062021060142302677DO CO DE PAGTC                          -000000000943200000007532078509180159AFIL.-009180159                         
65501753550     05062021060142302571DOM IVA COMIS                           -000000000150900000007530569509180159AFIL.-009180159                         
65501753550     05062021060142302677DO CO DE PAGTC                          -000000000692610000007523643409181868AFIL.-009181868                         
65501753550     05062021060142302571DOM IVA COMIS                           -000000000110810000007522535309181868AFIL.-009181868                         
65501753550     05062021060142302677DO CO DE PAGTC                          -000000001315610000007509379209270083AFIL.-009270083                         
65501753550     05062021060142302571DOM IVA COMIS                           -000000000210590000007507273309270083AFIL.-009270083                         
65501753550     05062021081771370000DEP EN EFECTIV                          +00000000000500000000750732330000000002052021CAPUV1                          
65501753550     05062021081771370000DEP EN EFECTIV                          +00000032021900000001070951330000000003052021CAPUT5                          
65501753550     05062021081771370000DEP EN EFECTIV                          +00000035436400000001425315330000000002052021CAPUT6                          
65501753550     05062021081771370000DEP EN EFECTIV                          +00000005100000000001476315330000000004052021CAPUT3                          
65501753550     05062021081771370000DEP EN EFECTIV                          +00000000009300000001476408330000000003052021CAPUV0                          
65501753550     05062021081771370000DEP EN EFECTIV                          +00000004366000000001520068330000000003052021CAPUM2                          
65501753550     05062021081771370000DEP EN EFECTIV                          +00000004300000000001563068330000000002052021CAPUM1                          
65501753550     05062021084909810790PAGO TRAN SPEI                          -000000038744000000015243243304920429FF AMP PUE                   
65501753550     05062021084909810681CGO TRANS ELEC                          -000000010327000000015139973307356153FF AMP MEX                              
65501753550     05062021111768780000DEP EN EFECTIV                          +00000000000100000001513998330000000004052021CARV4                           
65501753550     05062021111768780000DEP EN EFECTIV                          +00000002300000000001536998330000000004022021CARM4                           
65501753550     05062021111768780000DEP EN EFECTIV                          +00000000700000000001543998330000000003052021CARM8                           
65501753550     05062021111768780000DEP EN EFECTIV                          +00000008143150000001625429830000000004052021CART2                           
65501753550     05062021111768780000DEP EN EFECTIV                          +00000000010800000001625537830000000003052021CARV8                           
65501753550     05062021111768780000DEP EN EFECTIV                          +00000009078300000001716320830000000003052021CART6                           
65501753550     05062021120677011156ABONO TRANSFER                          +000000116385250000018327060803658946TRANSFERENCIA ELECTRONICA                0000001 TRANSFERENCIA E
65501753550     05062021131674650291AB TRANSF SPEI                          +00000001571700000001848423080533899524 A 300421                             368064  002180056675795560
65501753550     05062021140271370000DEP EN EFECTIV                          +00000000453200000001852955080000000027042021PSDGT1                          
65501753550     05062021140271370000DEP EN EFECTIV                          +00000000552200000001858477080000000028042021PSDGT0                          
65501753550     05062021140271370000DEP EN EFECTIV                          +00000000385400000001862331080000000029042021PSDGT9                          
65501753550     05062021140271370000DEP EN EFECTIV                          +00000000450000000001866831080000000030042021PSDGM2                          
65501753550     05062021140271370000DEP EN EFECTIV                          +00000000346900000001870300080000000030042021PSDGT6                          
65501753550     05062021140271370000DEP EN EFECTIV                          +00000000398300000001874283080000000001052021PSDGT0                          
65501753550     05062021140271370000DEP EN EFECTIV                          +00000000837800000001882661080000000002052021PSDGT9                          
65501753550     05062021140271370000DEP EN EFECTIV                          +00000000267200000001885333080000000003052021PSDGT8                          
65501753550     05062021142009810790PAGO TRAN SPEI                          -000000370000000000015153330805457575TRASPASO 3550 A 9649         
65501753550     05062021142009810681CGO TRANS ELEC                          -000000004837000000015104960804380347012210411023962105140000048372          
65501753550     05062021142009810681CGO TRANS ELEC                          -000000000755000000015097410804380348012219012708522105140000007559          
65501753550     05062021142009810681CGO TRANS ELEC                          -000000027634000000014821070804380349012560812022192105140000276340          
65501753550     05062021142009810681CGO TRANS ELEC                          -000000008986000000014731210804380350012561910051502105140000089867          
65501753550     05062021142009810681CGO TRANS ELEC                          -000000047084000000014260370804380351012569304112692105140000470844          
65501753550     05062021142009810681CGO TRANS ELEC                          -00000025071294000001175324140438035470020002604227346252                    
65501753550     05062021142209810790PAGO TRAN SPEI                          -00000000503056000001170293580546192314241                        
65501753550     05062021142209810790PAGO TRAN SPEI                          -00000000417770000001166115880546193114248 FINIQUITO              
65501753550     05062021142209810790PAGO TRAN SPEI                          -00000002092500000001145190880546199314242                        
65501753550     05062021142574650291AB TRANSF SPEI                          +000000000400000000011455908805466912PENSION 4 PTE ANG GTZ                   0605210 012650014932485428
65501753550     05062021143474650291AB TRANSF SPEI                          +000000000400000000011459908805481629PAGO                                    0605210 012650014610005272
65501753550     05062021152674650291AB TRANSF SPEI                          +000000000400000000011463908805592565PENSION4PTE JATL                        60521   002650900519912726
65501753550     05062021153974650291AB TRANSF SPEI                          +000000009728000000011561188805615966PAGO REPORTE ESTRELLA ROJA ABRIL 2021   0605202 030650900020593224
65501753550     05062021172674650291AB TRANSF SPEI                          +000000075701420000012318203005795063Transferencias PayU4294016              4294016 012180001908758138
65501753550     05062021172674650291AB TRANSF SPEI                          +000000000635790000012324560905795085Transferencias PayU4295966              4295966 012180001908758138
65501753550     05062021172674650291AB TRANSF SPEI                          +000000180819780000014132758705795138Transferencias PayU4295013              4295013 012180001908758138
65501753550     05062021172674650291AB TRANSF SPEI                          +000000062220860000014754967305795151Transferencias PayU4295014              4295014 012180001908758138
65501753550     05062021172674650291AB TRANSF SPEI                          +000000147276890000016227736205795309Transferencias PayU4293803              4293803 012180001908758138
