65503200995     05052021060142300038DEP ELE PAG TC                          +000000006187000000000137606707269614AFIL.-007269614                         
65503200995     05052021060142302677DO CO DE PAGTC                          -000000000115410000000136452607269614AFIL.-007269614                         
65503200995     05052021060142302571DOM IVA COMIS                           -000000000018480000000136267807269614AFIL.-007269614                         
65503200995     05052021060201140247LIQ A CH IN CR                          +000018280656710000182942834900000743                                        
65503200995     05052021171874650291AB TRANSF SPEI                          +000000008711240000183029947304467205Transferencias PayU4292038              4292038 012180001908758138
65503200995     05052021171825170742CGO AP INV CRE                          -000018290000000000000129947302517404066503200995                            
65503200995     05052021174552342082DEP EFECT ATM                           +000000001960000000000149547300499880                                        
