65501753550     05032021014405600060AB INTERESES                            +000000000000010000004777730300000000                   01-04-2021 AL 30-04-2021
65501753550     05032021014405600570RETENCION ISR                           -000000000000010000004777730200000000                   01-04-2021 AL 30-04-2021
65501753550     05032021043674650291AB TRANSF SPEI                          +000000000255380000004780284009789940AMEXCO SE 9359908044                    9908044 002180002346330664
65501753550     05032021043774650291AB TRANSF SPEI                          +000000000152210000004781806109790122AMEXCO SE 9350058864                    58864   002180002346330664
65501753550     05032021044674650291AB TRANSF SPEI                          +000000001904760000004800853709791095AMEXCO SE 9350021532                    21532   002180002346330664
65501753550     05032021044974650291AB TRANSF SPEI                          +000000000793640000004808790109791322AMEXCO SE 9350060670                    60670   002180002346330664
65501753550     05032021060242300038DEP ELE PAG TC                          +000000006932000000004878110105256409AFIL.-005256409                         
65501753550     05032021060242300038DEP ELE PAG TC                          +000000000858000000004886690105688445AFIL.-005688445                         
65501753550     05032021060242300038DEP ELE PAG TC                          +000000004972820000004936418305688452AFIL.-005688452                         
65501753550     05032021060242300038DEP ELE PAG TC                          +000000019135000000005127768307273370AFIL.-007273370                         
65501753550     05032021060242300038DEP ELE PAG TC                          +000000052739000000005655158308139649AFIL.-008139649                         
65501753550     05032021060242300038DEP ELE PAG TC                          +000000004090000000005696058308180414AFIL.-008180414                         
65501753550     05032021060242300038DEP ELE PAG TC                          +000000003074000000005726798308376766AFIL.-008376766                         
65501753550     05032021060242300038DEP ELE PAG TC                          +000000105511500000006781913309180159AFIL.-009180159                         
65501753550     05032021060242300038DEP ELE PAG TC                          +000000059922000000007381133309181868AFIL.-009181868                         
65501753550     05032021060242300038DEP ELE PAG TC                          +000000055667000000007937803309270083AFIL.-009270083                         
65501753550     05032021060242300038DEP ELE PAG TC                          +000000000240000000007940203309627191AFIL.-009627191                         
65501753550     05032021060242300038DEP ELE PAG TC                          +000000006931000000008009513305256409AFIL.-005256409                         
65501753550     05032021060242300038DEP ELE PAG TC                          +000000007662000000008086133305688445AFIL.-005688445                         
65501753550     05032021060242300038DEP ELE PAG TC                          +000000010788000000008194013307273370AFIL.-007273370                         
65501753550     05032021060242300038DEP ELE PAG TC                          +000000041412000000008608133308139649AFIL.-008139649                         
65501753550     05032021060242300038DEP ELE PAG TC                          +000000012425000000008732383308180414AFIL.-008180414                         
65501753550     05032021060242300038DEP ELE PAG TC                          +000000002156000000008753943308376766AFIL.-008376766                         
65501753550     05032021060242300038DEP ELE PAG TC                          +000000093115000000009685093309180159AFIL.-009180159                         
65501753550     05032021060242300038DEP ELE PAG TC                          +000000133142000000011016513309181868AFIL.-009181868                         
65501753550     05032021060242300038DEP ELE PAG TC                          +000000079719500000011813708309270083AFIL.-009270083                         
65501753550     05032021060242300038DEP ELE PAG TC                          +000000000320000000011816908309627191AFIL.-009627191                         
65501753550     05032021060242300038DEP ELE PAG TC                          +000000007493000000011891838305256409AFIL.-005256409                         
65501753550     05032021060242300038DEP ELE PAG TC                          +000000007316000000011964998305688445AFIL.-005688445                         
65501753550     05032021060242300038DEP ELE PAG TC                          +000000017032450000012135322805688452AFIL.-005688452                         
65501753550     05032021060242300038DEP ELE PAG TC                          +000000010601000000012241332807273370AFIL.-007273370                         
65501753550     05032021060242300038DEP ELE PAG TC                          +000000043988000000012681212808139649AFIL.-008139649                         
65501753550     05032021060242300038DEP ELE PAG TC                          +000000011052000000012791732808180414AFIL.-008180414                         
65501753550     05032021060242300038DEP ELE PAG TC                          +000000000941000000012801142808376766AFIL.-008376766                         
65501753550     05032021060242300038DEP ELE PAG TC                          +000000089950000000013700642809180159AFIL.-009180159                         
65501753550     05032021060242300038DEP ELE PAG TC                          +000000128497000000014985612809181868AFIL.-009181868                         
65501753550     05032021060242300038DEP ELE PAG TC                          +000000079563000000015781242809270083AFIL.-009270083                         
65501753550     05032021060242302677DO CO DE PAGTC                          -000000000122570000015780017105256409AFIL.-005256409                         
65501753550     05032021060242302571DOM IVA COMIS                           -000000000019610000015779821005256409AFIL.-005256409                         
65501753550     05032021060242302677DO CO DE PAGTC                          -000000000015150000015779669505688445AFIL.-005688445                         
65501753550     05032021060242302571DOM IVA COMIS                           -000000000002410000015779645405688445AFIL.-005688445                         
65501753550     05032021060242302677DO CO DE PAGTC                          -000000000086750000015778777905688452AFIL.-005688452                         
65501753550     05032021060242302571DOM IVA COMIS                           -000000000013890000015778639005688452AFIL.-005688452                         
65501753550     05032021060242302677DO CO DE PAGTC                          -000000000333180000015775307207273370AFIL.-007273370                         
65501753550     05032021060242302571DOM IVA COMIS                           -000000000053310000015774774107273370AFIL.-007273370                         
65501753550     05032021060242302677DO CO DE PAGTC                          -000000000952590000015765248208139649AFIL.-008139649                         
65501753550     05032021060242302571DOM IVA COMIS                           -000000000152440000015763723808139649AFIL.-008139649                         
65501753550     05032021060242302677DO CO DE PAGTC                          -000000000070060000015763023208180414AFIL.-008180414                         
65501753550     05032021060242302571DOM IVA COMIS                           -000000000011210000015762911108180414AFIL.-008180414                         
65501753550     05032021060242302677DO CO DE PAGTC                          -000000000053060000015762380508376766AFIL.-008376766                         
65501753550     05032021060242302571DOM IVA COMIS                           -000000000008470000015762295808376766AFIL.-008376766                         
65501753550     05032021060242302677DO CO DE PAGTC                          -000000001833770000015743958109180159AFIL.-009180159                         
65501753550     05032021060242302571DOM IVA COMIS                           -000000000293380000015741024309180159AFIL.-009180159                         
65501753550     05032021060242302677DO CO DE PAGTC                          -000000001038620000015730638109181868AFIL.-009181868                         
65501753550     05032021060242302571DOM IVA COMIS                           -000000000166170000015728976409181868AFIL.-009181868                         
65501753550     05032021060242302677DO CO DE PAGTC                          -000000000986220000015719114209270083AFIL.-009270083                         
65501753550     05032021060242302571DOM IVA COMIS                           -000000000157900000015717535209270083AFIL.-009270083                         
65501753550     05032021060242302677DO CO DE PAGTC                          -000000000004560000015717489609627191AFIL.-009627191                         
65501753550     05032021060242302571DOM IVA COMIS                           -000000000000730000015717482309627191AFIL.-009627191                         
65501753550     05032021060242302677DO CO DE PAGTC                          -000000000123770000015716244605256409AFIL.-005256409                         
65501753550     05032021060242302571DOM IVA COMIS                           -000000000019810000015716046505256409AFIL.-005256409                         
65501753550     05032021060242302677DO CO DE PAGTC                          -000000000140060000015714645905688445AFIL.-005688445                         
65501753550     05032021060242302571DOM IVA COMIS                           -000000000022400000015714421905688445AFIL.-005688445                         
65501753550     05032021060242302677DO CO DE PAGTC                          -000000000188390000015712538007273370AFIL.-007273370                         
65501753550     05032021060242302571DOM IVA COMIS                           -000000000030130000015712236707273370AFIL.-007273370                         
65501753550     05032021060242302677DO CO DE PAGTC                          -000000000741440000015704822308139649AFIL.-008139649                         
65501753550     05032021060242302571DOM IVA COMIS                           -000000000118680000015703635508139649AFIL.-008139649                         
65501753550     05032021060242302677DO CO DE PAGTC                          -000000000214440000015701491108180414AFIL.-008180414                         
65501753550     05032021060242302571DOM IVA COMIS                           -000000000034280000015701148308180414AFIL.-008180414                         
65501753550     05032021060242302677DO CO DE PAGTC                          -000000000036950000015700778808376766AFIL.-008376766                         
65501753550     05032021060242302571DOM IVA COMIS                           -000000000005880000015700720008376766AFIL.-008376766                         
65501753550     05032021060242302677DO CO DE PAGTC                          -000000001622270000015684497309180159AFIL.-009180159                         
65501753550     05032021060242302571DOM IVA COMIS                           -000000000259560000015681901709180159AFIL.-009180159                         
65501753550     05032021060242302677DO CO DE PAGTC                          -000000002325430000015658647409181868AFIL.-009181868                         
65501753550     05032021060242302571DOM IVA COMIS                           -000000000372070000015654926709181868AFIL.-009181868                         
65501753550     05032021060242302677DO CO DE PAGTC                          -000000001425540000015640671309270083AFIL.-009270083                         
65501753550     05032021060242302571DOM IVA COMIS                           -000000000228210000015638389209270083AFIL.-009270083                         
65501753550     05032021060242302677DO CO DE PAGTC                          -000000000005440000015638334809627191AFIL.-009627191                         
65501753550     05032021060242302571DOM IVA COMIS                           -000000000000870000015638326109627191AFIL.-009627191                         
65501753550     05032021060242302677DO CO DE PAGTC                          -000000000156410000015636762005256409AFIL.-005256409                         
65501753550     05032021060242302571DOM IVA COMIS                           -000000000025020000015636511805256409AFIL.-005256409                         
65501753550     05032021060242302680DOM CUOTA AFIL                          -000000000299000000015633521805256409AFIL.-005256409                         
65501753550     05032021060242302571DOM IVA COMIS                           -000000000047840000015633043405256409AFIL.-005256409                         
65501753550     05032021060242302679DOM CO USO TPV                          -000000000900000000015624043405256409AFIL.-005256409                         
65501753550     05032021060242302571DOM IVA COMIS                           -000000000144000000015622603405256409AFIL.-005256409                         
65501753550     05032021060242302677DO CO DE PAGTC                          -000000000132480000015621278605688445AFIL.-005688445                         
65501753550     05032021060242302571DOM IVA COMIS                           -000000000021180000015621066805688445AFIL.-005688445                         
65501753550     05032021060242302680DOM CUOTA AFIL                          -000000000299000000015618076805688445AFIL.-005688445                         
65501753550     05032021060242302571DOM IVA COMIS                           -000000000047840000015617598405688445AFIL.-005688445                         
65501753550     05032021060242302677DO CO DE PAGTC                          -000000000296120000015614637205688452AFIL.-005688452                         
65501753550     05032021060242302571DOM IVA COMIS                           -000000000047380000015614163405688452AFIL.-005688452                         
65501753550     05032021060242302680DOM CUOTA AFIL                          -000000000299000000015611173405688452AFIL.-005688452                         
65501753550     05032021060242302571DOM IVA COMIS                           -000000000047840000015610695005688452AFIL.-005688452                         
65501753550     05032021060242302677DO CO DE PAGTC                          -000000000185590000015608839107273370AFIL.-007273370                         
65501753550     05032021060242302571DOM IVA COMIS                           -000000000029690000015608542207273370AFIL.-007273370                         
65501753550     05032021060242302680DOM CUOTA AFIL                          -000000000299000000015605552207273370AFIL.-007273370                         
65501753550     05032021060242302571DOM IVA COMIS                           -000000000047840000015605073807273370AFIL.-007273370                         
65501753550     05032021060242302677DO CO DE PAGTC                          -000000000780290000015597270908139649AFIL.-008139649                         
65501753550     05032021060242302571DOM IVA COMIS                           -000000000124870000015596022208139649AFIL.-008139649                         
65501753550     05032021060242302677DO CO DE PAGTC                          -000000000193500000015594087208180414AFIL.-008180414                         
65501753550     05032021060242302571DOM IVA COMIS                           -000000000030930000015593777908180414AFIL.-008180414                         
65501753550     05032021060242302677DO CO DE PAGTC                          -000000000016300000015593614908376766AFIL.-008376766                         
65501753550     05032021060242302571DOM IVA COMIS                           -000000000002590000015593589008376766AFIL.-008376766                         
65501753550     05032021060242302677DO CO DE PAGTC                          -000000001557580000015578013209180159AFIL.-009180159                         
65501753550     05032021060242302571DOM IVA COMIS                           -000000000249230000015575520909180159AFIL.-009180159                         
65501753550     05032021060242302680DOM CUOTA AFIL                          -000000000299000000015572530909180159AFIL.-009180159                         
65501753550     05032021060242302571DOM IVA COMIS                           -000000000047840000015572052509180159AFIL.-009180159                         
65501753550     05032021060242302677DO CO DE PAGTC                          -000000002236790000015549684609181868AFIL.-009181868                         
65501753550     05032021060242302571DOM IVA COMIS                           -000000000357850000015546106109181868AFIL.-009181868                         
65501753550     05032021060242302677DO CO DE PAGTC                          -000000001431620000015531789909270083AFIL.-009270083                         
65501753550     05032021060242302571DOM IVA COMIS                           -000000000229220000015529497709270083AFIL.-009270083                         
65501753550     05032021060242302680DOM CUOTA AFIL                          -000000000299000000015526507709270083AFIL.-009270083                         
65501753550     05032021060242302571DOM IVA COMIS                           -000000000047840000015526029309270083AFIL.-009270083                         
65501753550     05032021081671370000DEP EN EFECTIV                          +00000030768000000001860282930000000001052021CAPUT6                          
65501753550     05032021081671370000DEP EN EFECTIV                          +00000002980000000001890082930000000029042021CAPUM1                          
65501753550     05032021081671370000DEP EN EFECTIV                          +00000025384500000002143927930000000029042021CAPUT5                          
65501753550     05032021081671370000DEP EN EFECTIV                          +00000000070500000002144632930000000030042021CAPUV8                          
65501753550     05032021081671370000DEP EN EFECTIV                          +00000004012000000002184752930000000030042021CAPUM8                          
65501753550     05032021081671370000DEP EN EFECTIV                          +00000000002400000002184776930000000029042021CAPUV1                          
65501753550     05032021081671370000DEP EN EFECTIV                          +00000028573300000002470509930000000030042021CAPUT2                          
65501753550     05032021081671370000DEP EN EFECTIV                          +00000000004500000002470554930000000001052021CAPUV2                          
65501753550     05032021081671370000DEP EN EFECTIV                          +00000002522000000002495774930000000001052021CAPUM2                          
65501753550     05032021081671370000DEP EN EFECTIV                          +00000000079300000002496567930000000028042021CAPSETEXT7                      
65501753550     05032021081671370000DEP EN EFECTIV                          +00000000169900000002498266930000000001052021CAPSETEX                        
65501753550     05032021081671370000DEP EN EFECTIV                          +00000000001000000002498276930000000030042021CAPSETEXT4                      
65501753550     05032021101871600000DEP EN EFECTIV                          +00000000010800000002498384930000000029042021SMAT                            
65501753550     05032021101871600000DEP EN EFECTIV                          +00000002951500000002527899930000000028042021SMAT                            
65501753550     05032021101871600000DEP EN EFECTIV                          +00000002525400000002553153930000000029042021SMAT                            
65501753550     05032021101871600000DEP EN EFECTIV                          +00000004674300000002599896930000000027042021SMAT                            
65501753550     05032021103674650291AB TRANSF SPEI                          +000000000400000000026002969301184486pension4pte evf                         0210503 072650003224221396
65501753550     05032021110174650291AB TRANSF SPEI                          +000000000400000000026006969301262263pension4pte ia                          0210503 072650003224221396
65501753550     05032021120268780000DEP EN EFECTIV                          +00000000700000000002607696930000000030042021CARM9                           
65501753550     05032021120268780000DEP EN EFECTIV                          +00000009991500000002707611930000000030042021CART7                           
65501753550     05032021120268780000DEP EN EFECTIV                          +00000006894600000002776557930000000028042021CART6                           
65501753550     05032021120268780000DEP EN EFECTIV                          +00000006658250000002843140430000000029042021CART3                           
65501753550     05032021120268780000DEP EN EFECTIV                          +00000001100000000002854140430000000029042021CARM5                           
65501753550     05032021120268780000DEP EN EFECTIV                          +00000000005400000002854194430000000028042021CARV7                           
65501753550     05032021120268780000DEP EN EFECTIV                          +00000000800000000002862194430000000028042021CARM7                           
65501753550     05032021120268780000DEP EN EFECTIV                          +00000000001200000002862206430000000030042021CARV9                           
65501753550     05032021130609810681CGO TRANS ELEC                          -000000004500000000028577064300496427MORRALLA PSD                            
65501753550     05032021130609810681CGO TRANS ELEC                          -00000000087000000002856836430523072213125080501031023214                    
65501753550     05032021174074650291AB TRANSF SPEI                          +000000174508210000030313446402024677Transferencias PayU4288343              4288343 012180001908758138
65501753550     05032021174074650291AB TRANSF SPEI                          +000000064787900000030961325402024722Transferencias PayU4288433              4288433 012180001908758138
65501753550     05032021202901140713PAG DOM COMEPA                          -0000000333211600000306281138000000004187040     RFC VLE060918B86          0,000,032.97VOLKSWAGEN LEASING
