65502328285     05072021050001140247LIQ A CH IN CR                          +000001000035930000012086068200000758                                                                                                                                                                                                                                                                                                                                                      
65502328285     05072021111668780000DEP EN EFECTIV                          +00000000032500000001208931820000000002052021DRIVER0                                                                                                                                                                                                                                                                                                                                       
65502328285     05072021111668780000DEP EN EFECTIV                          +00000001907500000001228006820000000005052021TAPOT0                                                                                                                                                                                                                                                                                                                                        
65502328285     05072021111668780000DEP EN EFECTIV                          +00000002045700000001248463820000000004052021TAPOT3                                                                                                                                                                                                                                                                                                                                        
65502328285     05072021111668780000DEP EN EFECTIV                          +00000002273400000001271197820000000003052021TAPOT7                                                                                                                                                                                                                                                                                                                                        
65502328285     05072021111668780000DEP EN EFECTIV                          +00000004176600000001312963820000000004052021TAPORT                                                                                                                                                                                                                                                                                                                                        
65502328285     05072021111668780000DEP EN EFECTIV                          +00000004762000000001360583820000000003052021TAPORT                                                                                                                                                                                                                                                                                                                                        
65502328285     05072021111668780000DEP EN EFECTIV                          +00000004131600000001401899820000000005052021TAPORT                                                                                                                                                                                                                                                                                                                                        
65502328285     05072021121674650291AB TRANSF SPEI                          +000000050000000000014518998206715884SC383                                   0000383 021830040522018459                        HSBC                                    014650655023282858  TERMINAL LAS TORRES PUEBLA SA DE CV     021830040522018459  MARIA ELVIA IRMA  MORALES CAZARES                                       TTP050504P51   MOCE5702163S   HSBC167295                    
65502328285     05072021123174650291AB TRANSF SPEI                          +000000001029000000014529288206748084VENTAS 16 AL 30 ABRILTORRES PUEBLA      70521   002180700666034560                        BANAMEX                                 014650655023282858  TERMINAL LAS TORRES PUEBLA SA DE CV     002180700666034560  RESERBUS S DE RL DE CV                                                  TTP050504P51   RES130904JH8   085903706750312719            
65502328285     05072021131609810790PAGO TRAN SPEI                          -000001380000000000000729288206855864TRASPASO 8285 A 1857 REF 0000000                                                          BANAMEX                                 002650700533518571  TTP BANAMEX                             00142517065502328285TERMINAL LAS TORRES PUEBLA SA DE CV                                                    TTP050504P51   2021050740014 BET0000468558640
65502328285     05072021132109810790PAGO TRAN SPEI                          -0000000200002300000005292859068710233293 REF 0000000                                                                          BANAMEX                                 002685701726421261  ENRIQUE LOPEZ URQUIZA                   00142517065502328285TERMINAL LAS TORRES PUEBLA SA DE CV                                                    TTP050504P51   2021050740014 BET0000468710230
65502328285     05072021132109810790PAGO TRAN SPEI                          -0000000200002100000003292838068711883292 REF 0000000                                                                          INBURSA                                 036180500163831814  INMOBILIARIA DOS CAMINOS                00142517065502328285TERMINAL LAS TORRES PUEBLA SA DE CV                                                    TTP050504P51   2021050740014 BET0000468711880
65502328285     05072021134871370000DEP EN EFECTIV                          +00000001737700000000050305380000000004052021CAPSETEXT5                                                                                                                                                                                                                                                                                                                                    
65502328285     05072021134871370000DEP EN EFECTIV                          +00000000100000000000051305380000000005052021CAPSETEXM                                                                                                                                                                                                                                                                                                                                     
65502328285     05072021134871370000DEP EN EFECTIV                          +00000000150000000000052805380000000004052021CAPSETEXM1                                                                                                                                                                                                                                                                                                                                    
65502328285     05072021134871370000DEP EN EFECTIV                          +00000000475000000000057555380000000005052021CAPSETEXT                                                                                                                                                                                                                                                                                                                                     
65502328285     05072021155174650291AB TRANSF SPEI                          +000000176831800000002343871807240252Transferencias PayU4298126              4298126 012180001908758138                        BBVA BANCOMER                           014650655023282858  TERMINAL LAS TORRES PUEBLA SA DE CV     012180001908758138  ONLINE LATIN AMERICA N PAYMENTS MEXICO S                                TTP050504P51   OLA1012082G0   002601002105070000441187      
65502328285     05072021173125170742CGO AP INV CRE                          -000000230000000000000043871802517810066502328285                                                                                                                                                                                                                                                                                                                                          
